ARM GAS  C:\Users\pc\AppData\Local\Temp\ccS8SMuV.s 			page 1


   1              		.cpu cortex-m3
   2              		.eabi_attribute 20, 1
   3              		.eabi_attribute 21, 1
   4              		.eabi_attribute 23, 3
   5              		.eabi_attribute 24, 1
   6              		.eabi_attribute 25, 1
   7              		.eabi_attribute 26, 1
   8              		.eabi_attribute 30, 2
   9              		.eabi_attribute 34, 1
  10              		.eabi_attribute 18, 4
  11              		.file	"chcore_v7m.c"
  12              		.section	.gnu.lto_.profile.6ed95b56,"",%progbits
  13 0000 789C6363 		.ascii	"x\234cc```\001bF\006C\031\000\000\366\000Y"
  13      60606001 
  13      62460643 
  13      190000F6 
  13      0059
  14              		.text
  15              		.section	.gnu.lto_.icf.6ed95b56,"",%progbits
  16 0000 789C6363 		.ascii	"x\234cc``\020a@\000f\206?\307\216\316\344c\276\376\364"
  16      60601061 
  16      40006686 
  16      3FC78ECE 
  16      E463BEFE 
  17 0015 DB5E3696 		.ascii	"\333^6\226\325\023?\234\343a\000\000jY\011\316"
  17      D5133F9C 
  17      E3610000 
  17      6A5909CE 
  18              		.text
  19              		.section	.gnu.lto_.jmpfuncs.6ed95b56,"",%progbits
  20 0000 789C6363 		.ascii	"x\234cc``\340e@\000f(\301\002\242\001\002c\000\036"
  20      6060E065 
  20      40006628 
  20      C102A201 
  20      0263001E 
  21              		.text
  22              		.section	.gnu.lto_.inline.6ed95b56,"",%progbits
  23 0000 789C6363 		.ascii	"x\234cc``pc@\000f\006\006~1F\006&\221\013=\214\014l"
  23      60607063 
  23      40006606 
  23      067E3146 
  23      0626910B 
  24 0018 0BE49940 		.ascii	"\013\344\231@\202L\334`\031N\016\240\004\317\203X\270"
  24      824CDC60 
  24      194E0EA0 
  24      04CF8358 
  24      B8
  25 0029 380B0317 		.ascii	"8\013\003\0277H\350L\004\\\210\221\013D\002\000\024"
  25      3748E84C 
  25      045C8891 
  25      0B440200 
  25      14
  26 003a 500702   		.ascii	"P\007\002"
  27              		.text
  28              		.section	.gnu.lto_.pureconst.6ed95b56,"",%progbits
  29 0000 789C6363 		.ascii	"x\234cc``\340\002bf\206]\214\314\273\030Yv1\002\000"
  29      6060E002 
ARM GAS  C:\Users\pc\AppData\Local\Temp\ccS8SMuV.s 			page 2


  29      6266865D 
  29      8CCCBB18 
  29      59763102 
  30 0015 0C38024C 		.ascii	"\0148\002L"
  31              		.text
  32              		.section	.gnu.lto__port_irq_epilogue.part.0.6ed95b56,"",%progbits
  33 0000 789C9D54 		.ascii	"x\234\235T\377OSW\024\277\347\335\373^KW0!\376\260%"
  33      FF4F5357 
  33      14BFE7DD 
  33      FB5E4B57 
  33      3021FEB0 
  34 0015 FE507E20 		.ascii	"\376P~ \306\304\370\266,\231\213\311L\034\211\313~h"
  34      C6C4F8B6 
  34      2C998BC9 
  34      4C1C89CB 
  34      7E68
  35 0027 5CE81F60 		.ascii	"\\\350\037`\266\007\216fB\233\266,\374\306\265P\251"
  35      B6078E66 
  35      429BB62C 
  35      FCC6B550 
  35      A9
  36 0038 42C862A4 		.ascii	"B\310b\244\272\346a;Ht_\302\266\316}\021\234\202\010"
  36      BAE6613B 
  36      48745FC2 
  36      B6CE7D11 
  36      9C8208
  37 004b A828A032 		.ascii	"\250(\24021Q\2638@\242\242\233#\314M\023a\347\334W\204"
  37      3151B338 
  37      40A2A29B 
  37      23CC4D13 
  37      61E7DC57 
  38 0060 6DD962D6 		.ascii	"m\331b\326\244\367\335{\3569\347s\316\347s\3363\030"
  38      A4F7DD7B 
  38      EE39E773 
  38      CEE773DE 
  38      3318
  39 0072 636FE88C 		.ascii	"co\350\214\015\342s+\376\301\305\300\370`\0247\006h"
  39      0DE2732B 
  39      FEC1C5C0 
  39      F8601437 
  39      0668
  40 0084 EAA9693C 		.ascii	"\352\251i<\271\226I\217\240\325\313A'\353.\267X\332"
  40      B996498F 
  40      A0D5CB41 
  40      27EB2EB7 
  40      58DA
  41 0096 E800B491 		.ascii	"\350\000\264\221n`\365\206\306\205\016\365\320\302\367"
  41      6E60F586 
  41      C6850EF5 
  41      D0C2F7
  42 00a5 73E86F9A 		.ascii	"s\350o\232\351\326\326\035\221\370\353;0\357\332-\023"
  42      E9D6D61D 
  42      91F8EB3B 
  42      30EFDA2D 
  42      13
  43 00b6 CFDB9CB1 		.ascii	"\317\333\234\261\024\376\351\007Ga\035C\267\311\334"
  43      14FEE907 
ARM GAS  C:\Users\pc\AppData\Local\Temp\ccS8SMuV.s 			page 3


  43      47611D43 
  43      B7C9DC
  44 00c5 425BA121 		.ascii	"B[\241!\310\016_\203\241\026@\373\245\306/m\336\314"
  44      C80E5F83 
  44      A11640FB 
  44      A5C62F6D 
  44      DECC
  45 00d7 6D0E20F0 		.ascii	"m\016 \360\370\353Hz\252\210\216\032\370\360\270\367"
  45      F8EB487A 
  45      AA888E1A 
  45      F8F0B8F7 
  46 00e7 DC74C72A 		.ascii	"\334t\307*\276\005(\303\335\336;\217\274\245\235R\306"
  46      BE0528C3 
  46      DDDE3B8F 
  46      BCA59D52 
  46      C6
  47 00f8 65DFC34C 		.ascii	"e\337\303Lqg\203<+\205\3159|\007\234\262~\013k\340\033"
  47      7167833C 
  47      2B85CD39 
  47      7C079CB2 
  47      7E0B6BE0 
  48 010d 58A35097 		.ascii	"X\243P\227\001\341\030\224:`\335\210\372\324\336\250"
  48      01E11894 
  48      3A60DD88 
  48      FAD4DEA8 
  49 011d EA7DF8F1 		.ascii	"\352}\370\361j\301\350\"\305\025\304L\363\340I\027\337"
  49      6AC1E822 
  49      C515C44C 
  49      F3E04917 
  49      DF
  50 012e AAF6BFCD 		.ascii	"\252\366\277\315\347\016\033y\270_>|\365\323k\267\245"
  50      E70E1B79 
  50      B85F3E7C 
  50      F5D36BB7 
  50      A5
  51 013f DC97049B 		.ascii	"\334\227\004\233\0138\376\237\200\337\023`\017\002\236"
  51      0B38FE9F 
  51      80DF1360 
  51      0F029E
  52 014e A0367101 		.ascii	"\2406q\001\3068Y\321'w\377\321)\225t\237\"\353pCB\365"
  52      C63859D1 
  52      2777FFD1 
  52      2995749F 
  52      22EB7043 
  53 0164 E0D0B232 		.ascii	"\340\320\2622\037\234\204R*\375\213\313\272\224\013"
  53      1F9C8452 
  53      2AFD8BCB 
  53      BA940B
  54 0173 8B4D525E 		.ascii	"\213MR^{\271\330\013\214\362h\214n\270Z\005\263\271"
  54      7BB9D80B 
  54      8CF2688C 
  54      6EB85A05 
  54      B3B9
  55 0185 AEE36230 		.ascii	"\256\343b0\226D\312I\243$\036\360\311\367pM=ga\327\344"
  55      9644CA49 
  55      A3241EF0 
  55      C9F7704D 
ARM GAS  C:\Users\pc\AppData\Local\Temp\ccS8SMuV.s 			page 4


  55      3D6761D7 
  56 019a EF2D0F86 		.ascii	"\357-\017\206\301\251\010\235\210\370Tk*#J\016AF\036"
  56      C1A9089D 
  56      88F8546B 
  56      2A234A0E 
  56      41461E
  57 01ad F4D9DC45 		.ascii	"\364\331\334E\035<\231LL\025\010\015\321{\241D\3654"
  57      1D3C994C 
  57      4C15080D 
  57      D17BA144 
  57      F534
  58 01bf 3479B4C7 		.ascii	"4y\264\307@\013\364\201H#G\014N\201`3\020\367\251\306"
  58      400BF481 
  58      4823470C 
  58      4E816033 
  58      10F7A9C6 
  59 01d3 B018B2E2 		.ascii	"\260\030\262\342\371fs\353`11\251\332gw!>\327\364\011"
  59      F96673EB 
  59      603131A9 
  59      DA677721 
  59      3ED7F409 
  60 01e7 27439A6B 		.ascii	"'C\232ky\037\237\272?F1\032z4\330\273\273\306+\034\027"
  60      791F9FBA 
  60      3F46311A 
  60      7A34D8BB 
  60      BBC62B1C 
  61 01fc 8E26841B 		.ascii	"\216&\204\033\377i \245;\303psqqq\025\364#\035\177\215"
  61      FF6920A5 
  61      3BC37073 
  61      71717115 
  61      F4231D7F 
  62 0211 E4947BFE 		.ascii	"\344\224{\376v{\302C6\214\231>2\327V@1\334\211A\223"
  62      767BC243 
  62      368C993E 
  62      32D75640 
  62      31DC8941 
  63 0226 FD20F9A3 		.ascii	"\375 \371\2437\013\207P,7&\206\323D*\332\317,\014\215"
  63      370B8750 
  63      2C372686 
  63      D3442ADA 
  63      CF2C0C8D 
  64 023a 70B38BA4 		.ascii	"p\263\213\244\317\356\260y\001\014@\026\332\324\240"
  64      CFEEB079 
  64      010C4016 
  64      DAD4A0
  65 0249 C2209834 		.ascii	"\302 \2304\215\267\036\217\251d\036@'7\014a\244\352"
  65      8DB71E8F 
  65      A9641E40 
  65      27370C61 
  65      A4EA
  66 025b E5C495D5 		.ascii	"\345\304\225\325N\245\202JX*\211r\316N\267\273y\007"
  66      4EA5824A 
  66      582A8972 
  66      CE4EB7BB 
  66      7907
  67 026d A89969F9 		.ascii	"\250\231i\371l\356s\236\237\231\211\2147-\373\032}4"
  67      6CEE739E 
ARM GAS  C:\Users\pc\AppData\Local\Temp\ccS8SMuV.s 			page 5


  67      9F99898C 
  67      372DFB1A 
  67      7D34
  68 027f 3067FE39 		.ascii	"0g\37690p\226\272\021l\026\342(\316\301\363\360\267"
  68      307096BA 
  68      116C16E2 
  68      28CEC1F3 
  68      F0B7
  69 0291 D13C30E1 		.ascii	"\321<0\341\321\311'?\236\332\312w\010\316!\033\303\244"
  69      D1C9273F 
  69      9EDACA77 
  69      08CE211B 
  69      C3A4
  70 02a3 E5304D17 		.ascii	"\3450M\027\260\034Ewd\276\372\303S\322\233\027\3649"
  70      B01C4577 
  70      64BEFAC3 
  70      53D29B17 
  70      F439
  71 02b5 0AE89A3A 		.ascii	"\012\350\232:.\335J\320\363yAo\244{\366{H\320\013$\250"
  71      2EDD4AD0 
  71      F379416F 
  71      A47BF67B 
  71      48D00B24 
  72 02ca C09B11F5 		.ascii	"\300\233\021\365\336u\346\342\027\274%\375+\247a\264"
  72      DE75E6E2 
  72      17BC25FD 
  72      2BA761B4 
  73 02da 35FE9157 		.ascii	"5\376\221W\005\217R0\214-)OZPe\354\0364d{\333^p\210"
  73      058F5230 
  73      8C2D294F 
  73      5A5065EC 
  73      1E34647B 
  74 02f2 D131A4BB 		.ascii	"\3211\244\273\373\336uW\375\023\351\266\2717\205<1\270"
  74      FBDE7557 
  74      FD13E9B6 
  74      B937853C 
  74      31B8
  75 0304 08F5389C 		.ascii	"\010\3658\234\205\354\0264^?=\000\313\256\251D\377\230"
  75      85EC1634 
  75      5E3F3D00 
  75      CBAEA944 
  75      FF98
  76 0316 8B98A606 		.ascii	"\213\230\246\006.\345I\331\2031\311\265\034\031\177"
  76      2EE549D9 
  76      8331C9B5 
  76      1C197F
  77 0325 DCD47E35 		.ascii	"\334\324~5\013y\216\237E\317\032\322\363\262\322\023"
  77      0B798E9F 
  77      45CF1AD2 
  77      F3B2D213 
  78 0335 88DE71A5 		.ascii	"\210\336q\245\347RAI\364\230\303\360\242\224\352\371"
  78      E7524149 
  78      F498C3F0 
  78      A294EAF9 
  79 0345 07AC8AD0 		.ascii	"\007\254\212\320\304S\264\373\377\003\355\3122\332\304"
  79      C453B4FB 
  79      FF03EDCA 
ARM GAS  C:\Users\pc\AppData\Local\Temp\ccS8SMuV.s 			page 6


  79      32DAC4
  80 0354 BFA1E137 		.ascii	"\277\241\3417\027\256\346\321t\3656\376\014\232\363"
  80      17AEE6D1 
  80      74F536FE 
  80      0C9AF3
  81 0363 654C6228 		.ascii	"eLb(\032\360\264\331\332d\226U\005\337\011\006b\265"
  81      1AF0B4D9 
  81      DA649655 
  81      05DF0906 
  81      62B5
  82 0375 15C190B3 		.ascii	"\025\301\220\263\337\026xi\343+f(jZ\241\352\352P\215"
  82      DF167869 
  82      E32B6628 
  82      6A5AA1EA 
  82      EA508D
  83 0388 190E4562 		.ascii	"\031\016EbQsK\271\277\314_gZUV(R\271\375\375\215\325"
  83      51734BB9 
  83      BFCC5F67 
  83      5A555628 
  83      52B9FDFD 
  84 039e 1B2C26AC 		.ascii	"\033,&\254X]\330\210TFkw\306^\177\226T\225u1\263\314"
  84      585DD888 
  84      54466B77 
  84      C65E7F96 
  84      54957531 
  85 03b4 1F783360 		.ascii	"\037x3`\006k\254\235\265\025\225\246U\035\015F\267\277"
  85      066BAC9D 
  85      B51595A6 
  85      551D0D46 
  85      B7BF
  86 03c6 6B591BAA 		.ascii	"kY\033\252X\241\277<\340+}q\275/\034\015{\030\177-\302"
  86      58A1BF3C 
  86      E02B7D71 
  86      BD2F1C0D 
  86      7B187F2D 
  87 03db 8A62A1F0 		.ascii	"\212b\241\360\266\035oEBV \366\266\365^\241?PN\227\353"
  87      B61D6F45 
  87      425620F6 
  87      B6F55EA1 
  87      3F504E97 
  88 03f0 D1CBC3B4 		.ascii	"\321\313\303\264\010\343\3210\373\023\245\312\357\203"
  88      08E3D130 
  88      FB13A5CA 
  88      EF83
  89              		.text
  90              		.section	.gnu.lto_SVC_Handler.6ed95b56,"",%progbits
  91 0000 789CA593 		.ascii	"x\234\245\223\357kSg\024\307\317\271\317\315MVS\225"
  91      EF6B5367 
  91      14C7CFB9 
  91      CFCD4D56 
  91      5395
  92 0012 BD138B24 		.ascii	"\275\023\213$Ha\202x\347\233)\203\011Z\030\372\"8\232"
  92      48618278 
  92      E79B2983 
  92      095A18FA 
  92      22389A
  93 0025 3F40EA35 		.ascii	"?@\3525\263a\2157$\251\324W^\223j\252\351D\246f]HWm"
ARM GAS  C:\Users\pc\AppData\Local\Temp\ccS8SMuV.s 			page 7


  93      B3618D37 
  93      24A9D457 
  93      5E936AAA 
  93      E944A666 
  94 003d 612B93B9 		.ascii	"a+\223\271\326ns\2555\275\253\263\365W\253\326\372f"
  94      D66E73AD 
  94      35BDABB3 
  94      F557ABD6 
  94      FA66
  95 004f 8CB1B55A 		.ascii	"\214\261\265Z\267*\272\225\375\022f\267s\236{\267\325"
  95      B72ABA95 
  95      FD1266B7 
  95      739E7BB7 
  95      D5
  96 0060 2A28EC42 		.ascii	"*(\354B\302\363<\347{\276\3179\237s\257\006\000\035"
  96      C2F33CE7 
  96      7BBECF39 
  96      9F73AF06 
  96      001D
  97 0072 2AC07204 		.ascii	"*\300r\004XJk\024\200\312\241Q\200=>\005\221\027\226"
  97      584A6B14 
  97      80CAA151 
  97      803D3E05 
  97      911796
  98 0085 0F61B782 		.ascii	"\017a\267\202\273\261Y\034\0218\230\235\352UV|h\321"
  98      BBB1591C 
  98      1138989D 
  98      EA55567C 
  98      68D1
  99 0097 63BFFBE7 		.ascii	"c\277\373\347\022\253\323\306\242\000\310\323\217\037"
  99      12ABD3C6 
  99      A200C8D3 
  99      8F1F
 100 00a5 ECC11540 		.ascii	"\354\301\025@\262\353\215]E\221\023E\201\250\322\366"
 100      B2EB8D5D 
 100      45911345 
 100      81A8D2F6 
 101 00b5 E791C2E4 		.ascii	"\347\221\302\344B\336*\030\240\355\201\213\267\332\027"
 101      42DE2A18 
 101      A0ED818B 
 101      B7DA17
 102 00c4 89F5C8CA 		.ascii	"\211\365\310\312\351\201\037\037\372+;,+m\331C-\313"
 102      E9811F1F 
 102      FA2B3B2C 
 102      2B6DD943 
 102      2DCB
 103 00d6 DA33D605 		.ascii	"\3323\326\005K-\012\201\237\243 W\374\014+\360S\254"
 103      4B2D0A81 
 103      9FA32057 
 103      FC0C2BF0 
 103      53AC
 104 00e8 90EE249F 		.ascii	"\220\356$\237\350\236=Z\256\251x\032+\235K\361\013\324"
 104      E89E3D5A 
 104      AEA9781A 
 104      2B9D4BF1 
 104      0BD4
 105 00fa 808A57F8 		.ascii	"\200\212W\370\210\004S\271\363%\257x]z\377\372K\367"
ARM GAS  C:\Users\pc\AppData\Local\Temp\ccS8SMuV.s 			page 8


 105      880453B9 
 105      F325AF78 
 105      5D7AFFFA 
 105      4BF7
 106 010c 079AEBFD 		.ascii	"\007\232\353\375\340\275\265\037}\375\203e\275\323D"
 106      E0BDB51F 
 106      7DFD8365 
 106      BDD344
 107 011b 05ABD8FB 		.ascii	"\005\253\330\373\244;\366a\345'c\036\333\232\375+K\315"
 107      A43BF661 
 107      E527631E 
 107      DB9AFD2B 
 107      4BCD
 108 012d 556487BF 		.ascii	"Ud\207\277-(^\204\242\360\220\222\334U\371\357\221B"
 108      2D285E84 
 108      A2F09092 
 108      DC55F9EF 
 108      9142
 109 013f 8026BA9D 		.ascii	"\200&\272\235\370X6\354\027\012\25726\334\305=\023\277"
 109      F85836EC 
 109      170AAF32 
 109      36DCC53D 
 109      13BF
 110 0151 37FF7409 		.ascii	"7\377t\011\377\255\264\321!\325\245m\224\225\346\005"
 110      FFADB4D1 
 110      21D5A56D 
 110      9495E605 
 111 0161 CEED828D 		.ascii	"\316\355\202\215\360\014j\330\317M\364;\235\034\342"
 111      F00C6AD8 
 111      CF4DF43B 
 111      9D1CE2
 112 0170 ECFCC17C 		.ascii	"\354\374\301|\233\032|\037\333\254\226@Qh\234\364hb"
 112      9B1A7C1F 
 112      DBAC9640 
 112      51689CF4 
 112      6862
 113 0182 EFE40BAA 		.ascii	"\357\344\013\252B\205\236\305\240\20414\321\323\247"
 113      42859EC5 
 113      A0843134 
 113      D1D3A7
 114 0191 D1099650 		.ascii	"\321\011\226P-\010\017E\006P\205)L\177'\213`C\276\202"
 114      2D080F45 
 114      06508529 
 114      4C7F278B 
 114      6043BE82 
 115 01a5 437C986B 		.ascii	"C|\230k\311\274\310E8\365Ocz&\273_\360AA\010W\023\220"
 115      C9BCC845 
 115      38F54F63 
 115      7A26BB5F 
 115      F0414108 
 116 01bc F1D39C23 		.ascii	"\361\323\234#H\221)\356\033\351\251p$t\203\230;J\304"
 116      489129EE 
 116      1BE9A970 
 116      24748398 
 116      3B4AC4
 117 01cf 00DA84EE 		.ascii	"\000\332\204\356\361,\325\361}\324\343w\262\220\217"
 117      F12CD5F1 
ARM GAS  C:\Users\pc\AppData\Local\Temp\ccS8SMuV.s 			page 9


 117      7DD4E377 
 117      B2908F
 118 01de FE9150FA 		.ascii	"\376\221P\372\360\335[\255>\321\216\022C\363\211\231"
 118      F0DD5BAD 
 118      3ED18E12 
 118      43F38999 
 119 01ee 93C29DCF 		.ascii	"\223\302\235\317o\333\013\226\335\030\340\331|\371\224"
 119      6FDB0B96 
 119      DD18E0D9 
 119      7CF994
 120 01fd D90CB239 		.ascii	"\331\014\2629\022\3404\001n\271<\037\360\341\222\306"
 120      12E03401 
 120      6EB93C1F 
 120      F0E192C6 
 121 020d 1297B132 		.ascii	"\022\227\2612\2071\3409\252\355+FK\177H\200\2739\271"
 121      8731E039 
 121      AAED2B46 
 121      4B7F4880 
 121      BB39B9
 122 0220 BDEDD41F 		.ascii	"\275\355\324\037e\301\001\227\257\227\023>\236<c\371"
 122      65C10197 
 122      AF97133E 
 122      9E3C63F9 
 123 0230 24DFF32E 		.ascii	"$\337\363.\337o\012}G\312\230\357\020\363\245\321\340"
 123      DF6F0A7D 
 123      47CA98EF 
 123      10F3A5D1 
 123      E0
 124 0241 B07C9D3B 		.ascii	"\260|\235;\272\323W\374\301\301\271\303\031=\230>\356"
 124      BAD357FC 
 124      C1C1B9C3 
 124      193D983E 
 124      EE
 125 0252 97C91738 		.ascii	"\227\311\0278\031/\342\177m\313\312h'\313\272\323\237"
 125      192FE27F 
 125      6DCBCA68 
 125      27CBBAD3 
 125      9F
 126 0263 1D4731E4 		.ascii	"\035G1\344\000\2707\325d\253.\200;\275/\265fro[\307"
 126      00B837D5 
 126      64AB2E80 
 126      3BBD2FB5 
 126      66726F5B 
 127 0278 D28B19C2 		.ascii	"\322\213\031\302\245\247@\270,\337\360\374\336\301\253"
 127      A5A740B8 
 127      2CDFF0FC 
 127      DEC1AB
 128 0287 5E9E804A 		.ascii	"^\236\200J\335\\\241\230\003\245k\354\011(\343\232\013"
 128      DD5CA198 
 128      03A56BEC 
 128      0928E39A 
 128      0B
 129 0298 44C0BCD0 		.ascii	"D\300\274\320d\357\332Nr\037\341\240:?8\335*\370*\300"
 129      64EFDA4E 
 129      721FE1A0 
 129      3A3F38DD 
 129      2AF82AC0 
ARM GAS  C:\Users\pc\AppData\Local\Temp\ccS8SMuV.s 			page 10


 130 02ac 510E7B1E 		.ascii	"Q\016{\036\203y\225\332\271\3060\25790s\312\263`^wa"
 130      837995DA 
 130      B9C630AF 
 130      393073CA 
 130      B3605E77 
 131 02c1 CEB67D5F 		.ascii	"\316\266}_Z\3000\307P\225e\003\336\2204;K\347n\373\203"
 131      5AC030C7 
 131      50956503 
 131      DE90343B 
 131      4BE76EFB 
 132 02d6 45C5C9F6 		.ascii	"E\305\311\366\261v\346\344\251\233\013d\366\270\244"
 132      B176E6E4 
 132      A99B0B64 
 132      F6B8A4
 133 02e5 79D3A529 		.ascii	"y\323\245)\021\000\334\347\227\371\304r\371\351\363"
 133      1100DCE7 
 133      97F9C472 
 133      F9E9F3
 134 02f4 D344B3A1 		.ascii	"\323D\263\241\017\220\364\353\214W\365\252\332\350\326"
 134      0F90F4EB 
 134      8C57F5AA 
 134      DAE8D6
 135 0303 683855BF 		.ascii	"h8U\277-j:\353\315\341\325k^\321\315\244n\230\261\230"
 135      2D6A3AEB 
 135      CDE1D56B 
 135      5ED1CDA4 
 135      6E98B198 
 136 0317 B9438F9B 		.ascii	"\271C\217\233\211TR__\035\252\0125\350F\255a&\"[v\256"
 136      8954525F 
 136      5F1DAA0A 
 136      35E846AD 
 136      6126225B 
 137 032d 89AD3240 		.ascii	"\211\2552@5R\015q-\021I\326\327\2456<\217U\244!\245"
 137      35520D71 
 137      2D1149D6 
 137      D7A5363C 
 137      8F55A421 
 138 0342 5785C29B 		.ascii	"W\205\302\233\302zt\207QW\277-\242\033\261d4\271e\273"
 138      C27A7487 
 138      5157BF2D 
 138      A21BB164 
 138      34B965BB 
 139 0356 61ACAA85 		.ascii	"a\254\252\205\362Pu8P\371\362\312@<\031/\003\361Z\002"
 139      F2507538 
 139      50F9F2CA 
 139      403C192F 
 139      03F15A02 
 140 036a 16A6CCF8 		.ascii	"\026\246\314\370\3467\337H\230F8Uc\274U\036\012Wsp%"
 140      E637DF48 
 140      98463855 
 140      63BC551E 
 140      0A577370 
 141 037f A9CA4049 		.ascii	"\251\312@I\200H\306\301\263\263\246\256>\362\277:\251"
 141      8048C6C1 
 141      B3B3A6AE 
 141      3EF2BF3A 
 141      A9
ARM GAS  C:\Users\pc\AppData\Local\Temp\ccS8SMuV.s 			page 11


 142 0390 85C5ECBC 		.ascii	"\205\305\354\274\265&\031\211'\242\354\016\336X$f&v"
 142      B5261989 
 142      27A2EC0E 
 142      DE582466 
 142      2676
 143 03a2 C1DF250F 		.ascii	"\301\337%\017\321Z"
 143      D15A
 144              		.text
 145              		.section	.gnu.lto__port_irq_epilogue.6ed95b56,"",%progbits
 146 0000 789CA553 		.ascii	"x\234\245S\355KSQ\030?\317=\367n\313i\3701\301\017\363"
 146      ED4B5351 
 146      183FCF3D 
 146      F76ECB69 
 146      F831C10F 
 147 0015 839020DD 		.ascii	"\203\220 \335\002\311\010\012\314O\021#p\177\200\350"
 147      02C9080A 
 147      CC4F1123 
 147      707F80E8 
 148 0025 75E4C039 		.ascii	"u\344\3009\331T\354\223gs:\315\202(]\262f\212~HA\323"
 148      D954EC93 
 148      67733ACD 
 148      82285DB2 
 148      668A7E48 
 149 003b EC75BEB5 		.ascii	"\354u\276\265\2647\363]\014B\351C\276E\266\242\027?"
 149      B437F35D 
 149      0C42E943 
 149      BE45B6A2 
 149      173F
 150 004d 2899F69C 		.ascii	"(\231\366\234\273e2\241\202\016\334{\317y\336~\317\363"
 150      BB6532A1 
 150      820EDC7B 
 150      CF79DE7E 
 150      CFF3
 151 005f 3BBFAB21 		.ascii	";\277\253!\204|\243\204,\341\367\004>\240! \\\236 \304"
 151      847CA384 
 151      2CE1F704 
 151      3EA02120 
 151      5C9E20C4 
 152 0073 A91304BA 		.ascii	"\251\023\004\272\224@X\214\330\221FX,\005\211\233A\014"
 152      9440588C 
 152      D8914658 
 152      2C05899B 
 152      410C
 153 0085 7F9D3A09 		.ascii	"\177\235:\011\200o\230\016H\271@E\011\312\341\"\255"
 153      806F980E 
 153      48B94045 
 153      09CAE122 
 153      AD
 154 0096 A330E459 		.ascii	"\2430\344Y\011\010)7\031\256\340\2655m\025\253<\340"
 154      09082937 
 154      19AEE0B5 
 154      356D15AB 
 154      3CE0
 155 00a8 47002F3E 		.ascii	"G\000/>|\301\035H!\030\266p{\253>N#\206\355p\227\343"
 155      7CC11D48 
 155      2118B670 
 155      7BAB3E4E 
ARM GAS  C:\Users\pc\AppData\Local\Temp\ccS8SMuV.s 			page 12


 155      2386ED70 
 156 00be E2A66B46 		.ascii	"\342\246kF\012\262\255m\017\013n\266B\343\031\235@\374"
 156      0AB2AD6D 
 156      0F0B6EB6 
 156      42E3199D 
 156      40FC
 157 00d0 14287F11 		.ascii	"\024(\177\021R\215\221\210\310\202\244\206\012|W\021"
 157      528D9188 
 157      C882A486 
 157      0A7C5711 
 158 00e0 242B20F0 		.ascii	"$+ \360b\323\356n?\255\245~*\200\210\307/\343\276\305"
 158      62D3EE6E 
 158      3FADA57E 
 158      2A8088C7 
 158      2FE3BEC5 
 159 00f4 FDFC48C1 		.ascii	"\375\374H\301\200\307w\375\236Y\240\031\300#C+\325A"
 159      80C777FD 
 159      9E59A019 
 159      C023432B 
 159      D541
 160 0106 31B99531 		.ascii	"1\271\2251\027\013n7\034\364U\324^b\315\256x?\025\341"
 160      170B6E37 
 160      1CF455D4 
 160      5E62CDAE 
 160      783F15E1 
 161 011a 01506C06 		.ascii	"\001Pl\006\356C\"\334\203\304p\263\017!\031\223<\357"
 161      EE4322DC 
 161      83C470B3 
 161      0F211993 
 161      3CEF
 162 012c D980C8EB 		.ascii	"\331\200\310\353\211`\200\000\372>\200k\241\257\256"
 162      89608000 
 162      FA3E806B 
 162      A1AFAE
 163 013b 7B067606 		.ascii	"{\006v\006q\253\363^]\327\252\263x)\220(\327\367\206"
 163      71ABF35E 
 163      5DD7AAB3 
 163      78299028 
 163      D7F786
 164 014e D426ACDE 		.ascii	"\324&\254\336\313\235B\264s\346:\345P\004\372\270\233"
 164      CB9D42B4 
 164      73E63AE5 
 164      5004FAB8 
 164      9B
 165 015f EEE607FA 		.ascii	"\356\346\007\372A\003\003\234\036|\001\2224\302A[\232"
 165      4103039C 
 165      1E7C0192 
 165      34C2415B 
 165      9A
 166 0170 7AD66392 		.ascii	"z\326c\222\346\240\2115\030\374T\342\011\235\213}L'"
 166      E6A08935 
 166      18FC54E2 
 166      099D8B7D 
 166      4C27
 167 0182 0AD8F420 		.ascii	"\012\330\364 $\021n\371\034\232\235\027\320\002\217"
 167      24116EF9 
 167      1C9A9D17 
ARM GAS  C:\Users\pc\AppData\Local\Temp\ccS8SMuV.s 			page 13


 167      D0028F
 168 0191 F0D678DB 		.ascii	"\360\326x\333\004\202*?m\203\303\313\261Io\"\331\032"
 168      04822A3F 
 168      6D83C3CB 
 168      B1496F22 
 168      D91A
 169 01a3 1EFBF556 		.ascii	"\036\373\365V\317+\275\232\375\230g\303\020\210H\256"
 169      CF2BBD9A 
 169      FD9867C3 
 169      108848AE 
 170 01b3 CBA05240 		.ascii	"\313\240R@\310*\014\365n\264l\277\006>\235\217\012\230"
 170      C82A0CF5 
 170      6EB46CBF 
 170      063E9D8F 
 170      0A98
 171 01c5 E1AD1C9A 		.ascii	"\341\255\034\232\324rR\264\352\254\316@\177\235\024"
 171      D47252B4 
 171      EAACCE40 
 171      7F9D14
 172 01d4 3EB2B90A 		.ascii	">\262\271\012\266\037M\253\323kSR3\334p\342\210\210"
 172      B61F4DAB 
 172      D36B5352 
 172      33DC70E2 
 172      8888
 173 01e6 A3832748 		.ascii	"\243\203'H\3550\357\003\235W.\264\267\307\310\235\314"
 173      ED30EF03 
 173      9D572EB4 
 173      B7C7C89D 
 173      CC
 174 01f7 EDE4BE7D 		.ascii	"\355\344\276}\360\024\232\241^\325\010<\003\031\001"
 174      F0149AA1 
 174      5ED5083C 
 174      031901
 175 0206 2B36ABDA 		.ascii	"+6\253\332\2450\034\015#~\034[nQ\257\001\200\305\303"
 175      A5301C0D 
 175      237E1C5B 
 175      6E51AF01 
 175      80C5C3
 176 0219 732CB40C 		.ascii	"s,\264\014\356\371\341\264H\020Ft\205\002\033q\341\010"
 176      EEF9E1B4 
 176      48104674 
 176      85021B71 
 176      E108
 177 022b 022F2297 		.ascii	"\002/\"\227X\203\204.%\240XB@U\241a` \020\232\327\226"
 177      5883842E 
 177      25A05842 
 177      4055A161 
 177      6020109A 
 178 0241 FF603A3F 		.ascii	"\377`:?\215\361R\021AG\240\034e\246W\343E\322\221\366"
 178      8DF15211 
 178      4147A01C 
 178      65A657E3 
 178      45D291F6 
 179 0255 5B5C5192 		.ascii	"[\\Q\222i\374\213d^\252\222\331aG\304NF\377$\031\237"
 179      69FC8B64 
 179      5EAA92D9 
 179      6147C44E 
ARM GAS  C:\Users\pc\AppData\Local\Temp\ccS8SMuV.s 			page 14


 179      46FF2419 
 180 026a 3E221969 		.ascii	">\"\031i\257d\216\265a\3651\356\324D;W\033)\207\"0\276"
 180      AF648EB5 
 180      61F531EE 
 180      D4443B57 
 180      1B298722 
 181 0280 573213A8 		.ascii	"W2\023\250\224I.\231\311]\222\331jz;\250\377\245\206"
 181      94492E99 
 181      C95D92D9 
 181      6A7A3BA8 
 181      FFA586
 182 0293 51550D53 		.ascii	"QU\015S\252\032\242\257~z\347\352y}\225\020)\362\273"
 182      AA1AA2AF 
 182      7E7AE7EA 
 182      797D9510 
 182      29F2BB
 183 02a6 7D4246D4 		.ascii	"}BF\324U\215\002G\023\236N*\307\345\314|K\256\305T\\"
 183      558D0247 
 183      139E4E2A 
 183      C7E5CC7C 
 183      4BAEC554 
 184 02bb 9267B185 		.ascii	"\222g\261\205\367gMG\322\217\3126\207\254\330\254V["
 184      F7674D47 
 184      D28FCA36 
 184      87ACD8AC 
 184      565B
 185 02cd A15C64B3 		.ascii	"\241\\d\263\027;\344\214,c\246\261LV\362\025\233\335"
 185      173BE48C 
 185      2C63A6B1 
 185      4C56F215 
 185      9BDD
 186 02df 9C5D9A6E 		.ascii	"\234]\232n=\244\020\2514\247\240\304\374_E\362\311\251"
 186      3DA410A9 
 186      34A7A0C4 
 186      FC5F45F2 
 186      C9A9
 187 02f1 7F493797 		.ascii	"\177I7\227\025\313\231F\323i\223l)T\012J\362\314\262"
 187      15CB9946 
 187      D369936C 
 187      29540A4A 
 187      F2CCB2
 188 0304 6275581C 		.ascii	"buX\034\331\347\024\005K\304\033MY\206\334\034\207\271"
 188      D9E71405 
 188      4BC41B4D 
 188      5986DC1C 
 188      87B9
 189 0316 C86E4935 		.ascii	"\310nI5$\037&\202\235h\255f\253\315~\236\374\004\235"
 189      241F2682 
 189      9D68AD66 
 189      ABCD7E9E 
 189      FC049D
 190 0329 7493AB   		.ascii	"t\223\253"
 191              		.text
 192              		.section	.gnu.lto_.symbol_nodes.6ed95b56,"",%progbits
 193 0000 789C6363 		.ascii	"x\234cc``\250\001b\006\246\243\214\365\014\014\023\316"
 193      6060A801 
 193      6206A6A3 
ARM GAS  C:\Users\pc\AppData\Local\Temp\ccS8SMuV.s 			page 15


 193      8CF50C0C 
 193      13CE
 194 0012 3130D433 		.ascii	"10\32430\356l9\330\340\300\300\300\270\237\261\236\021"
 194      30EE6C39 
 194      D8E0C0C0 
 194      C0B89FB1 
 194      9E11
 195 0024 2CC6C0D0 		.ascii	",\306\300\320\260\000$p\200\261\236\011Y\200i\017c="
 195      B0002470 
 195      80B19E09 
 195      5980690F 
 195      633D
 196 0036 335417C3 		.ascii	"3T\027\303\256\006G\240\310^\306z\026\024\021\306}\214"
 196      AE0647A0 
 196      C85EC67A 
 196      161411C6 
 196      7D8C
 197 0048 F5AC304D 		.ascii	"\365\2540M c\231\031X\031\226\264\277\221gfa`x\364R"
 197      20639919 
 197      581996B4 
 197      BF916766 
 197      616078F4 
 198 005d 870100FA 		.ascii	"\207\001\000\372\275\037\270"
 198      BD1FB8
 199              		.text
 200              		.section	.gnu.lto_.refs.6ed95b56,"",%progbits
 201 0000 789C6363 		.ascii	"x\234cc``\340\004b&\006&F~&&\001\006\000\001\213\000"
 201      6060E004 
 201      62260626 
 201      467E2626 
 201      01060001 
 202 0016 38       		.ascii	"8"
 203              		.text
 204              		.section	.gnu.lto_.decls.6ed95b56,"",%progbits
 205 0000 789CBD58 		.ascii	"x\234\275X{LTW\032\237s\31700\014\017\203t\327&$kZ\022"
 205      7B4C5457 
 205      1A9F73CF 
 205      30300C0F 
 205      8374D726 
 206 0018 F9A702B5 		.ascii	"\371\247\002\265Y\233&\333\024QW\377pk\206\266\331\007"
 206      599B26DB 
 206      145157FF 
 206      706B86B6 
 206      D907
 207 002a C9940E53 		.ascii	"\311\224\016Sa\013\003\235\031\266\366\217M/\005,\212"
 207      610B039D 
 207      19B6F68F 
 207      4D2F052C 
 207      8A
 208 003b 56545444 		.ascii	"VTTD\024\004TPP|\200\012\312\373%\012\352\250 \024\004"
 208      14045450 
 208      507C800A 
 208      CAFB250A 
 208      EAA82014 
 209 0050 2DF21279 		.ascii	"-\362\022y\371\026\224\375\3169w\346^.`\233\356fo\370"
 209      F91694FD 
 209      CE3977E6 
ARM GAS  C:\Users\pc\AppData\Local\Temp\ccS8SMuV.s 			page 16


 209      5E2E609B 
 209      EE666FF8 
 210 0064 EE9DEF9C 		.ascii	"\356\235\357\234\357\374\276\347y\241R(\024\337-P(\002"
 210      EFFCBEE7 
 210      79A15228 
 210      14DF2D50 
 210      2802
 211 0076 940A453C 		.ascii	"\224\012E<R(\246\340\201\237\212J\205\370\250\200J\201"
 211      5228A6E0 
 211      819F8A4A 
 211      85F8A880 
 211      4A81
 212 0088 CA802A80 		.ascii	"\312\200*\200\252\200j\200.+f>\337\000\206;|?\007\362"
 212      AA806A80 
 212      2E2B663E 
 212      DF00863B 
 212      7C3F07F2 
 213 009c 00F2041A 		.ascii	"\000\362\004\032\004\032\003Z\004T\0174\001\324\007"
 213      041A035A 
 213      04540F34 
 213      01D407
 214 00ab 6405D201 		.ascii	"d\005\322\001\275\004z\005t\011h\012\210\003\352\005"
 214      BD047A05 
 214      7409680A 
 214      8803EA05 
 215 00bb BA23D1AD 		.ascii	"\272#\321\255\004\\5b:mv\310\237\004\"\363\032\335\023"
 215      045C3562 
 215      3A6D76C8 
 215      9F0422F3 
 215      1ADD13
 216 00ce 822E3724 		.ascii	"\202.7$\372U%\301\236\007\344\001\364\006\232\211\275"
 216      FA5525C1 
 216      9E07E401 
 216      F4069A89 
 216      BD
 217 00df 11DA5C04 		.ascii	"\021\332\\\004\354E\022\3741\011f$\320W@\376@F\240\022"
 217      EC4512FC 
 217      31096624 
 217      D05740FE 
 217      4046A012 
 218 00f3 6827507F 		.ascii	"h'P\177\203\227\243\020\263h\370m\022t\020\277l:\345"
 218      8397A310 
 218      B368F86D 
 218      127410BF 
 218      6C3AE5
 219 0106 4F0A4625 		.ascii	"O\012F%\225\027\3125]\250\023A<\320<\332\212\020{\303"
 219      9517CA35 
 219      5DA81341 
 219      3CD03CDA 
 219      8A107BC3 
 220 011a 9710E5A7 		.ascii	"\227\020\345\247l\017b\355\320\312\261\217 J\030\333"
 220      6C0F62ED 
 220      D0CAB18F 
 220      204A18DB 
 221 012a 10646FE1 		.ascii	"\020do\341\004\014\316\206K\377\004\000$Ee\375L\235"
 221      040CCE86 
 221      4BFF0400 
ARM GAS  C:\Users\pc\AppData\Local\Temp\ccS8SMuV.s 			page 17


 221      244565FD 
 221      4C9D
 222 013c ED619EB1 		.ascii	"\355a\236\261\037\222q\254\211\023\225I\206\314\260"
 222      1F9271AC 
 222      89139549 
 222      86CCB0
 223 014b 5561EFB6 		.ascii	"Ua\357\266\033%:\211\204 TYc\373\235\273\321m\350\375"
 223      1B253A89 
 223      84205459 
 223      63FB9DBB 
 223      D16DE8FD 
 224 015f BB4291EC 		.ascii	"\273B\221\354\0041\206\326\311-e\305.\230\243\2777\356"
 224      043186D6 
 224      C92D65C5 
 224      2E98A3BF 
 224      37EE
 225 0171 3CB05985 		.ascii	"<\260Y\205\275\350\357\207]\245\033\035\026\347\363"
 225      BDE8EF87 
 225      5DA51B1D 
 225      16E7F3
 226 0180 EC712AC1 		.ascii	"\354q*\301\012T\214\260-\240\265SO+\334\2230\362pF\034"
 226      0A548CB0 
 226      2DA0B553 
 226      4F2BDC93 
 226      30F27046 
 227 0195 B0D6D1CB 		.ascii	"\260\326\321\313\3734\300z:\243y\300\346o\236JqX\260"
 227      FB34C07A 
 227      3AA379C0 
 227      E66F9E4A 
 227      7158B0
 228 01a8 8B0C4C8E 		.ascii	"\213\014L\216\343\347q\350\363\337\241s\310\013\235"
 228      E3E771E8 
 228      F3DFA173 
 228      C80B9D
 229 01b7 455E604E 		.ascii	"E^`N\011\202I\202\214J\206\024\227\367\240\316\371\255"
 229      09824982 
 229      8C4A8614 
 229      97F7A0CE 
 229      F9AD
 230 01c9 4CBEA29B 		.ascii	"L\276\242\233\257\350J\367\311\270\274!\361*\214\373"
 230      AFE84AF7 
 230      C9B8BC21 
 230      F12A8CFB 
 231 01d9 9CCAA122 		.ascii	"\234\312\241\"\204\321\031\264\230xQD\264\243\323\250"
 231      84D119B4 
 231      98785144 
 231      B4A3D3A8 
 232 01e9 1BA153A8 		.ascii	"\033\241S\250\013\234(Eo\301\370\007M'O\272\343,D\215"
 232      0B9C2845 
 232      6FC1F807 
 232      4D274FBA 
 232      E32C448D 
 233 01fd 7EBDE20B 		.ascii	"~\275\342\013\323\024\337L<S\354\004\212\273y\276\242"
 233      D314DF4C 
 233      3C53EC04 
 233      8ABB79BE 
 233      A2
ARM GAS  C:\Users\pc\AppData\Local\Temp\ccS8SMuV.s 			page 18


 234 020e FEF87B2F 		.ascii	"\376\370{/\013\373\371Dg*\204\316\213Z\317\013>\243"
 234      0BFBF944 
 234      672A84CE 
 234      8B5ACF0B 
 234      3EA3
 235 0220 32AAED4E 		.ascii	"2\252\355N\367\301q\015~\312\264u&l\237t\027\020\306"
 235      F7C1710D 
 235      7ECAB475 
 235      266C9F74 
 235      1710C6
 236 0233 FF9DC657 		.ascii	"\377\235\306Wqtt\2718\272\3346\272\202\216\316\255}"
 236      717474B9 
 236      38BADC36 
 236      BA828ECE 
 236      AD7D
 237 0245 7410E324 		.ascii	"t\020\343$\026\354\373\015\031\273\3240:\223:\376~\337"
 237      16ECFB0D 
 237      19BBD430 
 237      3A933AFE 
 237      7EDF
 238 0257 699E4F00 		.ascii	"i\236O\000\273\225\024\243R\304\250\224\373]E\261\272"
 238      BB9514A3 
 238      52C4A894 
 238      FB5D45B1 
 238      BA
 239 0268 461FD66B 		.ascii	"F\037\326k\360n\206\265\273\267|\322U\300\262\376!\215"
 239      F06E86B5 
 239      BBB77CD2 
 239      55C0B2FE 
 239      218D
 240 027a AFF89EE7 		.ascii	"\257\370\236\347c\2315\325\"R\265\034\251\206\"e\246"
 240      639935D5 
 240      2252B51C 
 240      A9862265 
 240      A6
 241 028b 3E1950E1 		.ascii	">\031P\341#\014\251\251\366z\252#\256\241\214roM\361"
 241      230CA9A9 
 241      F67AAA23 
 241      AEA18C72 
 241      6F4DF1
 242 029e B006A9BD 		.ascii	"\260\006\251\275\020\204\020\371\374\300\363\000\033"
 242      108410F9 
 242      FCC0F300 
 242      1B
 243 02ab 970CF30C 		.ascii	"\227\014\363\014-\361B~^\012\324\210|P=\202\205\002"
 243      2DF1427E 
 243      5E0AD488 
 243      7C503D82 
 243      8502
 244 02bd 3580C845 		.ascii	"5\200\310E\210r\032\357D[\322\370D\236\237G\177\036"
 244      88721AEF 
 244      445BD2F8 
 244      449E9F47 
 244      7F1E
 245 02cf B2D59082 		.ascii	"\262\325\220\202\260\250N\210\011\313\302T\335h\276"
 245      B0A84E88 
 245      09CBC254 
ARM GAS  C:\Users\pc\AppData\Local\Temp\ccS8SMuV.s 			page 19


 245      DD68BE
 246 02de 93346344 		.ascii	"\2234cDDL\331\245i){\320\267\357\240Z\010xk\233\317"
 246      444CD9A5 
 246      69297BD0 
 246      B7EFA05A 
 246      08786B9B 
 247 02f3 A4903210 		.ascii	"\244\2202\020B\265\242\233\265\266\240_\246\356]\213"
 247      42B5A29B 
 247      B5B6A05F 
 247      A6EE5D8B 
 248 0303 2F4CC7AC 		.ascii	"/L\307\254T\225\300\2165\245\375\354\306Ju!\260\303"
 248      5495C08E 
 248      35A5FDEC 
 248      C64A7521 
 248      B0C3
 249 0315 F1F7BA35 		.ascii	"\361\367\2725\254w\001\260\261E\331[]\360$\213EF\307"
 249      AC7701B0 
 249      B145D95B 
 249      5DF0248B 
 249      4546C7
 250 0328 5881238E 		.ascii	"X\201#\216\305\204\341Z\246\372\373\235\221\213\317"
 250      C584E15A 
 250      A6FAFB9D 
 250      918BCF
 251 0337 261285CC 		.ascii	"&\022\205\3148^\275\212\024W3X\332\004\226\242\353\020"
 251      385EBD8A 
 251      14573358 
 251      DA0496A2 
 251      EB10
 252 0349 099D8B60 		.ascii	"\011\235\213`\002\365\270\242u\340\275\3642\236_\210"
 252      02F5B8A2 
 252      75E0BDF4 
 252      329E5F88 
 253 0359 ACC8055D 		.ascii	"\254\310\005]\023\355\323\2710ov\355>rK\215k)\274}\006"
 253      13EDD3B9 
 253      306F76ED 
 253      3E724B8D 
 253      6B29BC7D 
 254 036e 79B01974 		.ascii	"y\260\031t?\275\275\335\0057\260\276S\365c\365j|\205"
 254      3FBDBDDD 
 254      0537B0BE 
 254      53F563F5 
 254      6A7C85
 255 0381 3169A58F 		.ascii	"1i\245\217\032\035\230\240\023\260mW\013\223\334\360"
 255      1A1D98A0 
 255      13B06D57 
 255      0B93DCF0 
 256 0391 75D6B721 		.ascii	"u\326\267!\273\372\271+naL\356`\327$\306m\214\2318W"
 256      BBFAB92B 
 256      6E614CEE 
 256      60D724C6 
 256      6D8C9938 
 257 03a6 CB3BE10E 		.ascii	"\313;\341\016\306\034\256o\253w\307]\214\261\305\303"
 257      C61CAE6F 
 257      AB77C75D 
 257      8CB1C5C3 
 258 03b6 83C5E358 		.ascii	"\203\305\343X\177y\2723\013\017\0173\333yg\363\331\365"
ARM GAS  C:\Users\pc\AppData\Local\Temp\ccS8SMuV.s 			page 20


 258      7F79BA33 
 258      0B0F0F33 
 258      DB7967F3 
 258      D9F5
 259 03c8 C89B3C3E 		.ascii	"\310\233<>\336\363\275\275\263\210\367d\272\\\261\366"
 259      DEF3BDBD 
 259      B388F764 
 259      BA5CB1F6 
 260 03d8 F3FC7617 		.ascii	"\363\374v\027\352[;\370\326\207\346\213\301\270Es\347"
 260      EA5B3BF8 
 260      D687E68B 
 260      C1B84573 
 260      E7
 261 03e9 0F2F051B 		.ascii	"\017/\005\033\320\370W\250\311xL\245o\310\245\257\310"
 261      D0F857A8 
 261      C9784CA5 
 261      6FC8A5AF 
 261      C8
 262 03fa A5C73F16 		.ascii	"\245\307?\026\245\333f\307nF\242\370]\211\370Orq_\271"
 262      A5DB66C7 
 262      6E46A2F8 
 262      5D89F84F 
 262      72715FB9 
 263 040e 74BB44BA 		.ascii	"t\273D\272cVij\011Ka\313\225y\261<\217\210\220BH\237"
 263      6356696A 
 263      094B61CB 
 263      9579B13C 
 263      8F889042 
 264 0424 C28ED472 		.ascii	"\302\216\324r\313#+\216o\360\243PWg\367\212i\336F\313"
 264      CB232B8E 
 264      6FF0A350 
 264      5767F78A 
 264      69DE46CB 
 265 0438 1B082915 		.ascii	"\033\010)\0250\361\274`\015\006\211Na\010\340\242{P"
 265      30F1BC60 
 265      0D06894E 
 265      6108E0A2 
 265      7B50
 266 044a 3E3DC81B 		.ascii	">=\310\033\375\014\324\015t\027h\000\250\037\350\016"
 266      FD0CD40D 
 266      74176800 
 266      A81FE80E 
 267 045a 502FF296 		.ascii	"P/\362\226h\256\222\204\263E\256\370\346\214\000\275"
 267      68AE9284 
 267      B345AEF8 
 267      E68C00BD 
 268 046a 90B8DC3A 		.ascii	"\220\270\334:\2738\365\031\322\377j\017\377R\343\"\251"
 268      BB38F519 
 268      D2FF6A0F 
 268      FF52E322 
 268      A9
 269 047b 71A9AC02 		.ascii	"q\251\254\002\015\"\027:\263\340K\326\277\206\274\243"
 269      0D22173A 
 269      B3E04BD6 
 269      BF86BCA3 
 270 048b 64662D72 		.ascii	"df-rFd#r\207\246\343C\347\236\273\262&Z\325[\307s\034"
 270      46642372 
ARM GAS  C:\Users\pc\AppData\Local\Temp\ccS8SMuV.s 			page 21


 270      87A6E343 
 270      E79EBBB2 
 270      265AD55B 
 271 04a2 F17D3683 		.ascii	"\361}6\203\272\332&:\334\220\263O\242\035]!\2321\002"
 271      BADA263A 
 271      DC90B34F 
 271      A21D5D21 
 271      9A3102
 272 04b5 01804124 		.ascii	"\001\200A$\306h\010\032\357C#\313\301\323W\037\356\031"
 272      C668081A 
 272      EF4323CB 
 272      C1D3571F 
 272      EE19
 273 04c7 27D36818 		.ascii	"'\323h\0309\243\007\3424Z\344\314L\316\313\331\226\245"
 273      39A307E2 
 273      345AE4CC 
 273      4CCECBD9 
 273      96A5
 274 04d9 C29D4AAA 		.ascii	"\302\235J\252\243t\357\275Zn.\035\343s\353H\177\273"
 274      A374EFBD 
 274      5A6E2E1D 
 274      E373EB48 
 274      7FBB
 275 04eb FF16D131 		.ascii	"\377\026\3211\006:FE\035\240\222|\240\025\024\245n\350"
 275      063A4645 
 275      1DA0927C 
 275      A01514A5 
 275      6EE8
 276 04fd 38A9744E 		.ascii	"8\251tN$\003Xl`\312\210\241yHD\241\200\350\302Ev\333"
 276      2403586C 
 276      60CA88A1 
 276      794844A1 
 276      80E8C245 
 277 0513 F1C2C32E 		.ascii	"\361\302\303.l^a\311:\343\311\326\231\233\317.\274p"
 277      6C5E61C9 
 277      3AE3C9D6 
 277      999BCF2E 
 277      BC70
 278 0525 C1550E74 		.ascii	"\301U\016t\231\315\217;2\252D>l\231u\226,\227/\300\232"
 278      99CD8F3B 
 278      32AA443E 
 278      6C997596 
 278      2C972FC0 
 279 053a 27E27249 		.ascii	"'\342rI\327\324\321\357H3]g\311\227:\312g\363x\201}"
 279      D7D4D1EF 
 279      48335D67 
 279      C9973ACA 
 279      67F37881 
 280 054f 517E0A6E 		.ascii	"Q~\012n\276\240\326<\007\300g\314\234\264\276\243\205"
 280      BEA0D63C 
 280      07C067CC 
 280      9CB4BEA3 
 280      85
 281 0560 C8235928 		.ascii	"\310#Y(\304\217\020\305~\014\375\217\250\365\023\310"
 281      C48F10C5 
 281      7E0CFD8F 
 281      A8F513C8 
ARM GAS  C:\Users\pc\AppData\Local\Temp\ccS8SMuV.s 			page 22


 282 0570 C3E60365 		.ascii	"\303\346\003e`\304\266\321\361\035\2529\335\235\264"
 282      60C4B6D1 
 282      F11DAA39 
 282      DD9DB4
 283 057f B9EB47E1 		.ascii	"\271\353G\341\277/\035\236P\312\341\305e\374%\205\237"
 283      BF2F1D9E 
 283      50CAE1C5 
 283      65FC2585 
 283      9F
 284 0590 64F02F29 		.ascii	"d\360/)\374\365\246\201\014,\2554\262\212\213\370\257"
 284      FCF5A681 
 284      0C2CAD34 
 284      B28A8BF8 
 284      AF
 285 05a1 844A7B45 		.ascii	"\204J{E+-crb\217\233T\370\3024\341)Ax\212\012\267tX"
 285      2B2D6372 
 285      628F9B54 
 285      F8C234E1 
 285      2941788A 
 286 05b9 53D5B89E 		.ascii	"S\325\270\236\306\026\035)\330_\350\206\2571&\251\252"
 286      C6161D29 
 286      D85FE886 
 286      AF3126A9 
 286      AA
 287 05ca 3A5DA5E4 		.ascii	":]\245\344\024(\226\303\254xz\267\366W*\245\333\317"
 287      142896C3 
 287      AC787AB7 
 287      F6572AA5 
 287      DBCF
 288 05dc D834BBE3 		.ascii	"\3304\273\3438\351\366\363$\243\"\313]8\252L\225\342"
 288      38E9F6F3 
 288      24A322CB 
 288      5D38AA4C 
 288      95E2
 289 05ee FC83195B 		.ascii	"\374\203\031[\370\314X\376\243\006\216\010\302z)\324"
 289      F8CC58FE 
 289      A3068E08 
 289      C27A29D4 
 290 05fe 0DFA9E53 		.ascii	"\015\372\236S\022n\372f\033\317\221\335h\350P\353<\234"
 290      126EFA66 
 290      1BCF91DD 
 290      68E850EB 
 290      3C9C
 291 0610 A59AC39C 		.ascii	"\245\232\303\234\372\334\242J\244\344X\311\021\275d"
 291      FADCA24A 
 291      A4E458C9 
 291      11BD64
 292 061f 6FBF9E55 		.ascii	"o\277\236U\342:\347\231&\221Z\370\003'\230\330\223p"
 292      E23AE799 
 292      26915AF8 
 292      032798D8 
 292      9370
 293 0631 3B5B2998 		.ascii	";[)\230\330\222\357q8\216\317\205a9\210\310\241\004"
 293      D892EF71 
 293      388ECF85 
 293      613988C8 
 293      A104
ARM GAS  C:\Users\pc\AppData\Local\Temp\ccS8SMuV.s 			page 23


 294 0643 BB811BC0 		.ascii	"\273\201\033\300\300\004\271\201\033\251\201=\023\005"
 294      C004B981 
 294      1BA9813D 
 294      1305
 295 0651 25C27EA0 		.ascii	"%\302~\240\002\266\374r\374y\315\234U\220\304\011U\260"
 295      02B6FC72 
 295      FC79CD9C 
 295      5590C409 
 295      55B0
 296 0663 89A365F0 		.ascii	"\211\243e\360hS\302Sa\257u$[Po\372\217.\254\350\337"
 296      6853C253 
 296      61AF7524 
 296      5B506FFA 
 296      8F2EACE8 
 297 0678 07F6E8DD 		.ascii	"\007\366\350\335\224K3jp\013\347\2056s\004\354G\316"
 297      944B336A 
 297      700BE785 
 297      367304EC 
 297      47CE
 298 068a C3064919 		.ascii	"\303\006I\031\030q\261\247\240\312\015\347\263p\365"
 298      1871B1A7 
 298      A0CA0DE7 
 298      B370F5
 299 0699 DD28DBA4 		.ascii	"\335(\333\244\022|\253?\356\227\033\227\304\302\317"
 299      127CAB3F 
 299      EE971B97 
 299      C4C2CF
 300 06a8 AA612B67 		.ascii	"\252a+g\237\265[\345\236%S\317\2723\372v\270\342J\006"
 300      9FB55BE5 
 300      9E2553CF 
 300      BA33FA76 
 300      B8E24A06 
 301 06bc 3692D87E 		.ascii	"6\222\330~\330U\000\263\356\303\354\310t\200\035\231"
 301      D85500B3 
 301      EEC3ECC8 
 301      74801D99 
 302 06cc B68950DB 		.ascii	"\266\211P\333\344P\333)TkoU(n\232+\213\025\227\266\334"
 302      E450DB29 
 302      546B6F55 
 302      286E9A2B 
 302      8B1597B6 
 303 06e1 508975F2 		.ascii	"P\211u\362c\336~{\235\2204\354\260\247!\005\322\260"
 303      63DE7E7B 
 303      9D9034EC 
 303      B0A72105 
 303      D2B0
 304 06f3 43AE6127 		.ascii	"C\256a'\325\220\337T\337!D2\021\221s\322@[\266\232\361"
 304      D590DF54 
 304      DF214432 
 304      119173D2 
 304      405BB69A 
 305 0708 A374DB9E 		.ascii	"\243t\333\236\334wF\340=\201}\331\225\234\354\310\""
 305      DC7746E0 
 305      3D817DD9 
 305      959CECC8 
 305      22
 306 0719 9D49C4EF 		.ascii	"\235I\304\357t\366mr\303?1\013\207R\223\342\334\347"
ARM GAS  C:\Users\pc\AppData\Local\Temp\ccS8SMuV.s 			page 24


 306      74F66D72 
 306      C33F310B 
 306      875293E2 
 306      DCE7
 307 072b CCE15E5B 		.ascii	"\314\341^[\016\233\330Jq\243\363\336.\0271KJZ\212{ "
 307      0E9BD84A 
 307      71A3F3DE 
 307      2E17314B 
 307      4A5A8A7B 
 308 0740 4BA9344B 		.ascii	"K\2514K\3514Kt\020\233\370m\333\204\213@7\341\213\254"
 308      E9344B74 
 308      109BF86D 
 308      DB848B40 
 308      37E18BAC 
 309 0754 AD4FD4F8 		.ascii	"\255O\324\370\036S\334\266k\323\220\003Q\034\007\212"
 309      1E53DCB6 
 309      6BD39003 
 309      511C078A 
 310 0764 137F712D 		.ascii	"\023\177q-\206\0219\275'F\324R\345\031\334k\224_\357"
 310      861139BD 
 310      2746D452 
 310      E519DC6B 
 310      945FEF
 311 0777 3D102FAC 		.ascii	"=\020/\254\261W\011_\334{\261\316vx!Q(\255\263^Dx\220"
 311      B157095F 
 311      DC7BB1CE 
 311      76782151 
 311      28ADB35E 
 312 078e 19D39D5C 		.ascii	"\031\323\235\\=5w\024rlQx\304\014y\234\\\270R\036\204"
 312      3D357714 
 312      726C5178 
 312      C40C799C 
 312      5CB8521E 
 313 07a3 2CB0836D 		.ascii	",\260\203m\227\007\251\03596;\366\354\033<\306\311\255"
 313      9707A91D 
 313      39363BF6 
 313      EC1B3CC6 
 313      C9AD
 314 07b5 9E533AA9 		.ascii	"\236S:\251\266\250NHm\003]\203^\235jt\304#\314\312\035"
 314      B6A84E48 
 314      6D035D83 
 314      5E9D6A74 
 314      C423CCCA 
 315 07ca DB9F353A 		.ascii	"\333\2375:\341\207"
 315      E187
 316 07d0 8C39337C 		.ascii	"\21493|\364\214+\223\254\220\362\236\002\377\360\350"
 316      F48C2B93 
 316      AC90F29E 
 316      02FFF0E8 
 317 07e0 E841157E 		.ascii	"\350A\025~*\010\027e\2178\311M>\012F\260\023S\001'."
 317      2A081765 
 317      8F38C94D 
 317      3E0A46B0 
 317      13530127 
 318 07f5 C12434B1 		.ascii	"\301$4\26197\261\334\3449\245m\023\331\203M\344\324"
 318      3937B1DC 
 318      E439A56D 
ARM GAS  C:\Users\pc\AppData\Local\Temp\ccS8SMuV.s 			page 25


 318      13D9834D 
 318      E4D4
 319 0807 E707065D 		.ascii	"\347\007\006]\361\004\323\233j=\261\302\226\343_\336"
 319      F104D39B 
 319      6A3DB1C2 
 319      96E35FDE 
 320 0817 6FC9297E 		.ascii	"o\311)~x\362\270\033\346\035\351\350\3223\347\353\204"
 320      78F2B81B 
 320      E61DE9E8 
 320      D233E7EB 
 320      84
 321 0828 E3AC1F59 		.ascii	"\343\254\037Y\"\362+\23358\201\365M&g\234R\343$\306"
 321      22F22B9B 
 321      353881F5 
 321      4D26679C 
 321      52E324C6 
 322 083c EC7DD839 		.ascii	"\354}\3309 \024\274\017\331^\263\367oW\343d\3267\225"
 322      2014BC0F 
 322      D95EB3F7 
 322      6F57E364 
 322      D63795
 323 084f 9CB8C711 		.ascii	"\234\270\307\021\357dLJsJ\266\006\2471f\242?\245\015"
 323      EF644C4A 
 323      734AB606 
 323      A73166A2 
 323      3FA50D
 324 0862 B1512E92 		.ascii	"\261Q.\222j\365\024\252\365\330\223\037wkp&\223mm\213"
 324      6AF514AA 
 324      F5D8931F 
 324      776B7026 
 324      936D6D8B 
 325 0876 3F27C86A 		.ascii	"?'\310j\310\3054\277\254\330a\316z)\263\325\313\005"
 325      C8C534BF 
 325      ACD861CE 
 325      7A29B3D5 
 325      CB05
 326 0888 B6F21D4F 		.ascii	"\266\362\035O\350\311s\202\301^p\026B\222\203\220\027"
 326      E8C97382 
 326      C15E7016 
 326      42928390 
 326      17
 327 0899 3B089DAE 		.ascii	";\010\235\256xX\240\3049T\021w\242\240\347\237\310\307"
 327      7858A0C4 
 327      39541177 
 327      A2A0E79F 
 327      C8C7
 328 08ab D976BC59 		.ascii	"\331v\274Y\234\0007+\016UC\002*\305\225\307\213\204"
 328      9C00372B 
 328      0E554302 
 328      2AC595C7 
 328      8B84
 329 08bd 7E96DDBD 		.ascii	"~\226\335\275\212\363!\2404\250\025\220\257r\246?/#"
 329      8AF321A0 
 329      34A81590 
 329      AF72A63F 
 329      2F23
 330 08cf B7C6151F 		.ascii	"\267\306\025\037c\012n\027\2144cQC\372\333g[\310\341"
ARM GAS  C:\Users\pc\AppData\Local\Temp\ccS8SMuV.s 			page 26


 330      630A6E17 
 330      8C346351 
 330      43FADB67 
 330      5BC8E1
 331 08e2 A60E34D4 		.ascii	"\246\0164\324\210\032\252\2719T\324\316\256b\313\261"
 331      881AAAB9 
 331      3954D4CE 
 331      AE62CBB1 
 332 08f2 9C729574 		.ascii	"\234r\225t\371&x\245\320_B\347f=-\2312\373\302P\263"
 332      F92678A5 
 332      D05F42E7 
 332      663D2D99 
 332      32FBC250 
 333 0907 F13E6275 		.ascii	"\361>bu\361\253\320\233{\223\256h\244\350\015\257C\277"
 333      F1ABD09B 
 333      7B93AE68 
 333      A4E80DAF 
 333      43BF
 334 0919 60EDF808 		.ascii	"`\355\370\010\027\263\274=n\356\270\203p\011c\342/]"
 334      17B3BC3D 
 334      6EEEB883 
 334      700963E2 
 334      2F5D
 335 092b 3CEC88CB 		.ascii	"<\354\210\313\0303\224\327\324\240\3025\214\351\351"
 335      183394D7 
 335      D4A0C235 
 335      8CE9E9
 336 093a 7D7116E3 		.ascii	"}q\026\343\213\21494\224\265E\215\233\2051=\303\315"
 336      8B8C3934 
 336      94B5458D 
 336      9B85313D 
 336      C3CD
 337 094c C2DD6B33 		.ascii	"\302\335k3\311\335\304h\361\015[\225\220;\326\340\343"
 337      C9DDC468 
 337      F10D5B95 
 337      903BD6E0 
 337      E3
 338 095d 7B534EF8 		.ascii	"{SN\370\006\025\376\375\011\353\345L5\271\021\315\367"
 338      0615FEFD 
 338      09EBE54C 
 338      35B911CD 
 338      F7
 339 096e 161F1FE1 		.ascii	"\026\037\037\341\233\305\247\304\302\305o\002\01755"
 339      9BC5A7C4 
 339      C2C56F02 
 339      0F3535
 340 097d 42D95421 		.ascii	"B\331T!t\210\363@\331\020\363\026n\276}E@\0078\311\215"
 340      7488F340 
 340      D910F316 
 340      6EBE7D45 
 340      400738C9 
 341 0992 271E4634 		.ascii	"'\036F4F\302\013.\232\027A\372\274 m\363}\372\375(%"
 341      46C20B2E 
 341      9A1741FA 
 341      BC206DF3 
 341      7DFAFD28 
 342 09a7 0EAE3046 		.ascii	"\016\2560Fv\236'S6W\220\266O\272\303\334\034\367\216"
ARM GAS  C:\Users\pc\AppData\Local\Temp\ccS8SMuV.s 			page 27


 342      769E2753 
 342      365790B6 
 342      4FBAC3DC 
 342      1CF78E
 343 09ba 6B807795 		.ascii	"k\200w\225v\022yr\351\270\013\231\270\307y\2436\240"
 343      76127972 
 343      E9B80B99 
 343      B8C779A3 
 343      36A0
 344 09cc 9F81FA81 		.ascii	"\237\201\372\201~\002\352\000\272\001\324\003\324\013"
 344      7E02EA00 
 344      BA01D403 
 344      D40B
 345 09da D4057407 		.ascii	"\324\005t\007\250\033\250\025\250\017h\000\250\035\350"
 345      A81BA815 
 345      A80F6800 
 345      A81DE8
 346 09e9 26D075A0 		.ascii	"&\320u\240[@\267\201:9\333E%\036,}\021\311,=\001\226"
 346      5B40B781 
 346      3A39DB45 
 346      251E2C7D 
 346      11C92C3D 
 347 09ff 9E945B7A 		.ascii	"\236\224[z\\\032\005\022\267Ac,\225\316\204(\354\027"
 347      5C1A0512 
 347      B741632C 
 347      95CE8428 
 347      EC17
 348 0a11 A46D6B3F 		.ascii	"\244mk?\3327-f\200}7B\304n\226cO\273\366\221\230Y%1"
 348      DA372D66 
 348      807D3742 
 348      C46E9663 
 348      4FBBF691 
 349 0a29 CB9B3D66 		.ascii	"\313\233=f\022\354\027\022\354Kr\351\233H&]%\361\262"
 349      12EC1712 
 349      EC4B72E9 
 349      9B48265D 
 349      25F1B2
 350 0a3c 7176699B 		.ascii	"qvi\233)\024\334(\212[\345\342\273\244\246\220\331;"
 350      2914DC28 
 350      8A5BE5E2 
 350      BBA4A690 
 350      D93B
 351 0a4e 2E0405B6 		.ascii	".\004\005\266>\224&\017\312nN\016~Wb\313\0319x\361\014"
 351      3E94260F 
 351      CA6E4E0E 
 351      7E5762CB 
 351      193978F1 
 352 0a63 F17189F8 		.ascii	"\361q\211\370i\271\370\251\031\342\203\022\361\242\331"
 352      69B9F8A9 
 352      19E28312 
 352      F1A2D9
 353 0a72 C525B7E7 		.ascii	"\305%\267\347\346!\017z{\006\251\351\267g\0025<\344"
 353      E6210F7A 
 353      7B06A9E9 
 353      B7670235 
 353      3CE4
 354 0a84 C96ECF04 		.ascii	"\311n\317\004\253I\216uK\036c\253D\3639\271\364m$Ow"
ARM GAS  C:\Users\pc\AppData\Local\Temp\ccS8SMuV.s 			page 28


 354      AB498E75 
 354      4B1E63AB 
 354      44F339B9 
 354      F46D244F 
 355 0a99 7B8498EE 		.ascii	"{\204\230\356+\263\026\207\004\273]\202}v\366\230I\263"
 355      2BB31687 
 355      04BB5D82 
 355      7D76F698 
 355      49B3
 356 0aab 2D495FE1 		.ascii	"-I_\341\3545=-\302\222R\272<\273\233v\303\311J \244"
 356      EC353D2D 
 356      C29252BA 
 356      3CBB9B76 
 356      C3C94A20 
 357 0ac0 1BCE1328 		.ascii	"\033\316\023(_\020\267m\313\350\210h\013Y1\273v6+q\272"
 357      5F10B76D 
 357      CBE88868 
 357      0B5931BB 
 357      76362B71 
 358 0ad5 135DF23B 		.ascii	"\023]\362;\007N'i\320|\237Y\247<\032\202\231\376\377"
 358      074E2769 
 358      D07C9F59 
 358      A73C1A82 
 358      99FEFF
 359 0ae8 98F52CEF 		.ascii	"\230\365,\357u#*\270\276\242\373\240pP\334nH\025P\273"
 359      75232AB8 
 359      BEA2FBA0 
 359      7050DC6E 
 359      481550BB 
 360 0afc B37BEF56 		.ascii	"\263{\357V+\245\227\271\373\234\364\177\014\0178v\231"
 360      2BA597B9 
 360      FB9CF47F 
 360      0C0F3876 
 360      99
 361 0b0d 83EF6C37 		.ascii	"\203\357l7\277\222i7\277aAx\230\012W?i)p\304\007\235"
 361      BF926937 
 361      BF614178 
 361      980A573F 
 361      692970C4 
 362 0b23 D8FF1E6A 		.ascii	"\330\377\036j\367\036W\333\257\013\336\031\323\257\013"
 362      F71E57DB 
 362      AF0BDE19 
 362      D3AF0B
 363 0b32 23A26123 		.ascii	"#\242a#\362\023\370(=\201\037z\372,\311\015\237e`\271"
 363      F213F828 
 363      3D811F7A 
 363      FA2CC90D 
 363      9F6560B9 
 364 0b46 CDCFCA6D 		.ascii	"\315\317\312m\377\245\266\246M\277.\214\211Pcr\250q"
 364      FFA5B6A6 
 364      4DBF2E8C 
 364      89506372 
 364      A871
 365 0b58 EE2DC59B 		.ascii	"\356-\305\233\272\350(\223E\027n\372Zg\210\016\217\210"
 365      BAE82893 
 365      45176EFA 
 365      5A67880E 
ARM GAS  C:\Users\pc\AppData\Local\Temp\ccS8SMuV.s 			page 29


 365      8F88
 366 0b6a 5A176358 		.ascii	"Z\027cX\034\035b\262,\366\373\223\376\003\337\300\260"
 366      1C1D62B2 
 366      2CF6FB93 
 366      FE03DFC0 
 366      B0
 367 0b7b F02FC283 		.ascii	"\360/\302\203,1\241\341Q\354\367\307A\376K\377\350\033"
 367      2C31A1E1 
 367      51ECF7C7 
 367      41FE4BFF 
 367      E81B
 368 0b8d 65F6D547 		.ascii	"e\366\325GEFF\031}\311`\263o\200vM\340\232\365\276\372"
 368      45464619 
 368      7DC960B3 
 368      6F80764D 
 368      E09AF5BE 
 369 0ba2 307D94C9 		.ascii	"0}\224\311\240\373\327\322\310\305z\247?\377\345\323"
 369      A0FBD7D2 
 369      C8C57AA7 
 369      3FFFE5D3 
 370 0bb2 8581FEFE 		.ascii	"\205\201\376\376\212\017\377+\030\305\033\314>\3637"
 370      8A0FFF2B 
 370      18C51BCC 
 370      3EF337
 371 0bc1 E1167D98 		.ascii	"\341\026}\230\356KST\244.\334l\372\257@\303\024\363"
 371      EE4B5354 
 371      A42EDC6C 
 371      FAAF40C3 
 371      14F3
 372 0bd3 19A8617D 		.ascii	"\031\250a}\270\305\016\251\011\372,P\267*\304\030\032"
 372      B8C50EA9 
 372      09FA2C50 
 372      B72AC418 
 372      1A
 373 0be4 613079CC 		.ascii	"a0y\314\014\312\233\372\260 }\330j\363Z\223\301\020"
 373      0CCA9BFA 
 373      B0207DD8 
 373      6AF35A93 
 373      C110
 374 0bf6 196D098F 		.ascii	"\031m\011\2172j\015_\307\204\233\014\241\016\272eQQ"
 374      326A0D5F 
 374      C7849B0C 
 374      A10EBA65 
 374      5151
 375 0c08 11FEAFB5 		.ascii	"\021\376\257\265\310d\361\0157\352#bB\015`\210Y\037"
 375      C864F10D 
 375      37EA2362 
 375      420D6088 
 375      591F
 376 0c1a 160A4628 		.ascii	"\026\012F(\327G\233MN&\303\272\020S\244\316\362\301"
 376      D7479B4D 
 376      4E26C3BA 
 376      1053A4CE 
 376      F2C1
 377 0c2c 6FF40880 		.ascii	"o\364\010\200\270h\275*\302\244\263\204\205b\223\377"
 377      B868BD2A 
 377      C2A4B384 
ARM GAS  C:\Users\pc\AppData\Local\Temp\ccS8SMuV.s 			page 30


 377      856293FF 
 378 0c3c BB9C6909 		.ascii	"\273\234i\011g\202\267?g\362\323\010nZ\364\226\365\316"
 378      6782B73F 
 378      67F2D308 
 378      6E5AF496 
 378      F5CE
 379 0c4e 3A5D4CB8 		.ascii	":]L\270\321\262\344]\235\345K\375\007\301z\202o\246"
 379      D1B2E45D 
 379      9DE54BFD 
 379      07C17A82 
 379      6FA6
 380 0c60 BA822D60 		.ascii	"\272\202-`\2779x\2351f!\375\265\020\014Zh\210\374\302"
 380      BF39789D 
 380      316621FD 
 380      B5100C5A 
 380      6888FCC2 
 381 0c74 101A6A08 		.ascii	"\020\032j\010\015^\272\330o\341\273~\376K\277~/\030"
 381      0D5EBAD8 
 381      6FE1BB7E 
 381      FE4BBF7E 
 381      2F18
 382 0c86 DADF3146 		.ascii	"\332\3371F\031\015\357\030B\276\010\017\026\034\012"
 382      190DEF18 
 382      42BE080F 
 382      161C0A
 383 0c95 8E0C012C 		.ascii	"\216\014\001,\243!X\027j\3702$&\302\242\263|\033m0\203"
 383      A3215817 
 383      6AF83224 
 383      26C2A2B3 
 383      7C1B6D30 
 384 0caa 5D4E367D 		.ascii	"]N6}\377\370\237\3523\177k\016\326\231-\241\000N\242"
 384      FFF89FEA 
 384      337F6B0E 
 384      D6992DA1 
 384      004EA2
 385 0cbd A80F0B31 		.ascii	"\250\017\0131\251u\272u\006\213nm\320Z\327\220\210o"
 385      A975BA75 
 385      068B6E6D 
 385      D05AD790 
 385      886F
 386 0ccf 42BE35EB 		.ascii	"B\2765\353\302\215\021`\323\262_\023T\010\217o\340\232"
 386      C28D1160 
 386      D3B25F13 
 386      54088F6F 
 386      E09A
 387 0ce1 A0D54162 		.ascii	"\240\325Ab\212\"\315\341f\335:\275\036\360\001\332\314"
 387      8A22CDE1 
 387      66DD3ABD 
 387      1EF001DA 
 387      CC
 388 0cf2 A03D6930 		.ascii	"\240=i0c\214\021Q\372\257\304\252\2214\2722\321e\001"
 388      638C1151 
 388      FAAFC4AA 
 388      9134BA32 
 388      D16501
 389 0d05 412BD66A 		.ascii	"A+\326jW\253\265+\202Vh?[\261\334O\271:(@\253\\\263"
 389      57ABB52B 
ARM GAS  C:\Users\pc\AppData\Local\Temp\ccS8SMuV.s 			page 31


 389      8256683F 
 389      5BB1DC4F 
 389      B93A2840 
 390 0d1c 66A51607 		.ascii	"f\245\026\007,\327\342\345\360]\273R\253\014X\031\244"
 390      2CD7E2E5 
 390      F05DBB52 
 390      AB0C5819 
 390      A4
 391 0d2d 552E5B19 		.ascii	"U.[\031\240u\200.\020XN\370U\344\025\010/\207\240U\201"
 391      A075802E 
 391      10584EF8 
 391      55E41508 
 391      2F87A055 
 392 0d42 415A1CB4 		.ascii	"AZ\034\264j\255\232%\356}\235\305Q\370\342\300@\350"
 392      6AAD9A25 
 392      EE7D9DC5 
 392      51F8E2C0 
 392      40E8
 393 0d54 09D43A04 		.ascii	"\011\324:\004\254\326\006j\225\237}\362\261V\271\032"
 393      ACD6066A 
 393      959F7DF2 
 393      B156B91A 
 394 0d64 A41D02D7 		.ascii	"\244\035\002\327~\272z9\274\003\002\265\001\277\321"
 394      7EBA7A39 
 394      BC0302B5 
 394      01BFD1
 395 0d73 753249F4 		.ascii	"u2I\364\221KH\372\202\002\227\351>\201\\zP\037\247\271"
 395      914B48FA 
 395      820297E9 
 395      3E815C7A 
 395      501FA7B9 
 396 0d87 ADB637FD 		.ascii	"\255\2667\375\007\321\262\220\312"
 396      07D1B290 
 396      CA
 397              		.text
 398              		.section	.gnu.lto_.symtab.6ed95b56,"",%progbits
 399 0000 5356435F 		.ascii	"SVC_Handler\000"
 399      48616E64 
 399      6C657200 
 400 000c 00       		.ascii	"\000"
 401 000d 00       		.ascii	"\000"
 402 000e 00       		.ascii	"\000"
 403 000f 00000000 		.ascii	"\000\000\000\000\000\000\000\000"
 403      00000000 
 404 0017 C2000000 		.ascii	"\302\000\000\000"
 405 001b 5F706F72 		.ascii	"_port_irq_epilogue\000"
 405      745F6972 
 405      715F6570 
 405      696C6F67 
 405      756500
 406 002e 00       		.ascii	"\000"
 407 002f 00       		.ascii	"\000"
 408 0030 00       		.ascii	"\000"
 409 0031 00000000 		.ascii	"\000\000\000\000\000\000\000\000"
 409      00000000 
 410 0039 C4000000 		.ascii	"\304\000\000\000"
 411 003d 5F706F72 		.ascii	"_port_switch_from_isr\000"
ARM GAS  C:\Users\pc\AppData\Local\Temp\ccS8SMuV.s 			page 32


 411      745F7377 
 411      69746368 
 411      5F66726F 
 411      6D5F6973 
 412 0053 00       		.ascii	"\000"
 413 0054 02       		.ascii	"\002"
 414 0055 00       		.ascii	"\000"
 415 0056 00000000 		.ascii	"\000\000\000\000\000\000\000\000"
 415      00000000 
 416 005e BE000000 		.ascii	"\276\000\000\000"
 417 0062 5F706F72 		.ascii	"_port_exit_from_isr\000"
 417      745F6578 
 417      69745F66 
 417      726F6D5F 
 417      69737200 
 418 0076 00       		.ascii	"\000"
 419 0077 02       		.ascii	"\002"
 420 0078 00       		.ascii	"\000"
 421 0079 00000000 		.ascii	"\000\000\000\000\000\000\000\000"
 421      00000000 
 422 0081 C0000000 		.ascii	"\300\000\000\000"
 423 0085 63685363 		.ascii	"chSchIsPreemptionRequired\000"
 423      68497350 
 423      7265656D 
 423      7074696F 
 423      6E526571 
 424 009f 00       		.ascii	"\000"
 425 00a0 02       		.ascii	"\002"
 426 00a1 00       		.ascii	"\000"
 427 00a2 00000000 		.ascii	"\000\000\000\000\000\000\000\000"
 427      00000000 
 428 00aa CC000000 		.ascii	"\314\000\000\000"
 429              		.text
 430              		.section	.gnu.lto_.opts,"",%progbits
 431 0000 272D666D 		.ascii	"'-fmath-errno' '-fsigned-zeros' '-ftrapping-math' '"
 431      6174682D 
 431      6572726E 
 431      6F272027 
 431      2D667369 
 432 0033 2D666E6F 		.ascii	"-fno-trapv' '-fno-openmp' '-fno-openacc' '-mcpu=cor"
 432      2D747261 
 432      70762720 
 432      272D666E 
 432      6F2D6F70 
 433 0066 7465782D 		.ascii	"tex-m3' '-mno-thumb-interwork' '-mthumb' '-O2' '-fo"
 433      6D332720 
 433      272D6D6E 
 433      6F2D7468 
 433      756D622D 
 434 0099 6D69742D 		.ascii	"mit-frame-pointer' '-falign-functions=16' '-ffuncti"
 434      6672616D 
 434      652D706F 
 434      696E7465 
 434      72272027 
 435 00cc 6F6E2D73 		.ascii	"on-sections' '-fdata-sections' '-fno-common' '-flto"
 435      65637469 
 435      6F6E7327 
ARM GAS  C:\Users\pc\AppData\Local\Temp\ccS8SMuV.s 			page 33


 435      20272D66 
 435      64617461 
 436 00ff 2700     		.ascii	"'\000"
 437              		.text
 438              		.comm	__gnu_lto_v1,1,1
 439              		.comm	__gnu_lto_slim,1,1
 440              		.ident	"GCC: (GNU Tools for Arm Embedded Processors 7-2017-q4-major) 7.2.1 20170904 (release) [ARM
ARM GAS  C:\Users\pc\AppData\Local\Temp\ccS8SMuV.s 			page 34


DEFINED SYMBOLS
                            *ABS*:00000000 chcore_v7m.c
                            *COM*:00000001 __gnu_lto_v1
                            *COM*:00000001 __gnu_lto_slim

NO UNDEFINED SYMBOLS
