ARM GAS  C:\Users\pc\AppData\Local\Temp\ccnlW87D.s 			page 1


   1              		.cpu cortex-m3
   2              		.eabi_attribute 20, 1
   3              		.eabi_attribute 21, 1
   4              		.eabi_attribute 23, 3
   5              		.eabi_attribute 24, 1
   6              		.eabi_attribute 25, 1
   7              		.eabi_attribute 26, 1
   8              		.eabi_attribute 30, 2
   9              		.eabi_attribute 34, 1
  10              		.eabi_attribute 18, 4
  11              		.file	"chevents.c"
  12              		.section	.gnu.lto_.profile.6ed948f3,"",%progbits
  13 0000 789C6363 		.ascii	"x\234cc```\003bF\206\337L\237\030\001\006{\001\376"
  13      60606003 
  13      624686DF 
  13      4C9F1801 
  13      067B01FE 
  14              		.text
  15              		.section	.gnu.lto_.icf.6ed948f3,"",%progbits
  16 0000 789C6363 		.ascii	"x\234cc``\310`@\000A\206\313\267>6\3631\375\336\260"
  16      6060C860 
  16      40004186 
  16      CBB73E36 
  16      F331FDDE 
  17 0015 F22A0FF3 		.ascii	"\362*\017\363\232\353W/q\260|?\320\366\202\215\365m"
  17      9AEB572F 
  17      71B07C3F 
  17      D0F6828D 
  17      F56D
  18 0027 FFF24E56 		.ascii	"\377\362NV\266kM\007\336\262\261\037|>\3654#\307\312"
  18      B66B4D07 
  18      DEB2B11F 
  18      7C3EF534 
  18      23C7CA
  19 003a 9B1B1773 		.ascii	"\233\033\027sr\202I\256\256\256=;\230\270\247\274>t"
  19      728249AE 
  19      AEAE3D3B 
  19      98B8A7BC 
  19      3E74
  20 004c 9D87E7DC 		.ascii	"\235\207\347\334\241M\033Yy?^?\264\210\211\357T\337"
  20      A14D1B59 
  20      793F5E3F 
  20      B48889EF 
  20      54DF
  21 005e D50DACFC 		.ascii	"\325\015\254\3743\357\254Z\315!\360\261w\346W6\3013"
  21      33EFAC5A 
  21      CD21F0B1 
  21      77E65736 
  21      C133
  22 0070 DB1EBC60 		.ascii	"\333\036\274`d\000\000\333\2034A"
  22      640000DB 
  22      833441
  23              		.text
  24              		.section	.gnu.lto_.jmpfuncs.6ed948f3,"",%progbits
  25 0000 789C9591 		.ascii	"x\234\225\221\261n\302@\014\206\375\333G\002\0114\260"
  25      B16EC240 
  25      0C86FDDB 
ARM GAS  C:\Users\pc\AppData\Local\Temp\ccnlW87D.s 			page 2


  25      47020934 
  25      B0
  26 0011 67E0A978 		.ascii	"g\340\251x\227LY\350\324\0251!\265o\300@\013bC]:\302"
  26      974C59E8 
  26      D4153121 
  26      B56FC040 
  26      0B62435D 
  27 0027 50A9E21D 		.ascii	"P\251\342\035\030\252n\014\250\265\223\003\221c)\226"
  27      18AA6E0C 
  27      A8B59303 
  27      91632996 
  28 0037 ACD3D99F 		.ascii	"\254\323\331\237\177\337\237DD4b\272\304\200\0344\262"
  28      7FDF9F44 
  28      443462BA 
  28      C4801C34 
  28      B2
  29 0048 7226A409 		.ascii	"r&\244\011M\326\024f@\316EQ\302\032\316\237\255\372"
  29      4DD61466 
  29      40CE4551 
  29      C21ACE9F 
  29      ADFA
  30 005a 44E42167 		.ascii	"D\344!gE\346\202\010x\341\211`~X\037{O2\223\026\010"
  30      45E68208 
  30      78E18960 
  30      7E581F7B 
  30      4F329316 
  31 006f 0BE4D838 		.ascii	"\013\344\3308\220\346\257FF\361\225\2668\035jt\303{"
  31      90E6AF46 
  31      46F195B6 
  31      381D6A74 
  31      C37B
  32 0081 DB68E812 		.ascii	"\333h\350\022M&g[\002\202\013\204\245\216\037\"M\371"
  32      4D26675B 
  32      02820B84 
  32      A58E1F22 
  32      4DF9
  33 0093 EF50E26D 		.ascii	"\357P\342m\245\376}Qe\253I\305\200\372\233>\276oc\363"
  33      A5FE7D51 
  33      65AB49C5 
  33      80FA9B3E 
  33      BE6F63F3 
  34 00a7 17ABBF57 		.ascii	"\027\253\277W\344Z\372y\376\370tu\251\346\336\220\227"
  34      E45AFA79 
  34      FEF87475 
  34      A9E6DE90 
  34      97
  35 00b8 C3AEFF62 		.ascii	"\303\256\377blS\247\357\335\251kH\033\011\226\310+\341"
  35      6C53A7EF 
  35      DDA96B48 
  35      1B0996C8 
  35      2BE1
  36 00ca C4C4A977 		.ascii	"\304\304\251w\341\202\306\303\265\300\327~\274F-\220"
  36      E182C6C3 
  36      B5C0D77E 
  36      BC462D90 
  37 00da 62E5B9B4 		.ascii	"b\345\271\264\3422\377f\373y\035\027\252\004f\205\372"
  37      E232FF66 
ARM GAS  C:\Users\pc\AppData\Local\Temp\ccnlW87D.s 			page 3


  37      FB791D17 
  37      AA046685 
  37      FA
  38 00eb F7E18300 		.ascii	"\367\341\203\000o\356\276\301\351\017\372H\212\277"
  38      6FEEBEC1 
  38      E90FFA48 
  38      8ABF
  39              		.text
  40              		.section	.gnu.lto_.inline.6ed948f3,"",%progbits
  41 0000 789C8552 		.ascii	"x\234\205R1k\024A\024\376\336\314\354\354\354\336\356"
  41      316B1441 
  41      14FEDECC 
  41      ECECECDE 
  41      EE
  42 0011 EDACD91C 		.ascii	"\355\254\331\034x\236d\301\"]~C\374\003\207\215\245"
  42      789E64C1 
  42      225D7E43 
  42      FC03878D 
  42      A5
  43 0022 6063E3E1 		.ascii	"`c\343\341O\020\256P\010\010r\205h\012\301\213\244\260"
  43      4F10AE50 
  43      08087285 
  43      680AC18B 
  43      A4B0
  44 0034 48115113 		.ascii	"H\021Q\023\233\300\021,l\214\007ZZX\246Q\202\205\034"
  44      9BC0112C 
  44      6C8C075A 
  44      5A58A651 
  44      82851C
  45 0047 D8F866E6 		.ascii	"\330\370f\346n\361$\220)\336{\363\3367\337\274\367\315"
  45      6EF12490 
  45      29DE7BF3 
  45      DE37DFBC 
  45      F7CD
  46 0059 68003724 		.ascii	"h\0007$\232U\002yF\020\371\307;\310g7\205\313\011d\353"
  46      9A550279 
  46      4610F9C7 
  46      3BC86737 
  46      85CB0964 
  47 006e 9C2A5F1E 		.ascii	"\234*_\036*\304\303k>'\321J\211P\023\207\355\375{\320"
  47      2AC4C36B 
  47      3E27D14A 
  47      89501387 
  47      EDFD7BD0 
  48 0082 E3350131 		.ascii	"\3435\0011-\224+*$\206\017d\337o\205<\257\010\261\346"
  48      2D942B2A 
  48      24860F64 
  48      DF6F853C 
  48      AF08B1E6 
  49 0096 943EDB80 		.ascii	"\224>\333\2009\333\360)\215\216%\003s\367\211\244O;"
  49      39DBF029 
  49      8D8E2503 
  49      73F789A4 
  49      4F3B
  50 00a8 7B27FA91 		.ascii	"{'\372\221|.SJ\351\015\365\344P\300\014\232\310A\376"
  50      7C2E534A 
  50      E90DF5E4 
ARM GAS  C:\Users\pc\AppData\Local\Temp\ccnlW87D.s 			page 4


  50      50C00C9A 
  50      C841FE
  51 00bb CC4E8EE2 		.ascii	"\314N\216\342\000i\321\333\0062\217\270\0219\226\344"
  51      0069D1DB 
  51      06328FB8 
  51      113996E4 
  52 00cb FA01DFDD 		.ascii	"\372\001\337\335\244DA\2471\342\255u\001\0166\203u\215"
  52      A44441A7 
  52      31E2AD75 
  52      010E3683 
  52      758D
  53 00dd 4EC88543 		.ascii	"N\310\205C!\220\014\2573\232\276\212\241R\013\017=+"
  53      21900CAF 
  53      339ABE8A 
  53      A1520B0F 
  53      3D2B
  54 00ef 269102BD 		.ascii	"&\221\002\275\347\235\025s\017=mO\"\013z!*\341\255\227"
  54      E79D1573 
  54      0F3D6D4F 
  54      220B7A21 
  54      2AE1AD97 
  55 0103 A7850A34 		.ascii	"\247\205\0124\352\307X\375\015RT\273n\237><\376\354"
  55      EAC758FD 
  55      0D5254BB 
  55      6E9F3E3C 
  55      FEEC
  56 0115 BB957CCF 		.ascii	"\273\225|\317;\352\201\352\201\367\276-\370F\265\335"
  56      3BEA81EA 
  56      81F7BE2D 
  56      F846B5DD 
  57 0125 7E150585 		.ascii	"~\025\005\205\270\025\033,\324\326k\252a\306?X\033'"
  57      B8151B2C 
  57      D4D66BAA 
  57      61C63F58 
  57      1B27
  58 0137 B47B8D51 		.ascii	"\264{\215Q\177\3247H\272\034\252\361Z#*\245\036\200"
  58      7FD43748 
  58      BA1CAAF1 
  58      5A232AA5 
  58      1E80
  59 0149 00482E02 		.ascii	"\000H.\002\244\210Tx3y[\375+\213\012\326\235\340Y\236"
  59      A4885478 
  59      33795BFD 
  59      2B8B0AD6 
  59      9DE0599E 
  60 015d 3146744F 		.ascii	"1FtO\277\230\206FYr\003fX\255\270T\357~\243\246\304"
  60      BF988646 
  60      59720366 
  60      58ADB854 
  60      EF7EA3A6 
  61 0172 C3839063 		.ascii	"\303\203\220c\345\022Wz\017\216\376\257\264Q\256,\376"
  61      E512577A 
  61      0F8EFEAF 
  61      B451AE2C 
  61      FE
  62 0183 4967B24B 		.ascii	"Ig\262K\313\037%`\012\\-I\222]\322-\341+\017\234nv0"
  62      CB1F2560 
ARM GAS  C:\Users\pc\AppData\Local\Temp\ccnlW87D.s 			page 5


  62      0A5C2D49 
  62      925DD22D 
  62      E12B0F9C 
  63 019a F74C1175 		.ascii	"\367L\021u\177\355\314)\324\264\260\310\366r\0031S\341"
  63      7FEDCC29 
  63      D4B4B0C8 
  63      F6720331 
  63      53E1
  64 01ac D7E5E00D 		.ascii	"\327\345\340\015F}\213+\326\363\235C\3209x|1A\211\313"
  64      467D8B2B 
  64      D6F39D43 
  64      D039787C 
  64      314189CB 
  65 01c0 961FF23C 		.ascii	"\226\037\362<\002?\211\256\266\357/H*\013s\234\361\271"
  65      023F89AE 
  65      B6EF2F48 
  65      2A0B739C 
  65      F1B9
  66 01d2 9F710DF1 		.ascii	"\237q\015\361A/3\341/\005 ~\244"
  66      412F33E1 
  66      2F05207E 
  66      A4
  67              		.text
  68              		.section	.gnu.lto_.pureconst.6ed948f3,"",%progbits
  69 0000 789C0DC3 		.ascii	"x\234\015\303\307\015\3000\014\0001]\212\323\213\237"
  69      C70DC030 
  69      0C00315D 
  69      8AD38B9F 
  70 0010 D61499FF 		.ascii	"\326\024\231\377\246s\010\260D\304\367\257!\203\214"
  70      A67308B0 
  70      44C4F7AF 
  70      21838C
  71 001f 32C92C25 		.ascii	"2\311,%\227\\e\223=\217v\312%\267<\362J\225\016\004"
  71      975C6593 
  71      3D8F76CA 
  71      25B73CF2 
  71      4A950E04 
  72 0033 0D0AC6   		.ascii	"\015\012\306"
  73              		.text
  74              		.section	.gnu.lto_chEvtRegisterMaskWithFlags.6ed948f3,"",%progbits
  75 0000 789C9D54 		.ascii	"x\234\235T\337O\034U\024\276g\356\314\354\002\013\362"
  75      DF4F1C55 
  75      14BE67EE 
  75      CCEC020B 
  75      F2
  76 0011 608CA93C 		.ascii	"`\214\251<,\251\20461\235\352C\2334\306\244\362\242"
  76      2CA98436 
  76      319DEA43 
  76      9B34C6A4 
  76      F2A2
  77 0023 0FC4A4FC 		.ascii	"\017\304\244\374\001\204nW\330\204e\311\016`yb\370\345"
  77      01846E57 
  77      D88465C9 
  77      0E607962 
  77      F8E5
  78 0035 A2686C5A 		.ascii	"\242hlZ\241\262\356\302j\245\365\245\266\326Z]Jq\013"
  78      A1B2EEC2 
ARM GAS  C:\Users\pc\AppData\Local\Temp\ccnlW87D.s 			page 6


  78      6AA5F5A5 
  78      B6D65A5D 
  78      4A710B
  79 0048 96165B28 		.ascii	"\226\026[(E(U\020\351b\201m7\2445M\264\022\250\347\334"
  79      45285510 
  79      E962816D 
  79      37A4354D 
  79      B412A8E7 
  80 005d D952BA58 		.ascii	"\331R\272X\324N2\223{\317\271\337w\276\373\315=We\214"
  80      D44E3293 
  80      7BCFB9DF 
  80      77BEFBCD 
  80      3D57658C 
  81 0071 2DAA8C65 		.ascii	"-\252\214e\001c\317\341\0308\003i\337\020c\265V\011"
  81      0163CFE1 
  81      18380369 
  81      DF1063B5 
  81      5609
  82 0083 80068615 		.ascii	"\200\006\206\025X\215\0045\360\036\377\220C\257o6,m"
  82      588D0435 
  82      F01EFF90 
  82      43AF6F36 
  82      2C6D
  83 0095 3E62E013 		.ascii	">b\340\0239\330ny\333h|6\300\031k\305\227\036\370\012"
  83      39D86E79 
  83      DB687C36 
  83      C0196BC5 
  83      971EF80A 
  84 00a9 36E3AA2B 		.ascii	"6\343\252+\015\307\003\274\231\0078\200\214\323;\203"
  84      0DC703BC 
  84      99073880 
  84      8CD33B83 
  85 00b9 FE990C9A 		.ascii	"\376\231\014\232J`\307ip|:\236\302_\002\206\343\341"
  85      4A60C769 
  85      707C3A9E 
  85      C25F0286 
  85      E3E1
  86 00cb CFEEEE4B 		.ascii	"\317\356\356K\315\3554\214:#r\35107\236\017p\016\247"
  86      CDED348C 
  86      3A2372E9 
  86      30379E0F 
  86      700EA7
  87 00de 8023217C 		.ascii	"\200#!|\015Yp\022\262\030\206\030|\003\271\270|\314"
  87      0D597012 
  87      B2188618 
  87      7C03B9B8 
  87      7CCC
  88 00f0 D7B4A0F0 		.ascii	"\327\264\240\360m\002\332|v\270\201'\240\375\301g\016"
  88      6D02DA7C 
  88      76B88127 
  88      A0FDC167 
  88      0E
  89 0101 D71BAF05 		.ascii	"\327\033\257\005\270\014\337&\203e\006a\001n;\2624\314"
  89      B80CDF26 
  89      83650661 
  89      016E3BB2 
  89      34CC
ARM GAS  C:\Users\pc\AppData\Local\Temp\ccnlW87D.s 			page 7


  90 0113 F90E011E 		.ascii	"\371\016\001\036\030\230\262%\260C\301\015\235\002\253"
  90      1898B225 
  90      B043C10D 
  90      9D02AB
  91 0122 40573256 		.ascii	"@W2VapZ`?9\320\326i\343;M\315\321\305\260\232\000_\015"
  91      61705A60 
  91      3F39D0D6 
  91      69E33B4D 
  91      CDD1C5B0 
  92 013a 66996015 		.ascii	"f\231`\025\272\223\301*\2033\220K\210\350\227\313-\351"
  92      BA93C12A 
  92      8333904B 
  92      88E897CB 
  92      2DE9
  93 014c AA1C7AE0 		.ascii	"\252\034z\340\024\364\200\012+\361\006\341\346B\273"
  93      14F4800A 
  93      2BF106E1 
  93      E642BB
  94 015b 2AE2AD1C 		.ascii	"*\342\255\034VA\030|\207K#\240\262\244\345}m/\273\030"
  94      5641187C 
  94      874B23A0 
  94      B2A4E57D 
  94      6D2FBB18 
  95 016f 255AB944 		.ascii	"%Z\271D\271\271n\337(\360j\201\215\3176E\344\234CB\340"
  95      B9B96EDF 
  95      28F06A81 
  95      8DCF3645 
  95      E49C4342 
  96 0184 FD8E4DC1 		.ascii	"\375\216M\301\372\346\367\215P]f\200[\240\367Q\221\364"
  96      FAE6F78D 
  96      505D6680 
  96      5BA0F751 
  96      91F4
  97 0196 24EB08E2 		.ascii	"$\353\010\342\037\350\203\034\006g\211\234?\"\346{\024"
  97      1FE8831C 
  97      0667899C 
  97      3F22E67B 
  97      14
  98 01a7 730EC5D0 		.ascii	"s\016\305\320\007O\014;6\242D\214\345\373><\014O\007"
  98      074F0C3B 
  98      36A2448C 
  98      E5FB3E3C 
  98      0C4F07
  99 01ba 27630B1B 		.ascii	"'c\013\0333\201\034\227\360c\225\201~\232\002\344~\012"
  99      33811C97 
  99      F0639581 
  99      7E9A02E4 
  99      7E0A
 100 01cc 908F3610 		.ascii	"\220\2176\020\206\260&\364\000\217\226\021a\357\240"
 100      86B026F4 
 100      008F9611 
 100      61EFA0
 101 01db 781CD547 		.ascii	"x\034\325G\330,H\377 \335\277\276t\350\207\034\004\371"
 101      D82C48FF 
 101      20DDBFBE 
 101      74E8871C 
 101      04F9
ARM GAS  C:\Users\pc\AppData\Local\Temp\ccnlW87D.s 			page 8


 102 01ed 62C61999 		.ascii	"b\306\031\231\316\227\005\354p\036s\267\240.\272x\360"
 102      CE9705EC 
 102      701E73B7 
 102      A02EBA78 
 102      F0
 103 01fe F848B2C7 		.ascii	"\370H\262\307\007\272-\011\217\345\265~\332\013\031"
 103      07BA2D09 
 103      8FE5B57E 
 103      DA0B19
 104 020d 5CA09C92 		.ascii	"\\\240\234\222\234[\354\330\3641\247Z\014\006\326z\362"
 104      9C5BECD8 
 104      F431A75A 
 104      0C06D67A 
 104      F2
 105 021e 035A7191 		.ascii	"\003Zq\221<\271H\236\000\253\2250\373i\307\211?S\263"
 105      3CB9489E 
 105      00AB9530 
 105      FB69C789 
 105      3F53B3
 106 0231 F74B1DC6 		.ascii	"\367K\035\306G\366\000O!\300\321\231\323\206\025\255"
 106      47F6004F 
 106      21C0D199 
 106      D38615AD 
 107 0241 617009B2 		.ascii	"ap\011\262\205\355\267\343\243\023\022F`\020d\241\233"
 107      85EDB7E3 
 107      A3131246 
 107      601064A1 
 107      9B
 108 0252 C1906898 		.ascii	"\301\220h\230\317{\372n\330\262[\022\350TZ\373\373\027"
 108      CF7BFA6E 
 108      D8B25B12 
 108      E8545AFB 
 108      FB17
 109 0264 27C6D204 		.ascii	"'\306\322\004\3722\241a\030d\364\254\316.<`\354&\324"
 109      FA32A161 
 109      1864F4AC 
 109      CE2E3C60 
 109      EC26D4
 110 0277 75DD8BFE 		.ascii	"u\335\213\376q[\242\355\3719m\274\265\261\367\262\205"
 110      715BA2ED 
 110      F9396DBC 
 110      B5B1F7B2 
 110      85
 111 0288 5C310F54 		.ascii	"\\1\017Tw\357`\277\032\202\366Z\334\021\222\246\371"
 111      77EF60BF 
 111      1A82F65A 
 111      DC1192A6 
 111      F9
 112 0299 B157AE50 		.ascii	"\261W\256PM\314\215\372\256M\245iG\0153%\303\010\204"
 112      4DCC8DFA 
 112      AE4DA569 
 112      470D3325 
 112      C30884
 113 02ac A045B434 		.ascii	"\240E\2644\374\010\032\221\217\276\333\246\020\365j"
 113      FC081A91 
 113      8FBEDBA6 
 113      10F56A
ARM GAS  C:\Users\pc\AppData\Local\Temp\ccnlW87D.s 			page 9


 114 02bb 5E790D6F 		.ascii	"^y\015ohC\200\333\374\330H\243\217!\036\023\304tr\340"
 114      684380DB 
 114      FCD848A3 
 114      8F211E13 
 114      C47472E0 
 115 02cf 2A68A893 		.ascii	"*h\250\223\270\375\261\371C\251\011\362d\266ue\216?"
 115      B8FDB1F9 
 115      43A909F2 
 115      64B67565 
 115      8E3F
 116 02e1 94798DD8 		.ascii	"\224y\215\330\024aC,6\223j\272 \255V\233.\324\206\303"
 116      1461432C 
 116      36936ABA 
 116      20AD569B 
 116      2ED486C3 
 117 02f5 F1094BCD 		.ascii	"\361\011K\315\222a\305@\210\204`\354d\375\235\375\031"
 117      9261C540 
 117      888460EC 
 117      64FD9DFD 
 117      19
 118 0306 5813023C 		.ascii	"X\023\002<\003~\306\233\356\247D\275S\347'\027\255+"
 118      037EC69B 
 118      EEA744BD 
 118      53E72717 
 118      AD2B
 119 0318 F59E8209 		.ascii	"\365\236\202\011QO2{\346\257\361\372Fi%i\205I\320Z\270"
 119      514F327B 
 119      E6AFF1FA 
 119      46692569 
 119      8549D05A 
 120 032d 68EE5FD6 		.ascii	"h\356_\326X\366?<\262\302\224\250\"\023\323\257\264"
 120      58F63F3C 
 120      B2C294A8 
 120      2213D3AF 
 120      B4
 121 033e 2BC9F4E8 		.ascii	"+\311\364\350\346c=Z\207M\201i\301\246\020\333ubK!\266"
 121      E6633D5A 
 121      874D8169 
 121      C1A610DB 
 121      75624B21 
 122 0353 BBF3B79E 		.ascii	"\273\363\267\236\204M\205\250`S\211m\0064\\p,\036\276"
 122      844D85A8 
 122      6053896D 
 122      06345C70 
 122      2C1EBE
 123 0366 974EF662 		.ascii	"\227N\366b\343\303o\210\022Z\343O\306~C\260[\210}\226"
 123      E3C36F88 
 123      125AE34F 
 123      C67E43B0 
 123      5B887D96 
 124 037a B4DAC4AD 		.ascii	"\264\332\304\255@\227\321\352\037i\301Js\253\233\334"
 124      4097D1EA 
 124      1F69C14A 
 124      73AB9BDC 
 125 038a BC8C128D 		.ascii	"\274\214\022\215\267\334q\275'\355AO\315\211\236\232"
 125      B7DC71BD 
 125      27ED414F 
ARM GAS  C:\Users\pc\AppData\Local\Temp\ccnlW87D.s 			page 10


 125      CD899E9A 
 126 039a 173D95DC 		.ascii	"\027=\225\334@1\263\201\246\227>\350*\0265\030[\300"
 126      4031B381 
 126      A6973EE8 
 126      2A163518 
 126      5BC0
 127 03ac 69F3C246 		.ascii	"i\363\302F\222.\256\227&< x;!Fs\354\320\362J\\\273]"
 127      922EAE97 
 127      263C2078 
 127      3B214673 
 127      ECD0F24A 
 128 03c3 0515957B 		.ascii	"\005\025\225{\\\036s\374F\301\213\333\267i\036]\363"
 128      5C1E73FC 
 128      46C18BDB 
 128      B7691E5D 
 128      F3
 129 03d4 5668BAD7 		.ascii	"Vh\272\327\2419J\234U\316\262\012}\213\203q\247^\316"
 129      A1394A9C 
 129      55CEB20A 
 129      7D8B8371 
 129      A75ECE
 130 03e7 9DA5E5AA 		.ascii	"\235\245\345\252\031Q\337z\263\264\250X\337\372o,\256"
 130      1951DF7A 
 130      B3B4A858 
 130      DFFA6F2C 
 130      AE
 131 03f8 324769E5 		.ascii	"2Gi\345\036'2\351\325\372\226\022\246T\025\225V:_Y\027"
 131      1E2732E9 
 131      D5FA9612 
 131      A6541595 
 131      563A5F59 
 132 040d E6F0B8DD 		.ascii	"\346\360\270\335\2362\255\334\343\255\320\265\235\273"
 132      9E32ADDC 
 132      E3ADD0B5 
 132      9DBB
 133 041b F2F3F2F7 		.ascii	"\362\363\362\367\"\336\341\361:\013\253\266\273\221"
 133      22DEE1F1 
 133      3A0BABB6 
 133      BB91
 134 0429 E4D5FF02 		.ascii	"\344\325\377\002w\356\255\320\362\362\013^/x\250\301"
 134      77EEADD0 
 134      F2F20B5E 
 134      2F78A8C1 
 135 0439 ADBBF4C2 		.ascii	"\255\273\364\302b\207\003)2\363\013v\331w\027\351\316"
 135      62870329 
 135      32F30B76 
 135      D97717E9 
 135      CE
 136 044a 72AFEB05 		.ascii	"r\257\353\005{\316V&y\231\305\355t{\274\325\354o\220"
 136      7BCE5626 
 136      7999C5ED 
 136      747BBCD5 
 136      EC6F90
 137 045d BAA282   		.ascii	"\272\242\202"
 138              		.text
 139              		.section	.gnu.lto_chEvtUnregister.6ed948f3,"",%progbits
 140 0000 789C8D54 		.ascii	"x\234\215T\377OSW\024?\347\335\373^\273\266[\370q1\376"
ARM GAS  C:\Users\pc\AppData\Local\Temp\ccnlW87D.s 			page 11


 140      FF4F5357 
 140      143FE7DD 
 140      FB5EBBB6 
 140      5BF87131 
 141 0015 50923548 		.ascii	"P\2225H\262\370\334~\320\314\037L\034?\355\007\262\304"
 141      B2F8DC7E 
 141      D0CC1F4C 
 141      1C3FED07 
 141      B2C4
 142 0027 FE01066A 		.ascii	"\376\001\006j#M(m\372\012\221\237|\226/\24523\223!,"
 142      234D286D 
 142      FA0A919F 
 142      7C962FA5 
 142      32339321 
 143 003c 5D818675 		.ascii	"]\201\206u\223h\230\316mN*\262\002\233\303\015\024Y"
 143      936898CE 
 143      6D4E2AB2 
 143      029BC30D 
 143      1459
 144 004e 113392CD 		.ascii	"\0213\222\315I\300\2705\354K\034\331\227\204\355\334"
 144      49C0B835 
 144      EC4B1CD9 
 144      9784EDDC 
 145 005e FB0A6855 		.ascii	"\373\012hU\266\373\303\313\275\347|>\347\236\3639\347"
 145      B6FBC3CB 
 145      BDE77C3E 
 145      E79EF339 
 145      E7
 146 006f 3E0D009A 		.ascii	">\015\000\232U\2002\004\250\241=\332\001\225\223\327"
 146      55803204 
 146      A8A13DDA 
 146      019593D7 
 147 007f 018ED915 		.ascii	"\001\216\331\025T\255\015S\370\212\012\246\30360\011"
 147      54AD0D53 
 147      F88A0AA6 
 147      C3363009 
 148 008f 60BA386A 		.ascii	"`\2728j\226\335f\001\366\253\012\223\036\207&`.\015"
 148      96DD6601 
 148      F6AB0A93 
 148      1E872660 
 148      2E0D
 149 00a1 51984D3B 		.ascii	"Q\230M;\302Q\205q\233\252\341Q\205\256\260\326\033\254"
 149      C2518571 
 149      9BAAE151 
 149      85AEB0D6 
 149      1BAC
 150 00b3 8BE1787C 		.ascii	"\213\341x|yX\251<m\322\312\365$\035\355f\333\363)\006"
 150      7958A93C 
 150      6DD2CAF5 
 150      241DED66 
 150      DBF32906 
 151 00c7 D0CD2C0C 		.ascii	"\320\315,\014~\204\225\204\272\331z>\305:Y\212!r:\376"
 151      7E849584 
 151      BAD97A3E 
 151      C53A598A 
 151      21723AFE 
 152 00db 3A9D5C7C 		.ascii	":\235\\|N\034\025t\323\261w\376N\341\031\3662\002\355"
ARM GAS  C:\Users\pc\AppData\Local\Temp\ccnlW87D.s 			page 12


 152      4E1C1574 
 152      D3B177FE 
 152      4EE119F6 
 152      3202ED
 153 00ee 67320F4E 		.ascii	"g2\017N:*\3363\315\230\231{\220a\346\013)\306\360\""
 153      3A2ADE33 
 153      CD98997B 
 153      9061E60B 
 153      29C6F022 
 154 0102 320A889F 		.ascii	"2\012\210\237\340v\374\030\267\003\231\000?\305\012"
 154      E076FC18 
 154      B7039900 
 154      3FC50A
 155 0111 82CFC53B 		.ascii	"\202\317\305;VT\266[R;\307fZY\221Z8-\251\034/\225R9"
 155      5654B65B 
 155      523BC766 
 155      5A59915A 
 155      382DA91C 
 156 0129 E0305608 		.ascii	"\3400V\010\374T.q\316\301\366J\356\337=\303K\334\363"
 156      FC542E71 
 156      CEC1F64A 
 156      EEDF3DC3 
 156      4BDCF3
 157 013c AEE4AE0E 		.ascii	"\256\344\256\016n\033h1'M.\370\331G\371b\021\374\356"
 157      6E1B6831 
 157      274D2EF8 
 157      D947F962 
 157      11FCEE
 158 014f 876BA79E 		.ascii	"\207k\247\236\3258^FOz\275Z\034A\0157|\255R\221\265"
 158      D5385E46 
 158      4F7ABD5A 
 158      1C410D37 
 158      7CAD5291 
 159 0164 339AB477 		.ascii	"3\232\264w3|\210\006x\205\240\243\250A\011|\361^\005"
 159      337C8806 
 159      7885A0A3 
 159      A841097C 
 159      F15E05
 160 0177 E147055E 		.ascii	"\341G\005^\021\276{#\361<\262\240\344\026\226;r\353"
 160      11BE7B23 
 160      F13CB2A0 
 160      E416963B 
 160      72EB
 161 0189 197EDFB7 		.ascii	"\031~\337\267\243\267\245\363\204\231\216\225\245\230"
 161      A3B7A5F3 
 161      84998E95 
 161      A598
 162 0197 8AB92D72 		.ascii	"\212\271-r\264\002\257\364\222\212c\350\001\374L\004"
 162      B402AFF4 
 162      928A63E8 
 162      01FC4C04 
 163 01a7 678F2433 		.ascii	"g\217$3N\311LP2\342C\263\203\242\252s\263j\316\\\373"
 163      4EC94C50 
 163      32E243B3 
 163      83A2AA73 
 163      B36ACE5C 
 164 01bc 274E4DDD 		.ascii	"'NM\3356\330\325~b\236\273\020\204C\021\0222\361\341"
ARM GAS  C:\Users\pc\AppData\Local\Temp\ccnlW87D.s 			page 13


 164      36D8D57E 
 164      629EBB10 
 164      84431112 
 164      32F1E1
 165 01cf F24C2342 		.ascii	"\362L#B\235\260\243\024\025:H\210\214\323\314A\202\012"
 165      9DB0A314 
 165      153A4888 
 165      8CD3CC41 
 165      820A
 166 01e1 C8385B72 		.ascii	"\3108[r\260\214\261\364\317]\252\024\207\340I\246\221"
 166      B08CB1F4 
 166      CF5DAA14 
 166      87E049A6 
 166      91
 167 01f2 49794241 		.ascii	"IyBA\311\255\013\302\317\321C\244\370}\363\012\027\223"
 167      C9AD0BC2 
 167      CFD143A4 
 167      F87DF30A 
 167      1793
 168 0204 A3A21BBF 		.ascii	"\243\242\033\277 \337O\030\273{\266\347\374l\251\362"
 168      20DF4F18 
 168      BB7BB6E7 
 168      FC6CA9F2 
 169 0214 6F651D45 		.ascii	"oe\035E\345\371c*\307\367\251\200W\205O-\365-\364\355"
 169      E5F9632A 
 169      C7F7A980 
 169      57854F2D 
 169      F52DF4ED 
 170 0228 788789BB 		.ascii	"x\207\211\273\000\277|\\\251I*\342\232P\352\232P\012"
 170      00BF7C5C 
 170      A9492AE2 
 170      9A50EA9A 
 170      500A
 171 023a E17771EB 		.ascii	"\341wq\353@\377\205?\034\345\355J\277\371\266;\305d"
 171      40FF853F 
 171      1CE5ED4A 
 171      BFF9B63B 
 171      C564
 172 024c 4F87162F 		.ascii	"O\207\026/\233v\256P\326_a\271l\306/\205\374\202B\026"
 172      9B76AE50 
 172      D65F61B9 
 172      6CC62F85 
 172      FC824216 
 173 0260 FC1AB9CC 		.ascii	"\374\032\271\314\033pJ>\205\301\321\211%Wy\242\310\266"
 173      1B704A3E 
 173      85C1D189 
 173      255779A2 
 173      C8B6
 174 0272 09EC6F1F 		.ascii	"\011\354o\037\\\230sJ\366\264`\343u\344BF\267\324@h"
 174      5C98734A 
 174      F6B460E3 
 174      75E44246 
 174      B7D44068 
 175 0286 91A0B4E8 		.ascii	"\221\240\264\350\231\222\272K\330\372\355D\317\354q"
 175      9992BA4B 
 175      D8FAED44 
 175      CFEC71
ARM GAS  C:\Users\pc\AppData\Local\Temp\ccnlW87D.s 			page 14


 176 0295 972835C9 		.ascii	"\227(5\311X\222\331\301Bp\270\250\022\340G\214e\357"
 176      5892D9C1 
 176      4270B8A8 
 176      12E0478C 
 176      65EF
 177 02a7 9F69735A 		.ascii	"\237isZ~\205\242w\267\215\337\260\011\005\271\034\253"
 177      7E85A277 
 177      B78DDFB0 
 177      0905B91C 
 177      AB
 178 02b8 91F1E9AB 		.ascii	"\221\361\351\253Z\032\373\216Q\365\224\200\235\"\340"
 178      5A1AFB8E 
 178      51F59480 
 178      9D22E0
 179 02c7 0D911FF9 		.ascii	"\015\221\037\371\362\361\333\3379\365!\323rq\234\301"
 179      F2F1DBDF 
 179      39F521D3 
 179      72719CC1 
 180 02d7 349E920F 		.ascii	"4\236\222\017\033o\242.b\347\217\377\311D\350\222@\351"
 180      1B6FA22E 
 180      62E78FFF 
 180      C944E892 
 180      40E9
 181 02e9 5A90A1F0 		.ascii	"Z\220\241\360\251\241f7C}\203:e\006\260\212\230\024"
 181      A9A16637 
 181      437D833A 
 181      6506B08A 
 181      9814
 182 02fb A3454364 		.ascii	"\243ECd\203\3028`\202\332C\277\0379D\012X\323\303\255"
 182      83C23860 
 182      82DA43BF 
 182      1F39440A 
 182      58D3C3AD 
 183 030f 8AFA97B4 		.ascii	"\212\372\227\264b\305O,\201?\365\336\374\346\275sT\002"
 183      62C54F2C 
 183      813FF5DE 
 183      FCE6BD73 
 183      5402
 184 0321 E9B73031 		.ascii	"\351\26701\205\033\352i\302\263\212\234v\312_\357W\222"
 184      851BEA69 
 184      C2B38A9C 
 184      76CA5FEF 
 184      5792
 185 0333 CD963DFB 		.ascii	"\315\226=\373\012\311\251\255O3%2&'qCG\225&\341\326"
 185      0AC9A9AD 
 185      4F332532 
 185      26277143 
 185      479526E1 
 186 0348 C39368BD 		.ascii	"\303\223h\275\243\342t\254\365\3770\352\\o\374-\331"
 186      A3E274AC 
 186      F5FF30EA 
 186      5C6FFC2D 
 186      D9
 187 0359 F879D9F8 		.ascii	"\370y\331\370\322.\337\266\272|g\350\315\354ay\007\300"
 187      D22EDFB6 
 187      BA7C67E8 
 187      CDEC6179 
ARM GAS  C:\Users\pc\AppData\Local\Temp\ccnlW87D.s 			page 15


 187      07C0
 188 036b 0A1D3B2F 		.ascii	"\012\035;/yDv\262\253\035\364\027\3118\211\242\373\366"
 188      794476B2 
 188      AB1DF417 
 188      C93889A2 
 188      FBF6
 189 037d EA557581 		.ascii	"\352Uu\201\332\2007\332x(\020\262\366\257{_\332\263"
 189      DA8037DA 
 189      782810B2 
 189      F6AF7B5F 
 189      DAB3
 190 038f 5B0F197A 		.ascii	"[\017\031z$\252\033\021\237\356\253\3637\371\033\242"
 190      24AA1B11 
 190      9FEEABF3 
 190      37F91BA2 
 191 039f C64E1F30 		.ascii	"\306N\0370\277\021f\376\3720\206w\375\0273\320\340\253"
 191      BF1166FE 
 191      FA308677 
 191      FD1733D0 
 191      E0AB
 192 03b1 6F3CE427 		.ascii	"o<\344'\266\321l\354\254\003\265\251\246\276\321\277"
 192      B6D16CEC 
 192      AC03B5A9 
 192      A6BED1BF 
 193 03c1 6F4B9A2F 		.ascii	"oK\232/\024\014\206\032\364p(\0225\364\375\007\252\253"
 193      140C861A 
 193      F4702812 
 193      35F4FD07 
 193      AAAB
 194 03d3 AA8F10DF 		.ascii	"\252\217\020\337\027\212\370\0176\355\011R\220W\377"
 194      178AF80F 
 194      36ED0952 
 194      9057FF
 195 03e2 0FDD7F24 		.ascii	"\017\335\177$\252WU{_\363n\346\0204\002\306\301\303"
 195      AA57557B 
 195      5FF36EE6 
 195      103402C6 
 195      C1C3
 196 03f4 3E1F8528 		.ascii	">\037\205(\253\366\036p\327\326\030\376p$\360\242\333"
 196      ABF61E70 
 196      D7D618FE 
 196      7024F0A2 
 196      DB
 197 0405 B30B9408 		.ascii	"\263\013\224\010\330\202\376`(\322\014\377\002S\304"
 197      D882FE60 
 197      28D20CFF 
 197      0253C4
 198 0414 1C3A     		.ascii	"\034:"
 199              		.text
 200              		.section	.gnu.lto_chEvtGetAndClearEvents.6ed948f3,"",%progbits
 201 0000 789C8D53 		.ascii	"x\234\215SMl\023W\020\236\331\267^\033\234\246\034\270"
 201      4D6C1357 
 201      109ED9B7 
 201      5E1B9CA6 
 201      1CB8
 202 0012 35428E54 		.ascii	"5B\216T+\240\266,p\000\321\003\022\344\324C\204\204"
 202      2BA0B62C 
ARM GAS  C:\Users\pc\AppData\Local\Temp\ccnlW87D.s 			page 16


 202      7000D103 
 202      12E4D443 
 202      8484
 203 0024 4F3D2158 		.ascii	"O=!X,b)\216\221\327\211\340\224\305&\330m\212@\224\004"
 203      2C62298E 
 203      91D789E0 
 203      94C526D8 
 203      6D8A4094 
 204 0039 30CE4F5B 		.ascii	"0\316O[AZ\211\264\024R !\244n \177\205@\010\016\201"
 204      415A89B4 
 204      14522021 
 204      A46E207F 
 204      8540080E 
 205 004e A68A5A50 		.ascii	"\246\212ZPA\264Q\004\210CK\033\303\314[\023L@){xz\357"
 205      41B45104 
 205      88434B1B 
 205      C3CC5B13 
 205      4C40297B 
 206 0065 CDF7CD7C 		.ascii	"\315\367\315|\373\315<\015\000\336s\000\274\215\000"
 206      FBCD3C0D 
 206      00DE7300 
 206      BC8D00
 207 0074 EFD01E05 		.ascii	"\357\320\036\005\240\262\357\012\300N\227\202\310\033"
 207      A0B2EF0A 
 207      C04E9782 
 207      C81B
 208 0082 CB8550A3 		.ascii	"\313\205P\243`\015~&\016\010\274\266\353DJ\324\211\024"
 208      600D7E26 
 208      0E08BCB6 
 208      EB444AD4 
 208      8914
 209 0094 C1543A3E 		.ascii	"\301T:>\034J\336)\344#\242\207\216\223S}\355\005KZ-"
 209      1C4ADE29 
 209      E423A287 
 209      8E93537D 
 209      ED054B5A 
 210 00a9 2B6AA50F 		.ascii	"+j\245\017\036p7\266\017[\363RB\201\006\202\267c\021"
 210      1E7037B6 
 210      0F5BF352 
 210      42810682 
 210      B76311
 211 00bc 9EC222AE 		.ascii	"\236\302\"\256\361\003.!\360\341\326\351a!V \320~pp"
 211      F1032E21 
 211      F0E1D6E9 
 211      61215620 
 211      D07E7070 
 212 00d0 A2A0E4A8 		.ascii	"\242\240\344\250\344]<&\254w\211\204\247Q\344\3638\017"
 212      E45D3C26 
 212      AC778984 
 212      A751E4F3 
 212      380F
 213 00e2 9EC11286 		.ascii	"\236\301\022\206\367f\317$T\261ZRo4\217\016\024z\277"
 213      F766CF24 
 213      54B15A52 
 213      6F348F0E 
 213      147ABF
 214 00f5 92DC89E3 		.ascii	"\222\334\211\343\213\276\210Y\003\226\312\374\263/\363"
ARM GAS  C:\Users\pc\AppData\Local\Temp\ccnlW87D.s 			page 17


 214      8BBE8859 
 214      0396CAFC 
 214      B32FF3
 215 0104 F923F8ED 		.ascii	"\371#\370\355\357\263\365oi*v\240\227e\221\232N\324"
 215      EFB3F56F 
 215      692A76A0 
 215      9765919A 
 215      4ED4
 216 0116 7026B0CB 		.ascii	"p&\260\313\242/\335\327\246\311\373\006\201y\034\300"
 216      A22FDDD7 
 216      A6C9FB06 
 216      81791CC0 
 217 0126 7304ED42 		.ascii	"s\004\355B\015f\301\307\357\225\020\276\213\361\012"
 217      0D66C1C7 
 217      EF9510BE 
 217      8BF10A
 218 0135 C7EE75C5 		.ascii	"\307\356u\3053(*$w\362n\"\255\346\344\2155-n\214\325"
 218      33282A24 
 218      77F26E22 
 218      ADE6E48D 
 218      352D6E8C 
 219 014a EDB15AA2 		.ascii	"\355\261Z\242\013RB`\367\034\002\355\304S\215\004\373"
 219      0B524260 
 219      F71C02ED 
 219      C4538D04 
 219      FB
 220 015b 9194E279 		.ascii	"\221\224\342yN.^\022\223&1?\221\030^\250{\310\277\364"
 220      4E2E5E12 
 220      9326313F 
 220      91185EA8 
 220      7BC8BFF4 
 221 016f DD88236D 		.ascii	"\335\210#me\237\306\311\376\205\307\037\334\037\367"
 221      659FC6C9 
 221      FE85C71F 
 221      DC1FF7
 222 017e BA918C53 		.ascii	"\272\221\214S\025Z\034\202\027\225\027\015\331H'H\023"
 222      155A1C82 
 222      1795170D 
 222      D9482748 
 222      13
 223 018f 20412E50 		.ascii	" A.P\243\2554|B\362i\027K\303]T^#>9\267x\354A/\221\342"
 223      A3AD347C 
 223      42F26917 
 223      4BC35D54 
 223      5E233E39 
 224 01aa F7ADF32A 		.ascii	"\367\255\363*\317\204@\017^\240\330_\030\275\335z\360"
 224      CF84400F 
 224      5EA0D85F 
 224      18BDDD7A 
 224      F0
 225 01bb C4C86C97 		.ascii	"\304\310l\227?O\272s.\253\2578\032_\343\000\274\310"
 225      3F4FBA73 
 225      2EABAF38 
 225      1A5FE300 
 225      BCC8
 226 01cd 31C7ECD8 		.ascii	"1\307\354\330\365\246\305G\004\327\002\354}\325\225"
 226      F5A6C547 
ARM GAS  C:\Users\pc\AppData\Local\Temp\ccnlW87D.s 			page 18


 226      04D702EC 
 226      7DD595
 227 01dc 3E32A39F 		.ascii	">2\243\237]\351gW\020\036s\325/\233O\376=\277\270Vi"
 227      5DE96757 
 227      101E73D5 
 227      2F9B4FFE 
 227      3DBFB856 
 228 01f1 B60E7952 		.ascii	"\266\016yRB\366\257\355\3169\313E\306\000\016`\2614"
 228      42F6AFED 
 228      CE39CB45 
 228      C6000E60 
 228      B134
 229 0203 FEC16466 		.ascii	"\376\301df\\\241\033\034DU\352\006\374Y\016\371\327"
 229      5CA11B1C 
 229      4455EA06 
 229      FC590EF9 
 229      D7
 230 0214 DD17FE28 		.ascii	"\335\027\376((N\344\330N\306>\372\366\344\250[\262/"
 230      284EE4D8 
 230      4EC63EFA 
 230      F6E4A85B 
 230      B22F
 231 0226 311B2FA3 		.ascii	"1\033/\243J\236E=\322\003\200?1\332\371O\317\251\325"
 231      4A9E453D 
 231      D203803F 
 231      31DAF94F 
 231      CFA9D5
 232 0239 FC7749C1 		.ascii	"\374wI\301\012\032j{\256:\331\024\227\234\212\216\216"
 232      0A1A6A7B 
 232      AE3AD914 
 232      979C8A8E 
 232      8E
 233 024a C97167CD 		.ascii	"\311qg\315\264\345\242\213\026a7\276=\366p\177a\013"
 233      B4E5A28B 
 233      166137BE 
 233      3DF6707F 
 233      610B
 234 025c 36614ACC 		.ascii	"6aJ\314\303+\364\340\206X\003\005N\367\377\372\257K"
 234      C32BF4E0 
 234      86580305 
 234      4EF7FFFA 
 234      AF4B
 235 026e 6FE39FA7 		.ascii	"o\343\237\247\372\363\361*\266`\275\310\215\313\223"
 235      FAF3F12A 
 235      B660BDC8 
 235      8DCB93
 236 027d B158AD32 		.ascii	"\261X\2552\023Tq\030\365z\232Z\322t\015u)d\260\310\226"
 236      13547118 
 236      F57A9A5A 
 236      D2740D75 
 236      2964B0C8 
 237 0292 A1E4CB50 		.ascii	"\241\344\313P\245\214\256\236\241>\215J\356\264\331"
 237      A58CAE9E 
 237      A13E8D4A 
 237      EEB4D9
 238 02a1 6ED28A23 		.ascii	"n\322\212#\271\252\231\370\315\011\367Lb\005\257\313"
 238      B9AA99F8 
ARM GAS  C:\Users\pc\AppData\Local\Temp\ccnlW87D.s 			page 19


 238      CD09F74C 
 238      6205AFCB 
 239 02b1 AA0A67CE 		.ascii	"\252\012g\316\310\314\261\377v\177lgvR\362$\331\312"
 239      C8CCB1FF 
 239      767F6C67 
 239      7652F224 
 239      D9CA
 240 02c3 0EC8E744 		.ascii	"\016\310\347DsE\267\\=\273{\372\326Y\264a\2021\222\327"
 240      7345B75C 
 240      3DBB7BFA 
 240      D659B461 
 240      823192D7 
 241 02d7 E1B06F54 		.ascii	"\341\260oTI\024\014\314|*Qo$\352\003\3263\372B\317\015"
 241      49140CCC 
 241      7C2A516F 
 241      24EA03D6 
 241      33FA42CF 
 242 02ec D429971C 		.ascii	"\324)\227\034Z~-\371\377IV\340X\376\014\332\257%7\027"
 242      5A7E2DF9 
 242      FF4956E0 
 242      58FE0CDA 
 242      AF253717 
 243 0300 D9E6DFBB 		.ascii	"\331\346\337\273\335\317[>&[~S\266|v\177o\331\375\375"
 243      DDCF5B3E 
 243      265B7E53 
 243      B67C767F 
 243      6FD9FDFD 
 244 0314 ED9BBD9D 		.ascii	"\355\233\275\235[e\015\200):\326\375\322\253\345,\340"
 244      5B650D80 
 244      293AD6FD 
 244      D2ABE52C 
 244      E0
 245 0325 7624A81A 		.ascii	"v$\250\032\275\037\242\351\306\207ziy`s\300\027\251"
 245      BD1FA2E9 
 245      C6877A69 
 245      796073C0 
 245      17A9
 246 0337 DA1208D9 		.ascii	"\332\022\010\331\373\365\276\345\253V\352!S\017Gt3l"
 246      FBF5BEE5 
 246      AB56EA21 
 246      530F4774 
 246      336C
 247 0349 E846B9BF 		.ascii	"\350F\271\277\332_\0311\227\032\240\331;\014.\373?b"
 247      DA5F1931 
 247      971AA0D9 
 247      3B0C2EFB 
 247      3F62
 248 035b A0D2A8A8 		.ascii	"\240\322\250\250\332\342'\262\271\303\\Z\016\216\352"
 248      DAE227B2 
 248      B9C35C5A 
 248      0E8EEA
 249 036a 4D1555FE 		.ascii	"M\025U\3765s\322\214P0\030\252\324\267\205\302\021S"
 249      3573D28C 
 249      503018AA 
 249      D4B785C2 
 249      1153
 250 037c 5FBBA1AC 		.ascii	"_\273\241\254\264l;\361\215P\330\277\261zU\220\222\254"
ARM GAS  C:\Users\pc\AppData\Local\Temp\ccnlW87D.s 			page 20


 250      B46C3BF1 
 250      8D50D8BF 
 250      B17A5590 
 250      92AC
 251 038e 7B13BA7F 		.ascii	"{\023\272\177{D/-\363}\344{\241!h\006\314\215[\015\203"
 251      7B442F2D 
 251      F37DE47B 
 251      A1216806 
 251      CC8D5B0D 
 252 03a3 522C28F3 		.ascii	"R,(\363m\360l\336d\372\267\205\003\357{\274\313@\011"
 252      6DF06CDE 
 252      64FAB785 
 252      03EF7BBC 
 252      CB4009
 253 03b6 8333E80F 		.ascii	"\2033\350\017\206\302;\340\031&I\373\310"
 253      86C23BE0 
 253      192649FB 
 253      C8
 254              		.text
 255              		.section	.gnu.lto_chEvtAddEvents.6ed948f3,"",%progbits
 256 0000 789C8D53 		.ascii	"x\234\215SKO\023Q\024>g\356\264\024\012\206\265\262"
 256      4B4F1351 
 256      143E67EE 
 256      B4140A86 
 256      B5B2
 257 0012 28890D18 		.ascii	"(\211\015\030\225A\027\232\2700QV.\210\211\375\001D"
 257      9541179A 
 257      B8305156 
 257      2E8889FD 
 257      0144
 258 0024 86066A2C 		.ascii	"\206\006j,%\235B`\305\330*E\321hTP\261@\305\030\335"
 258      259D4260 
 258      C5D82A45 
 258      D1685450 
 258      B140C518 
 259 0039 E003F1C1 		.ascii	"\340\003\361\301\323\312ST\264bQ\023\014Q\211\030\204"
 259      D3CA5354 
 259      B4625113 
 259      0C518918 
 259      84
 260 004a 10754534 		.ascii	"\020uE4\200\347\336V\304j\324YL\356\343|\337\371\316"
 260      80E7DE56 
 260      C46AD459 
 260      4CEEE37C 
 260      DFF9CE
 261 005d 77CE3502 		.ascii	"w\3165\002@\253\014\220\202\000kh\215\014P:\361\004"
 261      40AB0C90 
 261      82006B68 
 261      8D0C503A 
 261      F104
 262 006f E0804942 		.ascii	"\340\200IB\344\013\335\204P)a%\036e\247\031>;x=\300"
 262      E40BDD84 
 262      50296125 
 262      1E65A719 
 262      3E3B783D 
 263 0084 6A5880C2 		.ascii	"jX\200\302d\332~\036\251\237\\\305\267\210\026\332\316"
 263      64DA7E1E 
ARM GAS  C:\Users\pc\AppData\Local\Temp\ccnlW87D.s 			page 21


 263      A99F5CC5 
 263      B78816DA 
 263      CE
 264 0095 CE0DB625 		.ascii	"\316\015\266%\257\273\254\353^=t\346\265\271\241-\254"
 264      AFBBACEB 
 264      5E3D74E6 
 264      B5B9A12D 
 264      AC
 265 00a6 27069804 		.ascii	"'\006\230\004u\024\336\206ix\023\323x\216[\270\216\202"
 265      7514DE86 
 265      697813D3 
 265      788E5BB8 
 265      8E82
 266 00b8 CF5D5E08 		.ascii	"\317]^\0103\266\031\201\326\303\303\023\311\031\227"
 266      33B61981 
 266      D6C3C313 
 266      C91997
 267 00c7 04AEFF12 		.ascii	"\004\256\377\022\323\327\022\010o#[\211\343<x\0073x"
 267      D3D71208 
 267      6F235B89 
 267      E33C7807 
 267      3378
 268 00d9 F8BB1B8B 		.ascii	"\370\273\033\213\265)F\231\363\022\335]4\342\362\341"
 268      B5294699 
 268      F312DD5D 
 268      34E2F2E1 
 269 00e9 419DBED0 		.ascii	"A\235\276\320\3045\2438\257c\2702\036\333)\264\003\215"
 269      C435A338 
 269      AF63B832 
 269      1EDB29B4 
 269      038D
 270 00fb 1017FEE8 		.ascii	"\020\027\376\350C\006\305w\360x\211\337}\350\362G\220"
 270      4306C577 
 270      F07889DF 
 270      7DE8F247 
 270      90
 271 010c ED13D8D9 		.ascii	"\355\023\330\331\251\352\220l\275(\264\0155f6\370j\216"
 271      A9EA906C 
 271      BD28B40D 
 271      356636F8 
 271      6A8E
 272 011e E9416F6A 		.ascii	"\351Aoj\2001\354\372U!\377\342\210\347\032(\254\033"
 272      8031ECFA 
 272      5521FFE2 
 272      88E71A28 
 272      AC1B
 273 0130 AD809D9C 		.ascii	"\255\200\235\234\234\375\"\246\207\304\334#1\374G\366"
 273      9CFD22A6 
 273      87C4DC23 
 273      31FC47F6 
 274 0140 C3B55143 		.ascii	"\303\265QCH_\\\362\223wiW\303\323\213\326D\244\252e"
 274      485F5CF2 
 274      93776957 
 274      C3D38BD6 
 274      44A4AA65 
 275 0154 897E06C6 		.ascii	"\211~\006\306\177\006\024\006@5\225M\255\321Cp\230\364"
 275      7F061406 
ARM GAS  C:\Users\pc\AppData\Local\Temp\ccnlW87D.s 			page 22


 275      4035954D 
 275      ADD14370 
 275      98F4
 276 0166 D2CA1782 		.ascii	"\322\312\027\202)\224\376\240\266\376\357j1\204V\002"
 276      2994FEA0 
 276      B6FEEF6A 
 276      31845602 
 277 0176 F9A7F56E 		.ascii	"\371\247\365n\231w\221\241\005\357\323\335\014z\337"
 277      997791A1 
 277      05EFD3DD 
 277      0C7ADF
 278 0185 2DD55D1F 		.ascii	"-\325]\037\215\267\365\324's\314V\3717\013\375\333\015"
 278      8DB7F5D4 
 278      2773CC56 
 278      F9370BFD 
 278      DB0D
 279 0197 80BDFCCE 		.ascii	"\200\275\374\316\020\177\327\327\230y\236\361\\\200"
 279      107FD7D7 
 279      98799EF1 
 279      5C80
 280 01a5 7DBFDBD0 		.ascii	"}\277\333\320O\325\017p\033\006\270\015\010_x\326\346"
 280      4FD50F70 
 280      1B06B80D 
 280      085F78D6 
 280      E6
 281 01b6 A6D6F9A4 		.ascii	"\246\326\371\244t\237\324\244\237\265\004\230hX\313"
 281      749FD4A4 
 281      9FB50498 
 281      6858CB
 282 01c5 64A76E22 		.ascii	"d\247n\"7\000\0071]8\375i62.\321\011\016\241,t\003>"
 282      37000731 
 282      5D38FD69 
 282      36322ED1 
 282      090EA12C 
 283 01dc 106379A5 		.ascii	"\020cy\245\247\357}rzU\014\235\300c\277\\m\0353\013"
 283      A7EF7D72 
 283      7A550C9D 
 283      C063BF5C 
 283      6D1D330B 
 284 01f0 F43047E3 		.ascii	"\3640G\343C\224\3113\257Ex\000\360\021\275\035\355\315"
 284      4394C933 
 284      AF457800 
 284      F011BD1D 
 284      EDCD
 285 0202 3DC8ABAB 		.ascii	"=\310\253\253g\\A\335\241\336\247\011\334\024\223\030"
 285      675C41DD 
 285      A1DEA709 
 285      DC149318 
 286 0212 83F6F6D9 		.ascii	"\203\366\366\331\361\204\312\005\335D\007A\026\355t"
 286      F184CA05 
 286      DD440741 
 286      16ED74
 287 0221 9BEFF3C9 		.ascii	"\233\357\363\311UAl\304\000K\304\307\364D\036q\015t"
 287      55416CC4 
 287      004BC4C7 
 287      F4441E71 
 287      0D74
ARM GAS  C:\Users\pc\AppData\Local\Temp\ccnlW87D.s 			page 23


 288 0233 717BE8F5 		.ascii	"q{\350\3657\223\322\302\213\247\374I8\202A\254e\261"
 288      3793D2C2 
 288      8BA7FC49 
 288      388241AC 
 288      65B1
 289 0245 F9F8FAD2 		.ascii	"\371\370\372\322wHZ\276\224\361\011*\265\214\367\037"
 289      77485ABE 
 289      94F1092A 
 289      B58CF71F 
 290 0255 9FA22284 		.ascii	"\237\242\"\204\014\257\217\312\220V\312\220\205\214"
 290      0CAF8FCA 
 290      9056CA90 
 290      858C
 291 0263 AEDE9141 		.ascii	"\256\336\221A#\245<\020E\233I+\206cY#\376W\023fe#\177"
 291      23A53C10 
 291      459B492B 
 291      86635923 
 291      FE571366 
 292 027a 3BCF4442 		.ascii	";\317DB\211\223\216\012R\337|U\2546F\274\365\324#J\024"
 292      89938E0A 
 292      52DF7C55 
 292      AC3646BC 
 292      F5D4234A 
 293 028f 3922CEFE 		.ascii	"9\"\316\376\237\366\371O\332\010*\304\305-\014\316\234"
 293      9FF6F94F 
 293      DA082AC4 
 293      C52D0CCE 
 293      9C
 294 02a0 592DDE20 		.ascii	"Y-\336 \315f\364\210:\322-\006kY<\325\207c+\007+:\363"
 294      CD66F488 
 294      3AD22D06 
 294      6B593CD5 
 294      87632B07 
 295 02b7 B1662F36 		.ascii	"\261f/6\275\3551\377\350\343\230\350\343\013\321\307"
 295      BDED31FF 
 295      E8E398E8 
 295      E30BD1C7 
 296 02c7 F8A6BD8C 		.ascii	"\370\246\275\2146\355\315\205\343\035\205\"\007\300"
 296      36EDCD85 
 296      E31D8522 
 296      07C0
 297 02d5 1C6D6B16 		.ascii	"\034mk\026\006\214\261\342\270\307\325\224\215\036\005"
 297      068CB1E2 
 297      B8C7D594 
 297      8D1E05
 298 02e4 C114759B 		.ascii	"\301\024u\233\222S\344\310w\330<\245\005\016Wt\275\333"
 298      9253E4C8 
 298      77D83CA5 
 298      050E5774 
 298      BDDB
 299 02f6 B669EB16 		.ascii	"\266i\353\026\305\245)n\217\242\271UE-\262\227\331\213"
 299      C5A5296E 
 299      8FA2B955 
 299      452DB297 
 299      D98B
 300 0308 3D5A960A 		.ascii	"=Z\226\012\306\350*\373_0G\261\272\277\264\300NP\255"
 300      C6E82AFB 
ARM GAS  C:\Users\pc\AppData\Local\Temp\ccnlW87D.s 			page 24


 300      5F3047B1 
 300      BABFB4C0 
 300      4E50AD
 301 031b 42CB2A02 		.ascii	"B\313*\002C\331\336\375\245\366\355\177\205\251.\247"
 301      43D9DEFD 
 301      A5F6ED7F 
 301      85A92EA7 
 302 032b D355AC94 		.ascii	"\323U\254\224\270\334\036M\331\261'7'\267\234\360\252"
 302      B8DC1E4D 
 302      D9B12737 
 302      27B79CF0 
 302      AA
 303 033c CB6DCF2B 		.ascii	"\313m\317+\333\352$\222\235\377\003\267\227{\224\234"
 303      DBEA2492 
 303      9DFF03B7 
 303      977B949C 
 304 034c 5CDB2EDB 		.ascii	"\\\333.\333O\015N\315\241\345\025\252*Q\244\346\332"
 304      4F0D4ECD 
 304      A1E515AA 
 304      2A51A4E6 
 304      DA
 305 035d F658F2F7 		.ascii	"\366X\362\367j\366\022\267c\203\305\232\015\222\033"
 305      6AF612B7 
 305      6383C59A 
 305      0D921B
 306 036c 129C76A7 		.ascii	"\022\234v\247\313]\001\337\001\314B\326\302"
 306      CB5D01DF 
 306      01CC42D6 
 306      C2
 307              		.text
 308              		.section	.gnu.lto_chEvtGetAndClearFlags.6ed948f3,"",%progbits
 309 0000 789C8D53 		.ascii	"x\234\215S\335K\024Q\024\277g\356\354\256\245\246\364"
 309      DD4B1451 
 309      14BF67EE 
 309      ECAEA5A6 
 309      F4
 310 0011 14E5C30A 		.ascii	"\024\345\303\012\211\012\321X\017\012=\010\345S\017"
 310      890AD158 
 310      0F0A3D08 
 310      E5530F
 311 0020 12B87F80 		.ascii	"\022\270\177\200\3508\352\202\353\312\316*\332\213\343"
 311      E838EA82 
 311      EBCACE2A 
 311      DA8BE3
 312 002f 6AAD6251 		.ascii	"j\255bQQjl\253.F\037\020\246\231}\370\265\255Z~T~k\010"
 312      516A6CAB 
 312      2E461F10 
 312      A6997DF8 
 312      B5AD5A7E 
 313 0047 82959266 		.ascii	"\202\225\222f\311Ra\221\005\326\271\263[\352\032\332"
 313      C9526191 
 313      05D6B9B3 
 313      5BEA1ADA 
 314 0057 3C0CE7DE 		.ascii	"<\014\347\336s~\347\374\316\357\234\253%\204\230yB\302"
 314      737EE7FC 
 314      CEEF9CAB 
 314      25849879 
ARM GAS  C:\Users\pc\AppData\Local\Temp\ccnlW87D.s 			page 25


 314      42C2
 315 0069 81900368 		.ascii	"\201\220\003h\003%\300]\034&\244$\210\003`\206\022\004"
 315      0325C05D 
 315      1C26A424 
 315      88036086 
 315      1204
 316 007b A4988362 		.ascii	"\244\230\203b8G\257P\030+kv\322J\352\3040\036\217\237"
 316      3847AF50 
 316      182B6B76 
 316      D24AEAC4 
 316      301E8F9F 
 317 008f 871CF37B 		.ascii	"\207\034\363{\330\021@\217\307eo_kH\354-E\261)\236\232"
 317      D811408F 
 317      C7656F5F 
 317      6B48EC2D 
 317      45B1299E 
 318 00a4 F1B0BAD6 		.ascii	"\361\260\272\326Qe\227\223r\244\032\303[!\002\356C\004"
 318      51659793 
 318      72A41AC3 
 318      5B2102EE 
 318      4304
 319 00b6 ABF10062 		.ascii	"\253\361\000b1x\312^\356\325\320\243@\320\256\354\036"
 319      3178CA5E 
 319      EED5D0A3 
 319      40D0AEEC 
 319      1E
 320 00c7 2DA3D137 		.ascii	"-\243\3217T\340\312M\252\034tR\012\017\201n\004\342"
 320      54E0CA4D 
 320      AA1C7452 
 320      0A0F816E 
 320      04E2
 321 00d9 15814710 		.ascii	"\025\201G\020\315\342\253\034\013\373h\274\012\2754"
 321      CDE2AB1C 
 321      0BFB68BC 
 321      0ABD34
 322 00e8 E3980D8D 		.ascii	"\343\230\015\215\272\256B_\271\303\033J\225\001\205"
 322      BAAE425F 
 322      B9C31B4A 
 322      950185
 323 00f7 C7A2F078 		.ascii	"\307\242\360x3\234}\030>wo\255*T\313C\033D1Z\310\246"
 323      339C7D18 
 323      3E776FAD 
 323      2A54CB43 
 323      1B44315A 
 324 010d 1DB4F0D7 		.ascii	"\035\264\360\327Q\246\340\347Ysk\325\373j\012\0330\004"
 324      51A6E0E7 
 324      59736BD5 
 324      FB6A0A1B 
 324      3004
 325 011f 3A30B413 		.ascii	":0\264\023\264$ |~1\032\343;Y<\307|\213\235\366I\240"
 325      B424207C 
 325      7E311AE3 
 325      3B593CC7 
 325      7C8B9DF6 
 326 0135 2615BBBC 		.ascii	"&\025\273\274P\356\341\375\364^\327\305\324\226V\236"
 326      50EEE1FD 
 326      F45ED7C5 
ARM GAS  C:\Users\pc\AppData\Local\Temp\ccnlW87D.s 			page 26


 326      D496569E 
 327 0145 575CB670 		.ascii	"W\\\266p'\345\301\275\015A_bo-\312\360\004\231B\027"
 327      27E5C1BD 
 327      0D415F62 
 327      6F2DCAF0 
 327      04994217 
 328 0159 4B4E3791 		.ascii	"KN7\221\361 \231n$\303~8=`-5\215k<\312\332/;\312\277"
 328      F120996E 
 328      24C37E38 
 328      3D602D35 
 328      8D6B3CCA 
 329 0172 D7FD6DE9 		.ascii	"\327\375m\351G\264\016\247\210\232a\031\3260)\307\216"
 329      47B40EA7 
 329      889A6119 
 329      D63029C7 
 329      8E
 330 0183 71A88A87 		.ascii	"q\250\212\207T U\264J=d\001\270\177\020ulO\024z \012"
 330      542055B4 
 330      4A3D6401 
 330      B87F1075 
 330      6C4F147A 
 331 0199 41F625A5 		.ascii	"A\366%\245\213g\363\347A\017\275\350\373\010\266\271"
 331      8B67F3E7 
 331      410FBDE8 
 331      FB08B6B9 
 332 01a9 3B35CDE3 		.ascii	";5\315\343\201\212^\236\016\363+\312oQ\317\236\250!"
 332      818A5E9E 
 332      0EF32BCA 
 332      6F51CF9E 
 332      A821
 333 01bb F094F934 		.ascii	"\360\224\3714\201\276\231\272\230k\224\325\"\360l\253"
 333      81BE99BA 
 333      986B94D5 
 333      22F06CAB 
 334 01cb 027DD878 		.ascii	"\002}\330x?S\240\237)\000\344+\253\332P\337\362}w\344"
 334      3F53A09F 
 334      2900E42B 
 334      ABDA50DF 
 334      F27D77E4 
 335 01df 59AE5EB9 		.ascii	"Y\256^\271\252w\37226\316w(A<\207\254\007 R\025\371"
 335      AA77FA32 
 335      36CE7728 
 335      413C87AC 
 335      07205215 
 336 01f4 D3F2E40C 		.ascii	"\323\362\344\014\20770\010\274\312\233\300su\241o\273"
 336      87373008 
 336      BCCA9BC0 
 336      7375A16F 
 336      BB
 337 0205 7BDF8544 		.ascii	"{\337\205DV\370\321\352\244\277\334m\231\012V\321/\030"
 337      56F8D1EA 
 337      A4BFDC6D 
 337      990A56D1 
 337      2F18
 338 0217 1A5E028F 		.ascii	"\032^\002\217\232\331\364\252\006\204|\000[\373j\303"
 338      9AD9F4AA 
 338      06847C00 
ARM GAS  C:\Users\pc\AppData\Local\Temp\ccnlW87D.s 			page 27


 338      5BFB6AC3 
 339 0227 CF4160ED 		.ascii	"\317A`\3559({$\325gzFtL\025\337\372t\366\014\365i]P"
 339      39287B24 
 339      D5677A46 
 339      744C15DF 
 339      FA74F60C 
 340 023f 57821DB9 		.ascii	"W\202\035\271N\343\036\353\034\270\236C\254*z'\355\323"
 340      4EE31EEB 
 340      1CB89E43 
 340      AC2A7A27 
 340      EDD3
 341 0251 B3C14223 		.ascii	"\263\301B#kW\317\326v\030\\PEU\215G@`\225\\\231\352"
 341      6B57CFD6 
 341      76185C50 
 341      45558D47 
 341      4060955C 
 342 0267 8EE20031 		.ascii	"\216\342\0001=\253\267\362\336\333\257cw\201\311\367"
 342      3DABB7F2 
 342      DEDBAF63 
 342      7781C9F7 
 343 0277 EF907B74 		.ascii	"\357\220{t=\367\030\010\030\320\264\334\266\032\312"
 343      3DF71808 
 343      18D0B4DC 
 343      B61ACA
 344 0286 98E22387 		.ascii	"\230\342#\207qD\261e`\033\267\261\013\036}\023\033g"
 344      7144B165 
 344      601BB7B1 
 344      0B1E7D13 
 344      1B67
 345 0298 EBDB38BF 		.ascii	"\353\3338\277\336k\365o\335\301\177\244\234P\245\234"
 345      DE6BF56F 
 345      DDC17FA4 
 345      9C50A59C 
 346 02a8 54A50CD4 		.ascii	"T\245\014\324m\312\247\333\233\306\013\355Yj\015B\274"
 346      6DCAA7DB 
 346      9BC60BED 
 346      596A0D42 
 346      BC
 347 02b9 78AC5CED 		.ascii	"x\254\\\355\327\372\245c\304\312Q3\334K\204\011\342"
 347      D7FAA563 
 347      C4CA5133 
 347      DC4B8409 
 347      E2
 348 02ca 312129DB 		.ascii	"1!)\333\230n4X\3633\214f\237}\312p$!^0\313\202\305*"
 348      986E3458 
 348      F3338C66 
 348      9F7DCA70 
 348      24215E30 
 349 02e2 C8165110 		.ascii	"\310\026Q\020\263\245\002)\327*\037\026\011\225r\362"
 349      B3A50229 
 349      D72A1F16 
 349      099572F2 
 350 02f2 34993969 		.ascii	"4\2319iYr\334NHc\256\230\223\237!!Z.\222\017g\023MA"
 350      5972DC4E 
 350      4863AE98 
 350      939F2121 
 350      5A2E920F 
ARM GAS  C:\Users\pc\AppData\Local\Temp\ccnlW87D.s 			page 28


 351 030a 5A4EBE94 		.ascii	"ZN\276\224\270-L4\233L\346\\!\317l\261\312\302\361\224"
 351      B82D4C34 
 351      9B4CE65C 
 351      21CF6CB1 
 351      CAC2F194 
 352 031e E4A4E442 		.ascii	"\344\244\344B\304\213f\213\224Z\220`\302$'\376\007."
 352      C48B668B 
 352      945A9060 
 352      C22427FE 
 352      072E
 353 0330 155A85A4 		.ascii	"\025Z\205\244d\303I\303:\007\223l\224S\263D\021S\204"
 353      64C349C3 
 353      3A07936C 
 353      9453B344 
 353      115384
 354 0343 271B52F4 		.ascii	"'\033R\364\351i\262\224g1\036\322G\305\021\316Bt&\311"
 354      E969B294 
 354      67311ED2 
 354      47C511CE 
 354      427426C9 
 355 0357 64B61491 		.ascii	"d\266\024\221\337\204\261\310\276"
 355      DF84B1C8 
 355      BE
 356              		.text
 357              		.section	.gnu.lto_chEvtSignalI.6ed948f3,"",%progbits
 358 0000 789C8D53 		.ascii	"x\234\215S\315O\023Q\020\177\263o\367mm\213$\036\014"
 358      CD4F1351 
 358      107FB36F 
 358      F76D6D8B 
 358      241E0C
 359 0013 21683898 		.ascii	"!h8\2304\034t\3756\321\243\177\200\007\376\002\255$"
 359      341C74FD 
 359      36D1A37F 
 359      8007FE02 
 359      AD24
 360 0025 E0410C54 		.ascii	"\340A\014T\257]\240|\251\007\017\202\261i\314\032\003"
 360      AF5DA07C 
 360      A9070F82 
 360      B169CC1A 
 360      03
 361 0036 5C54C02F 		.ascii	"\\T\300/(\237\265 \266\320\026%\304\020I8H0b*\211\011"
 361      289FB520 
 361      B6D01625 
 361      C4104938 
 361      4830622A 
 362 004c 31A080CE 		.ascii	"1\240\200\316\274m\2014\212\274d\247ovf~\363\373\315"
 362      BC6D8134 
 362      8ABC64A7 
 362      6F76667E 
 362      F3FBCD
 363 005f 6C0563AC 		.ascii	"l\005c\254Se\354\034\376^\304\007\034\014\224;)\306"
 363      5365EC1C 
 363      FE5EC407 
 363      1C0C943B 
 363      29C6
 364 0071 6A1C8AC2 		.ascii	"j\034\212\302c\205\314t\252\261\023\314tsE4y\310#\353"
 364      6385CC74 
ARM GAS  C:\Users\pc\AppData\Local\Temp\ccnlW87D.s 			page 29


 364      AAB113CC 
 364      74734534 
 364      79C823EB 
 365 0085 5615ADF7 		.ascii	"V\025\255\367\000z\372\314Q\3644El\363\004\3506\200"
 365      007AFACC 
 365      51F43445 
 365      6CF304E8 
 365      3680
 366 0097 0E4017D3 		.ascii	"\016@\027\323\001\314\257pU\023:\370\3416\277\313!\332"
 366      01CCAF70 
 366      55133AF8 
 366      E136BFCB 
 366      21DA
 367 00a9 F839AC94 		.ascii	"\3709\254\224t\230x\"\367\226\3675\230\365\005!\316"
 367      74987822 
 367      F796F735 
 367      98F50521 
 367      CE
 368 00ba 582B3E74 		.ascii	"X+>t\3409\224`\326\373@W\210\337\342!\016\240\242\373"
 368      E0399460 
 368      D6FB4057 
 368      88DFE221 
 368      0EA0A2FB 
 369 00ce 3D199CDF 		.ascii	"=\031\234\337K\256\002\305\350\216.\254M\271\370q`x"
 369      4BAE02C5 
 369      E88E2EAC 
 369      4DB9F871 
 369      6078
 370 00e0 9F084CCC 		.ascii	"\237\010L\314\010O\233i\326\232\221\364#n\036\012q\016"
 370      084F9B69 
 370      D69A91F4 
 370      236E1E0A 
 370      710E
 371 00f2 AF802320 		.ascii	"\257\200# \274\204\"x\001E\014_1\350\001\017\246\337"
 371      BC842278 
 371      01450C5F 
 371      31E8010F 
 371      A6DF
 372 0104 EF587FC7 		.ascii	"\357X\177\307\371)Y\032\217\317\271\263\225m\262R\205"
 372      F929591A 
 372      8FCFB9B3 
 372      956DB252 
 372      85
 373 0115 DEDC4A95 		.ascii	"\336\334J\225A\030<\224\376\251{\243%O\250V\226-\364"
 373      41183C94 
 373      FEA97BA3 
 373      254FA856 
 373      962DF4
 374 0128 81604043 		.ascii	"\201`@C\234\322\"\346\306\357F\204i\207\356\322|\300"
 374      9CD222E6 
 374      C6EF4684 
 374      6987EED2 
 374      7CC0
 375 013a 324D21C3 		.ascii	"2M!\303\321\010\225n\032\031AF'\343\004\342\343\002"
 375      D108956E 
 375      1A194146 
 375      27E304E2 
ARM GAS  C:\Users\pc\AppData\Local\Temp\ccnlW87D.s 			page 30


 375      E302
 376 014c 89CD9A10 		.ascii	"\211\315\232\020\016\307eFX3W\350V\027a_\241\266oq\270"
 376      0EC76546 
 376      583357E8 
 376      5617615F 
 376      A1B66F71 
 377 0161 D9495D82 		.ascii	"\331I]\202\034\260\177k}tR\247!p\311~ \232\034\023\026"
 377      1CB07F6B 
 377      7D7452A7 
 377      2170C97E 
 377      209A1C13 
 378 0176 3CA8C149 		.ascii	"<\250\301I\026\207\270\036\344N\350G\312\024\233n\234"
 378      1687B81E 
 378      E44EE847 
 378      CA149B6E 
 378      9C
 379 0187 99731987 		.ascii	"\231s\031\207I\320\000X\320\"\207\013\203` l\335J\003"
 379      49D00058 
 379      D022870B 
 379      8360206C 
 379      DD4A03
 380 019a D8A00AE2 		.ascii	"\330\240\012\342\006\271\213ZM\337\224\357v\017;\264"
 380      06B98B5A 
 380      4DDF94EF 
 380      760F3BB4 
 381 01aa 053B0C06 		.ascii	"\005;\014\006b\331\204\343\213\302\306\346\273\202z"
 381      62D984E3 
 381      8BC2C6E6 
 381      BB827A
 382 01b9 62DA2107 		.ascii	"b\332!\007D$\036M\023^#\315\005\010|\0349\271\005\225"
 382      44241E4D 
 382      135E23CD 
 382      05087C1C 
 382      39B90595 
 383 01cd 7CF83825 		.ascii	"|\3708%H\273\003\234\020%\014<\315\270\326XavV\343\361"
 383      48BB039C 
 383      10250C3C 
 383      CDB8D658 
 383      617656E3 
 384 01e2 7C3B5FCD 		.ascii	"|;_\315im-\321Bv\350\276\007Fdw\205\311\340\323o\265"
 384      696D2DD1 
 384      4276E8BE 
 384      07466477 
 384      85C9E0D3 
 385 01f8 29D50E5A 		.ascii	")\325\016Z?\201\304\216\202\321\302\345\312\337\330"
 385      3F81C48E 
 385      82D1C2E5 
 385      CADFD8
 386 0207 235C6B58 		.ascii	"#\\kX\325\354f\232\034\243J\204gGR\211\256\314h\265"
 386      D5EC669A 
 386      1CA34A84 
 386      67475289 
 386      AECC68B5 
 387 021b EDFB5281 		.ascii	"\355\373R\201\301\330&g\225\245#\264`)\361C\342\007"
 387      C1D82667 
 387      95A523B4 
 387      6029F143 
ARM GAS  C:\Users\pc\AppData\Local\Temp\ccnlW87D.s 			page 31


 387      E207
 388 022d 6CA9FCB5 		.ascii	"l\251\374\265\222\032\324m\225.x\273Y\241\261\236\202"
 388      921AD46D 
 388      952E78BB 
 388      59A1B19E 
 388      82
 389 023e ACCA4456 		.ascii	"\254\312DVe\356\256v\2412\266\263\312\370\246\312\361"
 389      65EEAE76 
 389      A132B6B3 
 389      CAF8A6CA 
 389      F1
 390 024f 5C95BA54 		.ascii	"\\\225\272T)l\316s\211g\031\316\024\311p\024lh\277\315"
 390      296CCE73 
 390      896719CE 
 390      14C97014 
 390      6C68BFCD 
 391 0263 71F94B32 		.ascii	"q\371K2\356\374\313\307d\035\374\017\275\211\177\321"
 391      EEFCCBC7 
 391      641DFC0F 
 391      BD897FD1 
 392 0273 BB12C2AA 		.ascii	"\273\022\302\252\004\261S\211]\022\014L\350L\207W\363"
 392      04B15389 
 392      5D120C4C 
 392      E84C8757 
 392      F3
 393 0284 68562E9C 		.ascii	"hV.\234n\012!\323\020\260\372\333%a\002\010\207\323"
 393      6E0A21D3 
 393      10B0FADB 
 393      25610208 
 393      87D3
 394 0296 B3BA7FDD 		.ascii	"\263\272\177\335t\204\270\273\225>,\230\004?\303\376"
 394      7484B8BB 
 394      953E2C98 
 394      043FC3FE 
 395 02a6 219E2719 		.ascii	"!\236'\031\353\231?\332\022\324Z\363\355R\221\324\322"
 395      EB993FDA 
 395      12D45AF3 
 395      ED5291D4 
 395      D2
 396 02b7 84C91841 		.ascii	"\204\311\030A\036\206\367\254q\276\274\342RE\251\357"
 396      1E86F7AC 
 396      71BEBCE2 
 396      5245A9EF 
 397 02c7 FAE58A4A 		.ascii	"\372\345\212J\373~\241\364\330\231\323Fe\265Q\3453\252"
 397      FB7EA1F4 
 397      D899D346 
 397      65B551E5 
 397      33AA
 398 02d9 ABBC86B7 		.ascii	"\253\274\206\267\274\354F\331U_\365\021/S|\327\204\355"
 398      BCEC46D9 
 398      555FF511 
 398      2F537CD7 
 398      84ED
 399 02eb FC0165CA 		.ascii	"\374\001e\312\235["
 399      9D5B
 400              		.text
 401              		.section	.gnu.lto_chEvtBroadcastFlagsI.6ed948f3,"",%progbits
ARM GAS  C:\Users\pc\AppData\Local\Temp\ccnlW87D.s 			page 32


 402 0000 789C8D54 		.ascii	"x\234\215T[KTQ\024^k\357s\323\031\315\336,D|HD\250N"
 402      5B4B5451 
 402      145E6BEF 
 402      73D319CD 
 402      DE2C447C 
 403 0018 451859D0 		.ascii	"E\030Y\320C?\240\007\177AMc\012\222\342X\017\275x\274"
 403      433FA007 
 403      7F414D63 
 403      0A92E258 
 403      0FBD78BC 
 404 002c CE583EF8 		.ascii	"\316X>\370\240\026\303$C%\276\024V\332\305\321t\034"
 404      A016C324 
 404      4325BE14 
 404      56DAC5D1 
 404      741C
 405 003e CBD4D24A 		.ascii	"\313\324\322J\354\202JD\227\021M\204\302$\242\254\265"
 405      EC824A44 
 405      97114D84 
 405      C224A2AC 
 405      B5
 406 004f F799C94B 		.ascii	"\367\231\311KTn\230}\326\336g\255\357\373\326\345\214"
 406      546E987D 
 406      D6DE67AD 
 406      EFFBD6E5 
 406      8C
 407 0060 06005F14 		.ascii	"\006\000_\024\200C\364,\241\037&\000\262\2061\200\012"
 407      8043F42C 
 407      A11F2600 
 407      B2863180 
 407      0A
 408 0071 83A16E1B 		.ascii	"\203\241n\033\234\251\357\267\200\225\250\\\335\013"
 408      9CA9EFB7 
 408      8095A85C 
 408      DD0B
 409 007f 965361AA 		.ascii	"\226Sa\252/\213N\232\330\235*j\266\223f{\367\033:\343"
 409      2F8B4E9A 
 409      D89D2A6A 
 409      B693667B 
 409      F71B3AE3 
 410 0093 9D112007 		.ascii	"\235\021 \007c\332A\016\006\242\270\267\014\204r\306"
 410      63DA410E 
 410      06A2B8B7 
 410      0C8472C6 
 411 00a3 1555D30D 		.ascii	"\025U\323\015,g:\304V=o\344\030\361F\273Xv\233E+|~<"
 411      2C673AC4 
 411      563D6FE4 
 411      18F146BB 
 411      58769B45 
 412 00bb B9D6AA49 		.ascii	"\271\326\252I\015p\200fn\373`\007f\223\327\263\352\353"
 412      0D708066 
 412      6EFB6007 
 412      6693D7B3 
 412      EAEB
 413 00cd 017E8E07 		.ascii	"\001~\216\0078\242B\307O\243\376w\311\342\3100\203\216"
 413      38A242C7 
 413      4FA3FE77 
 413      C9E2C830 
ARM GAS  C:\Users\pc\AppData\Local\Temp\ccnlW87D.s 			page 33


 413      838E
 414 00df 175FBE99 		.ascii	"\027_\276\231O\340{\020\310~ze\261!1\253\325\262*\255"
 414      4FE07B10 
 414      C87E7A65 
 414      B12131AB 
 414      D5B22AAD 
 415 00f3 F0742BB7 		.ascii	"\360t+\267\266\0058\307\333\310\011\020oa\032vb\032"
 415      B60538C7 
 415      DBC80910 
 415      6F611A76 
 415      621A
 416 0105 D015E01D 		.ascii	"\320\025\340\035\314\"\367&\1774\225\347\310\310h\373"
 416      CC22F726 
 416      7F3495E7 
 416      C8C868FB 
 417 0115 4DDFA658 		.ascii	"M\337\246X\344|\233\214T\360\356\372H\005\260\013\263"
 417      E47C9B8C 
 417      54F0EEFA 
 417      4805B00B 
 417      B3
 418 0126 84FF73AF 		.ascii	"\204\377s\257oA\345\007e\354\320b(\250e^\226\261/B["
 418      6F41E507 
 418      65ECD062 
 418      28A8655E 
 418      96B12F42 
 419 013b 2F555943 		.ascii	"/UYC\226\022\340*\206\326\306\213E\356oo,7%i\012vcf"
 419      9612E02A 
 419      86D6C68B 
 419      45EE6F6F 
 419      2C372569 
 420 0153 309E2CF6 		.ascii	"0\236,\366\240\006HOq\333>\256\206\255\345\237^+<\226"
 420      A006484F 
 420      71DB3EAE 
 420      86ADE59F 
 420      5E2B3C96 
 421 0167 5B3F10ED 		.ascii	"[?\020\355a\233\221\2705&6.6El*m\272&,\035D\224\003"
 421      619B91B8 
 421      3526362E 
 421      36456C2A 
 421      6DBA262C 
 422 017f 45564E69 		.ascii	"EVNi'\241\320\231\"m\000\0371L;\2540\324qFFU\030\346"
 422      27A1D099 
 422      226D001F 
 422      314C3BAC 
 422      30D47146 
 423 0197 B03234DB 		.ascii	"\26024\333>\203\202\326\317\235$\252\271&\362D\027E"
 423      3E8382D6 
 423      CF9D24AA 
 423      B926F244 
 423      1745
 424 01a9 E532A59E 		.ascii	"\3452\245\236\310\350\240\026\304\226\012\352L\260\224"
 424      C8E8A016 
 424      C4960AEA 
 424      4CB094
 425 01b8 480C3F77 		.ascii	"H\014?w\340=\221\004\275\235\360\276z\3550\257\211\266"
 425      E03D9104 
 425      BD9DF0BE 
ARM GAS  C:\Users\pc\AppData\Local\Temp\ccnlW87D.s 			page 34


 425      7AED30AF 
 425      89B6
 426 01ca 65883C7B 		.ascii	"e\210<{1\210M\262g\330\207&D\2612\230.\240\005=\301"
 426      31884DB2 
 426      67D88726 
 426      44B13298 
 426      2EA0053D 
 427 01df D37D1D15 		.ascii	"\323}\035\025\235\206#N\335\355M\264\251q5\265\372\007"
 427      9D86234E 
 427      DDED4DB4 
 427      A97135B5 
 427      FA07
 428 01f1 35A127F8 		.ascii	"5\241'\370\271\216\3415\304;Do\372%'\012\316\010q\316"
 428      B98EE135 
 428      C43B446F 
 428      FA25270A 
 428      CE0871CE 
 429 0205 61D5D7DA 		.ascii	"a\325\327\332X>\214p\375<IPM\234\225w\033\207\035X\201"
 429      583E8C70 
 429      FD3C4950 
 429      4D9C9577 
 429      1B871D58 
 430 021a BD8F2661 		.ascii	"\275\217&a\301\007\254\236\034X\352\336ec'\255\026\254"
 430      C107AC9E 
 430      1C58EADE 
 430      656327AD 
 430      16AC
 431 022c 20E08358 		.ascii	" \340\203Xc\353h8\372\266\307\023\354\233I\266\375\371"
 431      63EB6838 
 431      FAB6C713 
 431      EC9B49B6 
 431      FDF9
 432 023e 86A8E3A5 		.ascii	"\206\250\343\245TpP\3623\301\377\320N\353{\355\254j"
 432      547050F2 
 432      33C1FFD0 
 432      4EEB7BED 
 432      AC6A
 433 0250 63293235 		.ascii	"c)25.\024M\221\242\013\261t\225U\032Th\374\255a(\336"
 433      2E144D91 
 433      A20BB174 
 433      95551A54 
 433      68FCAD61 
 434 0266 5F757D43 		.ascii	"_u}C{\305<\375MF0\235\346\012\207\244\0169\232\303R"
 434      7BC53CFD 
 434      4D46309D 
 434      E60A87A4 
 434      0E399AC3 
 435 027b 476528C1 		.ascii	"Ge(\301F[_\314`\210\375\007-\021G$\232\"\320\036\021"
 435      465B5FCC 
 435      6088FD07 
 435      2D114724 
 435      9A22D01E 
 436 0290 DA3CD664 		.ascii	"\332<\326d\310\211'\337\256\256\371)\275\374\207e\004"
 436      C88927DF 
 436      AEAEF929 
 436      BDFC8765 
 436      04
ARM GAS  C:\Users\pc\AppData\Local\Temp\ccnlW87D.s 			page 35


 437 02a1 B8A35914 		.ascii	"\270\243Y\024\036\037c9\220hb\012\304fG[=;#m\232-$e"
 437      1E1F6339 
 437      9068620A 
 437      C466475B 
 437      3D3B236D 
 438 02b9 BD9033FF 		.ascii	"\275\2203\377\320!\347tT\312P\205\214\261\330\234\346"
 438      D021E774 
 438      54CA5085 
 438      8CB1D89C 
 438      E6
 439 02ca AFCC698A 		.ascii	"\257\314i\212\344\322\201\376\265\210+\212\014\354{"
 439      E4D281FE 
 439      B5882B8A 
 439      0CEC7B
 440 02d9 DD2EF8C8 		.ascii	"\335.\370\310\001\233V\247/A\024{\011\311r\262o\037"
 440      019B56A7 
 440      2F41147B 
 440      09C972B2 
 440      6F1F
 441 02eb F753A836 		.ascii	"\367S\2506\371y\030)\332\260\277\257\005B\356h\221\345"
 441      F9791829 
 441      DAB0BFAF 
 441      0542EE68 
 441      91E5
 442 02fd 978DF151 		.ascii	"\227\215\361Qb\323\016\352\252\351\3125\017\027\024"
 442      62D30EEA 
 442      AAE9CA35 
 442      0F1714
 443 030c 1E2BCC2B 		.ascii	"\036+\314+;u\274\260\330\266\217\344\355\336\227c\026"
 443      3B75BCB0 
 443      D8B68FE4 
 443      EDDE9763 
 443      16
 444 031d 7BCCD232 		.ascii	"{\314\3222\323S\3522]\005\356\323\356\223e\236\235."
 444      D353EA32 
 444      5D05EED3 
 444      EE93659E 
 444      9D2E
 445 032f E06E4F89 		.ascii	"\340nO\211\232_t\364\204\207\273\213J~\001\206\353\254"
 445      9A5F74F4 
 445      8487BB8B 
 445      4A7E0186 
 445      EBAC
 446 0341 FB       		.ascii	"\373"
 447              		.text
 448              		.section	.gnu.lto_chEvtSignal.6ed948f3,"",%progbits
 449 0000 789C8D52 		.ascii	"x\234\215R[KTQ\030\375\276\263\317\214\243V\230OB>\214"
 449      5B4B5451 
 449      18FDBEB3 
 449      CF8CA356 
 449      984F423E 
 450 0015 A0E84074 		.ascii	"\240\350@t,(\241\007\241|\352A\002\347\007D\035\207"
 450      2C28A107 
 450      A17CEA41 
 450      02E70744 
 450      1D87
 451 0027 1C701C99 		.ascii	"\034p\034\2313\212>y\032/\243X\324C\215\227\216\027"
ARM GAS  C:\Users\pc\AppData\Local\Temp\ccnlW87D.s 			page 36


 451      338A3E79 
 451      1A2FA358 
 451      D4438D97 
 451      8E17
 452 0039 92A808CB 		.ascii	"\222\250\010\313\354:e6\331M3\257\030\010\202\225\246"
 452      EC3A6536 
 452      D94D33AF 
 452      18088295 
 452      A6
 453 004a 220D5241 		.ascii	"\"\015RA\320CZ\337\336\243\225\243X\033\316\341\333"
 453      D0435ADF 
 453      DEA395A3 
 453      581BCEE1 
 453      DB
 454 005b 7BAFB5F7 		.ascii	"{\257\265\367Z\353\333f\000\230g\000\011\010\260\213"
 454      5AEBDB66 
 454      00986700 
 454      0908B08B 
 455 006b 6A6480D2 		.ascii	"jd\200\322\271a\200S\026\011\221\027\272\005\241B\302"
 455      B9618053 
 455      16099117 
 455      BA05A142 
 455      C2
 456 007c 0A3CCDCE 		.ascii	"\012<\315\3163\354\363\317\007%\333\025\235F\250\241"
 456      33ECF3CF 
 456      0725DB15 
 456      9D46A8A1 
 457 008c 31B146AF 		.ascii	"1\261F\257N2\210\036\240\217\017\274\2156B\215Uu\031"
 457      4E32881E 
 457      A08F0FBC 
 457      8D36428D 
 457      557519
 458 009f AC9E190C 		.ascii	"\254\236\031\014Q\246\351\227\241\346\331\035|*\241"
 458      51A6E997 
 458      A1E6D91D 
 458      7C2AA1
 459 00ae 95A6CFE7 		.ascii	"\225\246\317\347~\214\307\263}\010T\017V\015N\232\323"
 459      7E8CC7B3 
 459      7D08540F 
 459      560D4E9A 
 459      D3
 460 00bf 2FEBBA4F 		.ascii	"/\353\272O\017}\354`z\252\301\030\336CF\007\342]L\306"
 460      0F7DEC60 
 460      7AAAC118 
 460      DE434607 
 460      E25D4CC6 
 461 00d3 3B980CB4 		.ascii	";\230\014\264\004x\037\323\011\336tey\224\261\375\202"
 461      04781FD3 
 461      09DE7465 
 461      7994B1FD 
 461      82
 462 00e4 3A3030BD 		.ascii	":00\275m\215yY0e|\020\315\224\001\203\230\316\3413\267"
 462      6D8D7959 
 462      30657C10 
 462      CD940183 
 462      98CEE133 
 463 00f9 562E6C37 		.ascii	"V.l7\313\355kj\361!\232\361\367z\225p4=`\026\353\001"
ARM GAS  C:\Users\pc\AppData\Local\Temp\ccnlW87D.s 			page 37


 463      CBED6B6A 
 463      F1219AF1 
 463      F77A9570 
 463      343D6016 
 464 010f 867F5100 		.ascii	"\206\177Q\000\037\021\264\007\315\020\005\237]H'|\017"
 464      1F11B407 
 464      CD10059F 
 464      5D48277C 
 464      0F
 465 0120 C74B7C6F 		.ascii	"\307K|o\241\307?\201\314%\270\341\371\332\220\234\326"
 465      A1C73F81 
 465      CC25B8E1 
 465      F9DA909C 
 465      D6
 466 0131 21E4BD6B 		.ascii	"!\344\275k\315h\251\254?\243\267\373\022\014f\302\336"
 466      CD68A9AC 
 466      3FA3B7FB 
 466      120C66C2 
 466      DE
 467 0142 F522F988 		.ascii	"\365\"\371\210:x\251\205Rx\202i\200\217\371\341l\235"
 467      3A78A985 
 467      52788269 
 467      808FF9E1 
 467      6C9D
 468 0154 98108979 		.ascii	"\230\020\211yJb\370\217\272\0067\307M!}\345\247\237"
 468      4A62F88F 
 468      BA0637C7 
 468      4D217DE5 
 468      A79F
 469 0166 1A92D43F 		.ascii	"\032\222\324?\271h\330x\347(.\012\237[\207ZrK\215\324"
 469      B968D878 
 469      E7282E0A 
 469      9F5B875A 
 469      724B8DD4 
 470 017a 43504732 		.ascii	"CPG2\251\252\014\301<J\233\210l\336Z$\366a\032\221\374"
 470      A9AA0CC1 
 470      3C4A9B88 
 470      6CDE5A24 
 470      F6611A91 
 471 018f 8BFA6399 		.ascii	"\213\372c\231w\323\204V|F{\237\3207s\275\241k<:\315"
 471      77D38456 
 471      7C467B9F 
 471      D03773BD 
 471      A16B3C3A 
 472 01a4 9DAB59CA 		.ascii	"\235\253Y\312\033r\363g\233\000\237\363=S\364\336Tk"
 472      1B72F367 
 472      9B009FF3 
 472      3D53F4DE 
 472      546B
 473 01b6 C645C66F 		.ascii	"\306E\306o\002|\261\321\373K\262\374\212{\177\305\275"
 473      027CB1D1 
 473      FB4BB2FC 
 473      8A7B7FC5 
 473      BD
 474 01c7 237CE377 		.ascii	"#|\343w^j\353\376\036\227R#\265\351\215V\203\211.u\316"
 474      5E6AEBFE 
 474      1E975223 
ARM GAS  C:\Users\pc\AppData\Local\Temp\ccnlW87D.s 			page 38


 474      B5E98D56 
 474      83892E75 
 475 01dc 3ED22DB2 		.ascii	">\322-\262D\232\3731E\304\3739<1%\321\012\016\240,T"
 475      449AFB31 
 475      45C4FB39 
 475      3C3125D1 
 475      0A0EA02C 
 476 01f1 03BE168F 		.ascii	"\003\276\026\217\363j\357\263\271m)u\253\354\030\216"
 476      F36AEFB3 
 476      B96D2975 
 476      ABEC188E 
 477 0201 FD7AA3FB 		.ascii	"\375z\243\373m\274`\017r6\276A\231\022\363YE\002\000"
 477      6DBC600F 
 477      7236BE41 
 477      9912F359 
 477      450200
 478 0214 61AC7E5F 		.ascii	"a\254~_\327\024\313\315qt0\030\236\212\251X\326-\006"
 478      D714CBCD 
 478      71743018 
 478      9E8AA958 
 478      D62D06
 479 0227 B304E87A 		.ascii	"\263\004\350z\300!\254\200f&53\012)\226\340\225\355"
 479      C021AC80 
 479      66263533 
 479      0A2996E0 
 479      95ED
 480 0239 8BA99BA0 		.ascii	"\213\251\233\240\343\002t\035\3400\241\015\026/z\302"
 480      E302741D 
 480      E030A10D 
 480      162F7AC2 
 481 0249 9B4EA040 		.ascii	"\233N\240@u\337HL$b\300\221\325\210\2575t%Fz\276\352"
 481      75DF484C 
 481      2462C091 
 481      D588AF35 
 481      7425467A 
 482 025f 7BA5ED43 		.ascii	"{\245\355Co\374\232\245\021aiTX\212\326?\026\321\377"
 482      6FFC9AA5 
 482      11616954 
 482      588AD63F 
 482      16D1FF
 483 0272 BEF3ECC3 		.ascii	"\276\363\354\303\223\342\012\200%\232\326\0336\241\212"
 483      93E20A80 
 483      259AD61B 
 483      36A18A
 484 0281 8F5A7AF1 		.ascii	"\217Zz\361\3644\210\243\250\007\225\234\002\347\011"
 484      F43488A3 
 484      A807959C 
 484      02E709
 485 0290 A7DD5B92 		.ascii	"\247\335[\222\357tG\352\243\366\275Y\007\024\267\246"
 485      EF7447EA 
 485      A3F6BD59 
 485      0714B7A6 
 486 02a0 78BC8AE6 		.ascii	"x\274\212\346Q\025\265\300Q\352(\362j{T\220\274\305"
 486      5115B5C0 
 486      51EA28F2 
 486      6A7B5490 
 486      BCC5
ARM GAS  C:\Users\pc\AppData\Local\Temp\ccnlW87D.s 			page 39


 487 02b2 E6C824F3 		.ascii	"\346\310$\363_Lg\221ZX\222\357 \266V\256\355)\000S\351"
 487      5F4C6791 
 487      5A5892EF 
 487      20B656AE 
 487      ED290053 
 488 02c7 F1C21247 		.ascii	"\361\302\022G\366\2264\325\355r\271\213\224b\267\307"
 488      F69634D5 
 488      ED72B98B 
 488      9462B7C7 
 489 02d7 AB2987F2 		.ascii	"\253)\207\362rsr\313\210\257\272=\216c\245Y.:\344\360"
 489      727372CB 
 489      88AFBA3D 
 489      8E63A559 
 489      2E3AE4F0 
 490 02eb FFD01D65 		.ascii	"\377\320\035e^%'\327~\304\376G\203Ksj\307N\252*\035"
 490      5E2527D7 
 490      7EC4FE47 
 490      834B736A 
 490      C74EAA2A 
 491 0300 91906BCF 		.ascii	"\221\220k\317\263\2368\2569\212=\316\335\326\264L\220"
 491      B39E38AE 
 491      398A3DCE 
 491      DDD6B44C 
 491      90
 492 0311 3C10E372 		.ascii	"<\020\343r\270\334\236r\370\005\361v\227\357"
 492      B8DC9E72 
 492      F805F176 
 492      97EF
 493              		.text
 494              		.section	.gnu.lto_chEvtBroadcastFlags.6ed948f3,"",%progbits
 495 0000 789C8D52 		.ascii	"x\234\215R[KTQ\030\375\276\263\317\214\243v\221|\021"
 495      5B4B5451 
 495      18FDBEB3 
 495      CF8CA376 
 495      917C11
 496 0013 92182119 		.ascii	"\222\030!\031\205\350X\017\011=\010\345S\017\0228?@"
 496      85E8580F 
 496      093D08E5 
 496      530F1238 
 496      3F40
 497 0025 F478D201 		.ascii	"\364x\322\001\307\2219\243\324\223'MG\261H(\307\230"
 497      C79139A3 
 497      D493274D 
 497      47B14828 
 497      C798
 498 0037 C60B9558 		.ascii	"\306\013\225X\204iv\265\314&\273\330U+\214\036\2442"
 498      846976B5 
 498      CC26BBD8 
 498      552B8C1E 
 498      A432
 499 0049 AD916892 		.ascii	"\255\221h\222\222\202\010\264\276\275g\2728\211\265"
 499      928208B4 
 499      BEBD67BA 
 499      3889B5
 500 0058 E11CBEBD 		.ascii	"\341\034\276\275\367Z{\257\265\276m\006\200\020\003"
 500      F75A7BAF 
 500      B5BE6D06 
ARM GAS  C:\Users\pc\AppData\Local\Temp\ccnlW87D.s 			page 40


 500      801003
 501 0067 484280B5 		.ascii	"HB\200\265T#\003\224\232G\001\366Z$D^\030\026\204j\011"
 501      54230394 
 501      9A4701F6 
 501      5A24445E 
 501      1816846A 
 502 007c AB713F3B 		.ascii	"\253q?;\314p\330\033\032\2202\273\015\032\301\326\227"
 502      CC70D81B 
 502      1A9032BB 
 502      0D1AC1D6 
 502      97
 503 008d C9F5465D 		.ascii	"\311\365F]J\200\350>\372\370\300s\230I\250'\373\372"
 503      4A80E83E 
 503      FAF8C073 
 503      9849A827 
 503      FBFA
 504 009f 02AC8905 		.ascii	"\002\254\211\005\030\242L\323O\217\374\323\253\370T"
 504      18A24CD3 
 504      4F8FFCD3 
 504      ABF854
 505 00ae 422B4DDB 		.ascii	"B+M\333\236O\206\343\331f\004\252\037\237\370\334\234"
 505      9E4F86E3 
 505      D96604AA 
 505      1F9FF8DC 
 505      9C
 506 00bf 60EB328C 		.ascii	"`\3532\214\032#8\336\305\214\365\001\306\360\"2:\020"
 506      1A2338DE 
 506      C58CF501 
 506      C6F02232 
 506      3A10
 507 00d1 2F602A9E 		.ascii	"/`*\236\307T\240%\300Kh#x\213?\224\302\266\010f\250"
 507      C754A025 
 507      C04B6823 
 507      788B3F94 
 507      C2B60866 
 508 00e6 B7BF6175 		.ascii	"\267\277au\224\371\246[0e\274\034\313\224\001\007\320"
 508      94F9A65B 
 508      3065BC1C 
 508      CB940107 
 508      D0
 509 00f7 C6F15367 		.ascii	"\306\361Sg\027ZV\232\345\210T\274\202f\374\265\270O"
 509      175A569A 
 509      E58854BC 
 509      8266FCB5 
 509      B84F
 510 0109 D8098D99 		.ascii	"\330\011\215\231\305\272\217\341\237x\274J\320A4C\014"
 510      C5BA8FE1 
 510      9F78BC4A 
 510      D0413443 
 510      0C
 511 011a 7C7AC646 		.ascii	"|z\306F\370A\216\227\370\336\314\240w\034\231Sp\303"
 511      F8418E97 
 511      F8DECCA0 
 511      771C9953 
 511      70C3
 512 012c A186A09C 		.ascii	"\241\206\240\234~\\h{\325\236\321V\333t\300\350\254"
 512      7E5C687B 
ARM GAS  C:\Users\pc\AppData\Local\Temp\ccnlW87D.s 			page 41


 512      D59ED156 
 512      DB74C0E8 
 512      AC
 513 013d 490A3013 		.ascii	"I\0120\023\016-V\310G\314\301\263m\024\301uL\007\274"
 513      0E2D56C8 
 513      47CCC1B3 
 513      6D14C175 
 513      4C07BC
 514 0150 C60F678B 		.ascii	"\306\017g\213\304\004I\314\015\022\303\177\3242\350"
 514      C40449CC 
 514      0D12C37F 
 514      D432E8
 515 015f 7D6A0A1A 		.ascii	"}j\012\032\013\337\275\324\215u\243\276\372\027\035"
 515      0BDFBDD4 
 515      8D75A3BE 
 515      FA171D
 516 016e 26DE370A 		.ascii	"&\3367\012\213\242\347\306\241\201\354R\033\215 4\222"
 516      8BA2E7C6 
 516      A181EC52 
 516      1B8D2034 
 516      92
 517 017f 4EAA6A83 		.ascii	"N\252j\203\020Bi\011\225\376\345U\3420\246\023\311\373"
 517      10426909 
 517      95FEE555 
 517      E230A613 
 517      C9FB
 518 0191 CEB826F3 		.ascii	"\316\270&\363^\232\320\2127i\357=\326L\235n\355{\032"
 518      5E9AD08A 
 518      3769EF3D 
 518      D64C9D6E 
 518      ED7B1A
 519 01a4 1BE7A1B9 		.ascii	"\033\347\241\271\344h\234\362_\321ysL\200\267\370\236"
 519      E4689CF2 
 519      5FD17973 
 519      4C80B7F8 
 519      9E
 520 01b5 29766FA2 		.ascii	")vo\242=\343(\343w\001\336\376\333\376\035r=\302\355"
 520      3DE328E3 
 520      7701DEFE 
 520      DBFE1D72 
 520      3DC2ED
 521 01c8 8F70FB08 		.ascii	"\217p\373\010_\370\255\307:\372\277&\244\325K\035\306"
 521      5FF8ADC7 
 521      3AFABF26 
 521      A4D54B1D 
 521      C6
 522 01d9 116B8089 		.ascii	"\021k\200\211F\365L_5,\262D\252\357b\232H\370cx|B\242"
 522      46F54C5F 
 522      352CB244 
 522      AAEF629A 
 522      48F86378 
 523 01f0 15BC87B2 		.ascii	"\025\274\207\262\320\015x_<\316\223C7\337\256Hk\214"
 523      D00D785F 
 523      3CCE9343 
 523      37DFAE48 
 523      6B8C
 524 0202 B2E33876 		.ascii	"\262\3438v\356L\377\263D\301~\300\331\370\020e\312\254"
ARM GAS  C:\Users\pc\AppData\Local\Temp\ccnlW87D.s 			page 42


 524      EE4CFFB3 
 524      44C17EC0 
 524      D9F81065 
 524      CAAC
 525 0214 C62A3200 		.ascii	"\306*2\000\010c\335d\343\267xn\216\243\007\006\302\023"
 525      0863DD64 
 525      E3B7786E 
 525      8EA30706 
 525      C213
 526 0226 71D5F386 		.ascii	"q\325\363\206%\300,>\272\036\360\021V\203\237I~F1\305"
 526      25C02C3E 
 526      BA1EF011 
 526      56839F49 
 526      7E4631C5 
 527 023a 13BCB6F3 		.ascii	"\023\274\266\363\203m\011t\202\217\256\003\034%t\200"
 527      836D0974 
 527      828FAE03 
 527      1C257480 
 528 024a 258AAEF0 		.ascii	"%\212\256\360\276\023\310W7<\026\027\011\031p,\032\362"
 528      BE13C857 
 528      373C1617 
 528      0919702C 
 528      1AF2
 529 025c A9D6BE35 		.ascii	"\251\326\2765\221\266G}/t\274\036J\374iiLXz,,\305\352"
 529      91B6477D 
 529      2F74BC1E 
 529      4AFC6969 
 529      4C587A2C 
 530 0273 7F12D13F 		.ascii	"\177\022\321?\331s\360J\211\270\002`\226\246M\363\231"
 530      D973F04A 
 530      89B80260 
 530      96A64DF3 
 530      99
 531 0284 42151F0D 		.ascii	"B\025\037\015\364\350\351q\020GQ\267*\271\245\216\""
 531      F4E8E971 
 531      104751B7 
 531      2AB9A58E 
 531      22
 532 0295 87DD5359 		.ascii	"\207\335SY\354pE\352\235\366M\331[\024\227\256\270="
 532      EC7045EA 
 532      9DF64DD9 
 532      5B1497AE 
 532      B83D
 533 02a7 8AEE5615 		.ascii	"\212\356V\025\265T\253\322\312=\372F\025\230\246W\230"
 533      B554ABD2 
 533      CA3DFA46 
 533      1598A657 
 533      98
 534 02b8 76951596 		.ascii	"v\225\025\226\350Y\377b:\312\325\262\312b\215\330\372"
 534      E859FF62 
 534      3ACAD5B2 
 534      CA628DD8 
 534      FA
 535 02c9 1E7D6329 		.ascii	"\036}c)\230\252\012\313*\265\234ei\252\313\351t\225"
 535      98AA0ACB 
 535      2AB59C65 
 535      69AACBE9 
ARM GAS  C:\Users\pc\AppData\Local\Temp\ccnlW87D.s 			page 43


 535      7495
 536 02db 2B152EB7 		.ascii	"+\025.\267GW\266\345\347\345\346\355&\276\352rk\005"
 536      4757B6E5 
 536      E7E5E6ED 
 536      26BEEA72 
 536      6B05
 537 02ed 55D94E3A 		.ascii	"U\331N:d\373\377\320\265\335\036%7\317\276\303\376["
 537      64FBFFD0 
 537      B5DD1E25 
 537      37CFBEC3 
 537      FE5B
 538 02ff 835377E8 		.ascii	"\203Sw\350\005%\252JG$\345\331\363\255E\205\272V\341"
 538      0525AA4A 
 538      4724E5D9 
 538      F3AD4585 
 538      BA56E1
 539 0312 766CB0A6 		.ascii	"vl\260\246g\201\344\2068\247\346t\271\367\300\017\217"
 539      6781E486 
 539      38A7E674 
 539      B9F7C00F 
 539      8F
 540 0323 1D9935   		.ascii	"\035\2315"
 541              		.text
 542              		.section	.gnu.lto_chEvtGetAndClearFlagsI.6ed948f3,"",%progbits
 543 0000 789C8550 		.ascii	"x\234\205P\317K\224Q\024\275\347{\363}\0325\322\246"
 543      CF4B9451 
 543      14BDE77B 
 543      F37D1A35 
 543      D2A6
 544 0012 109D858B 		.ascii	"\020\235\205\213D\334\370\260\205A-\373\003Z\270rY\343"
 544      44DCF8B0 
 544      85412DFB 
 544      035AB872 
 544      59E3
 545 0024 980392E2 		.ascii	"\230\003\222\342\214-\332\370\034\225\231\260E\2023"
 545      8C2DDAF8 
 545      1C9599B0 
 545      458233
 546 0033 C1C7340C 		.ascii	"\301\3074\014\211\265\220\301\304\351\207f\371\345B"
 546      89B590C1 
 546      C4E98766 
 546      F9E542
 547 0042 04F147A1 		.ascii	"\004\361G\241\242\010\2630\220\012\031\010\334\004\242"
 547      A208B330 
 547      900A1908 
 547      DC04A2
 548 0051 DD3B0A56 		.ascii	"\335;\012V\033\037<\336\275\367\235s\356\271\327!\242"
 548      1B1F3CDE 
 548      BDF79D73 
 548      EEB9D721 
 548      A2
 549 0062 6310DDE2 		.ascii	"c\020\335\342\267\232/\024\301z\272B\324Wn\001\022\230"
 549      B79A2F14 
 549      C17ABA42 
 549      D4576E01 
 549      1298
 550 0074 7250AF85 		.ascii	"rP\257\205^<Q#\012_\006^\247\325\220J3\314\307\351\257"
ARM GAS  C:\Users\pc\AppData\Local\Temp\ccnlW87D.s 			page 44


 550      5E3C5123 
 550      0A5F065E 
 550      A7D5904A 
 550      33CCC7E9 
 551 0089 65F75B85 		.ascii	"e\367[\205\244@\015\247\373\305\205\374\245\372W\306"
 551      A4400DA7 
 551      FBC585FC 
 551      A5FA57C6 
 552 0099 C48CF72C 		.ascii	"\304\214\367,\1775\223_3\027\322\312\242\024\303\363"
 552      7F35935F 
 552      3317D2CA 
 552      A214C3F3 
 553 00a9 08600A01 		.ascii	"\010`\012\001\351\361\006\365\014\336\210'\212\266\272"
 553      E9F106F5 
 553      0CDE8827 
 553      8AB6BA
 554 00b8 0EE278E8 		.ascii	"\016\342x\350\363\332\200\252\033+\021\017_*s-\255\024"
 554      F3DA80AA 
 554      1B2B110F 
 554      5F2A732D 
 554      AD14
 555 00ca DE42FD4D 		.ascii	"\336B\375M\344\022\341\035\352\004\237t\367*US\211:"
 555      E412E11D 
 555      EA049F74 
 555      F72A5553 
 555      893A
 556 00dc BCE316FC 		.ascii	"\274\343\026\374\265\243%ja\373\362\213~\263h|\334\024"
 556      B5A3256A 
 556      61FBF28B 
 556      7EB3687C 
 556      DC14
 557 00ee EFFFA5CB 		.ascii	"\357\377\245\313a\370\356\344Q\322\357\3700\215Z\261"
 557      61F8EEE4 
 557      51D2EFF8 
 557      308D5AB1 
 558 00fe C56E66E0 		.ascii	"\305nf\340\020o\000R\232\370j{\346\3508n\274\315\226"
 558      106F0052 
 558      9AF86A7B 
 558      E6E8386E 
 558      BCCD96
 559 0111 C383F52B 		.ascii	"\303\203\365+6/\201[\262\214\340)\301\004\336\211\361"
 559      362F815B 
 559      B28CE029 
 559      C104DE89 
 559      F1
 560 0122 E8314FC5 		.ascii	"\3501O\305Q\277G?\021\233\371\361|\334\021\035W\311"
 560      51BF473F 
 560      119BF9F1 
 560      7CDC111D 
 560      57C9
 561 0134 8E5283F3 		.ascii	"\216R\203\363\253e\262\024U28;\277\274\340d\221\351"
 561      AB65B214 
 561      5532383B 
 561      BFBCE064 
 561      91E9
 562 0146 33C6641F 		.ascii	"3\306d\037\361\030>\227\335}\020K\374\273\036\337*\\"
 562      F1183E97 
ARM GAS  C:\Users\pc\AppData\Local\Temp\ccnlW87D.s 			page 45


 562      DD7D104B 
 562      FCBB1EDF 
 562      2A5C
 563 0158 D439FE33 		.ascii	"\3249\37635\342z\026Y$\305\027\341#4\355!\226m\023i"
 563      35E27A16 
 563      5924C517 
 563      E12334ED 
 563      21966D13 
 564 016d 31C0F2D2 		.ascii	"1\300\362\322\356\340{f\251Lj\377\213W\235\243\375\351"
 564      EEE07B66 
 564      A94C6AFF 
 564      8B579DA3 
 564      FDE9
 565 017f 4C7B0E9A 		.ascii	"L{\016\232\001\023\373\323\277\375\342\324\006\301c"
 565      0113FBD3 
 565      BFFDE2D4 
 565      06C163
 566 018e 5691DB8D 		.ascii	"V\221\333\215\346\252Ng\021d\202\207\340A-\"\035\274"
 566      E6AA4E67 
 566      11648287 
 566      E0412D22 
 566      1DBC
 567 01a0 A96FB787 		.ascii	"\251o\267\207\357\205\233\243=\255\341\316\223\370N"
 567      EF859BA3 
 567      3DADE1CE 
 567      93F84E
 568 01af 73E38D26 		.ascii	"s\343\215&\335\031\321\335Q\035\351\016\352`{\350a\350"
 568      DD19D1DD 
 568      511DE90E 
 568      EA607BE8 
 568      61E8
 569 01c1 4134D210 		.ascii	"A4\322\020$\025\352\350\262\333:\356\336\217\374\001"
 569      2415EAE8 
 569      B2DB3AEE 
 569      DE8FFC01 
 570 01d1 C7E3BAD4 		.ascii	"\307\343\272\324"
 571              		.text
 572              		.section	.gnu.lto_chEvtDispatch.6ed948f3,"",%progbits
 573 0000 789C5D53 		.ascii	"x\234]SMHTQ\024>\347\336\373~\346GQ\214\210\220p\221"
 573      4D485451 
 573      143EE7DE 
 573      FB7EE647 
 573      518C8890 
 574 0016 889B865C 		.ascii	"\210\233\206\\\024\331\256h\335\302e+SA!\024f\254]\370"
 574      14D9AE68 
 574      DDC2652B 
 574      53412114 
 574      66AC5DF8 
 575 002a 9CD15133 		.ascii	"\234\321Q3C(-\207!&,\206\026i\222V\343O\2153R\011\331"
 575      43282D87 
 575      21262C86 
 575      16699256 
 575      E34F8D33 
 576 0041 DFC28D63 		.ascii	"\337\302\215c\213~\204J\255\014\304\300\264s\357\235"
 576      8B7E844A 
 576      AD0CC4C0 
 576      B473EF9D 
ARM GAS  C:\Users\pc\AppData\Local\Temp\ccnlW87D.s 			page 46


 577 0051 11EBC2BB 		.ascii	"\021\353\302\273\357\336\357}\337\371\3569\347>\023"
 577      EFDEEF7D 
 577      DFF9EE39 
 577      E73E13
 578 0060 00840038 		.ascii	"\000\204\0008Eo?=h\003\262\336W\000\2556CS/8\0237\322"
 578      456F3F3D 
 578      6803B2DE 
 578      5700AD36 
 578      43532F38 
 579 0077 008EDBD8 		.ascii	"\000\216\333\330p\203\343\025hh\334\320\204i\333d|4"
 579      7083E315 
 579      6868DCD0 
 579      8469DB64 
 579      7C34
 580 0089 250956C6 		.ascii	"%\011V\306C\004\013Q\342\216\215\320\302\2700L\013["
 580      43040B51 
 580      E28E8DD0 
 580      C2B8304C 
 580      0B5B
 581 009b 98099814 		.ascii	"\230\011\230\024\270M\303\332Y\200\034\227\3715\216"
 581      B84DC3DA 
 581      59801C97 
 581      F9358E
 582 00aa A98EA504 		.ascii	"\251\216\245\004+\217;4\222\3277\366\206\235\366}Q\016"
 582      2B8F3B34 
 582      92D737F6 
 582      869DF67D 
 582      510E
 583 00bc D0CF1505 		.ascii	"\320\317\025\005\360\001\226\023\353m\333\375(\357\346"
 583      F0019613 
 583      EB6DDBFD 
 583      28EFE6
 584 00cb 518E2868 		.ascii	"Q\216(h\373s.\3621_n\031\226\320v\245\347SP\360\012"
 584      FB732EF2 
 584      315F6E19 
 584      96D076A5 
 584      E75350F0 
 585 00e0 045AB70E 		.ascii	"\004Z\267\016\276\272\312\312\3568N\320In\336\346\316"
 585      BEBACACA 
 585      EE384ED0 
 585      496EDEE6 
 585      CE
 586 00f1 C128E7F8 		.ascii	"\301(\347\370\0209\005\3041,\306Q,\006\202\000\037a"
 586      103905C4 
 586      312CC651 
 586      2C068200 
 586      1F61
 587 0103 19D107E2 		.ascii	"\031\321\007\342\177\336p~\\Igg\337{\263\312\345\270"
 587      7FDE707E 
 587      5C496767 
 587      DF7BB3CA 
 587      E5B8
 588 0115 520A7CFC 		.ascii	"R\012|\374\277R\000&\260L\322\373F\272{\335\374\204"
 588      BF520026 
 588      B04CD2FB 
 588      46BA7BDD 
 588      FC84
ARM GAS  C:\Users\pc\AppData\Local\Temp\ccnlW87D.s 			page 47


 589 0127 9246BE6F 		.ascii	"\222F\276o\244y\351\240\312bua\377\255\220\363\302\021"
 589      A479E9A0 
 589      CA627561 
 589      FFAD90F3 
 589      C211
 590 0139 516EE0F8 		.ascii	"Qn\340\370\277z9\210\376ad\253/\317\0248\201\245\261"
 590      BF7A3988 
 590      FE6164AB 
 590      2FCF1438 
 590      81A5B1
 591 014c 5CB23889 		.ascii	"\\\2628\211T)zKt\370\235\221t\266\266;\234\344\322\231"
 591      54297A4B 
 591      74F89D91 
 591      74B6B63B 
 591      9CE4D299 
 592 0160 9EF4FC22 		.ascii	"\236\364\374\"\333\203\344m29q9\351c\030j&\031Il\011"
 592      DB83E46D 
 592      32397139 
 592      E963186A 
 592      2619496C 
 593 0175 BBE4E4A6 		.ascii	"\273\344\344\246\311\362\310,\2754\331\371(I\005\212"
 593      C9F2C82C 
 593      BD34D9F9 
 593      2849058A 
 594 0185 5A8832EF 		.ascii	"Z\2102\357\"%\000\350$\337\214\307IB\027g\264\010%a"
 594      222500E8 
 594      24DF8CC7 
 594      49421767 
 594      B4082561 
 595 0199 0983B1F8 		.ascii	"\011\203\261\370\220%\317\")t\324\341\345\304\357<Y"
 595      9025CF22 
 595      2974D4E1 
 595      E5C4EF3C 
 595      59
 596 01aa 6A17024E 		.ascii	"j\027\002N\251\024\272\250|\324u\242\177\305\340Z\307"
 596      A914BAA8 
 596      7CD475A2 
 596      7FC5E05A 
 596      C7
 597 01bb 54E21E4A 		.ascii	"T\342\036JA\204\312\300M\302Bk\341Y\227FX\204\033\204"
 597      4184CAC0 
 597      4DC2426B 
 597      E1599746 
 597      58841B84 
 598 01cf 4B70339C 		.ascii	"Kp3\234eq\202)\360\350\314\363\260-\003\233\210\370"
 598      65718229 
 598      F0E8CCF3 
 598      B02D039B 
 598      88F8
 599 01e1 84027FC6 		.ascii	"\204\002\177\306\266\205\364L\216\264\333\332$\353\247"
 599      B685F44C 
 599      8EB4DBDA 
 599      24EBA7
 600 01f0 D9EA7551 		.ascii	"\331\352uQ\007\256\034S\336\241\037\341\305\304\335"
 600      07AE1C53 
 600      DEA11FE1 
 600      C5C4DD
ARM GAS  C:\Users\pc\AppData\Local\Temp\ccnlW87D.s 			page 48


 601 01ff ACC09631 		.ascii	"\254\300\2261\264Up+<`h\324E\037\264\371\027\256\221"
 601      B455702B 
 601      3C6068D4 
 601      451FB4F9 
 601      17AE91
 602 0212 02752297 		.ascii	"\002u\"\227\314\264D\245IU!T\222\"\341\225\304E\315"
 602      CCB444A5 
 602      49552154 
 602      9222E195 
 602      C445CD
 603 0225 7253A4DD 		.ascii	"rS\244\335\327\316B\201I:\001\261\242\271<<\021^HLi"
 603      D7CE4281 
 603      493A01B1 
 603      A2B93C3C 
 603      115E484C 
 604 023a B879298B 		.ascii	"\270y)\213yI\324\337\236zmI\021WWc25\367\314\214\341"
 604      7949D4DF 
 604      9E7A6D49 
 604      11575763 
 604      3235F7CC 
 605 0250 CD56BA1B 		.ascii	"\315V\272\033%Q\031\331\203\3232\031La\014a\031\333"
 605      255119D9 
 605      83D33219 
 605      4C610C61 
 605      19DB
 606 0262 620754EF 		.ascii	"b\007T\357IM\217\031\345\036\225\246\221\255\361\022"
 606      494D8F19 
 606      E51E95A6 
 606      91ADF112 
 607 0272 32D08714 		.ascii	"2\320\207\024\322\276?\3343Q\255\315\212\210M\006c\035"
 607      D2BE3FDC 
 607      3351ADCD 
 607      8A884D06 
 607      631D
 608 0284 2F47DCD2 		.ascii	"/G\334\322\317\240B\246)\362Nj\324Ab\001\254\243\240"
 608      CFA042A6 
 608      29F24E6A 
 608      D4416201 
 608      ACA3A0
 609 0297 AC39452F 		.ascii	"\2549E/\020\343\277\326\220\242\233@?j.\272\342\231"
 609      10E3BFD6 
 609      90A29B40 
 609      3F6A2EBA 
 609      E299
 610 02a9 BB9C0CDD 		.ascii	"\273\234\014\335\214\371L\205v2v\247%\250\0333\272\033"
 610      8CF94C85 
 610      763276A7 
 610      25A81B33 
 610      BA1B
 611 02bb EB48B5CC 		.ascii	"\353H\265\314g\024X\030\2641\345\005a\343k\225\344j"
 611      67145818 
 611      B431E505 
 611      61E36B95 
 611      E46A
 612 02cd 44D653D2 		.ascii	"D\326S\322\310\322\027k\225.\326\267!U%\325\306N*N\306"
 612      C8D2176B 
 612      952ED6B7 
ARM GAS  C:\Users\pc\AppData\Local\Temp\ccnlW87D.s 			page 49


 612      215525D5 
 612      C64E2A4E 
 613 02e2 C3007C35 		.ascii	"\303\000|5\225\276\223\365\015g\033\252\232\317\327"
 613      95BE93F5 
 613      0D671BAA 
 613      9ACFD7
 614 02f1 3634E9F5 		.ascii	"64\351\365\351\252\303G\217\370\232\002>\177\263/\340"
 614      E9AAC347 
 614      8FF89A02 
 614      3E7FB32F 
 614      E0
 615 0302 AFF1D5D4 		.ascii	"\257\361\325\324\327]\250kl\016\034\252\001\273\276"
 615      D75DA86B 
 615      6C0E1CAA 
 615      01BBBE
 616 0311 BAB1F65C 		.ascii	"\272\261\366\\\235?`j\210\3275\324\376\005\206GZ\317"
 616      9D3F606A 
 616      88D735D4 
 616      FE058647 
 616      5ACF
 617              		.text
 618              		.section	.gnu.lto_chEvtWaitOne.6ed948f3,"",%progbits
 619 0000 789C9554 		.ascii	"x\234\225T]LTW\020>s\317\335\037wW i\233&\206\230%)"
 619      5D4C5457 
 619      103E73CF 
 619      DD1F7757 
 619      20699B26 
 620 0018 41D3EAD5 		.ascii	"A\323\352\325\246\251iMLZ\236\372@\232\310S\237\214"
 620      A6A9694D 
 620      4C5A9EFA 
 620      409AC853 
 620      9F8C
 621 002a AC1BDDC4 		.ascii	"\254\033\335\304e\311\356B\344\211\353\202\374\210\266"
 621      65C9EE42 
 621      E489EB82 
 621      FC88B6
 622 0039 4D5B5057 		.ascii	"M[PW~\266\245\255}\201ZK\245 \302\012\025\241\025X\371"
 622      7EB6A5AD 
 622      7D815A4B 
 622      A520C20A 
 622      15A11558 
 623 004e 512A1614 		.ascii	"Q*\026\024\012\202E\242mSm-\333\316\234{\371[\010\265"
 623      0A8245A2 
 623      6D536D2D 
 623      DBCE9C7B 
 623      F95B08B5 
 624 0062 FB7072EE 		.ascii	"\373pr\356\234\371f\276\231of\215\214\2612\023c\317"
 624      9CF966BE 
 624      996F668D 
 624      8CB13213 
 624      63CF
 625 0074 0063AFE0 		.ascii	"\000c\257\340\035\014\014\244\367{\030;l\226$\036Id"
 625      1D0C0CA4 
 625      F77B183B 
 625      6C96241E 
 625      4964
 626 0086 AA450E6F 		.ascii	"\252E\016og\252\215\203\254\231e\000\272\250f`y\022"
ARM GAS  C:\Users\pc\AppData\Local\Temp\ccnlW87D.s 			page 50


 626      67AA8D83 
 626      AC996500 
 626      BAA86660 
 626      7912
 627 0098 97210F8E 		.ascii	"\227!\017\216\361\2178\\+8[\301Ky\005g \343\347\303"
 627      F18F385C 
 627      2B385BC1 
 627      4B790567 
 627      20E3E7C3 
 628 00ac EEE0781C 		.ascii	"\356\340x\034}\002\330\361sf\266\243\336\266\371\214"
 628      7D02D8F1 
 628      7366B6A3 
 628      DEB6F98C 
 629 00bc AA06D4F0 		.ascii	"\252\006\324\360\211\350\363\225\365\021u]\005\227X"
 629      89E8F395 
 629      F511755D 
 629      059758
 630 00cb 39BAD743 		.ascii	"9\272\327C\"|\015\211\224\374\033\330\214\316\247\316"
 630      227C0D89 
 630      94FC1BD8 
 630      8CCEA7CE 
 631 00db CC45387F 		.ascii	"\314E8\177\031\030\336\273\272Fl)\237\011\334\357\237"
 631      1918DEBB 
 631      BA466C29 
 631      9F09DCEF 
 631      9F
 632 00ec 72F50504 		.ascii	"r\365\005\004\301y\340Kq\024\007\032 \205\334/G\033"
 632      C179E04B 
 632      7114071A 
 632      2085DC2F 
 632      471B
 633 00fe 8A65FE9A 		.ascii	"\212e\376\232\200^\257\036\354\214K\256\021\330\236"
 633      805EAF1E 
 633      EC8C4BAE 
 633      11D89E
 634 010d A98D1FE7 		.ascii	"\251\215\037\347\253\235\252L\370o\227\343\351\207\356"
 634      AB9DAA4C 
 634      F86F97E3 
 634      E987EE
 635 011c 57A3F5BD 		.ascii	"W\243\365\275\026\276S@\217\216\266>2\351\320\216\251"
 635      16BE5340 
 635      8F8EB63E 
 635      32E9D08E 
 635      A9
 636 012d 0DF3500E 		.ascii	"\015\363P\016M\253B\307\276\212\226\2557\312p\001\222"
 636      4DAB42C7 
 636      BE8A96AD 
 636      37CA7001 
 636      92
 637 013e A11192A9 		.ascii	"\241\021\222\251*,\246\031\214\260\360X\240\342/<9m"
 637      2A2CA619 
 637      8CB0F058 
 637      A0E22F3C 
 637      396D
 638 0150 14F6720E 		.ascii	"\024\366r\016Kp\014.\242k\013\030Y\214\373\223\273)"
 638      4B700C2E 
 638      A26B0B18 
ARM GAS  C:\Users\pc\AppData\Local\Temp\ccnlW87D.s 			page 51


 638      598CFB93 
 638      BB29
 639 0162 E8DF42FE 		.ascii	"\350\337B\376\022\275\335m.\032\000\236%\2603\223\305"
 639      12BDDD6D 
 639      2E1A009E 
 639      25B03393 
 639      C5
 640 0173 6159A7F8 		.ascii	"aY\247\370\250jSe~\351q5\024H\250@E\302k\220\324\002"
 640      A86A5365 
 640      7EE97135 
 640      1448A840 
 640      45C26B90 
 641 0189 CF56622D 		.ascii	"\317Vb-\227\220)\264Rp\276\214L\033\222iG2t\340TH\363"
 641      979029B4 
 641      5270BE8C 
 641      4C1B9269 
 641      473274E0 
 642 01a0 657DD967 		.ascii	"e}\331g\010\253\321\177\212P\301\215\243\315\323\325"
 642      08ABD17F 
 642      8A50C18D 
 642      A3CDD3D5 
 643 01b0 5B9E05EC 		.ascii	"[\236\005\354\275A\242\203\323!\323a\240\303H\207\211"
 643      BD41A283 
 643      D321D361 
 643      A0C34887 
 643      89
 644 01c1 11CAC208 		.ascii	"\021\312\302\010o\005R\310&,\361\342L\020'c\305\330"
 644      6F0552C8 
 644      262CF1E2 
 644      4C102763 
 644      C5D8
 645 01d3 2B9C2735 		.ascii	"+\234'5\314J\260H\274\345\207\331=\0104M\027\327\232"
 645      CC4AB048 
 645      BCE587D9 
 645      3D08344D 
 645      17D79A
 646 01e6 A855416E 		.ascii	"\250UAnAr\345G\332zM4NFQ|c\343\314\260)oN5\243!\304"
 646      4172E547 
 646      DA7A4D34 
 646      4E46517C 
 646      63E3CCB0 
 647 0201 B5FAEAF3 		.ascii	"\265\372\352\363\037~\020\027\202*\250\340&\270\214"
 647      1F7E1017 
 647      822AA8E0 
 647      26B88C
 648 0210 63F91DD5 		.ascii	"c\371\035\325\216\017\347\257\334zbVj\251\360P\035\276"
 648      8E0FE7AF 
 648      DC7A6256 
 648      6AA9F050 
 648      1DBE
 649 0222 9AA10342 		.ascii	"\232\241\003BP\306\365\276\374u#\377\210\244=\333I\342"
 649      50C6F5BE 
 649      FC7523FF 
 649      88A43DDB 
 649      49E2
 650 0234 2BA094A1 		.ascii	"+\240\224\241<(`'(l\022\002\241\034!%V\201\\\320 \255"
 650      3C286027 
ARM GAS  C:\Users\pc\AppData\Local\Temp\ccnlW87D.s 			page 52


 650      286C1202 
 650      A11C2125 
 650      56815CD0 
 651 024a D2FEE0DA 		.ascii	"\322\376\340\332\355\207.HFP\321\264zQ\246*d\260\303"
 651      ED872E48 
 651      4650D1B4 
 651      7A51A62A 
 651      64B0C3
 652 025d F7F8F60B 		.ascii	"\367\370\366\013\004\306\032N\234\355\213\235\223\017"
 652      04C61A4E 
 652      9CED8B9D 
 652      930F
 653 026b CB37E873 		.ascii	"\3137\350s\"\257\230\211\242]\270\242?\320\233!\366"
 653      22AF9889 
 653      A25DB8A2 
 653      3FD09B21 
 653      F6
 654 027c EDB7AA4D 		.ascii	"\355\267\252M\2479\345bpu\245\256\335XD\017\351\332"
 654      A739E562 
 654      7075A5AE 
 654      DD58440F 
 654      E9DA
 655 028e 43BA027B 		.ascii	"C\272\002{LY?\251>\367\330\222T\"U\253'\261\372u\004"
 655      4C593FA9 
 655      3EF7D892 
 655      542255AB 
 655      27B1FA75 
 656 02a3 A81DBFA0 		.ascii	"\250\035\277\240\232e\011Y\367B\222h\321\203\231\201"
 656      9A650959 
 656      F7429268 
 656      D1839981 
 657 02b3 61092D10 		.ascii	"a\011-\020\001Y\360fpMl\371\027-\355\023\266\244c:\332"
 657      0159F066 
 657      704D6CF9 
 657      172DED13 
 657      B6A4633A 
 658 02c8 42BEBFD6 		.ascii	"B\276\277\326\235\033\264\012t\037\241\241\037dj\242"
 658      9D1BB40A 
 658      741FA1A1 
 658      1F646AA2 
 659 02d8 5DF48009 		.ascii	"]\364\200\011i\377\014\324\364\203\246-,\325V[\212\346"
 659      69FF0CD4 
 659      F483A62D 
 659      2CD5565B 
 659      8AE6
 660 02ea B6EE0E23 		.ascii	"\266\356\016#\352xX\023\304\212M\207\001]\312\201\242"
 660      EA785813 
 660      C48A4D87 
 660      015DCA81 
 660      A2
 661 02fb A111EB82 		.ascii	"\241\021\353\202V\022\014\012!%\352\360u\024\353\036"
 661      56120C0A 
 661      2125EAF0 
 661      7514EB1E 
 662 030b E4FF5DF8 		.ascii	"\344\377]\370\216\026\331\206\301\203\334*r\013\375"
 662      8E16D986 
 662      C183DC2A 
ARM GAS  C:\Users\pc\AppData\Local\Temp\ccnlW87D.s 			page 53


 662      720BFD
 663 031a 1A493F1B 		.ascii	"\032I?\033\233\200\202\233\355\263S6\335ki~\011\273"
 663      9B80829B 
 663      EDB35336 
 663      DD6B697E 
 663      09BB
 664 032c 724357AC 		.ascii	"rCW\254\004\233\027I\324f18\375\356}\013\371\307\260"
 664      049B1749 
 664      D4663138 
 664      FDEE7D0B 
 664      F9C7B0
 665 033f 0B65B035 		.ascii	"\013e\2605\371\331`H\360\323\007\264\356~\240G\326\347"
 665      F9D96048 
 665      F0D307B4 
 665      EE7EA047 
 665      D6E7
 666 0351 3093B2FD 		.ascii	"0\223\262\375H\223&\023\371\233\240\020\327\031(\010"
 666      48932613 
 666      F99BA010 
 666      D7192808 
 667 0361 B5D61B28 		.ascii	"\265\326\033(U\314\224\257/\347F\364\033\206<z\230{"
 667      55CC94AF 
 667      2FE746F4 
 667      1B863C7A 
 667      987B
 668 0373 1099B311 		.ascii	"\020\231\263\021\3438\260\300-H\254\340\361\332\316"
 668      E338B0C0 
 668      2D48ACE0 
 668      F1DACE
 669 0382 9C3CAEEF 		.ascii	"\234<\256\357\214\364?\033\371\323b#G\346\033\231\253"
 669      8CF43F1B 
 669      F9D36223 
 669      47E61B99 
 669      AB
 670 0393 858AC768 		.ascii	"\205\212\307h+\033\031/z$\353\013KK\241\331MDd\250\260"
 670      2B1B192F 
 670      7A24EB0B 
 670      4B4BA1D9 
 670      4D4464A8 
 671 03a8 B6FF390D 		.ascii	"\266\3779\015\3155\023\206\323\025O\320m\313\303%h\374"
 671      CD351386 
 671      D3154FD0 
 671      6DCBC325 
 671      68FC
 672 03ba 4FD75A34 		.ascii	"O\327Z4/\371\251\370o!\352\243\213\324o\013\352\201"
 672      2FF9A9F8 
 672      6F21EAA3 
 672      8BD46F0B 
 672      EA81
 673 03cc 68619741 		.ascii	"ha\227A\013c\320\"c\366S\272\205b\243\235\334\006\216"
 673      0B63D022 
 673      63F653BA 
 673      8562A39D 
 673      DC068E
 674 03df C22AA2AE 		.ascii	"\302*\242\256\221\351\316b\2461\022\314\250\325}I\354"
 674      91E9CE62 
 674      A63112CC 
ARM GAS  C:\Users\pc\AppData\Local\Temp\ccnlW87D.s 			page 54


 674      A8D57D49 
 674      EC
 675 03f0 F6C214C9 		.ascii	"\366\302\024\3118E\343Kw[\373\037\325\367-Z}\247\305"
 675      3845E34B 
 675      775BFB1F 
 675      D5F72D5A 
 675      7DA7C5
 676 0403 3ABF4AE3 		.ascii	":\277J\343b\225~\026\253\024\2737\023\332\336\334n|"
 676      62957E16 
 676      AB14BB37 
 676      13DADEDC 
 676      6E7C
 677 0415 AF69BFC8 		.ascii	"\257i\277\310\301\330,~\226Vu\033\365F\"\217?\300\204"
 677      C1D82C7E 
 677      9656751B 
 677      F546228F 
 677      3FC084
 678 0428 332C056B 		.ascii	"3,\005k^DEx\360\363\235\370w\012\244\011\306Q\034\257"
 678      5E444578 
 678      F0F39DF8 
 678      770AA409 
 678      C6511CAF 
 679 043c 2BA9075C 		.ascii	"+\251\007\\\031\256t\177\366>\227G\273\277\235\276}"
 679      19AE747F 
 679      F63E9747 
 679      BBBF9DBE 
 679      7D
 680 044d C7AB8AC7 		.ascii	"\307\253\212\307\247x\375\212\317\353P\034\007\2349"
 680      A778FD8A 
 680      CFEB501C 
 680      079C39
 681 045c CE4CBF6F 		.ascii	"\316L\277o\253\203\031\265\033\270\271\303\237\265\355"
 681      AB8319B5 
 681      1BB8B9C3 
 681      9FB5ED
 682 046b BFC0AE4C 		.ascii	"\277\300\256L\307\301\354}N\014\340\313\365m=\300\014"
 682      C7C1EC7D 
 682      4E0CE0CB 
 682      F56D3DC0 
 682      0C
 683 047c 397B0F66 		.ascii	"9{\017f;w\255\011sx\334nO\246\222\345\361\372}\312\033"
 683      3B77AD09 
 683      7378DC6E 
 683      4FA692E5 
 683      F1FA7DCA 
 684 0491 BBD352D3 		.ascii	"\273\323R\323\016!\336\341\361:\367\344\354pc\2207\237"
 684      0E21DEE1 
 684      F13AF7E4 
 684      EC706390 
 684      379F
 685 04a3 06EE3CE4 		.ascii	"\006\356<\344WR\323\322\337J_\344\340\366\271|{\366"
 685      5752D3D2 
 685      DF4A5FE4 
 685      E0F6B97C 
 685      7BF6
 686 04b5 3B1C1822 		.ascii	";\034\030\"!-}\267=c\257\317\231\345u\275dO\336\306"
 686      212D7DB7 
ARM GAS  C:\Users\pc\AppData\Local\Temp\ccnlW87D.s 			page 55


 686      3D63AFCF 
 686      99E575BD 
 686      644FDEC6 
 687 04c9 242F33B9 		.ascii	"$/3\271\235n\2177\227\375\013E\232\301\300"
 687      9D6E8F37 
 687      97FD0B45 
 687      9AC1C0
 688              		.text
 689              		.section	.gnu.lto_chEvtWaitAny.6ed948f3,"",%progbits
 690 0000 789C9554 		.ascii	"x\234\225T[LTW\024=\373\236;\017\206qj\332?J\232!)A"
 690      5B4C5457 
 690      143DFB9E 
 690      3B0F8671 
 690      6ADA3F4A 
 691 0018 53F56AD3 		.ascii	"S\365j\323\324\264&&-_\375 M\234\257~\031\031'2\211"
 691      D4B42626 
 691      2D5FFD20 
 691      4D9CAF7E 
 691      19192732 
 692 002d C3901920 		.ascii	"\303\220\031 \362\305u@\001\321\264\261\005+\3451}\305"
 692      F2C57540 
 692      01D1B4B1 
 692      052BE531 
 692      7DC5
 693 003f FE402D52 		.ascii	"\376@-R(\2108BEha\030\021\224\002E\205\242A\006\242"
 693      28883842 
 693      45686118 
 693      11940245 
 693      85A24106 
 694 0054 6DA356CB 		.ascii	"m\243V\313\264{\237{y8\020j\347\343\344\334s\366\332"
 694      B47B9F7B 
 694      7938106A 
 694      E7E3E4DC 
 694      73F6DA
 695 0067 67EDB5F6 		.ascii	"g\355\265\366\036#c\314ab\354%`\354\015\334\203\201"
 695      1E2363CC 
 695      6162EC25 
 695      60EC0DDC 
 695      8381
 696 0079 81F45198 		.ascii	"\201\364Q\230\261\303fI\342\221d\246Z\344\320\016\246"
 696      B1C36649 
 696      E29164A6 
 696      5AE4D00E 
 696      A6
 697 008a 5A39C8DA 		.ascii	"Z9\310\332\261\014@\033\325\014\254P\3422\024\302q\376"
 697      B10C401B 
 697      D50CAC50 
 697      E23214C2 
 697      71FE
 698 009c 0987ABC5 		.ascii	"\011\207\253\305g\253y9\257\346\014d\374|\320_5e\243"
 698      67AB7939 
 698      AFE60C64 
 698      FC7CD05F 
 698      3565A3
 699 00af 4F003B7E 		.ascii	"O\000;~F\347\273\233\254\233\317\250j@\015\235z\222"
 699      46E7BB9B 
 699      AC9BCFA8 
ARM GAS  C:\Users\pc\AppData\Local\Temp\ccnlW87D.s 			page 56


 699      6A400D9D 
 699      7A92
 700 00c1 54D31451 		.ascii	"T\323\024Q\023\252\271\304*1\274\011\222\341\034$\323"
 700      13AAB9C4 
 700      2A31BC09 
 700      92E11C24 
 700      D3
 701 00d2 E3DFC366 		.ascii	"\343\337\303f\014>}f!\302\371\353\300p\337\333;aM\373"
 701      0C3E7D66 
 701      21C2F9EB 
 701      C070DFDB 
 701      3B614DFB 
 702 00e6 5AE0FEFC 		.ascii	"Z\340\376\374\212\253\257\"\010\232\201\257\304Q\036"
 702      8AABAF22 
 702      089A81AF 
 702      C4511E
 703 00f5 6881340A 		.ascii	"h\2014\012\277\034k)\225\371[\002z\275n\270\307\226"
 703      BF1C6B29 
 703      95F95B02 
 703      7ABD6EB8 
 703      C796
 704 0107 FAA5C0C6 		.ascii	"\372\245\300\306f_\371\274H\355Qe\302\377\360,\236~"
 704      665FF9BC 
 704      48ED5165 
 704      C2FFF02C 
 704      9E7E
 705 0119 18DE176B 		.ascii	"\030\336\027k\032\260\360]\002z\354\346\305G&\035\372"
 705      1AB0F05D 
 705      027AECE6 
 705      C547261D 
 705      FA
 706 012a 70366911 		.ascii	"p6i\021\312\241mM\350\344w\261\212\015F\031\316C*\264"
 706      CAA16D4D 
 706      E8E477B1 
 706      8A0D4619 
 706      CE432AB4 
 707 013e 422A5585 		.ascii	"B*U\205\305\264\203\021\226.\213U\374\205\302sFq^\311"
 707      C5B48311 
 707      962E8B55 
 707      FC85C273 
 707      46715EC9 
 708 0152 61058EC1 		.ascii	"a\005\216\301\005\014\355\000#\213\013\177z7\015\343"
 708      050CED00 
 708      238B0B7F 
 708      7A370DE3 
 709 0162 3B285EA2 		.ascii	";(^\242\273\273\355%C\300s\0046z\2474$\353\024\037\325"
 709      BBBBED25 
 709      43C07304 
 709      367AA734 
 709      24EB141F 
 710 0177 6EAA292A 		.ascii	"n\252)*?\241\006\003\033\253\321\221\320:$\265\304\363"
 710      3FA10603 
 710      1BABD191 
 710      D03A24B5 
 710      C4F3
 711 0189 3558CB25 		.ascii	"5X\313%d\012\027)9\177\206L'\222\351B2\264`WH\213e}"
 711      640A1729 
ARM GAS  C:\Users\pc\AppData\Local\Temp\ccnlW87D.s 			page 57


 711      397F864C 
 711      2792E942 
 711      32B46057 
 712 01a1 3B6808A9 		.ascii	";h\010\251\261\177J\320\301\244\331\366\231\361\255"
 712      B17F4AD0 
 712      C1A4D9F6 
 712      99F1AD
 713 01b0 2F026A6F 		.ascii	"/\002jo\220h\341\264\310\264\030hA0\002\022\030A-@\346"
 713      9068E1B4 
 713      C8B41868 
 713      41300212 
 713      18412D40 
 714 01c5 248A139B 		.ascii	"$\212\023\233X\031+E\201\260\211\324\020+\303\312pW"
 714      58192B45 
 714      81B089D4 
 714      102BC3CA 
 714      7057
 715 01d7 1462F720 		.ascii	"\024b\367 \3206\323Qo\"}\252x\0022\252<\3229`\242\036"
 715      D036D351 
 715      6F227DAA 
 715      780232AA 
 715      3CD23960 
 716 01ed 328A8A5B 		.ascii	"2\212\212[[\243c\246\302\005\325\214\007A\256\025\325"
 716      5BA363A6 
 716      C205D58C 
 716      0741AE15 
 716      D5
 717 01fe 54F4E0A4 		.ascii	"T\364\340\244-\010\265P\315Mp\031{\361G*\030/\232\257"
 717      2D08B550 
 717      CD4D7019 
 717      7BF1472A 
 717      182F9AAF 
 718 0212 8C3F352B 		.ascii	"\214?5+\365Tm\260\001o\315\320\015A\250\340\272\030"
 718      F5546DB0 
 718      016FCDD0 
 718      0D41A8E0 
 718      BA18
 719 0224 4F6E141D 		.ascii	"On\024\035\221\264k;\371z\005\224\012\364\004]\353\001"
 719      91B46B3B 
 719      F97A0594 
 719      0AF4045D 
 719      EB01
 720 0236 85DD8140 		.ascii	"\205\335\201@0_\370\207\374\221\013\036Hkh^\265\276"
 720      305FF887 
 720      FC910B1E 
 720      486B685E 
 720      B5BE
 721 0248 E6D00BA9 		.ascii	"\346\320\013\251\010*\231Q/\310T\205\014v\370\011\357"
 721      082A9951 
 721      2FC85485 
 721      0C76F809 
 721      EF
 722 0259 662130D9 		.ascii	"f!0\331r\352\354`|s||\362e\2759\344U\215P\262\033\347"
 722      72EAEC60 
 722      7C737C7C 
 722      F265BD39 
 722      E4558D50 
ARM GAS  C:\Users\pc\AppData\Local\Temp\ccnlW87D.s 			page 58


 723 0270 F267BA33 		.ascii	"\362g\2723\304\337\375Q\273\3513No1\350[mf?\026\021"
 723      C4DFFD51 
 723      BBE9334E 
 723      6F31E85B 
 723      6D663F16 
 724 0285 2633C364 		.ascii	"&3\303d&\260\307\364\352\027u\215\217-)eR\235\372)V"
 724      26B0C7F4 
 724      EA17758D 
 724      8F2D2965 
 724      529DFA29 
 725 029a 9F4080FA 		.ascii	"\237@\200\372\251\363\252Y\226\220\365\000\244\010\211"
 725      A9F3AA59 
 725      9690F500 
 725      A40889
 726 02a9 EE4787C6 		.ascii	"\356G\207\306$<\201\010\310\2027\203\253b\264\277\351"
 726      243C8108 
 726      C8823783 
 726      AB62B4BF 
 726      E9
 727 02ba E89AB6A6 		.ascii	"\350\232\266\246\034\327\321\026\212\375\275\241q8Q"
 727      1CD7D116 
 727      8AFDBDA1 
 727      713851
 728 02c9 A007090D 		.ascii	"\240\007\011\015\327@&\021\355B\003&\254\375\253\263"
 728      D7402611 
 728      ED420326 
 728      ACFDABB3 
 729 02d9 F11A68DE 		.ascii	"\361\032h\336\302Jo\265Ih\357\354\3576\242\217\2075"
 729      C24A6FB5 
 729      4968EFEC 
 729      EF36A28F 
 729      8735
 730 02eb 43125174 		.ascii	"C\022Qt\030\322\255\034*\031\231H\\\362J\202aa\244D"
 730      18D2AD1C 
 730      2A199948 
 730      5CF24A82 
 730      6161A444 
 731 02ff 0A5F47B3 		.ascii	"\012_G\263\356A\321\337G?\3202#\016\252\220\022\275"
 731      EE41D1DF 
 731      473FD032 
 731      230EAA90 
 731      12BD
 732 0311 2DFC6B25 		.ascii	"-\374k%\377\022\3314\024\217vMD\255z\324\312\367%T\345"
 732      FF12D934 
 732      148F764D 
 732      44AD7AD4 
 732      CAF72554 
 733 0326 86EE5819 		.ascii	"\206\356X\031\212\027I\326z\261j\246o\316B\361q\354"
 733      8A1749D6 
 733      7AB16AA6 
 733      6FCE42F1 
 733      71EC
 734 0338 82996C5D 		.ascii	"\202\231l]~V\030\021\374\364\006m\230\013\204e\275\017"
 734      7E561811 
 734      FCF4066D 
 734      980B8465 
 734      BD0F
ARM GAS  C:\Users\pc\AppData\Local\Temp\ccnlW87D.s 			page 59


 735 034a B3E9B55F 		.ascii	"\263\351\265_\250\323d\"?\012\012q\215Bq\260\245\331"
 735      A8D36422 
 735      3F0A0A71 
 735      8D4271B0 
 735      A5D9
 736 035c 404FC575 		.ascii	"@O\305u\371\206Jn\304\2701(\244\213\205\373\221\005"
 736      F9864A6E 
 736      C4B83128 
 736      A48B85FB 
 736      9105
 737 036e 2B31B681 		.ascii	"+1\266\201\005\306!\271\232\277\240\315L\370\204>3\322"
 737      05C621B9 
 737      9ABFA0CD 
 737      4CF8843E 
 737      33D2
 738 0380 FF14F2D7 		.ascii	"\377\024\362\327e!'\026\205,\320R\3310\333j!mB#Y\037"
 738      65212716 
 738      852CD052 
 738      D930DB6A 
 738      216D4223 
 739 0396 581A0AED 		.ascii	"X\032\012\355\334\250\021\031\251\267hh\376\\D\266\022"
 739      DCA81119 
 739      A9B76868 
 739      FE5C44B6 
 739      12
 740 03a7 879BCB1C 		.ascii	"\207\233\313\034n\011\016\201\330\321^\203\226F\326"
 740      6E090E81 
 740      D8D15E83 
 740      9646D6
 741 03b6 3223ABD3 		.ascii	"2#\253\323\372\211\001s\3439\205\015\035\2035\334Y\347"
 741      FA890173 
 741      E339850D 
 741      1D8335DC 
 741      59E7
 742 03c8 A5DBCB2F 		.ascii	"\245\333\313/M\222\362\006\255\200KbH\227\332A\306v"
 742      4D92F206 
 742      AD804B62 
 742      4897DA41 
 742      C676
 743 03da 985A39A4 		.ascii	"\230Z9\244\332\277\240>8\261\272\333\035\211\21331%"
 743      DABFA03E 
 743      38B1BADB 
 743      1D898B33 
 743      3125
 744 03ec 66E23731 		.ascii	"f\34271\023\361\0030\255\015\300\255\326\017\333\016"
 744      13F10330 
 744      AD0DC0AD 
 744      D60FDB0E 
 745 03fc 8837189B 		.ascii	"\2107\030\233\307\317\362\261~\243V\011\032\313\036"
 745      C7CFF2B1 
 745      7EA35609 
 745      1ACB1E
 746 040b 8A669446 		.ascii	"\212f\224F\033_Ci\371\350\271]\370\277\010$.\346Q\234"
 746      1B5F4369 
 746      F9E8B95D 
 746      F8BF0824 
 746      2EE6519C 
ARM GAS  C:\Users\pc\AppData\Local\Temp\ccnlW87D.s 			page 60


 747 041f 6F2BE959 		.ascii	"o+\351Y\356L\267#7o\277\333\253\355\337w\354\330\371"
 747      EE4CB723 
 747      376FBFDB 
 747      ABEDDF77 
 747      ECD8F9
 748 0432 A6E2F52B 		.ascii	"\246\342\365+\276\\\305\357s*\316,W\276+;\327\277\315"
 748      BE5CC5EF 
 748      732ACE2C 
 748      57BE2B3B 
 748      D7BFCD
 749 0445 C98CDA0E 		.ascii	"\311\214\332\016<\334\231\233\263\375\277\300\356l\347"
 749      3CDC999B 
 749      B3FDBFC0 
 749      EE6CE7
 750 0454 C1BCFD2E 		.ascii	"\301\274\375.L\340/\360o\313b\206\374}\007\363\\\273"
 750      4CE02FF0 
 750      6FCB6286 
 750      FC7D07F3 
 750      5CBB
 751 0466 D78539BD 		.ascii	"\327\2059\275\036\2177[\311\361\372r\375\312;{2\322"
 751      1E8F375B 
 751      C9F1FA72 
 751      FDCA3B7B 
 751      32D2
 752 0478 330E21DE 		.ascii	"3\016!\336\351\365\271\366\346\357\364`\222w\237\007"
 752      E9F5B9F6 
 752      E6EFF460 
 752      92779F07 
 753 0488 EE3A94AB 		.ascii	"\356:\224\253\244g8\336s,s\360\370\335\376\275\007\234"
 753      A46738DE 
 753      732C73F0 
 753      F8DDFEBD 
 753      079C
 754 049a 4E4CB131 		.ascii	"NL\2611\303\261\307\236\271\317\357\312\361\271\267"
 754      C3B1C79E 
 754      B9CFEFCA 
 754      F1B9B7
 755 04a9 D853B733 		.ascii	"\330S\2673\311\307L\036\227\307\353+`\377\002q\337\262"
 755      C9C74C1E 
 755      97C7EB2B 
 755      60FF0271 
 755      DFB2
 756 04bb 58       		.ascii	"X"
 757              		.text
 758              		.section	.gnu.lto_chEvtWaitAll.6ed948f3,"",%progbits
 759 0000 789C8D54 		.ascii	"x\234\215T\337OSw\024\377\236\373\275\275-\005\321\355"
 759      DF4F5377 
 759      14FF9EFB 
 759      BDBD2D05 
 759      D1ED
 760 0012 71F25012 		.ascii	"q\362P\022\011\222l^5ff{0\331x\332\0031\261\177\200"
 760      09926C5E 
 760      3566667B 
 760      30D978DA 
 760      0331B17F 
 761 0027 916B234D 		.ascii	"\221k#M,%m!\372\304\265E\313\017\315\226m\340\354\012"
 761      2C256D21 
ARM GAS  C:\Users\pc\AppData\Local\Temp\ccnlW87D.s 			page 61


 761      FAC4B545 
 761      CB0FCD96 
 761      6DE0EC0A 
 762 003b 746E8BBC 		.ascii	"tn\213\274\000\352\230\016D\250\260\241l\374\222U\320"
 762      00EA980E 
 762      44A8B0A1 
 762      6CFC9255 
 762      D0
 763 004c D5A19328 		.ascii	"\325\241\223(\253\"N\263l\314\315\272s\276\267\203Z"
 763      AB224EB3 
 763      6CCCCDBA 
 763      73BEB783 
 763      5A
 764 005d 0DF33EDC 		.ascii	"\015\363>\334|\357\367\234\317\367|\316\347s\276Wa\214"
 764      7CEFF79C 
 764      CFF77CCE 
 764      E773BE57 
 764      618C
 765 006f 6D57187B 		.ascii	"mW\030{\005\030\333\202k01\220>\030c\354\200E\222x["
 765      0518DB82 
 765      6B303190 
 765      3E1863EC 
 765      80459278 
 766 0084 11D3ADF2 		.ascii	"\021\323\255\362\257\353\230\236\303A6\266e\000Z\350"
 766      AFEB989E 
 766      C34136B6 
 766      65005AE8 
 767 0094 1660D512 		.ascii	"\026`\325\022\227\241\032\016\363\2179\\\2569\031\346"
 767      97A11A0E 
 767      F38F395C 
 767      AE3919E6 
 768 00a4 0D3CCC19 		.ascii	"\015<\314\031\310\370\371p44\233K\237\0006\374\234_"
 768      C8F8F970 
 768      34349B4B 
 768      9F0036FC 
 768      9C5F
 769 00b6 18EACA29 		.ascii	"\030\352\312):\241\353~=z\364\321\332\346\256\011=+"
 769      3AA1EB7E 
 769      3D7AF4D1 
 769      DAE6AE09 
 769      3D2B
 770 00c8 CC25D684 		.ascii	"\314%\326\204\351]\220\007_A\036\025\377\032\2120\371"
 770      E95D9007 
 770      5F411E15 
 770      FF1A8A30 
 770      F9
 771 00d9 D8892713 		.ascii	"\330\211'\023\234o\006\206\353\341\341\231\234\302/"
 771      9C6F0686 
 771      EBE1E199 
 771      9CC22F
 772 00e8 05EEF72F 		.ascii	"\005\356\367/\270\276\016Ap\006x:\216\316\201\263PH"
 772      B8BE0E41 
 772      7006783A 
 772      8ECE81B3 
 772      5048
 773 00fa E923C9AE 		.ascii	"\351#\311\256q+\177K@\353o\364\377i.\370\\`\247\036"
 773      712B7F4B 
ARM GAS  C:\Users\pc\AppData\Local\Temp\ccnlW87D.s 			page 62


 773      40EB6FF4 
 773      FF692EF8 
 773      5C60A71E 
 774 010e BCF65940 		.ascii	"\274\366Y@\277\244\313a\316\341\233g\361\364`\372\255"
 774      BFA4CB61 
 774      CEE19B67 
 774      F1F460FA 
 774      AD
 775 011f 53C9C655 		.ascii	"S\311\306U\212\014\335P@\264\220M\017(\260\024\250\321"
 775      8A0CDD50 
 775      40B4904D 
 775      0F28B014 
 775      A8D1
 776 0131 F1894E2D 		.ascii	"\361\211N-*b\277\211C\032\206\3019L\355\005\205e\244"
 776      2A62BF89 
 776      431A86C1 
 776      394CED05 
 776      8565A4
 777 0144 DF9B2BC4 		.ascii	"\337\233+\304\374^\312\227(6\327\033\214\001/\027\330"
 777      FC5ECA97 
 777      2836D71B 
 777      8C012F17 
 777      D8
 778 0155 F93BB551 		.ascii	"\371;\265Q9Eo\256e}s\240\341\210\036\361\257\011\243"
 778      39456FAE 
 778      657D73A0 
 778      E1881EF1 
 778      AF09A3
 779 0168 A47D2B10 		.ascii	"\244}+\0204\016^h\306>\372\221)\234\247\303\3713d\242"
 779      340E5E68 
 779      C63EFA91 
 779      299CA7C3 
 779      F93364A2 
 780 017c 48E60292 		.ascii	"H\346\002\222\241\027\332\012\324R\347\244)\252'\237"
 780      A117DA0A 
 780      D452E7A4 
 780      29AA279F 
 781 018c 0651FE57 		.ascii	"\006Q\376W\037\364&\216\250\253\001\2053I\364\342\364"
 781      1FF4268E 
 781      A8AB0185 
 781      3349F4E2 
 781      F4
 782 019d 92E965A2 		.ascii	"\222\351e\242\227\205\021 \013\204\246\254\026\245@"
 782      97851120 
 782      0B84A6AC 
 782      16A540
 783 01ac BFF528AB 		.ascii	"\277\365(\253\303\036p\025\210\262\273\340\357I<n7\223"
 783      C31E7015 
 783      88B2BBE0 
 783      EF493C6E 
 783      3793
 784 01be 12216EC1 		.ascii	"\022!n\301\332M\007\007\306\315d\267\"z\353\356\236"
 784      DA4D0707 
 784      C6CD64B7 
 784      227AEBEE 
 784      9E
 785 01cf 8F9BAB9F 		.ascii	"\217\233\253\237\350\026\334\210p\203~W\340\341\207"
ARM GAS  C:\Users\pc\AppData\Local\Temp\ccnlW87D.s 			page 63


 785      E816DC88 
 785      70837E57 
 785      E0E187
 786 01de B9116881 		.ascii	"\271\021h\20107\303 \216\315\000\265\206\2013\027\257"
 786      3037C320 
 786      8ECD00B5 
 786      86813317 
 786      AF
 787 01ef FF6D51DB 		.ascii	"\377mQ\333\251\257H\007F-\360-D\240\221\247\332~<\035"
 787      A9AF4807 
 787      462DF02D 
 787      44A091A7 
 787      DA7E3C1D 
 788 0203 38281961 		.ascii	"8(\031a\033\271\367\035\250\215\250>\3665\004*\273\003"
 788      1BB9F71D 
 788      A88DA83E 
 788      F635042A 
 788      BB03
 789 0215 FE489570 		.ascii	"\376H\225p\0129#\027\334\220^\240nheu\341\"\024 (\230"
 789      0A392317 
 789      DC905EA0 
 789      6E686575 
 789      E1221420 
 790 022b D0CFCBD4 		.ascii	"\320\317\313\324\205\0146\270\204\261{\340\277\325y"
 790      850C36B8 
 790      84B17BE0 
 790      BFD579
 791 023a F4E464E6 		.ascii	"\364\344d\346\030|\264\27065\006\362s\226\007\267\341"
 791      187CB4B8 
 791      363506F2 
 791      739607B7 
 791      E1
 792 024b 151AA698 		.ascii	"\025\032\246\230)36\333\262\376SN\265\030|\377\274m"
 792      293336DB 
 792      B2FE534E 
 792      B5187CFF 
 792      BC6D
 793 025d 3F601323 		.ascii	"?`\023#d\333\010\331\006\354\017\252z\274\365\364\242"
 793      64DB08D9 
 793      06EC0FAA 
 793      7ABCF5F4 
 793      A2
 794 026e 353F28B5 		.ascii	"5?(\265\352\237`\367Y\004h\237=\247[d\011Y\217B\276"
 794      EA9F60F7 
 794      5904689F 
 794      3DA75B64 
 794      09598F42 
 795 0283 90E8B7F9 		.ascii	"\220\350\267\371X\\\302\035\030\003Y\360f0.na[\337\340"
 795      585CC21D 
 795      180359F0 
 795      66302E6E 
 795      615BDFE0 
 796 0297 ED9CFCFA 		.ascii	"\355\234\374\372\024\332J\271\217:N_\311\026\350\011"
 796      14DA4AB9 
 796      8F3A4E5F 
 796      C916E809 
 797 02a7 42C36590 		.ascii	"B\303e\220ID\233\320\200\011k\377:\336\037\007\303["
ARM GAS  C:\Users\pc\AppData\Local\Temp\ccnlW87D.s 			page 64


 797      49449BD0 
 797      80096BFF 
 797      3ADE1F07 
 797      C35B
 798 02b9 48F7D698 		.ascii	"H\367\326\230\371\336\201\321!\005}<`\030\222\215\242"
 798      F9DE81D1 
 798      21057D3C 
 798      6018928D 
 798      A2
 799 02ca C364CACA 		.ascii	"\303d\312\312X\360\352L\366\222W\022\374(\214\224H\341"
 799      58F0EA4C 
 799      F6925712 
 799      FC288C94 
 799      48E1
 800 02dc 189A7517 		.ascii	"\030\232u\027\002\377\034J\230\214\243%<=\204\035\335"
 800      02FF1C4A 
 800      988CA325 
 800      3C3D841D 
 800      DD
 801 02ed 869AF8E0 		.ascii	"\206\232\370\340\226\245\275,aH\035j\323Vd\214Z(\221"
 801      96A5BD2C 
 801      61481D6A 
 801      D356648C 
 801      5A2891
 802 0300 BC6FA578 		.ascii	"\274o\245xF\361H)[\261|\016\\\021\345S\363\327q\337"
 802      46F14829 
 802      5BB17C0E 
 802      5C11E553 
 802      F3D771DF 
 803 0314 3F26A7C6 		.ascii	"?&\247\306\254\234\310M\321 \311\304m\032T*<\0175\221"
 803      AC9CC84D 
 803      D120C9C4 
 803      6D1A542A 
 803      3C0F3591 
 804 0328 A76705BD 		.ascii	"\247g\005\275\214!^\325\304\361\037\011W\241\232\002"
 804      8C215ED5 
 804      C4F11F09 
 804      57A19A02 
 805 0338 D3D76ABA 		.ascii	"\323\327j\272\201\004\311\205l\270\006ya\276ZP\226\323"
 805      8104C985 
 805      6CB80679 
 805      61BE5A50 
 805      96D3
 806 034a AF475DA7 		.ascii	"\257G]\247\325\350\211\277\224fo\020\243\237\226\345"
 806      D5E889BF 
 806      94666F10 
 806      A39F96E5 
 807 035a 8A0BB9FC 		.ascii	"\212\013\271\374\311C\303)\271db(\004<\226\3321\341"
 807      C943C329 
 807      B9646228 
 807      043C96DA 
 807      31E1
 808 036c D9B84F69 		.ascii	"\331\270Oi\261zx\201@+T\272\276\\\351gj\336$\356\015"
 808      B17A7881 
 808      402B54BA 
 808      BE5CE967 
 808      6ADE24EE 
ARM GAS  C:\Users\pc\AppData\Local\Temp\ccnlW87D.s 			page 65


 809 0381 FD51D20D 		.ascii	"\375Q\322\015\227q\014g\322\257\201\361GI\215f\262\365"
 809      97710C67 
 809      D2AF81F1 
 809      47498D66 
 809      B2F5
 810 0393 97BEECFF 		.ascii	"\227\276\354\377\246nFL\335\0151u\231#v\323\030\261"
 810      A66E464C 
 810      DD0D3175 
 810      992376D3 
 810      18B1
 811 03a5 9BA7DEEF 		.ascii	"\233\247\336\357\331#j0\266\200\237\015\207\307\025"
 811      D9236A30 
 811      B6809F0D 
 811      87C715
 812 03b4 A313E179 		.ascii	"\243\023\341y-\216\027\352\2070U{[-.s\226:\355\276\312"
 812      2D8E17EA 
 812      8730557B 
 812      5B2D2E73 
 812      963AEDBE 
 813 03c9 DD4EB7B1 		.ascii	"\335N\267\261\336n\337\264\365M\325\355U=>\325\353\321"
 813      DE6EDFB4 
 813      F54DD5ED 
 813      553D3ED5 
 813      EBD1
 814 03db 54ADCC51 		.ascii	"T\255\314Q\345(\367y7hL1V\\\363Ul\374?\250\263\\\333"
 814      E528F779 
 814      37684C31 
 814      565CF355 
 814      6CFC3FA8 
 815 03f2 5BB9DB81 		.ascii	"[\271\333\201p\357~\357\2062f\252\332\265\267\322\261"
 815      70EF7EEF 
 815      863266AA 
 815      DAB5B7D2 
 815      B1
 816 0403 6D4598E6 		.ascii	"mE\230\346v\271\334\345j\205\333\343\363\252\357\354"
 816      76B9DCE5 
 816      6A85DBE3 
 816      F3AAEFEC 
 817 0413 28292ED9 		.ascii	"().\331\207x\315\355q\354\254\332\352\302C\336}\031"
 817      8778CDED 
 817      71ECACDA 
 817      EAC243DE 
 817      7D19
 818 0425 B8639F4F 		.ascii	"\270c\237O-.\261\277g_\346\340\362:\275;\367h\032\036"
 818      2D2EB1BF 
 818      675FE6E0 
 818      F23ABD3B 
 818      F7681A1E 
 819 0439 B1A6C4BE 		.ascii	"\261\246\304\276\303V\272\313\353\250\3608_\267\025"
 819      C356BACB 
 819      EBA8F038 
 819      5FB715
 820 0448 6C649287 		.ascii	"ld\222\207\231]\016\227\333\263\237\375\013\314\350"
 820      995D0E97 
 820      DBB39FFD 
 820      0BCCE8
 821 0457 621B     		.ascii	"b\033"
ARM GAS  C:\Users\pc\AppData\Local\Temp\ccnlW87D.s 			page 66


 822              		.text
 823              		.section	.gnu.lto_chEvtWaitOneTimeout.6ed948f3,"",%progbits
 824 0000 789CAD55 		.ascii	"x\234\255UkLTG\024\236s\347\356\275\273\313\263\225"
 824      6B4C5447 
 824      149E73E7 
 824      EEBDBBCB 
 824      B395
 825 0012 266A8862 		.ascii	"&j\210bR\202&\255\213MS\323\326\230\266\376\352\017"
 825      528226AD 
 825      8B4D53D3 
 825      D698B6FE 
 825      EA0F
 826 0024 D2447EF5 		.ascii	"\322D~\365\227\321u\243\233\270@X \372\213\353\242\200"
 826      97D175A3 
 826      9BB84058 
 826      20FA8BEB 
 826      A280
 827 0036 DA772BE8 		.ascii	"\332w+\350\026d\333\306h\232\370\250\245>Pq\013\202"
 827      1664DBC6 
 827      689AF8A8 
 827      A53E5071 
 827      0B82
 828 0048 50E521A2 		.ascii	"P\345!\242R\261\200R\245  j\013\"\260\366\234\271wy"
 828      52B18052 
 828      A520206A 
 828      0B22B0F6 
 828      9CB97779 
 829 005c 2D529BF6 		.ascii	"-R\233\366\376\230\314\2349\347\3147\337w\316\\\205"
 829      FE98CC9C 
 829      39E7CC37 
 829      DF77CE5C 
 829      85
 830 006d 31566565 		.ascii	"1Veel.0\226\206s\2602\220>\253gl\253Y\222x~\002\323"
 830      6C2E3096 
 830      8673B032 
 830      903EAB67 
 830      6CAB5992 
 831 0085 AC661AC3 		.ascii	"\254f\032\303\271$\373\227\341\312\324\030\213+\031"
 831      B924FB97 
 831      E1CAD418 
 831      8B2B19
 832 0094 2CBA9349 		.ascii	",\272\223IR\016\314C\263\332\375:\232\225\240Y\005\263"
 832      520ECC43 
 832      B3DAFD3A 
 832      9A95A059 
 832      05B3
 833 00a6 3E31072D 		.ascii	">1\007-\026\000\232hf`\331\022\227M\212\212\246l\370"
 833      16009A68 
 833      6660D912 
 833      974D8A8A 
 833      A66CF8
 834 00b9 887FC5E1 		.ascii	"\210\177\305\341\362\266\243E|\027/\342\014d\\>\250"
 834      F2B6A345 
 834      7C172FE2 
 834      0C645C3E 
 834      A8
 835 00ca F37646D2 		.ascii	"\363vF\322\022 \016\227\275\375\325\245\341K\016h\232"
ARM GAS  C:\Users\pc\AppData\Local\Temp\ccnlW87D.s 			page 67


 835      12200E97 
 835      BDFDD5A5 
 835      E14B0E68 
 835      9A
 836 00db 47F31706 		.ascii	"G\363\027\006\026\024\2276j\226\".\261\002t/\205X\370"
 836      16149736 
 836      6A96222E 
 836      B102742F 
 836      8558F8
 837 00ee 116209F8 		.ascii	"\021b\011\370O\260\004\235\367\036\030k\344\3745`8\257"
 837      4FB0049D 
 837      F71E186B 
 837      E4FC3560 
 837      38AF
 838 0100 AD6D0B4F 		.ascii	"\255m\013O\330/\342z\367s\355e\014\202\343\300'\307"
 838      D82FE27A 
 838      F773ED65 
 838      0C82E3C0 
 838      27C7
 839 0112 511E3801 		.ascii	"Q\0368\001\011\350]\365t\310\037\245\203\220p\3314p"
 839      09E85DF5 
 839      74C81FA5 
 839      839070D9 
 839      3470
 840 0124 A9384C07 		.ascii	"\2518L\007\021\215\313\035\376\235\347\255\374M\221"
 840      118DCB1D 
 840      FE9DE7AD 
 840      FC4D91
 841 0133 B7E5F1D6 		.ascii	"\267\345\361\326\256(#\361h!\327b\2128\2072=\361)L|"
 841      AE2823F1 
 841      6821D762 
 841      8A388732 
 841      3DF1294C 
 842 0148 5224C6C5 		.ascii	"R$\306\305iH \377\252\300\211|\231\257\024\261\327J"
 842      694820FF 
 842      AAC0897C 
 842      99AF14B1 
 842      D74A
 843 015a AED644C6 		.ascii	"\256\326D\306\177'b\353G\027|\223\243\325h2\001;3\025"
 843      7F2762EB 
 843      47177C93 
 843      A3D56832 
 843      013B3315 
 844 016e 187DE87E 		.ascii	"\030}\350~)P\332`\345\357\210\320\235\355\347\206T#"
 844      2950DA60 
 844      E5EF88D0 
 844      9DEDE786 
 844      5423
 845 0180 B47A747E 		.ascii	"\264zt~0T\206\362\031Co\377\020\330\035\241\310p\016"
 845      305486F2 
 845      19436FFF 
 845      10D81DA1 
 845      C8700E
 846 0193 E2E12CC4 		.ascii	"\342\341,\304\023]\310\222\037\024>\276\271M\303\317"
 846      135DC892 
 846      1F143EBE 
 846      B94DC3CF 
ARM GAS  C:\Users\pc\AppData\Local\Temp\ccnlW87D.s 			page 68


 847 01a3 DF165084 		.ascii	"\337\026P\204\275\200\303\2448\006?\203\002\025\240"
 847      BD80C3A4 
 847      38063F83 
 847      0215A0
 848 01b2 B069EE9D 		.ascii	"\260i\356\235{V8\031m\024 w\270\327u&\257\031x\246\210"
 848      7B563819 
 848      6D142077 
 848      B8D77526 
 848      AF1978A6 
 849 01c7 EDBD9BEF 		.ascii	"\355\275\233\357\227\015\210\355%\213\213sv}\254\371"
 849      970D88ED 
 849      258B8B73 
 849      767DACF9 
 850 01d7 3CD145DC 		.ascii	"<\321E\334\004\347g\001\251'\356/F\032\253\020)TRr>"
 850      04E76701 
 850      A927EE2F 
 850      461AAB10 
 850      29545272 
 851 01ec 054C3582 		.ascii	"\005L5\202\271\200`h\230\026Wxr\241:\343\005j0\2466"
 851      B9806068 
 851      98165778 
 851      72A13AE3 
 851      056A30A6 
 852 0201 F4025D7B 		.ascii	"\364\002]{Vtc\242\332\361\033\374w\324\027\011\365/"
 852      567463A2 
 852      DAF11BFC 
 852      77D41709 
 852      F52F
 853 0213 A1A82F21 		.ascii	"\241\250/!\202:B]\027\212z\3373P\327cL\3033Q7\374\217"
 853      823A425D 
 853      178A7ADF 
 853      3350D763 
 853      4CC33351 
 854 022a A82F13EA 		.ascii	"\250/\023\352\306P\324M\210\340\012\241\306\001\237"
 854      C650D44D 
 854      88E00AA1 
 854      C6019F
 855 0239 05295842 		.ascii	"\005)XBG\232L~-\3604\017\301/\030\361\346\366\215\231"
 855      479A4C7E 
 855      2DF0340F 
 855      C12F18F1 
 855      E6F68D99 
 856 024d E60316BA 		.ascii	"\346\003\026\272\"\341\240r\232\3114\230hPhPi03\212"
 856      22E1A072 
 856      9AC93498 
 856      68506850 
 856      6930338A 
 857 0261 B550AB45 		.ascii	"\265P\253E0J\025\011\324qQ\302\034\015\324$s\304<F\214"
 857      304A1509 
 857      D47151C2 
 857      1C0DD424 
 857      73C43C46 
 858 0276 8CE563A1 		.ascii	"\214\345c\241\342S\241\371\331\016\274)\316r\374\254"
 858      E253A1F9 
 858      D90EBC29 
 858      CE72FCAC 
 859 0286 073C65DD 		.ascii	"\007<e\3355GT\"\314\313#\020m\301\366\212\006\225\372"
ARM GAS  C:\Users\pc\AppData\Local\Temp\ccnlW87D.s 			page 69


 859      35475422 
 859      CCCB2310 
 859      6DC1F68A 
 859      0695FA
 860 0299 D32CE83B 		.ascii	"\323,\350;u\252\267U\315\036\323\314h\360q\375\302\245"
 860      75AAB755 
 860      CD1ED3CC 
 860      68F071FD 
 860      C2A5
 861 02ab 390FBE88 		.ascii	"9\017\276\210\364\301>(\342\026\270\212\217M3\221\201"
 861      F4C13E28 
 861      E216B88A 
 861      8F4D3391 
 861      81
 862 02bc 1BC72FDC 		.ascii	"\033\307/\334\0341\333\016\021\023\276\303\270k\205"
 862      1C31DB0E 
 862      1113BEC3 
 862      B86B85
 863 02cb 6BE083DD 		.ascii	"k\340\203\335\334 \352\311\365\234\355\222\276\035G"
 863      DC20EAC9 
 863      F59CED92 
 863      BE1D47
 864 02da FD751D6C 		.ascii	"\375u\035l\273Q$\354\236\026\260\261\273\340\361e\021"
 864      BB5124EC 
 864      9E16B0B1 
 864      BBE0F165 
 864      11
 865 02eb 0EBA0B62 		.ascii	"\016\272\013bA\303Lzxg\327\003~\205x\014\312\353\326"
 865      41C34C7A 
 865      7867D703 
 865      7E85780C 
 865      CAEBD6
 866 02fe CECA740B 		.ascii	"\316\312t\013\023\304\301\015\334\273\007\236\333\367"
 866      13C4C10D 
 866      DCBB079E 
 866      DBF7
 867 030c 0A8F36C1 		.ascii	"\012\2176\3014\301\276,XhT\213\034\332\220qk\030\264"
 867      34C1BE2C 
 867      5868548B 
 867      1CDA9071 
 867      6B18B4
 868 031f D29E69FA 		.ascii	"\322\236i\372^k\311\342\2579\235\305\340f\250\320\277"
 868      5E6BC9E2 
 868      AF399DC5 
 868      E066A8D0 
 868      BF
 869 0330 E125DA48 		.ascii	"\341%\332H\3506\022\032\330\030\235\372m\311\261\307"
 869      E836121A 
 869      D8189DFA 
 869      6DC9B1C7 
 870 0340 D6459F48 		.ascii	"\326E\237H%\332\036\274}\030\005\034\352<\255\231e\011"
 870      25DA1EBC 
 870      7D18051C 
 870      EA3CAD99 
 870      6509
 871 0352 51B7C322 		.ascii	"Q\267\303\"A\321@os\253\204\026\350\000Y\340fpK\274"
 871      41D1406F 
ARM GAS  C:\Users\pc\AppData\Local\Temp\ccnlW87D.s 			page 70


 871      73AB8416 
 871      E80059E0 
 871      66704BBC 
 872 0366 DD07CB2B 		.ascii	"\335\007\313+\357\204/\372\334\210\016'\337\207\207"
 872      EF842FFA 
 872      DC880E27 
 872      DF8787
 873 0375 8F5D0D13 		.ascii	"\217]\015\023\321\267)\032:A&\022\343\004\007LH;\354"
 873      D1B7291A 
 873      3A412612 
 873      E304074C 
 873      483BEC
 874 0388 79740574 		.ascii	"yt\005tma\262\266\262\320\366LE]\265\202:n\325\005\211"
 874      6D61B2B6 
 874      B2D0F64C 
 874      455DB582 
 874      3A6ED505 
 875 039d 40D2E177 		.ascii	"@\322\341wC\312\346\274\226\266\260q\255$\270#\204\224"
 875      43CAE6BC 
 875      96B6B071 
 875      AD24B823 
 875      8494
 876 03af 88E1BB28 		.ascii	"\210\341\273(V\017\344\214\346~\250g\216\302\344^\036"
 876      560FE48C 
 876      E67EA867 
 876      8EC2E45E 
 876      1E
 877 03c0 29CE16FA 		.ascii	")\316\026\372\235%\375\242\330\035\330v\243\262\177"
 877      9D25FDA2 
 877      D81DD876 
 877      A3B27F
 878 03cf 34DCF09A 		.ascii	"4\334\360\232|\276\204\254t\031\212\355@\362\362\023"
 878      7CBE84AC 
 878      74198AED 
 878      40F2F213 
 879 03df B01685FF 		.ascii	"\260\026\205\377\340h\242\356\037=\331\037\253\004\376"
 879      E068A2EE 
 879      1F3DD91F 
 879      AB04FE
 880 03ee 18F79759 		.ascii	"\030\367\227Y\307\\\364\247\372\240^\233\354hB\307\356"
 880      C75CF4A7 
 880      FAA05E9B 
 880      EC6842C7 
 880      EE
 881 03ff C972EBBD 		.ascii	"\311r\353\275fH\020(\271U\036\026d\267[\260\333#\330"
 881      66481028 
 881      B9551E16 
 881      64B75BB0 
 881      DB23D8
 882 0412 9D4EE53D 		.ascii	"\235N\345=\235\312\216\276O\3136\2103\364\203M\354`"
 882      9DCA8EBE 
 882      4FCB3688 
 882      33F4834D 
 882      EC60
 883 0424 A4DE34DE 		.ascii	"\244\3364\336\341\212\301V\211\220N\343\321\267\216"
 883      E18AC156 
 883      89904EE3 
ARM GAS  C:\Users\pc\AppData\Local\Temp\ccnlW87D.s 			page 71


 883      D1B78E
 884 0433 CDCA6424 		.ascii	"\315\312d$\364\012&\215V:\334\347\251\227\215\216I!"
 884      F40A268D 
 884      563ADCE7 
 884      A9978D8E 
 884      4921
 885 0445 5EFAA827 		.ascii	"^\372\250'd\242\271\037l\304j/l\367\335/\237\247\223"
 885      64A2B91F 
 885      6CC46A2F 
 885      6CF7DD2F 
 885      9FA793
 886 0458 224DEDC8 		.ascii	"\"M\355\310\250\002\256\240\347}\310\246\\c\003\215"
 886      A802AEA0 
 886      E77DC8A6 
 886      5C63038D 
 887 0468 63E14442 		.ascii	"c\341DB4Xa\000b\221\303\"\376\002\321Z_y\036&\022\214"
 887      34586100 
 887      6291C322 
 887      FE02D15A 
 887      5F791E26 
 888 047e 93F52212 		.ascii	"\223\365\"\022\363`\234U\205]\226\203\254\342\273;\215"
 888      F3609C55 
 888      855D9683 
 888      ACE2BB3B 
 888      8D
 889 048f C6BAD969 		.ascii	"\306\272\331i|8#\215\217\246\320x1H\243\312\256[\214"
 889      7C38238D 
 889      8FA6D078 
 889      3148A3CA 
 889      AE5B8C
 890 04a2 B767F8F6 		.ascii	"\267g\370\366P\247\001\215\377\313\212\374s\242\"\377"
 890      50A7018D 
 890      FFCB8AFC 
 890      73A222FF 
 891 04b2 0A56E416 		.ascii	"\012V\344\026=\325\034\314\026Z\221s\304\341f\326\236"
 891      3DD51CCC 
 891      165A9173 
 891      C4E166D6 
 891      9E
 892 04c3 18BCA630 		.ascii	"\030\274\2460\233\011HKn\361\330Kz\260\254\2330\233"
 892      9B09484B 
 892      6EF1D84B 
 892      7AB0AC9B 
 892      309B
 893 04d5 012CC6B0 		.ascii	"\001,\306\260M\315\026\243\277\235=G\254\272\227\351"
 893      4DCD16A3 
 893      BF9D3D47 
 893      ACBA97E9 
 894 04e5 B9E0BF4A 		.ascii	"\271\340\277J\310\007'\220\017\011\344\236@n\255IO\243"
 894      C8072790 
 894      0F09E49E 
 894      406EAD49 
 894      4FA3
 895 04f7 E899F1F4 		.ascii	"\350\231\361\364\275\206E\305\334h'\267\346\2350C\311"
 895      BD8645C5 
 895      DC6827B7 
 895      E69D3043 
ARM GAS  C:\Users\pc\AppData\Local\Temp\ccnlW87D.s 			page 72


 895      C9
 896 0508 CD72D2E3 		.ascii	"\315r\322\343\211\223\206\251\234T\375\336U!\362^\230"
 896      899386A9 
 896      9C54FDDE 
 896      5521F25E 
 896      98
 897 0519 5DDE2733 		.ascii	"]\336'3\312;2E\336*!\357 \230\261\327\245\266\216Q+"
 897      CA3B3245 
 897      DE2A21EF 
 897      2098B1D7 
 897      A5B68E51 
 898 052e 32AE3E19 		.ascii	"2\256>\031z\0339\267\030\177\233~<\334\213+r\263\320"
 898      7A1B39B7 
 898      187F9B7E 
 898      3CDC8B2B 
 898      72B3D0
 899 0541 03207B07 		.ascii	"\003 {\007\037\001M\224\357\207P\261\030s\331\310\025"
 899      1F014D94 
 899      EF8750B1 
 899      1873D9C8 
 899      15
 900 0552 C01F1550 		.ascii	"\300\037\025P\000\036d\263\277e[\265\321\271\316\231"
 900      001E64B3 
 900      BF655BB5 
 900      D1B9CE99 
 901 0562 9C91B9DE 		.ascii	"\234\221\271\336\231\252\317?H^\266\374\015[\252\333"
 901      99AACF3F 
 901      485EB6FC 
 901      0D5BAADB 
 902 0572 969E6173 		.ascii	"\226\236as\247\333m\366\215\216,GJ\206{\251\235)\372"
 902      A7DB6DF6 
 902      8D8E2C47 
 902      4A867BA9 
 902      9D29FA
 903 0585 4CCE70BA 		.ascii	"L\316p\272\034\340\342\366\214\264\304\177\312\340L"
 903      1CE0E2F6 
 903      8CB4C47F 
 903      CAE04C
 904 0594 B16FCA5C 		.ascii	"\261o\312\\\357\300,\356-\356\245\033\231)k\355\246"
 904      EFC02CEE 
 904      2DEEA51B 
 904      99296BED 
 904      A6
 905 05a5 4CC7CA59 		.ascii	"L\307\312Y\303\354\251.Wj\212--5=\303m{wu\322\252\244"
 905      C3ECA92E 
 905      576A8A2D 
 905      2D353DC3 
 905      6D7B7775 
 906 05bc CD186F4F 		.ascii	"\315\030oOMw\254\311Z\356\302$\357=O\270cs\206mUR\362"
 906      4D77ACC9 
 906      5AEEC224 
 906      EF3D4FB8 
 906      6373866D 
 907 05d3 FBC91318 		.ascii	"\373\311\023\030\\n\247{\315\006\273\035SD'%\257\216"
 907      5C6EA77B 
 907      CD06BB1D 
 907      53442725 
ARM GAS  C:\Users\pc\AppData\Local\Temp\ccnlW87D.s 			page 73


 907      AF8E
 908 05e5 5BB7D6ED 		.ascii	"[\267\326\355HKw\276\022\027\237\310\244t\246\272\034"
 908      484B77BE 
 908      12179FC8 
 908      A474A6BA 
 908      1C
 909 05f6 AED4F42D 		.ascii	"\256\324\364-\354o\221\333\330\200"
 909      EC6F91DB 
 909      D880
 910              		.text
 911              		.section	.gnu.lto_chEvtWaitAnyTimeout.6ed948f3,"",%progbits
 912 0000 789CAD55 		.ascii	"x\234\255U[LTW\024=\373\236;w\206a\030(\361\303\032"
 912      5B4C5457 
 912      143DFB9E 
 912      3B778661 
 912      1828F1C3 
 913 0015 D2A02941 		.ascii	"\322\240)A\323\326\321\246\251ic\214\255_\375 M\344"
 913      D3D6D1A6 
 913      A969638C 
 913      AD5FFD20 
 913      4DE4
 914 0027 AB5F46C7 		.ascii	"\253_F\307\211L\342\000e\006\242_\\\007\025\006\261"
 914      894CE200 
 914      6506A25F 
 914      5C071506 
 914      B1
 915 0038 D5B68222 		.ascii	"\325\266\202\"\224\211\326`\332\210\217R\255\212:\005"
 915      9489D660 
 915      DA888F52 
 915      AD8A3A05 
 916 0048 41A9F22C 		.ascii	"A\251\362,>*\026\024*\024\035)\332V\001\005\273\367"
 916      3E2A1614 
 916      2A141D29 
 916      DA560105 
 916      BBF7
 917 005a B977780D 		.ascii	"\271wx\015R\233v>n\316c\257}\326^\353\3543\012cl\273"
 917      529B763E 
 917      6ECE63AF 
 917      7DD65EEB 
 917      EC330A63 
 918 0070 99B1D9C0 		.ascii	"\231\261\331\300X:\216\301\314@\332\321\310\330&\223"
 918      583A8EC1 
 918      CC40DAD1 
 918      C8D82693 
 919 0080 24F1BC44 		.ascii	"$\361\274D\246\232M\364\265pI\016,\306\231\2419\016"
 919      A69A4DF4 
 919      B570490E 
 919      2CC699A1 
 919      390E
 920 0092 67324468 		.ascii	"g2DhA\006I)\177\031\227\215}o\341\262\022Z6\202I\033"
 920      41064929 
 920      7F19978D 
 920      7D6FE1B2 
 920      125A3682 
 921 00a8 98422B11 		.ascii	"\230B+\021\0004PM\300\262%.\033\024#.eC\001\377\202"
 921      0034504D 
 921      C0B2252E 
ARM GAS  C:\Users\pc\AppData\Local\Temp\ccnlW87D.s 			page 74


 921      1B14232E 
 921      654301FF 
 922 00bd 43CBE623 		.ascii	"C\313\346#%|\033/\341\014d\234>h(\356\266\322\024 \036"
 922      257C1B2F 
 922      E10C649C 
 922      3E6828EE 
 922      B6D21420 
 923 00d2 A7C1FEBA 		.ascii	"\247\301\376\272J\313\202rU\365\252\201\242\312y-5["
 923      4ACB8272 
 923      55F5AA81 
 923      A2CA792D 
 923      355B
 924 00e4 F3774009 		.ascii	"\363w@\011\227X!\306WB\034|\013q\304\374;X\200\321{"
 924      975821C6 
 924      57421C7C 
 924      0B71C4FC 
 924      3B5880D1 
 925 00f9 CA479A39 		.ascii	"\312G\2329\177\023\030\216\353\353;,\211\007\0040x\200"
 925      7F13188E 
 925      EBEB3B2C 
 925      89070430 
 925      7880
 926 010b ABAF2208 		.ascii	"\253\257\"\010\216\003\237\210\243<p\002\0221\272\366"
 926      8E039F88 
 926      A33C7002 
 926      1231BAF6 
 927 011b D9E340B4 		.ascii	"\331\343@\264\306B\302i\353\300\345\322H\215E\014N}"
 927      C642C269 
 927      EBC0E5D2 
 927      488D450C 
 927      4E7D
 928 012d 81FCF366 		.ascii	"\201\374\363f\376\216\310{}pSo\264\236\370i\021Wg\225"
 928      FE8EC87B 
 928      7D70536F 
 928      B49EF869 
 928      11576795 
 929 0141 700EA7B4 		.ascii	"p\016\247\264\304'1\361\367\"1NNC\"\305\327\216\236"
 929      C42731F1 
 929      F722314E 
 929      4E4322C5 
 929      D78E9E
 930 0154 C893F932 		.ascii	"\310\223\3712\201\275Zv\345\2425a\277\300\366\370xY"
 930      81BD5A76 
 930      E5A23561 
 930      BFC0F6F8 
 930      7859
 931 0166 A5AAFA96 		.ascii	"\245\252\372\226\023\261\252\311\304\350\207\341\227"
 931      13B1AAC9 
 931      C4E887E1 
 931      97
 932 0173 472B9BCC 		.ascii	"G+\233\314|\271\200\346w\236{l\324\241\035>^\252Ce8"
 932      7CB980E6 
 932      779E7B6C 
 932      D4A11D3E 
 932      5EAA4365 
 933 0188 3B2DB4EB 		.ascii	";-\264\353\350\350\256(E\206s\220\000g \201\344B\225"
 933      E8E8AE28 
ARM GAS  C:\Users\pc\AppData\Local\Temp\ccnlW87D.s 			page 75


 933      45867390 
 933      00672081 
 933      E44295
 934 019b 02A0F0B1 		.ascii	"\002\240\360\261\315\315*\376\002\375\333\210+n\024"
 934      CDCD2AFE 
 934      02FDDB88 
 934      2B6E14
 935 01aa 72980064 		.ascii	"r\230\000d\360\003(P\015\012\233\022\337\275{\251\223"
 935      F0032850 
 935      0D0A9B12 
 935      DFBD7BA9 
 935      93
 936 01bb D146218A 		.ascii	"\321F!\212\207{\275U\271m\3003\0056\330\223\027\220"
 936      877BBD55 
 936      B96DC033 
 936      0536D893 
 936      1790
 937 01cd 758E9D65 		.ascii	"u\216\235e\363Ks\266mW\375\336\230\022n\200\3633\260"
 937      F34B73B6 
 937      6D57FDDE 
 937      98126E80 
 937      F333B0
 938 01e0 D48994A2 		.ascii	"\324\211\224\242\216\265H\025j(9\237D\246\016\311\\"
 938      8EB54815 
 938      6A28399F 
 938      44A60EC9 
 938      5C
 939 01f1 4032F499 		.ascii	"@2\364\231\202+\352\230\367\361\264\005\\DL}x\001\275"
 939      822BEA98 
 939      F7F1B405 
 939      5C444C7D 
 939      7801BD
 940 0204 BB97F661 		.ascii	"\273\227\366a\242\372\261\012\376;\353K\304\372\307"
 940      A2FAB10A 
 940      FE3BEB4B 
 940      C4FAC7
 941 0213 70D69791 		.ascii	"p\326\227\221A\003\261n\010g\335\366\034\326\215\210"
 941      4103B16E 
 941      0867DDF6 
 941      1CD68D88 
 942 0223 697A2EEB 		.ascii	"iz.\353\246\377\221u\013\261n\016g\335\212\014~\"\326"
 942      A6FF9175 
 942      0BB16E0E 
 942      67DD8A0C 
 942      7E22D6
 943 0236 F8C18741 		.ascii	"\370\301\207A\012\335\241\303\255\206\200:\372,\027"
 943      0ADDA1C3 
 943      AD86803A 
 943      FA2C17
 944 0245 C9CFF2ED 		.ascii	"\311\317\362\355\357n\336\331m\302\207\243\204+\022"
 944      EF6EDED9 
 944      6DC287A3 
 944      842B12
 945 0254 7E8C9C46 		.ascii	"~\214\234F2}\014\364Q\350cd\2043Q\237Y\030\245\211\002"
 945      327D0CF4 
 945      51E86364 
 945      8433519F 
ARM GAS  C:\Users\pc\AppData\Local\Temp\ccnlW87D.s 			page 76


 945      5918A589 
 946 0269 6A37AB58 		.ascii	"j7\253X\216\006\352\220X1f,\017\357'>\021j\200\371\260"
 946      8E06EA90 
 946      5831662C 
 946      0FEF273E 
 946      116A80F9 
 947 027e 3E1CE504 		.ascii	">\034\345\004\330]\360\236\352\333{\324C2\025s\013r"
 947      D85DF09E 
 947      EADB7BD4 
 947      43321573 
 947      0B72
 948 0290 2CDC52DD 		.ascii	",\334R\335d\244\2664\011\321N\236\014\266\033\263GT"
 948      64A4B634 
 948      09D14E9E 
 948      0CB61BB3 
 948      4754
 949 02a2 132EF8B9 		.ascii	"\023.\370\271Vfe\316\203\317\254~\370\022\037\211\010"
 949      566665CE 
 949      83CFAC7E 
 949      F8121F89 
 949      08
 950 02b3 B8828F4C 		.ascii	"\270\202\217L\033I\200\033\307/\334|b\262\035\242\372"
 950      1B49801B 
 950      C72FDC7C 
 950      62B21DA2 
 950      FA
 951 02c4 FD15B86B 		.ascii	"\375\025\270k\206\253\340\207]\\\227g\370Z\316\026I"
 951      86ABE087 
 951      5D5C9767 
 951      F85ACE16 
 951      49
 952 02d5 DB8EA7B6 		.ascii	"\333\216\247\266\272\006\266]h\0156\315u\260\261\036"
 952      BA06B65D 
 952      680D36CD 
 952      75B0B11E 
 953 02e5 F0FAB388 		.ascii	"\360\372\263\210\007U\201\\pa:\027\212gv\001~\206\004"
 953      0755815C 
 953      70613A17 
 953      8A677601 
 953      7E8604
 954 02f8 04E5F6A9 		.ascii	"\004\345\366\251gd\252\302\000\361p\003\367\356\201"
 954      6764AAC2 
 954      00F17003 
 954      F7EE81
 955 0307 B7EB5ED1 		.ascii	"\267\353^\321\221V\230b\323\347U\363@\277$rx\037\306"
 955      91569862 
 955      D3E755F3 
 955      40BF2472 
 955      781FC6
 956 031a AF62D04E 		.ascii	"\257b\320N{\206\251{\355e\363\367r:\214\301\315p\177"
 956      7B86A97B 
 956      ED65F3F7 
 956      723A8CC1 
 956      CD707F
 957 032d 7FC12A3A 		.ascii	"\177\301*:\310\337\016\362\027\330\010\035\273\257\354"
 957      C8DF0EF2 
 957      17D8081D 
ARM GAS  C:\Users\pc\AppData\Local\Temp\ccnlW87D.s 			page 77


 957      BBAFEC
 958 033c D8A079EE 		.ascii	"\330\240y\356'R\231\272\033\313\217$\300\241\356\323"
 958      275299BA 
 958      1BCB8F24 
 958      C0A1EED3 
 959 034c AA499690 		.ascii	"\252I\226\220v'\314\025\032\015\004\333\332%\\\201["
 959      7627CC15 
 959      1A0D04DB 
 959      DA255C81 
 959      5B
 960 035d 200BE20C 		.ascii	" \013\342\014n\213G\373\340\331\232;\226\271;u\264\205"
 960      6E8B47FB 
 960      E0D99A3B 
 960      96B93B75 
 960      B485
 961 036f 621F561C 		.ascii	"b\037V\034\273\022)\320]\204\206n\220I\305x!\002\023"
 961      BB1229D0 
 961      5D84866E 
 961      9049C578 
 961      210213
 962 0382 DE0E7595 		.ascii	"\336\016u\225\027\314\321\314\205\211\346\312\302\334"
 962      17CCD1CC 
 962      8589E6CA 
 962      C2DC
 963 0390 AAEA863A 		.ascii	"\252\352\206:\005\215\334\2449\022\205\252\303\257\272"
 963      058DDCA4 
 963      391285AA 
 963      C3AFBA
 964 039f 976DB9D7 		.ascii	"\227m\271\327;\"\307\314\222\340\216pR\"\211{\320\255"
 964      3B22C7CC 
 964      92E08E70 
 964      5222897B 
 964      D0AD
 965 03b1 BB90F374 		.ascii	"\273\220\363t\353GZf+&/\346Q\342la\340\0312\320\312"
 965      EB475A66 
 965      2B262FE6 
 965      51E26C61 
 965      E01932D0 
 966 03c6 EEC0E61B 		.ascii	"\356\300\346\0335u\3715\240\207M$ \241,\275\272g>T/"
 966      3575F935 
 966      A0874D24 
 966      20A12CBD 
 966      BA673E54 
 967 03db 2F116FA3 		.ascii	"/\021o\243\0004\346\347(\032 z\"\000/\012\3746\006\220"
 967      0034E6E7 
 967      281A207A 
 967      22002F0A 
 967      FC360690 
 968 03ef D9ADD908 		.ascii	"\331\255\331\010\240+BM61\320\200\201}\023\035\327\232"
 968      A02B424D 
 968      3631D080 
 968      817D131D 
 968      D79A
 969 0401 4C3761B4 		.ascii	"L7a\264\354\366\331\310\220\276}B\337\273B\337\251b"
 969      ECF6D9C8 
 969      90BE7D42 
 969      DFBB42DF 
ARM GAS  C:\Users\pc\AppData\Local\Temp\ccnlW87D.s 			page 78


 969      A962
 970 0413 DED3C4BC 		.ascii	"\336\323\304\274u\377\323S\353\304\031\332\301\006v"
 970      75FFD353 
 970      EBC419DA 
 970      C10676
 971 0422 D0AAF54D 		.ascii	"\320\252\365M\361\320\276o\012^#\246S\224\364\257a3"
 971      F1D0BE6F 
 971      0A5E23A6 
 971      5394F4AF 
 971      6133
 972 0434 6A6985A0 		.ascii	"ji\205\240\320R\357\246\212\373\336FYo\232T\022\346"
 972      D052EFA6 
 972      8AFBDE46 
 972      596F9A54 
 972      12E6
 973 0446 3EB5854C 		.ascii	">\265\205LB\367\203\215t\015\302\026\377\351\332\235"
 973      42F7838D 
 973      740DC216 
 973      FFE9DA9D 
 974 0456 5C53459A 		.ascii	"\\SE\232\334\225\321\205\\\301\320\337!\233\222\215"
 974      DC95D185 
 974      5CC1D0DF 
 974      219B928D 
 975 0466 0C348F58 		.ascii	"\0144\217XH\205\0300\303\000\304\241\210%\374%\022\266"
 975      48851830 
 975      C300C4A1 
 975      8825FC25 
 975      12B6
 976 0478 B1E63C8C 		.ascii	"\261\346<\214'\030S+\026\225y0&\253\302Z\344\220\254"
 976      2718532B 
 976      16957930 
 976      26ABC25A 
 976      E490AC
 977 048b F8E24ED1 		.ascii	"\370\342N\321\261af\035\037N\253\343\037\223t\274\024"
 977      B161661D 
 977      1F4EABE3 
 977      1F9374BC 
 977      14
 978 049c D2D1C8AE 		.ascii	"\322\321\310\256E\350\357\317PuEA\234F\215\377\313K"
 978      45E8EFCF 
 978      50754541 
 978      9C468DFF 
 978      CB4B
 979 04ae F9E7F8A5 		.ascii	"\371\347\370\245\374+t)7j\251b1[\370\245\214\025\207"
 979      FC2B7429 
 979      376AA962 
 979      315BF8A5 
 979      8C1587
 980 04c1 9B58E7A2 		.ascii	"\233X\347\242P\231b\331\250=\204UG\277\3225\222_\210"
 980      509962D9 
 980      A83D8455 
 980      47BFD235 
 980      925F88
 981 04d4 C81BC4E1 		.ascii	"\310\033\304\341\3218\207\307\202\203wtk\275AKc\320"
 981      D13887C7 
 981      82837774 
 981      6BBD414B 
ARM GAS  C:\Users\pc\AppData\Local\Temp\ccnlW87D.s 			page 79


 981      63D0
 982 04e6 5223AB3D 		.ascii	"R#\253=\372\012\345\306u\012k\313\207in\317\014'\015"
 982      FA0AE5C6 
 982      750A6BCB 
 982      87696ECF 
 982      0C270D
 983 04f9 8E9F3444 		.ascii	"\216\2374D7C\321*\250\0153\352\302\314F\015Ok\324\223"
 983      3743D12A 
 983      A80D33EA 
 983      C2CC460D 
 983      4F6BD493 
 984 050d 4946D50A 		.ascii	"IF\325\012\243\036\201\021\373V\352\030\364\355\307"
 984      A31E8111 
 984      FB56EA18 
 984      F4EDC7
 985 051c 0E8F35DE 		.ascii	"\016\2175\336\250(0\242~\021\372\277G?\036_\214jR\240"
 985      A82830A2 
 985      7E11FABF 
 985      473F1E5F 
 985      8C6A52A0 
 986 0530 89DA591E 		.ascii	"\211\332Y\036\376\272\340\025\032(\371\025\026\254\335"
 986      FEBAE015 
 986      1A28F915 
 986      16ACDD
 987 053f 347CB860 		.ascii	"4|\270`\016\376\361\000\001\360(\233\375]\333\212\024"
 987      0EFEF100 
 987      01F0289B 
 987      FD5DDB8A 
 987      14
 988 0550 E71A67B2 		.ascii	"\347\032g\262's\2553M\033\177\230\274x\311\333\2664"
 988      2773AD33 
 988      4D1B7F98 
 988      BC78C9DB 
 988      B634
 989 0562 B72DC363 		.ascii	"\267-\303csg\330m\366\024G\226#\325\343^hg\2126\222"
 989      7367D86D 
 989      F6144796 
 989      23D5E35E 
 989      68678A36 
 990 0577 3D4E9703 		.ascii	"=N\227\003\\\334\356I_\364O\031\234\251\366\365\231"
 990      5CDCEE49 
 990      5FF44F19 
 990      9CA9F6F5 
 990      99
 991 0588 6B1D98C5 		.ascii	"k\035\230\305\275\321\2750\205\031\262V\257\317t,\233"
 991      BDD1BD30 
 991      8519B256 
 991      AFCF742C 
 991      9B
 992 0599 11664F73 		.ascii	"\021fOs\271\322Rm\351i\031\036\267\355\275\225I+\222"
 992      B9D2526D 
 992      E969191E 
 992      B7EDBD95 
 992      492B92
 993 05ac 3620DE9E 		.ascii	"6 \336\236\226\341X\225\265\304\205I\336\177\021\270"
 993      96E15895 
 993      B5C48549 
ARM GAS  C:\Users\pc\AppData\Local\Temp\ccnlW87D.s 			page 80


 993      DE7F11B8 
 994 05bc 6383C7B6 		.ascii	"c\203\307\266\")\371\203\344q\016.\267\323\275j\235"
 994      2229F983 
 994      E4710E2E 
 994      B7D3BD6A 
 994      9D
 995 05cd DD8E2962 		.ascii	"\335\216)b\222\222W\306\257Y\355v\244g8_\217OX\304\244"
 995      929257C6 
 995      AF59ED76 
 995      A467385F 
 995      8F4F58C4 
 996 05e2 0C667439 		.ascii	"\014ft9\\i\031\033\331\337\022\272\306'"
 996      5C69191B 
 996      D9DF12BA 
 996      C627
 997              		.text
 998              		.section	.gnu.lto_chEvtWaitAllTimeout.6ed948f3,"",%progbits
 999 0000 789CAD54 		.ascii	"x\234\255T\355OSW\030?\317=\267\267\225\026af3\231\343"
 999      ED4F5357 
 999      183FCF3D 
 999      B7B79516 
 999      61663399 
 1000 0015 438D2368 		.ascii	"C\215#h\266yu\232\231-\306l\363\323>\220%\362\007\030"
 1000      B679759A 
 1000      992DC66C 
 1000      F3D33E90 
 1000      25F20718 
 1001 0029 AD9D36B1 		.ascii	"\255\2356\261\324\265\225\350'\256\005E\220\211{\021"
 1001      D4B595E8 
 1001      27AE0545 
 1001      90897B11 
 1002 0039 9095D1CC 		.ascii	"\220\225\321\314\030\227,:_\230\033\370BG\225\227!/"
 1002      18972C3A 
 1002      5F981BF8 
 1002      42479597 
 1002      212F
 1003 004b 228A0A43 		.ascii	"\"\212\012C\205\201\003+S\266\211N\305=\317\275\027"
 1003      8581032B 
 1003      53B6894E 
 1003      C53DCFBD 
 1003      17
 1004 005c 282D7626 		.ascii	"(-v&\333\375ps\316y^\316\357\371\375\236\347H\214\261"
 1004      DBFD7073 
 1004      CE795ECE 
 1004      EFF9FD9E 
 1004      E7488CB1 
 1005 0070 FC198CCD 		.ascii	"\374\031\214\315\006\306>\3025\314` \354ial\233I\020"
 1005      06C63EC2 
 1005      35CC6020 
 1005      EC69616C 
 1005      9B4910
 1006 0083 78C312A6 		.ascii	"x\303\022\246$\030\033\3460\305\302\0051\270\030w\206"
 1006      24181BE6 
 1006      30C5C205 
 1006      31B81877 
 1006      86
 1007 0094 B614DC89 		.ascii	"\266\024\334\211`\322\234\014\202t\360er\032\\\212\307"
ARM GAS  C:\Users\pc\AppData\Local\Temp\ccnlW87D.s 			page 81


 1007      60D29C0C 
 1007      8274F065 
 1007      721A5C8A 
 1007      C7
 1008 00a5 D2F8B171 		.ascii	"\322\370\261q|a\002\240\205b\002\226-p\321 \031M\220"
 1008      7C6102A0 
 1008      85620296 
 1008      2D70D120 
 1008      194D90
 1009 00b8 0D85FC0B 		.ascii	"\015\205\374\013\016\027r\217\370\371.\356\347\014D"
 1009      0E17728F 
 1009      F8F92EEE 
 1009      E70C44
 1010 00c7 DCDE6B2E 		.ascii	"\334\336k.\353\233I[\000+n\303\303u\225\226\005\007"
 1010      EB9B495B 
 1010      002B6EC3 
 1010      C3759596 
 1010      0507
 1011 00d9 15C5A704 		.ascii	"\025\305\247\004K.\317\273\020\332Q\260\007\374\\`\305"
 1011      4B2ECFBB 
 1011      10DA51B0 
 1011      07FC5C60 
 1011      C5
 1012 00ea E85F0929 		.ascii	"\350_\011)p\034R\010\357\367\260\000\275\367\035|\322"
 1012      701C5208 
 1012      EFF7B000 
 1012      BDF71D7C 
 1012      D2
 1013 00fb C6F99BC0 		.ascii	"\306\371\233\300p\335\330\330cI;\240\006\206\017p\345"
 1013      70DDD8D8 
 1013      63493BA0 
 1013      06860F70 
 1013      E5
 1014 010c 550C8213 		.ascii	"U\014\202\023\300#\343(\017\374\000i\350}\356\351h0"
 1014      C023E328 
 1014      0FFC0069 
 1014      E87DEEE9 
 1014      6830
 1015 011e 494321E0 		.ascii	"IC!\340\266\375\356\371r\263\206\"\031\267\371\301\202"
 1015      B6FDEEF9 
 1015      72B38622 
 1015      19B7F9C1 
 1015      82
 1016 012f B309FC6D 		.ascii	"\263\011\374m5\357\225\007\333n%\351\211\037\227p\345"
 1016      35EF9507 
 1016      DB6E25E9 
 1016      891F9770 
 1016      E5
 1017 0140 453FE750 		.ascii	"E?\347P\255%\256\302\304?\252\211qs\022\322\310\377"
 1017      AD25AEC2 
 1017      C43FAA89 
 1017      717312D2 
 1017      C8FF
 1018 0152 FC58656B 		.ascii	"\374Xek\002_\241\306\026\\\257\0315\246\356Wc\007v\363"
 1018      025FA1C6 
 1018      165CAF19 
 1018      35A6EE57 
ARM GAS  C:\Users\pc\AppData\Local\Temp\ccnlW87D.s 			page 82


 1018      630776F3 
 1019 0166 F24A45C9 		.ascii	"\362JE\311\177\327\317E85\025\030}\350\336{tlo\242$"
 1019      7FD7CF45 
 1019      38351518 
 1019      7DE8DE7B 
 1019      746C6FA2 
 1020 017b C26948A5 		.ascii	"\302iH\245z\261\3143 \361\011C\256\202_\260\247\224"
 1020      7AB1CC33 
 1020      20F10943 
 1020      AE825FB0 
 1020      A794
 1021 018d 2E434331 		.ascii	".CC1\207\210 \0065 A\020$\026\345\177\261t\271\203\221"
 1021      87882006 
 1021      35204110 
 1021      2416E57F 
 1021      B174B983 
 1022 01a2 A118AB47 		.ascii	"\241\030\253G\333\255Sy\035\300=jlx`gP\324\361\265V"
 1022      DBAD5379 
 1022      1DC03D6A 
 1022      6C786067 
 1022      50D4F1B5 
 1023 01b7 CC2FCFD9 		.ascii	"\314/\317\331\365\211\022\360%\373\271\001j\343 \324"
 1023      F58912F0 
 1023      25FBB901 
 1023      6AE320D4 
 1024 01c7 120F9723 		.ascii	"\022\017\227#\021!\204\012?Qr>\005\314Y\004s\016\301"
 1024      1121840A 
 1024      3F51723E 
 1024      05CC5904 
 1024      730EC1
 1025 01da D02F2AAE 		.ascii	"\320/*\256\344\361\274\217\247-\240\016c\352c\013\350"
 1025      E4F1BC8F 
 1025      A72DA00E 
 1025      63EA630B 
 1025      E8
 1026 01eb 2C5D3E88 		.ascii	",]>\210\211\352'*\370\357\250\033\011uC,\352\237\021"
 1026      89EA272A 
 1026      F8EFA81B 
 1026      0975432C 
 1026      EA9F11
 1027 01fe 4113A16E 		.ascii	"A\023\241n\212E=\362\014\324\3471\246\371\231\250\233"
 1027      8A453DF2 
 1027      0CD4E731 
 1027      A6F999A8 
 1027      9B
 1028 020f FF47D4AD 		.ascii	"\377G\324\255\204\272%\026u\033\"\270@\250\361\207\363"
 1028      84BA2516 
 1028      751B22B8 
 1028      40A8F187 
 1028      F3
 1029 0220 0CD43FDF 		.ascii	"\014\324?\337\265\033\202\312\330\323<\004>{\367\376"
 1029      B51B82CA 
 1029      D8D33C04 
 1029      3E7BF7FE 
 1030 0230 BEB6F201 		.ascii	"\276\266\362\001\323K\200}*\011\364\343\3703\212\264"
 1030      D34B807D 
 1030      2A09F4E3 
ARM GAS  C:\Users\pc\AppData\Local\Temp\ccnlW87D.s 			page 83


 1030      F8338AB4 
 1031 0240 32D04FA2 		.ascii	"2\320O\242\237\221\306\303\314(\330\0024%\211\240\266"
 1031      9F91C6C3 
 1031      CC28D802 
 1031      342589A0 
 1031      B6
 1032 0251 34DB899D 		.ascii	"4\333\211\235\210\303\254\004Y>V\202\253\234 \033\002"
 1032      88C3AC04 
 1032      593E5682 
 1032      AB9C201B 
 1032      02
 1033 0262 5FF560F8 		.ascii	"_\365`\370\250\227\010)\343fDS\274\275\266\325H\023"
 1033      A8970829 
 1033      E3664453 
 1033      BCBDB6D5 
 1033      4813
 1034 0274 6452E9A9 		.ascii	"dR\351\251\252\012w\031\263\237(&<\010p\255\240\312"
 1034      AA0A7719 
 1034      B39F2826 
 1034      3C0870AD 
 1034      A0CA
 1035 0286 9C7B9FCD 		.ascii	"\234{\237\315\014\300W8\3173\340\"\276\007\355T,\032"
 1035      0CC05738 
 1035      CF33E022 
 1035      BE07ED54 
 1035      2C1A
 1036 0298 4ED4773F 		.ascii	"N\324w?2\311\207\250\322\300a\264&@\007\004`/\327\211"
 1036      32C987A8 
 1036      D2C061B4 
 1036      26400704 
 1036      602FD789 
 1037 02ac F8BB3367 		.ascii	"\370\2733g\273\240\231\2554<\227@\336\213\"`\245\227"
 1037      BBA099AD 
 1037      343C9740 
 1037      DE8B2260 
 1037      A597
 1038 02be 416603E0 		.ascii	"Af\003\340\013d\021\016B\216X\360`:\276\313\342\363"
 1038      0B64110E 
 1038      428E58F0 
 1038      603ABECB 
 1038      E2F3
 1039 02d0 0D9D908A 		.ascii	"\015\235\220\212Ay\203\312i\221\2520\200\025\256\240"
 1039      417983CA 
 1039      6991AA30 
 1039      8015AEA0 
 1040 02e0 ED36F87A 		.ascii	"\3556\370z\373J\216\264C\224 \237w\317\003\275\035\304"
 1040      FB4A8EB4 
 1040      4394209F 
 1040      77CF03BD 
 1040      1DC4
 1041 02f2 D889B3AE 		.ascii	"\330\211\263\256fp\225l\206h[S\305\374/9]\306\340Z\254"
 1041      6670956C 
 1041      86685B53 
 1041      C5FC2F39 
 1041      5DC6E05A 
 1042 0307 925D5845 		.ascii	"\222]XE7)\331MJ\002{D\327~]q\354A\302\334B\241B)\305"
 1042      3729D94D 
ARM GAS  C:\Users\pc\AppData\Local\Temp\ccnlW87D.s 			page 84


 1042      4A027B44 
 1042      D77E5D71 
 1042      EC41C2DC 
 1043 0320 F2CD1470 		.ascii	"\362\315\024p\250\357\244b\022\005\204\375\013\314U"
 1043      A8EFA462 
 1043      120584FD 
 1043      0BCC55
 1044 032f 39BA1BEE 		.ascii	"9\272\033\356\350\022\360\004z@T\2013\270\256\276\257"
 1044      E812F004 
 1044      7A405481 
 1044      33B8AEBE 
 1044      AF
 1045 0340 DF9C09F5 		.ascii	"\337\234\011\365[\346\026\351\321\026\362\0359|\354"
 1045      5BE616E9 
 1045      D116F21D 
 1045      397CEC
 1046 034f 92598DBE 		.ascii	"\222Y\215\276A\321p\023Db\321\252\222\300Tm\037\366"
 1046      41D17013 
 1046      4462D1AA 
 1046      92C0546D 
 1046      1FF6
 1047 0361 9E2C7C45 		.ascii	"\236,|E\023\027\"\305\025UqO\3256\327I(\3446M\221Dd"
 1047      131722C5 
 1047      1555714F 
 1047      D536D749 
 1047      28E4364D 
 1048 0378 1D7A752D 		.ascii	"\035zu-;\362\256\364\230'\304\022\240OUR \212\177E\265"
 1048      3BF2AEF4 
 1048      9827C412 
 1048      A04F5552 
 1048      208A7F45 
 1049 038d 8620E7F1 		.ascii	"\206 \347\361\216A\203\226Z\300\354e\210\251\037r\273"
 1049      8E418396 
 1049      5AC0EC65 
 1049      88A91F72 
 1049      BB
 1050 039e 424B27CE 		.ascii	"BK'\316,\252\"\371\310M\303\022\3545\264^\013\325\025"
 1050      2CAA22F9 
 1050      C84DC312 
 1050      EC35B45E 
 1050      0BD515
 1051 03b1 E5489A43 		.ascii	"\345H\232Cb$\036l\003\350\327%\314G%.[1\200\032\200"
 1051      62241E6C 
 1051      03E8D725 
 1051      CC47252E 
 1051      5B31801A 
 1052 03c6 8625D2D1 		.ascii	"\206%\322\321\200\216\003\221zj\303\242S<Vq\363\214"
 1052      808E0391 
 1052      7A6AC3A2 
 1052      533C5671 
 1052      F38C
 1053 03d8 799CBD01 		.ascii	"y\234\275\001\225\275[*{\321T\375\246Qu\243\277\250"
 1053      95BD5B2A 
 1053      7BD154FD 
 1053      A65175A3 
 1053      BFA8
 1054 03ea 7ABD7A87 		.ascii	"z\275z\207v\261\201\215\314\322\246\242\354\241\257"
ARM GAS  C:\Users\pc\AppData\Local\Temp\ccnlW87D.s 			page 85


 1054      76B1818D 
 1054      CCD2A6A2 
 1054      ECA1AF
 1055 03f9 A6F03542 		.ascii	"\246\3605B\032\305S`-\213\313\324L\030T\231\322g\345"
 1055      1AC55360 
 1055      2D8BCBD4 
 1055      4C185499 
 1055      D267E5
 1056 040c F01D5F8B 		.ascii	"\360\035_\213\250\217D&\3618DM/\022\215\267A&\216\302"
 1056      A88F4426 
 1056      F138444D 
 1056      2F128DB7 
 1056      41268EC2 
 1057 0420 B03D305A 		.ascii	"\260=0Z\377)\327X\341Sg.\251\230K\350\032\206lJ\326"
 1057      FF29D758 
 1057      E153672E 
 1057      A9984BE8 
 1057      1A866C4A 
 1058 0435 7935B70A 		.ascii	"y5\267\012\210\205d0\303\035HA\022\375\374\005\"\266"
 1058      88856430 
 1058      C31D4841 
 1058      12FDFC05 
 1058      22B6
 1059 0447 25741626 		.ascii	"%t\026&\023L\2605\013\231\031\236\240UbE\3228\255\370"
 1059      134CB035 
 1059      0B99199E 
 1059      A0556245 
 1059      D238ADF8 
 1060 045b 7246F1D8 		.ascii	"rF\361\330\024\237\307\337\247\345\361\356\024\036\033"
 1060      149FC7DF 
 1060      A7E5F1EE 
 1060      141E1B
 1061 046a C77934B2 		.ascii	"\307y4\262o\323\364\327\345amo\341\002\015\232\370\\"
 1061      6FD3F4D7 
 1061      E5616D6F 
 1061      E1020D9A 
 1061      F85C
 1062 047c 2DF706B1 		.ascii	"-\367\006\261to\262\333F\324n\363\215\355h\324\273\315"
 1062      746FB2DB 
 1062      46D46EF3 
 1062      8DED68D4 
 1062      BBCD
 1063 048e 40ACA9FD 		.ascii	"@\254\251\375\267O?\241\334xNn\035\0050\215hqn\372c"
 1063      B74F3FA1 
 1063      DC784E6E 
 1063      1D05308D 
 1063      68716EFA 
 1064 04a3 F2A63F49 		.ascii	"\362\246?I\020I\343'\024\303\317\271\370\374\3745-?"
 1064      1049E327 
 1064      14C3CFB9 
 1064      F8FCFC35 
 1064      2D3F
 1065 04b5 F7A7F013 		.ascii	"\367\247\360\023\032\347\307\244?\277\303xU\031\262"
 1065      1AE7C7A4 
 1065      3FBFC378 
 1065      5519B2
 1066 04c4 C5D87D30 		.ascii	"\305\330}0F\012'\340U\243\220\"\366\264\025\205\214"
ARM GAS  C:\Users\pc\AppData\Local\Temp\ccnlW87D.s 			page 86


 1066      460A27E0 
 1066      55A39022 
 1066      F6B41585 
 1066      8C
 1067 04d5 B492866A 		.ascii	"\264\222\206j,X\267\261\272\257p\016\276\344@\011\360"
 1067      2C58B7B1 
 1067      BAAF700E 
 1067      BEE44009 
 1067      F0
 1068 04e6 1AD9F68E 		.ascii	"\032\331\366\216\274r\203c\255#\303\273y\235\303\245"
 1068      BC728363 
 1068      AD23C3BB 
 1068      799DC3A5 
 1069 04f6 AD3FCC58 		.ascii	"\255?\314X\274\354-\331\345\221\335^\331\343\266\311"
 1069      BCEC2DD9 
 1069      E591DD5E 
 1069      D9E3B6C9 
 1070 0506 B60DF62C 		.ascii	"\266\015\366,{\246\327\263\320\306$m%z\035N;\267y7-"
 1070      7BA6D7B3 
 1070      D0C6246D 
 1070      257A1D4E 
 1070      3BB77937 
 1071 051b FAB77847 		.ascii	"\372\267xG\246m\343\346uv\314\341\331\352Y\270\201\031"
 1071      A66DE3E6 
 1071      7576CCE1 
 1071      D9EA59B8 
 1071      8119
 1072 052d B2D66CDC 		.ascii	"\262\326l\334l_\0217\314\346r:]\231\362&\227\333\353"
 1072      6C5F1137 
 1072      CCE6723A 
 1072      5D99F226 
 1072      97DBEB
 1073 0540 91DF5B95 		.ascii	"\221\337[\225\2762}\013\306\333\\n\373\352\254eNL\362"
 1073      BE327D0B 
 1073      C6DB5C6E 
 1073      FBEAAC65 
 1073      4E4CF2
 1074 0553 FEF384DB 		.ascii	"\376\363\204\333\267x\345\225\351\031\037dLbpz\034\236"
 1074      B778E595 
 1074      E9191F64 
 1074      4C62707A 
 1074      1C9E
 1075 0565 D5EB6D36 		.ascii	"\325\353m6L\221\234\236\261\312\272v\215\307\276\311"
 1075      4C919C9E 
 1075      B1CABA76 
 1075      8DC7BEC9 
 1076 0575 ED78DD9A 		.ascii	"\355x\335\232\272\210\011nft\332\235.\367V\366\017d"
 1076      BA88096E 
 1076      6674DA9D 
 1076      2EF756F6 
 1076      0F64
 1077 0587 097558   		.ascii	"\011uX"
 1078              		.text
 1079              		.section	.gnu.lto_.symbol_nodes.6ed948f3,"",%progbits
 1080 0000 789C55CD 		.ascii	"x\234U\3159N\303\000\020\205\341\367<^\311\2368\022"
 1080      394EC300 
 1080      1085E1F7 
ARM GAS  C:\Users\pc\AppData\Local\Temp\ccnlW87D.s 			page 87


 1080      3C5EC99E 
 1080      3812
 1081 0012 2547816B 		.ascii	"%G\201k\321<\213\"i9\000e\216\220\012\261c0K\240@\221"
 1081      D13C8B22 
 1081      69390065 
 1081      8E900AB1 
 1081      63304BA0 
 1082 0028 A0434869 		.ascii	"\240CHi\250h\220h\020\302!)\230f~\3157\305\304\000\336"
 1082      A8689068 
 1082      10C22129 
 1082      98667ECD 
 1082      37C5C400 
 1083 003d 598FE088 		.ascii	"Y\217\340\210\002\366\037\201:\207\305\016\020=\020"
 1083      02F61F81 
 1083      3A87C50E 
 1083      103D10
 1084 004c 5BCBCB31 		.ascii	"[\313\3131Ew\011N\250\300\313)e^\316\251\320\313%\025"
 1084      4577094E 
 1084      A8C0CB29 
 1084      655ECEA9 
 1084      D0CB2515 
 1085 0060 7939A362 		.ascii	"y9\243b/\027T\342\245\244R/WT\346\345\232\332\360RQ"
 1085      2F1754E2 
 1085      A5A4522F 
 1085      5754E6E5 
 1085      9ADAF052 
 1086 0075 0D2F3754 		.ascii	"\015/7T\323\313-\325\362rG\265\275\334S\035/3\252\353"
 1086      D3CB2DD5 
 1086      F27247B5 
 1086      BDDC531D 
 1086      2F33AAEB 
 1087 0089 8473AAF7 		.ascii	"\204s\252\367'@Ql\327\360D\365\035<S\003\007/T\376\037"
 1087      2740516C 
 1087      D7F044F5 
 1087      1D3C5303 
 1087      072F54FE 
 1088 009e 2CEEA3AC 		.ascii	",\356\243\254^CKb\354\215\277w-\255\373\366CK\007\230"
 1088      5E434B62 
 1088      EC8DBF77 
 1088      2DADFBF6 
 1088      434B0798 
 1089 00b2 2C9B25AB 		.ascii	",\233%\253=[\355a\003\323jv`\260f\216\305\350#\262\326"
 1089      3D5BED61 
 1089      03D36A76 
 1089      60B0668E 
 1089      C5E823B2 
 1090 00c7 BAED1CE5 		.ascii	"\272\355\034\345h\276i\235!\026\325W`\335u{\303\372"
 1090      68BE699D 
 1090      2116D557 
 1090      60DD757B 
 1090      C3FA
 1091 00d9 C1A7E117 		.ascii	"\301\247\341\027\222\336\202\337"
 1091      92DE82DF 
 1092              		.text
 1093              		.section	.gnu.lto_.refs.6ed948f3,"",%progbits
 1094 0000 789C6363 		.ascii	"x\234cc``\320\003bF bgdf`dad\001\021<\014\214\214\214"
 1094      6060D003 
ARM GAS  C:\Users\pc\AppData\Local\Temp\ccnlW87D.s 			page 88


 1094      62462062 
 1094      67646660 
 1094      64616401 
 1095 001a BC20820F 		.ascii	"\274 \202\017D\360\203\010\001\020!\010$\030\000\025"
 1095      44F08308 
 1095      01102108 
 1095      24180015 
 1096 002a 5F00BA   		.ascii	"_\000\272"
 1097              		.text
 1098              		.section	.gnu.lto_.decls.6ed948f3,"",%progbits
 1099 0000 789CBD7B 		.ascii	"x\234\275{\011T\024Y\226vF\276\310\004\222\004l\265"
 1099      09541459 
 1099      967646BE 
 1099      C8049204 
 1099      6CB5
 1100 0012 EBD4E9F1 		.ascii	"\353\324\351\361\314\251S\207\256b\226v\251\252\256"
 1100      CCA95387 
 1100      AE629676 
 1100      A9AAAE
 1101 0021 AAAEFF3F 		.ascii	"\252\256\377?=]]\323SU3\275\314\224S=K;\235CA\226\322"
 1101      3D5D5DD3 
 1101      535533BD 
 1101      CC94533D 
 1101      4B3B9D43 
 1102 0038 CDD69096 		.ascii	"\315\326\220\226\345\231s\376NH@\020\005\025D6\005\025"
 1102      E59973FE 
 1102      4E484010 
 1102      05154436 
 1102      0515
 1103 004a 05441415 		.ascii	"\005D\024\025E\0015I\005YdQ\024AvD\004TP\020P\326\377"
 1103      45013549 
 1103      05596451 
 1103      14417644 
 1103      04545010 
 1104 0061 BE253222 		.ascii	"\276%2\"\203\014\22793\235\207K\304{q\337\275\337]\336"
 1104      830C9739 
 1104      339D874B 
 1104      C47B71DF 
 1104      BDDF5DDE 
 1105 0075 8D172F32 		.ascii	"\215\027/2\265*\225\312\353oT\252%n*\225+\320\002|\226"
 1105      B52A95CA 
 1105      EB6F54AA 
 1105      256E2A95 
 1105      2BD0027C 
 1106 008a 425F0590 		.ascii	"B_\005\220;P\016\247R\245\003\325\300y%\320\227p\256"
 1106      3B500EA7 
 1106      52A503D5 
 1106      C07925D0 
 1106      9770AE
 1107 009d 8563111C 		.ascii	"\205c\021\034s\201V\300y)\034\227\001\341\317w\201."
 1107      738156C0 
 1107      79291C97 
 1107      01E1CF77 
 1107      812E
 1108 00af 637EA07A 		.ascii	"c~\240z\240F\240f\240V\240N\240n\240^\240;@\203@\303"
 1108      A046A066 
 1108      A056A04E 
ARM GAS  C:\Users\pc\AppData\Local\Temp\ccnlW87D.s 			page 89


 1108      A06EA05E 
 1108      A03B4083 
 1109 00c5 400F8046 		.ascii	"@\017\200F\200\306\201&\200\246\200f\200\346\201\324"
 1109      80C68126 
 1109      80A68066 
 1109      80E681D4 
 1110 00d5 6A95CA05 		.ascii	"j\225\312\005\010\213\377'\265\312\341\023\207T\252"
 1110      088BFF27 
 1110      B5CAE113 
 1110      8754AA
 1111 00e4 EFC0F13F 		.ascii	"\357\300\361?\2010\346\345N\360\332\030\346\2650\366"
 1111      8130E6E5 
 1111      4EF0DA18 
 1111      E6B530F6 
 1112 00f4 5F810EC0 		.ascii	"_\201\016\300y*\320\277\301\371\257\200\376\026\350"
 1112      792AD0BF 
 1112      C1F9AF80 
 1112      FE16E8
 1113 0103 6DE07105 		.ascii	"m\340q\005\332\007\375\031@?\207\276\037\003\245\300"
 1113      DA07FD19 
 1113      403F87BE 
 1113      1F03A5C0 
 1114 0113 F96EA0BD 		.ascii	"\371n\240\275@{\230\335\330\266\337\300\265\377\000"
 1114      407B98DD 
 1114      D8B6DFC0 
 1114      B5FF00
 1115 0122 F2033202 		.ascii	"\362\0032\002\255\007\302\320B\325\2131&\001F7\005\214"
 1115      AD07C2D0 
 1115      42D58B31 
 1115      26014637 
 1115      058C
 1116 0134 189B800B 		.ascii	"\030\233\200\013c\3026f0=5\012z0\31772\035\031\240C"
 1116      63C23666 
 1116      303D350A 
 1116      7A30CF37 
 1116      321D19A0 
 1117 0149 2F915F23 		.ascii	"/\221_#\261\373m\211\016\251\315\277\206k0\314n\353"
 1117      B1FB6D89 
 1117      0EA9CDBF 
 1117      866B30CC 
 1117      6EEB
 1118 015b EF98DEFA 		.ascii	"\357\230\336\372\347\350\225\333\226\365?\250\267\361"
 1118      E7E895DB 
 1118      96F53FA8 
 1118      B7F1
 1119 0169 15F4E632 		.ascii	"\025\364\3462\237\012zq\234\235\371\023c\300\343\367"
 1119      9F0A7A71 
 1119      9C9DF913 
 1119      63C0E3F7 
 1120 0179 321DCD0A 		.ascii	"2\035\315\012:\344\237\023 \337S\026\263/YNa\2318\347"
 1120      3AE49F13 
 1120      20DF5316 
 1120      B32F594E 
 1120      619938E7 
 1121 018d 7FCD72FE 		.ascii	"\177\315r\376\017@\323**\177\023\310\232\206\266FE\355"
 1121      0F40D32A 
 1121      2A7F13C8 
ARM GAS  C:\Users\pc\AppData\Local\Temp\ccnlW87D.s 			page 90


 1121      9A86B646 
 1121      45ED
 1122 019f 8A060A05 		.ascii	"\212\006\012\005\012\003\212\340h\216\264\262\334\306"
 1122      0A038AE0 
 1122      688EB4B2 
 1122      DCC6
 1123 01ad B8FE9F4C 		.ascii	"\270\376\237Lw\031\350\365p\222+\202}o3\034B\016c<\177"
 1123      7719E8F5 
 1123      70922B82 
 1123      7D6F331C 
 1123      420E633C 
 1124 01c2 0419B798 		.ascii	"\004\031\267\230}\373$\271*\344n\006\323\333\311\346"
 1124      7DFB24B9 
 1124      2AE46E06 
 1124      D3DBC9E6 
 1125 01d2 20D61B23 		.ascii	" \326\033#\323{\221\305\321\231\275R\237\012\272\266"
 1125      D37B91C5 
 1125      D199BD52 
 1125      9F0ABAB6 
 1126 01e2 C0718ECD 		.ascii	"\300q\216\315w<o\272\025\374\332\312\3460f\335.\323"
 1126      773C6FBA 
 1126      15FCDACA 
 1126      E63066DD 
 1126      2ED3
 1127 01f4 79C9894E 		.ascii	"y\311\211N\301V\251\316\004\240\016':{\025tv2\235\362"
 1127      C156A9CE 
 1127      04A00E27 
 1127      3A7B1574 
 1127      76329DF2 
 1128 0208 CF15447D 		.ascii	"\317\025D}$\317\031y\236\340\343\035'\343\2579\301["
 1128      24CF1979 
 1128      9EE0E31D 
 1128      27E3AF39 
 1128      C15B
 1129 021a C47C94CB 		.ascii	"\304|\224\313d\374\033P\001\213\305q8\036ar\360a\220"
 1129      64FC1B50 
 1129      018BC571 
 1129      381E6172 
 1129      F06190
 1130 022d C9DE2DF3 		.ascii	"\311\336-\363\303M\220\273D\3458\207\276d\271LdJ\346"
 1130      C34D90BB 
 1130      44E53887 
 1130      BE64B94C 
 1130      644AE6
 1131 0240 8EE0935F 		.ascii	"\216\340\223_\263\274KQ\323\\\344\3244\347\244sJ\310"
 1131      B3BC4B51 
 1131      D35CE4D4 
 1131      34E7A473 
 1131      4AC8
 1132 0252 3B1715AD 		.ascii	";\027\025\255\261Nk\226\302\374j\373\023`z\360\212\230"
 1132      B14E6B96 
 1132      C2FC6AFB 
 1132      13607AF0 
 1132      8A98
 1133 0264 3AFF0498 		.ascii	":\377\004\230F^\021\323=\300\264L\206\011\337\013\245"
 1133      465E11D3 
 1133      3DC0B44C 
ARM GAS  C:\Users\pc\AppData\Local\Temp\ccnlW87D.s 			page 91


 1133      8609DF0B 
 1133      A5
 1134 0275 B8B42FC0 		.ascii	"\270\264/\300\266\207a\323\252i\035y\036\276q\005|J"
 1134      B68761D3 
 1134      AA691D79 
 1134      1EBE7105 
 1134      7C4A
 1135 0287 F7C7FB7F 		.ascii	"\367\307\373\177b|\023\257\210o\364O\214o\352\025\361"
 1135      627C13AF 
 1135      886FF44F 
 1135      8C6FEA15 
 1135      F1
 1136 0298 2523EE5A 		.ascii	"%#\356ZTQ&\212G\334R\035\307C\363q}\372\035Oh.\327q"
 1136      5451268A 
 1136      47DC521D 
 1136      C743F371 
 1136      7DFA1D4F 
 1137 02b0 6F40736F 		.ascii	"o@soqt\221;Rs\2303\271\360\311U\365\312\243f\372q\015"
 1137      7174913B 
 1137      52739833 
 1137      B9F0C955 
 1137      F5CAA366 
 1138 02c7 5071A739 		.ascii	"Pq\2479$\210\2714\324\037\253C\037\021\306\035\035\317"
 1138      2488B934 
 1138      D41FAB43 
 1138      1F11C61D 
 1138      1DCF
 1139 02d9 CADDD1A7 		.ascii	"\312\335\321\247\344\374\372\243\253{\335\251\370%\320"
 1139      E4FCFAA3 
 1139      AB7BDDA9 
 1139      F825D0
 1140 02e8 4C2F7B52 		.ascii	"L/{R\253\241MWh\356N\037x\035\375\2340vV\347\027`\034"
 1140      ABA14D57 
 1140      68EE4E1F 
 1140      781DFD9C 
 1140      307656E7 
 1141 02ff 6FEB38BC 		.ascii	"o\3538\274B\363\202\256\343\017\316=\363\240]DT\342"
 1141      42F382AE 
 1141      E30FCE3D 
 1141      F3A05D44 
 1141      54E2
 1142 0311 588E0BFA 		.ascii	"X\216\013\372\002\237\253\273\333f:<9\235O\254\331\034"
 1142      029FABBB 
 1142      DB663A3C 
 1142      399D4FAC 
 1142      D91C
 1143 0323 69CEB698 		.ascii	"i\316\266\230\335>Sq\305\334\012\356\024\267B\305Y9"
 1143      DD3E5371 
 1143      C5DC0AEE 
 1143      14B742C5 
 1143      5939
 1144 0335 1F3CE60C 		.ascii	"\037<\346\014\267R\305\235\207\316r\350<\2141[G3~\234"
 1144      B752C59D 
 1144      87CE72E8 
 1144      3C8C315B 
 1144      47337E9C 
 1145 0349 366636BF 		.ascii	"6f6\277\301]\344t\334\005\016\021\036p\315\333:jE~\316"
ARM GAS  C:\Users\pc\AppData\Local\Temp\ccnlW87D.s 			page 92


 1145      C15DE474 
 1145      DC050E11 
 1145      1E70CDDB 
 1145      3A6A457E 
 1146 035e CE035A74 		.ascii	"\316\003Zt\231#:\3122\356V\252\225t\\R\326q\356\315"
 1146      99233ACA 
 1146      32EE56AA 
 1146      95745C52 
 1146      D671EECD 
 1147 0372 AA68B359 		.ascii	"\252h\263Y\315\331@G\205\250\003TR%\005q\315\233Q>\361"
 1147      CDD94047 
 1147      85A80354 
 1147      52250571 
 1147      CD9B513E 
 1148 0387 A9DA3211 		.ascii	"\251\3322\021U\247\250\243JQ\307T\303\352\324ilG%\350"
 1148      55A7A8A3 
 1148      4A51C754 
 1148      C3EAD469 
 1148      6C4725E8 
 1149 039b B82CEAB0 		.ascii	"\270,\352\260\011:\322r\347\232\0202#\342\270\252\304"
 1149      093AD272 
 1149      E79A1032 
 1149      23E2B8AA 
 1149      C4
 1150 03ac A86D3AB4 		.ascii	"\250m:\264\2054\324\023\327\036\244i\2254\326*j\274"
 1150      8534D413 
 1150      D71EA469 
 1150      9534D62A 
 1150      6ABC
 1151 03be FD3A849C 		.ascii	"\375:\204\234\253\001u\325N\324\235\237,\257\364DIT"
 1151      AB0175D5 
 1151      4ED49D9F 
 1151      2CAFF444 
 1151      4954
 1152 03d0 5DC94841 		.ascii	"]\311HA\211\007\215\261\025\267\363\0062\023\364\264"
 1152      89078DB1 
 1152      15B7F306 
 1152      3213F4B4 
 1153 03e0 FD21346F 		.ascii	"\375!4o4u\035B(\223\362\232\223g\262<\320!\012m\324"
 1153      34751D42 
 1153      2893F29A 
 1153      9367B23C 
 1153      D0210A6D 
 1154 03f5 92714831 		.ascii	"\222qH1\250\327\024\241\331\010\264&\200\326\350\004"
 1154      A8D714A1 
 1154      D908B426 
 1154      80D6E804 
 1155 0405 5AC7A9ED 		.ascii	"Z\307\251\355\227\\Q!UW0\025u\332\013\235v\304\271\234"
 1155      975C5121 
 1155      55573015 
 1155      75DA0B9D 
 1155      76C4B99C 
 1156 0419 E19C4E3A 		.ascii	"\341\234N:w\332\035\225\321\213\227\3574WkP\005md\333"
 1156      77DA1D95 
 1156      D18B97EF 
 1156      34576B50 
 1156      056D64DB 
ARM GAS  C:\Users\pc\AppData\Local\Temp\ccnlW87D.s 			page 93


 1157 042d 7A7F80AE 		.ascii	"z\177\200\256\323\363\322\335\345\017]\321-\332\250"
 1157      D3F3D2DD 
 1157      E50F5DD1 
 1157      2DDAA8
 1158 043c 986BCBD4 		.ascii	"\230k\313\324\241{\264qf\240\246JG\345\2319h\317\036"
 1158      A17BB471 
 1158      66A0A64A 
 1158      47E59939 
 1158      68CF1E
 1159 044f 6A6C7545 		.ascii	"jluE\243\364bYIy\025K\374\325\320\264\364\357\355\365"
 1159      A3F46259 
 1159      4979154B 
 1159      FCD5D0B4 
 1159      F4EFEDF5 
 1160 0463 444FE9B5 		.ascii	"DO\351\265\214\361\316!7z\315\007'a\351\370!-\212\340"
 1160      8CF1CE21 
 1160      377ACD07 
 1160      2761E9F8 
 1160      212D8AE0 
 1161 0477 C9B5BE85 		.ascii	"\311\265\276\205\371\337\241\255\364<\356h\\\225'\332"
 1161      F9DFA1AD 
 1161      F43CEE68 
 1161      5C9527DA 
 1162 0487 451B072E 		.ascii	"E\033\007.\226=pA\007hC\230\265K\351\254\315\033\356"
 1162      963D7041 
 1162      07684398 
 1162      B54BE9AC 
 1162      CD1BEE
 1163 049a 9E45E804 		.ascii	"\236E\350\004\275\326\333q\245\310\023\235\242\215\262"
 1163      BDD6DB71 
 1163      A5C8139D 
 1163      A28DB2
 1164 04a9 A98C322F 		.ascii	"\251\2142/TJ\033\365w\026\306t\250\2026J\322\347\255"
 1164      544A1BF5 
 1164      7716C674 
 1164      A882364A 
 1164      D2E7AD
 1165 04bc 3CAAA68D 		.ascii	"<\252\246\215\350\355\205{\260)Z:\031]\240\253\377\321"
 1165      E8ED857B 
 1165      B0295A3A 
 1165      195DA0AB 
 1165      FFD1
 1166 04ce F4199E76 		.ascii	"\364\031\236va\257\177\213\213CZ\307\011Ot\225\014Q"
 1166      61AF7F8B 
 1166      8B435AC7 
 1166      094F7495 
 1166      0C51
 1167 04e0 5F683E1B 		.ascii	"_h>\033\345\301\371\350\204\211\366~\332#\234\240\017"
 1167      E5C1F9E8 
 1167      8489F67E 
 1167      DA239CA0 
 1167      0F
 1168 04f1 212CF7C5 		.ascii	"!,\367\305\260hqTb1\213<\276\017 \276Z\026\337a\350"
 1168      B0687154 
 1168      62318B3C 
 1168      BE0F20BE 
 1168      5A16DF61 
ARM GAS  C:\Users\pc\AppData\Local\Temp\ccnlW87D.s 			page 94


 1169 0506 1C824ED0 		.ascii	"\034\202N\3201\366\354Q1\217Z\250\216SI\263\251\236"
 1169      31F6EC51 
 1169      318F5AA8 
 1169      8E5349B3 
 1169      A99E
 1170 0518 A28E73EF 		.ascii	"\242\216s\357\234&\023\355\021\350\030\021u<\344\024"
 1170      9C2613ED 
 1170      11E81811 
 1170      753CE414 
 1171 0528 958C3A57 		.ascii	"\225\214:W\322k\236I\323\243.\252$\303v\340\224\332"
 1171      D26B9E49 
 1171      D3A32EAA 
 1171      24C376E0 
 1171      94DA
 1172 053a AE64AAE1 		.ascii	"\256d\252\341=:\323\306A\311cQ\311#e%c\316\225\304\357"
 1172      3D3AD3C6 
 1172      41C96351 
 1172      C9236525 
 1172      63CE95C4 
 1173 054f 7E78D813 		.ascii	"~x\330\023\365S\007\317\014&\267q4`zhF\226\265\355\364"
 1173      F55307CF 
 1173      0C26B771 
 1173      34607A68 
 1173      4696B5ED 
 1174 0564 A2A9D343 		.ascii	"\242\251\323CJ\335t\354<\217\036S\336[\333\232\333\265"
 1174      4ADD74EC 
 1174      3C8F1E53 
 1174      DE5BDB9A 
 1174      DBB5
 1175 0576 E8194557 		.ascii	"\350\031EWR\3271\203\354\350jI\352O\003\264\247/\005"
 1175      52D73183 
 1175      ECE86A49 
 1175      EA4F03B4 
 1175      A72F05
 1176 0589 ED997368 		.ascii	"\355\231shU\215\331\343\256h\201\252;\267s\027$x\264"
 1176      558DD9E3 
 1176      AE6881AA 
 1176      3BB77317 
 1176      2478B4
 1177 059c 8634BA52 		.ascii	"\2064\272R\343\313\334Q*m\\H\034;\353\206\262hc\313"
 1177      E3CBDC51 
 1177      2A6D5C48 
 1177      1C3BEB86 
 1177      B26863CB 
 1178 05b0 D3BE222F 		.ascii	"\323\276\"/\224\247q\250\362\313i\225\037\266X{yt\234"
 1178      94A771A8 
 1178      F2CB6995 
 1178      1FB6587B 
 1178      79749C
 1179 05c3 5E3B1EDD 		.ascii	"^;\036\335\237\357\012\327V@.q\222\252\276\202V\365"
 1179      9FEF0AD7 
 1179      56402E71 
 1179      92AABE82 
 1179      56F5
 1180 05d5 62EB7821 		.ascii	"b\353x!\217\212\011\257\372Da\377\357$9\2642z\013\216"
 1180      8F8A09AF 
 1180      FA4461FF 
ARM GAS  C:\Users\pc\AppData\Local\Temp\ccnlW87D.s 			page 95


 1180      EF2439B4 
 1180      327A0B8E 
 1181 05e9 6F8C5AC7 		.ascii	"o\214Z\307E\251\355\366\255`\346E\232\315\007\315\350"
 1181      45A9EDF6 
 1181      AD60E645 
 1181      9ACD07CD 
 1181      E8
 1182 05fa 7515F7EE 		.ascii	"u\025\367\356\012n5\030\027\255\366\301B\211q\026\365"
 1182      0A6E3518 
 1182      17ADF6C1 
 1182      42897116 
 1182      F5
 1183 060b 0A2E524D 		.ascii	"\012.RM\214\313\317\312\273\354\201.P\005]\205\243\015"
 1183      8CCBCFCA 
 1183      BBEC812E 
 1183      50055D85 
 1183      A30D
 1184 061d 4892416F 		.ascii	"H\222Ao\236\"\031\024\007\032\266\210\032@\241s\025"
 1184      9E221914 
 1184      071AB688 
 1184      1A40A173 
 1184      15
 1185 062e B1CE5544 		.ascii	"\261\316UD&5\037uCUTEd\345\216k.B\025s\034\276\315\311"
 1185      26351F75 
 1185      43555445 
 1185      64E58E6B 
 1185      2E421573 
 1186 0646 7021CD3E 		.ascii	"p!\315>\274El\215\007$[E$qjV\306\342\267\315\037G\250"
 1186      BC456C8D 
 1186      07245B45 
 1186      24716A56 
 1186      C6E2B7CD 
 1187 065d 81AA7898 		.ascii	"\201\252x\230\220W\242u\256\"QQE\237\313O\270\004\220"
 1187      9057A275 
 1187      AE225151 
 1187      459FCB4F 
 1187      B80490
 1188 0670 BEDD89F4 		.ascii	"\276\335\211\364\316\275\243\3430\313h\300r.\035\277"
 1188      CEBDA3E3 
 1188      30CB68C0 
 1188      722E1DBF 
 1189 0680 E6823AA8 		.ascii	"\346\202:\250\252\266\211\272$q6\014\203\214$\220\261"
 1189      AAB689BA 
 1189      2471360C 
 1189      838C2490 
 1189      B1
 1190 0691 532EC309 		.ascii	"S.\303\011\222]\316}5\022u\267\207-\010^\307E79\365"
 1190      925DCE7D 
 1190      351275B7 
 1190      872D085E 
 1190      C7453739 
 1191 06a6 5D74972A 		.ascii	"]t\227*~x\250\341$\256\203>:\356\217\222D\361\241\211"
 1191      7E78A8E1 
 1191      24AE833E 
 1191      3AEE8F92 
 1191      44F1A189 
 1192 06ba 92B9B36F 		.ascii	"\222\271\263o\217\033z@a\245M\024\317\330o\025E\026"
ARM GAS  C:\Users\pc\AppData\Local\Temp\ccnlW87D.s 			page 96


 1192      8F1B7A40 
 1192      61A54D14 
 1192      CFD86F15 
 1192      4516
 1193 06cc F37722D6 		.ascii	"\363w\"\326\250\270\033\220\321\2458\315\323A\265\017"
 1193      A8B81B90 
 1193      D1A538CD 
 1193      D341B50F 
 1194 06dc 53BD0754 		.ascii	"S\275\007T\247\250\305\005\300[{\311\002 \015\254H\025"
 1194      A7A8C505 
 1194      C05B7BC9 
 1194      02200DAC 
 1194      4815
 1195 06ee ADF0618E 		.ascii	"\255\360a\216\330\022\225\227\350\216\246\250\222\344"
 1195      D8129597 
 1195      E88EA6A8 
 1195      92E4
 1196 06fc C4BE7617 		.ascii	"\304\276v\027i\271\271B\222e/\014\315\020\207\246\211"
 1196      69B9B942 
 1196      92652F0C 
 1196      CD1087A6 
 1196      89
 1197 070d 0E580424 		.ascii	"\016X\004$\323\011\020<\253\216\267_\346\221YKo\310"
 1197      D309103C 
 1197      AB8EB75F 
 1197      E691594B 
 1197      6FC8
 1198 071f 710FB395 		.ascii	"q\017\263\225M\311V4\245\273\006u^\332j6\363\\\026\000"
 1198      4DC95634 
 1198      A5BB0675 
 1198      5EDA6A36 
 1198      F35C1600 
 1199 0733 DA2702DA 		.ascii	"\332'\002\332+D\265t\333D\224\273~\253\375nJ\030\205"
 1199      2B44B574 
 1199      DB4494BB 
 1199      7EABFD6E 
 1199      4A1885
 1200 0746 5AA0E2F6 		.ascii	"Z\240\342\366\253\365l\361\026\331w\246\205CU\004\017"
 1200      ABF56CF1 
 1200      16D977A6 
 1200      85435504 
 1200      0F
 1201 0757 77F3E9F9 		.ascii	"w\363\351\371i=\252#\015\376\250\345\310#\236\363Y\301"
 1201      693DAA23 
 1201      0DFEA8E5 
 1201      C8239EF3 
 1201      59C1
 1202 0769 C1288E3A 		.ascii	"\301(\216:\002\257\375T\\.\210:\250F\302B2\335\014\360"
 1202      02AFFD54 
 1202      5C2E883A 
 1202      A846C242 
 1202      32DD0CF0 
 1203 077d 1FFD1177 		.ascii	"\037\375\021w\303\271+9:\311\211\034\260\006_Rq\207"
 1203      C3B92B39 
 1203      3AC9891C 
 1203      B0065F52 
 1203      7187
ARM GAS  C:\Users\pc\AppData\Local\Temp\ccnlW87D.s 			page 97


 1204 078f C19643D4 		.ascii	"\301\226C\324\033'2\253\237\271\351\030w\354\213\270"
 1204      1B2732AB 
 1204      9FB9E918 
 1204      77EC8BB8 
 1205 079f 7B9F2E5C 		.ascii	"{\237.\\\326K\215\312s0*\337nTE\275%\337\0355Q\243\372"
 1205      D64B8DCA 
 1205      73302ADF 
 1205      6E5445BD 
 1205      25DF1D35 
 1206 07b6 E6F6F7BB 		.ascii	"\346\366\367\273\240\026\332x\232Z\223\343\201:hc\327"
 1206      A016DA78 
 1206      9A5A93E3 
 1206      813A6863 
 1206      D7
 1207 07c7 D1A65B5A 		.ascii	"\321\246[Z\324C\033]\307"
 1207      D4431B5D 
 1207      C7
 1208 07d0 E6CBB5E8 		.ascii	"\346\313\265\350\016mdu<.tA\0034J-\013\203\203P\253"
 1208      0E6D6475 
 1208      3C2E7441 
 1208      03344A2D 
 1208      0B838350 
 1209 07e5 7D248AFF 		.ascii	"}$\212\377\3635\261\260\236\000\250\006=\213\000\215"
 1209      F335B1B0 
 1209      9E00A806 
 1209      3D8B008D 
 1210 07f5 CF48E69F 		.ascii	"\317H\346\237G\230\315\034W\244\326s\307\305\350\030"
 1210      4798CD1C 
 1210      57A4D673 
 1210      C7C5E818 
 1211 0805 F4145E4F 		.ascii	"\364\024^OdU3\254\016\250\252\307#7f=\3208m\230\237"
 1211      645533AC 
 1211      0EA8AAC7 
 1211      2337663D 
 1211      D0386D98 
 1212 081a 5DB8AD45 		.ascii	"]\270\255ES\264\321\276\373i\217\033\232\246\215\352"
 1212      53B4D1BE 
 1212      FB698F1B 
 1212      9AA68DEA 
 1213 082a 9BF11779 		.ascii	"\233\361\027y4G\033\271u=f\0152\273\220F\371\326\272"
 1213      34471BB9 
 1213      753D660D 
 1213      32BB9046 
 1213      F9D6BA
 1214 083d 595764A1 		.ascii	"YWd\241\215\364\322-\221:\024C\033\005\013\343\211z"
 1214      8DF4D22D 
 1214      913A1443 
 1214      1B050BE3 
 1214      897A
 1215 084f 14471B4F 		.ascii	"\024G\033O\313\257\035P\323\311\347\015\315#\326\370"
 1215      CBAF1D50 
 1215      D3C9E70D 
 1215      CD23D6F8 
 1216 085f 6A44CB76 		.ascii	"jD\313v\266:\031\271_\215\276\272\305\225\363\246\237"
 1216      B63A19B9 
 1216      5F8DBEBA 
 1216      C595F3A6 
ARM GAS  C:\Users\pc\AppData\Local\Temp\ccnlW87D.s 			page 98


 1216      9F
 1217 0870 653EDEDE 		.ascii	"e>\336\336\007\260\265\326\321at\277`\353vs\266\215"
 1217      07B0B5D6 
 1217      D16174BF 
 1217      60EB7673 
 1217      B68D
 1218 0882 5A7312AC 		.ascii	"Zs\022\254\271\254^&Z\237\254\306\256/\306\001P\321"
 1218      B9AC5E26 
 1218      5A9FACC6 
 1218      AE2FC601 
 1218      50D1
 1219 0894 217DFF91 		.ascii	"!}\377\221n\266F!\302~N\316\276\012s\257\021\231\207"
 1219      6EB64621 
 1219      C27E4ECE 
 1219      BE0A73AF 
 1219      119987
 1220 08a7 25CC679D 		.ascii	"%\314g\2352KEOK\270\317\310\271K99{\355oE\366b9\373"
 1220      324B454F 
 1220      4BB8CFC8 
 1220      B94B3939 
 1220      7BED6F45 
 1221 08bf B945EC7D 		.ascii	"\271E\354}\022\366cr\366;\234\014\371u\011\367)\347"
 1221      12F66372 
 1221      F63B9C0C 
 1221      F97509F7 
 1221      29E7
 1222 08d1 5E21DC3B 		.ascii	"^!\334;qF\354\000\342x\025W\016\311\\\246\306`\331\010"
 1222      7146EC00 
 1222      E2781557 
 1222      0EC95CA6 
 1222      C660D908 
 1223 08e5 C80CAE12 		.ascii	"\310\014\256\022\022\350\202\332\233\273\010t\005\310"
 1223      12E882DA 
 1223      9BBB0874 
 1223      05C8
 1224 08f3 0A540554 		.ascii	"\012T\005T\001t\011\350<\220M\355M&\033\315\257\206"
 1224      017409E8 
 1224      3C904DED 
 1224      4D261BCD 
 1224      AF86
 1225 0905 F62524BF 		.ascii	"\366%$\277@\202\212%\227\312\016\254\252k\351\001\213"
 1225      40828A25 
 1225      97CA0EAC 
 1225      AA6BE901 
 1225      8B
 1226 0916 B97A3541 		.ascii	"\271z5Av\332\271\331\022;\306$>-q\356S\302\215\027}"
 1226      76DAB9D9 
 1226      123BC624 
 1226      3E2D71EE 
 1226      53C28D17 
 1227 092b 7D0F4734 		.ascii	"}\017G4\322\371'\345Uq\325\366\371\327U~`\312\003\335"
 1227      D2F927E5 
 1227      5571D5F6 
 1227      F9D7557E 
 1227      60CA03DD 
 1228 093f 208987A6 		.ascii	" \211\207\246\307\313\316p\234\267\3172\252\017jW\372"
 1228      C7CBCE70 
ARM GAS  C:\Users\pc\AppData\Local\Temp\ccnlW87D.s 			page 99


 1228      9CB7CF32 
 1228      AA0F6A57 
 1228      FA
 1229 0950 DD789A51 		.ascii	"\335x\232Q0\202+\004\235W\235\247\01036\237\032{\325"
 1229      30822B04 
 1229      9D579DA7 
 1229      0833369F 
 1229      1A7BD5
 1230 0963 D1D89D6C 		.ascii	"\321\330\235l\221C\374j\037\\\303\244a\277\326\201_"
 1230      9143FC6A 
 1230      1F5CC3A4 
 1230      61BFD681 
 1230      5F
 1231 0974 6B99DFF0 		.ascii	"k\231\337\360l\210\274\367\020\241^:\033\356\017\024"
 1231      6C88BCF7 
 1231      10A15E3A 
 1231      1BEE0F14 
 1232 0984 B4A8D100 		.ascii	"\264\250\321\000mdv\333\272\330\"\3742Y\315w'\307\351"
 1232      6D6476DB 
 1232      BAD822FC 
 1232      3259CD77 
 1232      27C7E9
 1233 0997 D9DCC00F 		.ascii	"\331\334\300\017\306\367&'[\264\350\021e>\265\220\037"
 1233      C6F72627 
 1233      5BB4E811 
 1233      653EB590 
 1233      1F
 1234 09a8 83D02469 		.ascii	"\203\320$i\374\337\234\352\356*wn\231\267~\231\3672"
 1234      FCDF9CEA 
 1234      EE2A776E 
 1234      99B77E99 
 1234      F732
 1235 09ba 6FFC1FFE 		.ascii	"o\374\037\376\274\361\271\017|\310D\362\361^\356M\256"
 1235      BCF1B90F 
 1235      7CC844F2 
 1235      F15EEE4D 
 1235      AE
 1236 09cb 78435BAF 		.ascii	"xC[\257\307\235>\336\366\217\217\217s3zaI\327\314\314"
 1236      C79D3EDE 
 1236      F68F8F8F 
 1236      73337A61 
 1236      49D7CCCC 
 1237 09df 1801336E 		.ascii	"\030\0013n03\250\013\347\026Pi\261\331\034\247\345n"
 1237      3033A80B 
 1237      E7165069 
 1237      B1D91CA7 
 1237      E56E
 1238 09f1 E269C378 		.ascii	"\342i\303x\2358P\022\252\026\207P\341q\324\225\016\351"
 1238      9D385012 
 1238      AA168750 
 1238      E171D495 
 1238      0EE9
 1239 0a03 D904E9D9 		.ascii	"\331\004\351\331\210\3233\001\371p\255L\377v8\337\206"
 1239      88D33301 
 1239      F970AD4C 
 1239      FF7638DF 
 1239      86
ARM GAS  C:\Users\pc\AppData\Local\Temp\ccnlW87D.s 			page 100


 1240 0a14 BC61C9EA 		.ascii	"\274a\311\352\315m\005\212\003\212\005\332\002\024\003"
 1240      CD6D058A 
 1240      038A05DA 
 1240      021403
 1241 0a23 140D1405 		.ascii	"\024\015\024\005d\001z\004\251\372\000\350>\3200\320"
 1241      64017A04 
 1241      A9FA00E8 
 1241      3ED030D0 
 1242 0a33 6DA036A0 		.ascii	"m\2406\240[\016\370\257\377\222\246\034T\315k\020\257"
 1242      5B0EF8AF 
 1242      FF92A61C 
 1242      54CD6B10 
 1242      AF
 1243 0a44 5629F8AB 		.ascii	"V)\370\253\234\363\231c\207\326\300F\374\357@\353\252"
 1243      9CF39963 
 1243      87D6C046 
 1243      FCEF40EB 
 1243      AA
 1244 0a55 5F7A904C 		.ascii	"_z\220L\036\374L\331\300\311\300\325/\252\031\363W\227"
 1244      1EFC4CD9 
 1244      C0C9C0D5 
 1244      2FAA19F3 
 1244      5797
 1245 0a67 53FE76F0 		.ascii	"S\376v\360\350u\347\374\362Pt8\204\242\235\316\032\007"
 1245      E875E7FC 
 1245      F2507438 
 1245      84A29DCE 
 1245      1A07
 1246 0a79 636FC355 		.ascii	"co\303U<Q\271v\220\330\301\214\035\204<\350\005\300"
 1246      3C51B976 
 1246      90D8C18C 
 1246      1D843CE8 
 1246      05C0
 1247 0a8b 3D409D0E 		.ascii	"=@\235\016\240\353\0224\3634\037\272X>t(\025F\011\214"
 1247      A0EB1234 
 1247      F3341FBA 
 1247      583E7428 
 1247      1546098C 
 1248 0a9f 6E07185D 		.ascii	"n\007\030]\317\2031\004\252_\014\243/\027\231s^'\271"
 1248      CF833104 
 1248      AA5F0CA3 
 1248      2F179973 
 1248      5E27B9
 1249 0ab2 D5EC1C83 		.ascii	"\325\354\034\203Pv`V\267\354q\211 I\320\007l7\031\273"
 1249      50766056 
 1249      B7EC7189 
 1249      2049D007 
 1249      6C3719BB 
 1250 0ac6 7DE9B3CA 		.ascii	"}\351\263\312y\022\330\257\337\003\020\375\014\320\000"
 1250      7912D8AF 
 1250      DF0310FD 
 1250      0CD000
 1251 0ad5 9CDF0530 		.ascii	"\234\337\0050w\034\300,,\240\374\312\004Zf0\242[\240"
 1251      771CC02C 
 1251      2CA0FCCA 
 1251      045A6630 
 1251      A25BA0
ARM GAS  C:\Users\pc\AppData\Local\Temp\ccnlW87D.s 			page 101


 1252 0ae8 A25FE1E6 		.ascii	"\242_\341\346\342\\G\013\033\241\254\303\366\2274\217"
 1252      E25C470B 
 1252      1BA1ACC3 
 1252      F697348F 
 1253 0af8 8559B858 		.ascii	"\205Y\270X\276\244\214\315\2632\326\357X\306\350\305"
 1253      BEA48CCD 
 1253      B332D6EF 
 1253      58C6E8C5 
 1254 0b08 5B999ABC 		.ascii	"[\231\232\274\203\273\360\202\016\273\243U|\240\303"
 1254      83BBF082 
 1254      0EBBA355 
 1254      7CA0C3
 1255 0b17 DC025363 		.ascii	"\334\002Sc\202\346Y\021^\300v8\0231\220\342\202\037"
 1255      82E65911 
 1255      5EC07638 
 1255      133190E2 
 1255      821F
 1256 0b29 087154DB 		.ascii	"\010qT\333\304\361\035d<\205;\263\200\252kb\314;|\311"
 1256      C4F11D64 
 1256      3C853BB3 
 1256      80AA6B62 
 1256      CC3B7CC9 
 1257 0b3d 5E4EA73C 		.ascii	"^N\247<Y;\034\223\033D^\377\0071D\335\214\335\356\236"
 1257      593B1C93 
 1257      1B445EFF 
 1257      073144DD 
 1257      8CDDEE9E 
 1258 0b51 AE45EC7D 		.ascii	"\256E\354}\177O\335\361\020\330z\344\322\273d\363zQ"
 1258      7F4FDDF1 
 1258      10D87AE4 
 1258      D2BB64F3 
 1258      7A51
 1259 0b63 C91B0517 		.ascii	"\311\033\005\027;+y\324\272*\346\275f\005\357\245Y\210"
 1259      3B2B79D4 
 1259      BA2AE6BD 
 1259      6605EFA5 
 1259      5988
 1260 0b75 F7B0EA3E 		.ascii	"\367\260\352>\321\372f\301z3I\210\254|\226\020\217\325"
 1260      D1FA66C1 
 1260      7A334988 
 1260      AC7C9610 
 1260      8FD5
 1261 0b87 CBB97E39 		.ascii	"\313\271~9\302;\022\203v9\203\250\"\3430\276H\250;\021"
 1261      C23B1283 
 1261      763983A8 
 1261      22E330BE 
 1261      48A83B11 
 1262 0b9b 5053CC40 		.ascii	"PS\314@\013\220\0263@\323@O\200\306\201\306\034\322"
 1262      0B901633 
 1262      40D3404F 
 1262      80C681C6 
 1262      1CD2
 1263 0bad 64F873EA 		.ascii	"d\370s\352\027\354\365\273\240\025KQ\\\020\215TK\012"
 1263      17ECF5BB 
 1263      A0154B51 
 1263      5C108D54 
 1263      4B0A
ARM GAS  C:\Users\pc\AppData\Local\Temp\ccnlW87D.s 			page 102


 1264 0bbf CAC08BB8 		.ascii	"\312\300\213\270\373\376\206\212\236\000\346{\312\314"
 1264      FBFE868A 
 1264      9E00E67B 
 1264      CACC
 1265 0bcd 92593FE9 		.ascii	"\222Y?\3510\353'\234\314\372I\270:\201\307?\001\201"
 1265      30EB279C 
 1265      CCFA49B8 
 1265      3A81C73F 
 1265      0181
 1266 0bdf 932C22CF 		.ascii	"\223,\"\317 \"O\301\262)\3212\360\351\225\002\315\350"
 1266      20224FC1 
 1266      B229D132 
 1266      F0E99502 
 1266      CDE8
 1267 0bf1 D8A0D9BC 		.ascii	"\330\240\331\274KO\366H\006\331\000\345Y?\374\032\256"
 1267      4B4FF648 
 1267      06D900E5 
 1267      593FFC1A 
 1267      AE
 1268 0c02 10C2949F 		.ascii	"\020\302\224\237t>\345Y>\307hp>O.Z\342\320X\336\317"
 1268      743EE559 
 1268      3EC76870 
 1268      3E4F2E5A 
 1268      E2D058DE 
 1269 0c17 65B1C43B 		.ascii	"e\261\304; S/\362\323\344y\346\325Yp\324\314K9j\016"
 1269      20532FF2 
 1269      D3E479E6 
 1269      D55970D4 
 1269      CC4B396A 
 1270 0c2c 2F1AED8E 		.ascii	"/\032\355\216\232\245\216R\270\241r\363\340\036\361"
 1270      9AA58E52 
 1270      B8A172F3 
 1270      E01EF1
 1271 0c3b 9E6ACFCA 		.ascii	"\236j\317\312m\226x\234\225X\324\254\230\2257\211,{"
 1271      6D96789C 
 1271      9558D4AC 
 1271      98953789 
 1271      2C7B
 1272 0c4d 996ABCC2 		.ascii	"\231j\274\302,\201\333\341\334s\015\301\363\240\234"
 1272      2C81DBE1 
 1272      DC730DC1 
 1272      F3A09C
 1273 0c5c DD9FB0D9 		.ascii	"\335\237\260\331\363/\342\256\375?4=0\363\20223\305"
 1273      F32FE2AE 
 1273      FD3F343D 
 1273      30F38232 
 1273      33C5
 1274 0c6e DB52AAC5 		.ascii	"\333R\252\305\016\007\236\305k\312\311\343K-\026s\352"
 1274      0E079EC5 
 1274      6BCAC9E3 
 1274      4B2D1673 
 1274      EA
 1275 0c7f 6AB24711 		.ascii	"j\262G\021\301\356\300\354Q\215\316\033\263Z\262\356"
 1275      C1EEC0EC 
 1275      518DCE1B 
 1275      B35AB2EE 
 1276 0c8f 5E956AB6 		.ascii	"^\225j\266F \262\345P\3069a~W\362\000\260\222\362\342"
ARM GAS  C:\Users\pc\AppData\Local\Temp\ccnlW87D.s 			page 103


 1276      4620B2E5 
 1276      50C63961 
 1276      7E57F200 
 1276      B092F2E2 
 1277 0ca3 AD851DCE 		.ascii	"\255\205\035\316\004K\242Xu\214E\021\036_\271\335\362"
 1277      044BA258 
 1277      758C4511 
 1277      1E5FB9DD 
 1277      F2
 1278 0cb4 95C3E227 		.ascii	"\225\303\342'\221\351\277\246\346\303\203!w\3009\273"
 1278      91E9BFA6 
 1278      E6C38321 
 1278      77C039BB 
 1279 0cc4 44BAEDAF 		.ascii	"D\272\355\257\305j~D\316\275\370ia\372\257D\366\002"
 1279      C56A7E44 
 1279      CEBDF869 
 1279      61FAAF44 
 1279      F602
 1280 0cd6 E7EC9248 		.ascii	"\347\354\222H\214\024\260\270\341\305\351Q9\373\342"
 1280      8C14B0B8 
 1280      E1C5E951 
 1280      39FBE2
 1281 0ce5 47973E26 		.ascii	"G\227>&\035/C\352\235\263K\244\337\376+\307{i\353\363"
 1281      1D2F43EA 
 1281      9DB34BA4 
 1281      DFFE2BC7 
 1281      7B69EBF3 
 1282 0cf9 26564B01 		.ascii	"&VK\001-\245\255\012\245t\341\011\276\307\340\364\276"
 1282      2DA5AD0A 
 1282      A574E109 
 1282      BEC7E0F4 
 1282      BE
 1283 0d0a 2E3EBAB6 		.ascii	".>\272\266\222J\212\237\330\223\257-hQ\215\033}v\235"
 1283      924A8A9F 
 1283      D893AF2D 
 1283      68518D1B 
 1283      7D769D
 1284 0d1d DD5BC216 		.ascii	"\335[\302\026\316\313\2419\327\275c\207\013[7\343\355"
 1284      CECBA139 
 1284      D7BD6387 
 1284      0B5B37E3 
 1284      ED
 1285 0d2e BEFD4969 		.ascii	"\276\375Ii\207\364\250\225\3626\236h\216\360D\335\244"
 1285      87F4A895 
 1285      F2369E68 
 1285      8EF044DD 
 1285      A4
