ARM GAS  C:\Users\pc\AppData\Local\Temp\cc4n66R4.s 			page 1


   1              		.cpu cortex-m3
   2              		.eabi_attribute 20, 1
   3              		.eabi_attribute 21, 1
   4              		.eabi_attribute 23, 3
   5              		.eabi_attribute 24, 1
   6              		.eabi_attribute 25, 1
   7              		.eabi_attribute 26, 1
   8              		.eabi_attribute 30, 2
   9              		.eabi_attribute 34, 1
  10              		.eabi_attribute 18, 4
  11              		.file	"chregistry.c"
  12              		.section	.gnu.lto_.profile.6ed94cce,"",%progbits
  13 0000 789C6363 		.ascii	"x\234cc```\005bF\206N\306p\000\002\201\000\356"
  13      60606005 
  13      6246864E 
  13      C6700002 
  13      8100EE
  14              		.text
  15              		.section	.gnu.lto_.icf.6ed94cce,"",%progbits
  16 0000 789C6363 		.ascii	"x\234cc``Pc@\0006\206\343\263w\235cd\352\332si\0227"
  16      60605063 
  16      40003686 
  16      E3B3779D 
  16      6364EADA 
  17 0018 F3FBF5DD 		.ascii	"\363\373\365\335;\031Y\272\037o\374\315\301\372\360"
  17      3B1959BA 
  17      1F6FFCCD 
  17      C1FAF0
  18 0027 6DD31E3E 		.ascii	"m\323\036>\2669\217\337<\340a\000\000`X\022]"
  18      B6398FDF 
  18      3CE06100 
  18      00605812 
  18      5D
  19              		.text
  20              		.section	.gnu.lto_.jmpfuncs.6ed94cce,"",%progbits
  21 0000 789C6363 		.ascii	"x\234cc``\230\300\200\000\254@\314\304\310\310X?\207"
  21      606098C0 
  21      8000AC40 
  21      CCC4C8C8 
  21      583F87
  22 0013 998189A9 		.ascii	"\231\201\211\251\022\310c<\300\302\310\000\304\377\201"
  22      12C8633C 
  22      C0C2C800 
  22      C4FF81
  23 0022 809F8119 		.ascii	"\200\237\201\031(\3078\207\231\221\011]\202\005]\000"
  23      28C73887 
  23      9991095D 
  23      82055D00 
  24 0032 8B661698 		.ascii	"\213f\026\230\301\350\022\254\020\011&\014\011\006\000"
  24      C1E812AC 
  24      1009260C 
  24      090600
  25 0041 55152739 		.ascii	"U\025'9"
  26              		.text
  27              		.section	.gnu.lto_.inline.6ed94cce,"",%progbits
  28 0000 789C6363 		.ascii	"x\234cc``\350a@\000V\006\006N\016F\006&\236\007\261"
  28      6060E861 
ARM GAS  C:\Users\pc\AppData\Local\Temp\cc4n66R4.s 			page 2


  28      40005606 
  28      064E0E46 
  28      06269E07 
  29 0015 0C6C0BE4 		.ascii	"\014l\013\344\231@bL\014\274\242@!\376E\305\014\354"
  29      9940624C 
  29      0CBCA240 
  29      21FE45C5 
  29      0CEC
  30 0027 1DEA1021 		.ascii	"\035\352\020!n\006\006\306\011~\314\0142\277\030\201"
  30      6E0606C6 
  30      097ECC0C 
  30      32BF1881 
  31 0037 526A936E 		.ascii	"Rj\223np!\224s3\202\344Xx\201\022\023\374\226p\2630"
  31      70219473 
  31      3382E458 
  31      78811213 
  31      FC9670B3 
  32 004c 88CF0429 		.ascii	"\210\317\004)R\371\361\232\023]\021+\203\304\002\\\006"
  32      52F9F19A 
  32      135D112B 
  32      83C4025C 
  32      06
  33 005d 3000007A 		.ascii	"0\000\000z\263\024B"
  33      B31442
  34              		.text
  35              		.section	.gnu.lto_.pureconst.6ed94cce,"",%progbits
  36 0000 789C6363 		.ascii	"x\234cc``\020\000bV\206]\214L\273\030\231w1\262\354"
  36      60601000 
  36      6256865D 
  36      8C4CBB18 
  36      997731B2 
  37 0015 6264DDC5 		.ascii	"bd\335\305\010\000\037\305\003\321"
  37      08001FC5 
  37      03D1
  38              		.text
  39              		.section	.gnu.lto_chRegFirstThread.6ed94cce,"",%progbits
  40 0000 789C8D53 		.ascii	"x\234\215S\317oTU\024>\337\273\257\323a\006\010+\026"
  40      CF6F5455 
  40      143EDFBB 
  40      AFD36106 
  40      082B16
  41 0013 D0C57431 		.ascii	"\320\305t1\021\022\303\243\011\221\204\005\211v\345"
  41      1112C3A3 
  41      09918405 
  41      8976E5
  42 0022 A23161FE 		.ascii	"\2421a\376\000\002\217I;\206a\232\367\246\204\256\372"
  42      00028F49 
  42      3B86619A 
  42      F7A684AE 
  42      FA
  43 0033 3A53986A 		.ascii	":S\230j\321\030\241\243)\257v\304(e\201B-HK\251cKKU"
  43      D118A1A3 
  43      29AF76C4 
  43      28658142 
  43      2D484BA9 
  44 004b CA8F3A05 		.ascii	"\312\217:\005\022\214\341G\250)4\015h\" P=\367\276Q"
  44      128CE147 
ARM GAS  C:\Users\pc\AppData\Local\Temp\cc4n66R4.s 			page 3


  44      A829340D 
  44      68222050 
  44      3DF7BE51 
  45 005f CA608AB3 		.ascii	"\312`\212\263\230\334\373\316\371\276\363\235\363\235"
  45      98DCFBCE 
  45      F9BEF39D 
  45      F39D
  46 006d EB23A249 		.ascii	"\353#\242I\235(\010\242\225|\206 h\037\234'j\366k\200"
  46      9D2808A2 
  46      957C8620 
  46      681F9C27 
  46      6AF66B80 
  47 0081 3C387E50 		.ascii	"<8~P\223\206&\354\025\373\005.\265\034uE\233p9M\347"
  47      938626EC 
  47      15FB052E 
  47      B51C7545 
  47      9B70394D 
  48 0096 EBFDF18E 		.ascii	"\353\375\361\216[K\345\025\010\361ufv\264w\361\352C"
  48      5B4BE515 
  48      08F17566 
  48      76B477F1 
  48      EA43
  49 00a8 8E9372F2 		.ascii	"\216\223r\362\037\271\201\003\275\027\235E\256\320("
  49      1FB98103 
  49      BD179D45 
  49      AED028
  50 00b7 CBE9BDA8 		.ascii	"\313\351\275\250\300\327\250\2205\216c5q\366\231\333"
  50      C0D7A890 
  50      358E6335 
  50      71F699DB 
  51 00c7 4F268262 		.ascii	"O&\202b\035\344\371n\353\330!\177\3703\205\234\353^"
  51      1DE4F96E 
  51      EBD8217F 
  51      F833859C 
  51      EB5E
  52 00d9 F169DA19 		.ascii	"\361i\332\031st\206\342\004\304\363h\222\3517\217\315"
  52      737486E2 
  52      04C4F368 
  52      92E9378F 
  52      CD
  53 00ea B52FF1E9 		.ascii	"\265/\361\351\370\006aI\316\234'\341\303\277\201\026"
  53      F8066149 
  53      CE9C27E1 
  53      C3BF8116 
  54 00fa 877FF93F 		.ascii	"\207\177\371?\016\373\324\367\254\300<\014\241\217S"
  54      0EFBD4F7 
  54      ACC03C0C 
  54      A18F53
  55 0109 FBE1A392 		.ascii	"\373\341\243\222\364\307S\257p~\277\314\327d\354\327"
  55      F4C753AF 
  55      707EBFCC 
  55      D764ECD7 
  56 0119 814C01A2 		.ascii	"\201L\001\242Nag\246Z\363zQ\336\203\316U\235\351\266"
  56      4E6167A6 
  56      5AF37A51 
  56      DE83CE55 
  56      9DE9B6
ARM GAS  C:\Users\pc\AppData\Local\Temp\cc4n66R4.s 			page 4


  57 012c F79C5C6A 		.ascii	"\367\234\\j\231+\004\006\026\020\350\021\317vr\332i"
  57      992B0406 
  57      1610E811 
  57      CF7672DA 
  57      69
  58 013d 568A5392 		.ascii	"V\212S\222\\<'f\220\305|\313b\344\037{\000\331\322W"
  58      5C3C2766 
  58      90C57CCB 
  58      62E41F7B 
  58      00D9D257 
  59 0151 13657967 		.ascii	"\023eyg\356\257\014\017\261\242{\377\364\3410[\340\012"
  59      EEAF0C0F 
  59      B1A27BFF 
  59      F4E1305B 
  59      E00A
  60 0163 5D937F0C 		.ascii	"]\223\177\014\221MS+w\315\3668yz\207\345\362)\235\247"
  60      914D532B 
  60      77CDF638 
  60      797A87E5 
  60      F2299DA7 
  61 0177 2968FF21 		.ascii	")h\377!\266ca\261\310#\314\240\314\264sZ\227N\012\204"
  61      B66361B1 
  61      C823CCA0 
  61      CCB4735A 
  61      974E0A84 
  62 018b F01DC7EE 		.ascii	"\360\035\307\356\"u\363A\366\350D\351T\367\365\004\212"
  62      2275F341 
  62      F6E844E9 
  62      54F7F504 
  62      8A
  63 019c 53D55F98 		.ascii	"S\325_\230\340\236\215e\204!\031++\215\375\336\271\352"
  63      E09E8D65 
  63      8421192B 
  63      2B8DFDDE 
  63      B9EA
  64 01ae 8090B508 		.ascii	"\200\220\265\010\303/N\341\0147?\"\2470\"\247\000\272"
  64      C32F4EE1 
  64      0C373F22 
  64      A73022A7 
  64      00BA
  65 01c0 27AB1EEC 		.ascii	"'\253\036\354\352y\030\250l\326\272\234\217C\256\307"
  65      EA7918A8 
  65      6CD6BA9C 
  65      8F43AEC7 
  66 01d0 78E4D629 		.ascii	"x\344\326)\307\317\203 \214\242R\015\372\336L\341\232"
  66      C7CF8320 
  66      8CA2520D 
  66      FADE4CE1 
  66      9A
  67 01e1 C65F7016 		.ascii	"\306_p\026\272\322M\030S\253\331=8|{qeK\021\255\334"
  67      BAD24D18 
  67      53ABD93D 
  67      387C7B71 
  67      654B11AD 
  68 01f6 FEEDCB9E 		.ascii	"\376\355\313\236\311\240B\177/\321\370\001:\317,\025"
  68      C9A0427F 
  68      2FD1F801 
ARM GAS  C:\Users\pc\AppData\Local\Temp\cc4n66R4.s 			page 5


  68      3ACF2C15 
  69 0206 523320BA 		.ascii	"R3 \272\203T\377\243\241/\252dw\035Brdw\017](\227C)"
  69      8354FFA3 
  69      A12FAA64 
  69      771D4272 
  69      64770F5D 
  70 021e 575BD0D7 		.ascii	"W[\320\3277s\255\274\351\251\343\347\0179\341\031\335"
  70      3773ADBC 
  70      E9A9E3E7 
  70      0F39E119 
  70      DD
  71 022f 9BBEFFE1 		.ascii	"\233\276\377\341\322\034>\201+\3748\307\317\344G\251"
  71      D21C3E81 
  71      2BFC38C7 
  71      CFE447A9 
  72 023f 810327CE 		.ascii	"\201\003'\316\376\374\330o\034\221\315\347\336v\305"
  72      FEFCD86F 
  72      1C91CDE7 
  72      DE76C5
  73 024e 228C2387 		.ascii	"\"\214#\207vQ\334\217?\257\244wk\305\350A\310E?\017"
  73      7651DC8F 
  73      3FAFA477 
  73      6BC5E841 
  73      C8453F0F 
  74 0262 A39D1795 		.ascii	"\243\235\027\225e]\200!e\345V\250\245f\267Y\214\022"
  74      655D8021 
  74      65E556A8 
  74      A566B759 
  74      8C12
  75 0274 37ED7E0E 		.ascii	"7\355~\016O\034\346\213\323\224\270\201\241\361Q\037"
  75      4F1CE68B 
  75      D394B881 
  75      A1F1511F 
  76 0284 0B69664A 		.ascii	"\013ifJn8\300 \\,j)d\256\376\022\364\252q(\210KJ\212"
  76      6E38C020 
  76      5C2C6A29 
  76      64AEFE12 
  76      F4AA7128 
  77 029c 268B4D70 		.ascii	"&\213Mp\261;Hg\367\364\011\217Z\363\330\217g\316\035"
  77      B13B4867 
  77      F7F4098F 
  77      5AF3D88F 
  77      67CE1D
  78 02af 0B48F620 		.ascii	"\013H\366 \200\237\230\207\005\024\336U\345K\212\345"
  78      809F9887 
  78      0514DE55 
  78      E54B8AE5 
  79 02bf 96BFA45A 		.ascii	"\226\277\244Z\341Y\265I\030\\A-\252|\021\363\273\340"
  79      E159B549 
  79      185C412D 
  79      AA7C11F3 
  79      BBE0
  80 02d1 DE7179FE 		.ascii	"\336qy\376\336y/\242\270\013s]7\006\203\377\330|Y\331"
  80      DE792FA2 
  80      B80B735D 
  80      370683FF 
  80      D87C59D9 
ARM GAS  C:\Users\pc\AppData\Local\Temp\cc4n66R4.s 			page 6


  81 02e5 7C45D95C 		.ascii	"|E\331\\\352\351U\317\323\353\217\336\357\257U5\210"
  81      EAE955CF 
  81      D3EB8FDE 
  81      EFAF5535 
  81      88
  82 02f6 66F9DAD6 		.ascii	"f\371\332\326=\342+\372*\035h\345j\374f\030Ven0\252"
  82      3DE22BFA 
  82      2A1D68E5 
  82      6AFC6618 
  82      56656E30 
  83 030b EB625B63 		.ascii	"\353b[c\221d\303\266X\302;\277\025\251Z\377\232\221"
  83      9164C3B6 
  83      58C23BBF 
  83      15A95AFF 
  83      9A91
  84 031d B00D2B69 		.ascii	"\260\015+i\330\226i\230uV\2646f'\255\3065&i\311\372"
  84      D8966998 
  84      7556B436 
  84      6627ADC6 
  84      352669C9 
  85 0332 B52F03C5 		.ascii	"\265/\003\305v\230\333\033\266E\031h7\332k\352\250l"
  85      7698DB1B 
  85      B6451968 
  85      37DA6BEA 
  85      A86C
  86 0344 E796ED0D 		.ascii	"\347\226\355\015\321\215\013\302\314D<\236\330a\324"
  86      D18D0BC2 
  86      CC443C9E 
  86      D861D4
  87 0353 27ACA46D 		.ascii	"'\254\244m\274\276\251\246\272f\027\343\315\204\025"
  87      BCBEA9A6 
  87      BA6617E3 
  87      CD8415
  88 0362 DDBC737D 		.ascii	"\335\274s}\234I\336\370?\360\350\256\244Q]\023y3\362"
  88      9C49DEF8 
  88      3FF0E8AE 
  88      A4515D13 
  88      7933F2
  89 0375 4C43DC8E 		.ascii	"LC\334\216\331\233kM\223)\226\325D6\205\266n\261\243"
  89      D99B6B4D 
  89      932996D5 
  89      443685B6 
  89      6EB1A3
  90 0388 F556ECD5 		.ascii	"\365V\354\325Px-i\026\225\307\243\361\204\325H\177\003"
  90      50782D69 
  90      1695C7A3 
  90      F184D548 
  90      7F03
  91 039a 18E3E64B 		.ascii	"\030\343\346K"
  92              		.text
  93              		.section	.gnu.lto_chRegNextThread.6ed94cce,"",%progbits
  94 0000 789C8D54 		.ascii	"x\234\215T\357OSg\024>\347\276\267\267\265\255\235\237"
  94      EF4F5367 
  94      143EE7BE 
  94      B7B7B5AD 
  94      9D9F
  95 0012 0D594AB2 		.ascii	"\015YJ\262\006M\026\257&\333\210\373`\262\361i\037\310"
ARM GAS  C:\Users\pc\AppData\Local\Temp\cc4n66R4.s 			page 7


  95      064D16AF 
  95      26DB88FB 
  95      60B2F169 
  95      1FC8
  96 0024 12FB0718 		.ascii	"\022\373\007\030\251\0154\241\224\364\026#\237\270\266"
  96      A90D34A1 
  96      94F41623 
  96      9FB8B6
  97 0033 658539B3 		.ascii	"e\2059\263\305\315\262`\205\356W\3248\374Q\320\015D"
  97      C5CDB260 
  97      85EE57D4 
  97      38FC51D0 
  97      0D44
  98 0045 ACE00045 		.ascii	"\254\340\000E\024k\235\254u\213\323\200\203ud.\013\231"
  98      146B9DAC 
  98      758BD380 
  98      8375642E 
  98      0B99
  99 0057 99633BEF 		.ascii	"\231c;\357{;\305\352p\375p\363\336\367\234\347<\347"
  99      7B3BC5EA 
  99      70FD70F3 
  99      DEF79CE7 
  99      3CE7
 100 0069 3CE7B955 		.ascii	"<\347\271U\000`\312\004\360\002\002\274Jg4\001J\037"
 100      0060CA04 
 100      F00202BC 
 100      4A673401 
 100      4A1F
 101 007b 5C01D86D 		.ascii	"\\\001\330m\221$\271\203\201ne\017.\001\350v\206\262"
 101      9124B983 
 101      816E650F 
 101      2E01E876 
 101      86B2
 102 008d 712F23F2 		.ascii	"q/#\362\203nAh\221\230\214-\370\036\373\210\341\265"
 102      836E4168 
 102      91988C2D 
 102      F81EFB88 
 102      E1B5
 103 009f E88904DB 		.ascii	"\350\211\004\333\303\022\014P\246\327\373\223\235w\035"
 103      C3120C50 
 103      A6D7FB93 
 103      9D771D
 104 00ae FC15D149 		.ascii	"\374\025\321I\257\205\205\321>\373\372C\272\036\326"
 104      AF8585D1 
 104      3EFBFA43 
 104      BA1ED6
 105 00bd D31D0FAD 		.ascii	"\323\035\017\255\007\372\246\364U\011&A\234\322\373"
 105      07FAA6F4 
 105      55092641 
 105      9CD2FB
 106 00cc B00C7BB1 		.ascii	"\260\014{\261\214\263\237\302\365\224|a\346a\306\306"
 106      8CB39FC2 
 106      F5947C61 
 106      E661C6C6 
 107 00dc 5E41A0F3 		.ascii	"^A\240\363DtbZ\251\370B\000\013\2373\375%B\341id\313"
 107      4474625A 
 107      A9F84200 
ARM GAS  C:\Users\pc\AppData\Local\Temp\cc4n66R4.s 			page 8


 107      0B9F33FD 
 107      2542E169 
 108 00f2 81BC107E 		.ascii	"\201\274\020~\205\025<\177:{\354\210\215U\012l\373B"
 108      85153C7F 
 108      3A7BEC88 
 108      8D550A6C 
 108      FB42
 109 0104 E61787EB 		.ascii	"\346\027\207\3533\201]:\272\366\223\210>\256\313\034"
 109      33815D3A 
 109      BAF69388 
 109      3EAECB1C 
 110 0114 FFF59378 		.ascii	"\377\365\223x\376\243\364;'\227\366\257Vd\354GW\222"
 110      FEA3F43B 
 110      2797F6AF 
 110      5664EC47 
 110      5792
 111 0126 016F8D3A 		.ascii	"\001o\215:\032@\005\037\305\242:\375\322\213=\212\270"
 111      1A40051F 
 111      C5A23AFD 
 111      D28B3D8A 
 111      B8
 112 0137 8F335C06 		.ascii	"\2173\\\006\003<C\251\203\250@Iz\376^\005\345\017\362"
 112      033C43A9 
 112      83A84049 
 112      7AFE5E05 
 112      E50FF2
 113 014a 7C89C7EE 		.ascii	"|\211\307\356\015\306\262\310\352\005\2660\333\226\226"
 113      0DC6B2C8 
 113      EA05B630 
 113      DB9696
 114 0159 8B1DDEEC 		.ascii	"\213\035\336\354Zw0\262g\257\236\014\257I0\206C+\364"
 114      5A7730B2 
 114      67AF9E0C 
 114      AF493086 
 114      432BF4
 115 016c 68145E38 		.ascii	"h\024^8Hi\347\320\005x\226\027gO4\223\246f\316S3\374"
 115      4869E7D0 
 115      05789617 
 115      674F3493 
 115      A666CE53 
 116 0182 41BB453E 		.ascii	"A\273E>\325\361\214)\255/\375\035\243\025\224\035M\315"
 116      D5F18C29 
 116      AD2FFD1D 
 116      A315941D 
 116      4DCD
 117 0194 155C7604 		.ascii	"\025\\v\004~/\221\2022\343\017\005\271\216fq\013\320"
 117      7E2F9182 
 117      32E30F05 
 117      B98E6671 
 117      0BD0
 118 01a6 460AD0AA 		.ascii	"F\012\320\252\3654\264S\353t\212\244a\026\245g4\336"
 118      F534B453 
 118      EB748AA4 
 118      6116A567 
 118      34DE
 119 01b8 B972E338 		.ascii	"\271r\3438\214.\002\305\346\364\2632\367\004C'\216P"
 119      8C2E02C5 
ARM GAS  C:\Users\pc\AppData\Local\Temp\cc4n66R4.s 			page 9


 119      E6F4B332 
 119      F7044327 
 119      8E50
 120 01ca EC670CDF 		.ascii	"\354g\014\3379\324q\"S\252\360\207\373lE\205\345\247"
 120      39D47122 
 120      53AAF087 
 120      FB6C4585 
 120      E5A7
 121 01dc D48C6D21 		.ascii	"\324\214m!\213^\3401Si\354z\327\272\003\214s\001~\363"
 121      8B5EE031 
 121      5369EC7A 
 121      D7BA038C 
 121      73017EF3 
 122 01f0 B422A324 		.ascii	"\264\"\243$\304\030Wd\214+\202\360;g\375\264;\365\207"
 122      C4185764 
 122      8C2B82F0 
 122      3B67FDB4 
 122      3BF587
 123 0203 B5BC55EA 		.ascii	"\265\274U\352\326?v&\214\212=w\317\350\026Y\242\256"
 123      D63F7626 
 123      8C8A3D77 
 123      CFE81659 
 123      A2AE
 124 0215 C7B15C88 		.ascii	"\307\261\\\210\376k!\233\227\350\006/\242,\372\006\274"
 124      FE6B219B 
 124      97E8062F 
 124      A22CFA06 
 124      BC
 125 0226 244C7E78 		.ascii	"$L~xhd\306^\336VD\213\315\377v,u\303&\320\023\034\215"
 125      6864C65E 
 125      DE56448B 
 125      CDFF762C 
 125      75C326D0 
 126 023d 975126CD 		.ascii	"\227Q&\315\302N\241\001\300<\206\007\036\014\2476\363"
 126      C24EA101 
 126      C03C8607 
 126      1E0CA736 
 126      F3
 127 024e E93A9999 		.ascii	"\351:\231\231\000\361\326\341\253f.\212$\03418<9\252"
 127      00F1D6E1 
 127      AB662E8A 
 127      241C3138 
 127      3C39AA
 128 0261 24B16B37 		.ascii	"$\261k7\015\224l\240\235\230;\231\202\223\234\224\242"
 128      0D946CA0 
 128      9D983B99 
 128      82939C94 
 128      A2
 129 0272 D9D8F40F 		.ascii	"\331\330\364\0176\265\207O\353\344\210+\230\304\375"
 129      36B5874F 
 129      EBE4882B 
 129      98C4FD
 130 0281 4C487C15 		.ascii	"LH|\025UN\224|QX\226\366G\345a\006\243\271\221\331/"
 130      554E947C 
 130      515896F6 
 130      47E56106 
 130      A3B991D9 
ARM GAS  C:\Users\pc\AppData\Local\Temp\cc4n66R4.s 			page 10


 131 0296 EDCFA0B3 		.ascii	"\355\317\240\263\010\272\376\376B\336\334\362\227n\241"
 131      08BAFEFE 
 131      42DEDCF2 
 131      976EA1
 132 02a5 8B24F999 		.ascii	"\213$\371\231\337\365E\356\357sP\013\230`\253\360\032"
 132      DFF545EE 
 132      EF73500B 
 132      9860ABF0 
 132      1A
 133 02b6 7DDF5345 		.ascii	"}\337SE\366\323c\267\376\264\030\354\311E\212Z1#\370"
 133      F6D363B7 
 133      FEB418EC 
 133      C9458A5A 
 133      3123F8
 134 02c9 D1F0E6E1 		.ascii	"\321\360\346\341\361\275\275\016\252\325F\341y\012\333"
 134      F1BDBD0E 
 134      AAD546E1 
 134      790ADB
 135 02d8 F03AF504 		.ascii	"\360:\365\004\230\305\026\341\202vZ\010\375\227\220"
 135      98C516E1 
 135      82765A08 
 135      FD9790
 136 02e7 89B80A73 		.ascii	"\211\270\012s\371V\305hK*\031\333)\2066\377\307\320"
 136      F956C568 
 136      4B2A19DB 
 136      298636FF 
 136      C7D0
 137 02f9 76BC2148 		.ascii	"v\274!H%>\364\267D0\217\221\370;s\314\250\305\214r\247"
 137      253EF4B7 
 137      44308F91 
 137      F83B73CC 
 137      A8C58C72 
 138 030e 62974F5A 		.ascii	"b\227OZ\371\224vD\274Iu\2101\373.\362\234R\215k\340"
 138      F9947644 
 138      BC497588 
 138      31FB2EF2 
 138      9C528D6B 
 139 0323 3974D38F 		.ascii	"9t\323\217\351\276C\225(\304(\362\262\357\301P\033\215"
 139      E9BE4395 
 139      28C428F2 
 139      B2EFC150 
 139      1B8D
 140 0335 F33961F5 		.ascii	"\3639a\365G2\3235\346\226[\335\370 \213\366[\352\376"
 140      4732D335 
 140      E6965BDD 
 140      F8208BF6 
 140      5BEAFE
 141 0348 71C8F6AF 		.ascii	"q\310\366\257\263r\302Yy\341\254R\033\3352lt\373\310"
 141      B372C259 
 141      79E1AC52 
 141      1BDD326C 
 141      74FBC8
 142 035b FB03B582 		.ascii	"\373\003\265\202\003\240\200\321\333\355?\231\370L%"
 142      03A080D1 
 142      DBED3F99 
 142      F84C25
 143 036a 9B5C1D27 		.ascii	"\233\\\035'/\002~O\272\223y\022\314\001\013d\214\343"
ARM GAS  C:\Users\pc\AppData\Local\Temp\cc4n66R4.s 			page 11


 143      2F027E4F 
 143      BA937912 
 143      CC010B64 
 143      8CE3
 144 037c 1D6B0D8D 		.ascii	"\035k\015\215\370\272\026I\027\032X\312\365^D\032\236"
 144      F8BA1649 
 144      171A58CA 
 144      F55E441A 
 144      9E
 145 038d E5529BE9 		.ascii	"\345R\233\351sG>\024\221n\362\274\256V\325\371j|\356"
 145      73473E14 
 145      916EF2BC 
 145      AE56D5F9 
 145      6A7CEE
 146 03a0 50D30E5F 		.ascii	"P\323\016_\3008\277\355\336T\371\232\032\320\324`H\325"
 146      C038BFED 
 146      DE54F99A 
 146      1AD0D460 
 146      48D5
 147 03b2 821ED553 		.ascii	"\202\036\325S\027\364\326\372\264P\260y\203\007\244"
 147      17F4D6FA 
 147      B450B079 
 147      8307A4
 148 03c1 50236B08 		.ascii	"P#k\0105n|\036\320\327\340\251o\332\341%\260\326\254"
 148      356E7C1E 
 148      D0D7E0A9 
 148      6FDAE125 
 148      B0D6AC
 149 03d4 6DA803D3 		.ascii	"m\250\003\323\316\355\365M\336-+\302<\001\277?\320\240"
 149      CEEDF54D 
 149      DE2D2BC2 
 149      3C01BF3F 
 149      D0A0
 150 03e6 36068221 		.ascii	"6\006\202!M}ckuU\365.\302{\002A\357\266\235\225~*\362"
 150      4D7D636B 
 150      7555F52E 
 150      C27B0241 
 150      EFB69D95 
 151 03fd E6FF817B 		.ascii	"\346\377\201{w\205\324\252j\367[\356\307=\3705\237\266"
 151      7785D4AA 
 151      6AF75BEE 
 151      C73DF835 
 151      9FB6
 152 040f ADD6E3A1 		.ascii	"\255\326\343\241\022k\252\335[\2355\3335oc\320\367\262"
 152      126BAADD 
 152      5B9D35DB 
 152      356F63D0 
 152      F7B2
 153 0421 D3B511A4 		.ascii	"\323\265\021\244 \230\375^\177 \330\014\377\000\202"
 153      2098FD5E 
 153      7F20D80C 
 153      FF0082
 154 0430 6C3BF8   		.ascii	"l;\370"
 155              		.text
 156              		.section	.gnu.lto_chRegFindThreadByName.6ed94cce,"",%progbits
 157 0000 789CA556 		.ascii	"x\234\245V\353O\024W\024\277g\356\354\203\335e\261\266"
 157      EB4F1457 
ARM GAS  C:\Users\pc\AppData\Local\Temp\cc4n66R4.s 			page 12


 157      14BF67EE 
 157      EC83DD65 
 157      B1B6
 158 0012 31D69806 		.ascii	"1\326\230\006\023\215\2174\256&m\015}\245\326O\375@"
 158      138D8F34 
 158      AE266D0D 
 158      7DA5D64F 
 158      FD40
 159 0024 9BC81F60 		.ascii	"\233\310\037`t%B#\217\356.F?1\362( U[\037h\326U\266"
 159      74254223 
 159      8FEE2E46 
 159      3F31F228 
 159      20555B1F 
 160 003c 562BC647 		.ascii	"V+\306G\025\321\002\242\256\340\003\025E)\242\005\213"
 160      15D102A2 
 160      AEE00315 
 160      4529A205 
 160      8B
 161 004d 28050456 		.ascii	"(\005\004V\020\255\250\250k\317\2713\310\002\013\222"
 161      10ADA8A8 
 161      6BCFB933 
 161      C8020B92 
 162 005d 763FCCDE 		.ascii	"v?\314\336;s\316\357\374\356y\374f\364\2141\243\205"
 162      3B73CEEF 
 162      FCEE79FC 
 162      66F48C31 
 162      A385
 163 006f B1AF81B1 		.ascii	"\261\257\201\261\357p\015a\014\244\037\2570\266\332"
 163      EF700D61 
 163      0CA41FAF 
 163      30B6DA
 164 007e 28015717 		.ascii	"(\001W\027\\2t\351\230b\222wV2\246XdI\277+\034\267:"
 164      5C3274E9 
 164      98629277 
 164      5632A658 
 164      6449BF2B 
 165 0095 BF8FB63A 		.ascii	"\277\217\266:\320\253fz\311(\014L\302\332bT\335\347"
 165      D0AB667A 
 165      C9280C4C 
 165      C2DA6254 
 165      DDE7
 166 00a7 1B00E85F 		.ascii	"\033\000\350_1\002K\225\270\254\323\033\015\200\013"
 166      31024B95 
 166      B8ACD31B 
 166      0D800B
 167 00b6 A6FD7EE0 		.ascii	"\246\375~\340\2338\\\3138\344\341\271\334\303\031\310"
 167      9B385CCB 
 167      38E4E1B9 
 167      DCC319C8 
 168 00c6 B8EDB9EC 		.ascii	"\270\355\271\354n\266\322\026 \022\267\376\256sE\226"
 168      6EB6D216 
 168      2012B7FE 
 168      AE734596 
 169 00d6 997B1425 		.ascii	"\231{\024%M\361m\331d\335VtU\011\363p\211\345\241y\021"
 169      4DF16DD9 
 169      64DD5674 
 169      5509F370 
ARM GAS  C:\Users\pc\AppData\Local\Temp\cc4n66R4.s 			page 13


 169      89E5A179 
 170 00eb 4C862330 		.ascii	"L\206#0\231\230\037\205\231h\234v\367X\035\360\017\200"
 170      99981F85 
 170      99689C76 
 170      F7581DF0 
 170      0F80
 171 00fd E1FAECE9 		.ascii	"\341\372\354\351\202\276\360\351\273\205\243\1777W\246"
 171      82BEF0E9 
 171      BB85A37F 
 171      3757A6
 172 010c 7A388763 		.ascii	"z8\207c\300\203\035\361\026\203\337a:\331W\005\212\252"
 172      C0831DF1 
 172      1683DF61 
 172      3AD95705 
 172      8AAA
 173 011e 4D3C4AF8 		.ascii	"M<J\370\256\271}\352\211a\332/\302\267\261x\322\317"
 173      AEB97DEA 
 173      8961DA2F 
 173      C2B7B178 
 173      D2CF
 174 0130 E94AA522 		.ascii	"\351J\245\"cT(\036\354O?4\277{8\2609\\/C\011L#^H\247"
 174      6354281E 
 174      EC4F3F34 
 174      BF7B38B0 
 174      395C2F43 
 175 014a 14F4123E 		.ascii	"\024\364\022>8\323\362\242\306\314?\023\230\235\331"
 175      38D3F2A2 
 175      C6CC3F13 
 175      989DD9
 176 0159 957B8C1A 		.ascii	"\225{\214\032f]\361\204\001\314\343\243`f(\370\3635"
 176      665DF184 
 176      01CCE3A3 
 176      606628F8 
 176      F335
 177 016b 968C0728 		.ascii	"\226\214\007(Cp\302\315\343\002\356f\355\301\275f\376"
 177      4370C2CD 
 177      E302EE66 
 177      EDC1BD66 
 177      FE
 178 017c 8558E774 		.ascii	"\205X\347t\325\334\267j\320\201}AtO\216J\367\024!\236"
 178      D5DCB76A 
 178      D0817D41 
 178      744F8E4A 
 178      F714219E 
 179 0190 003DF840 		.ascii	"\000=\370@?4d\357\001=\243\373y\230\352\001\027\006"
 179      3F3464EF 
 179      013DA3FB 
 179      7998EA01 
 179      1706
 180 01a2 A7D1BC7C 		.ascii	"\247\321\274|\270y\363\326O\343\031=\310\303\214\342"
 180      B879F3D6 
 180      4FE3193D 
 180      C8C38CE2 
 181 01b2 B3B6B2AC 		.ascii	"\263\266\262\254Z\340)\202\235\2775\333'k\354n\347\317"
 181      5AE02982 
 181      9DBF35DB 
 181      276BEC6E 
ARM GAS  C:\Users\pc\AppData\Local\Temp\cc4n66R4.s 			page 14


 181      E7CF
 182 01c4 D89E9EBB 		.ascii	"\330\236\236\273V\361\246\215\363p\031\316\274\361\350"
 182      56F1A68D 
 182      F37019CE 
 182      BCF1E8
 183 01d3 5DDBB16A 		.ascii	"]\333\261jg\211h\005\201\313\203\310\234C2\347\221\014"
 183      67896805 
 183      81CB83C8 
 183      9C4332E7 
 183      910C
 184 01e5 5D86F86D 		.ascii	"]\206\370m\361X\015Z\272tC\263\037(\2304\266\354\313"
 184      F1580D5A 
 184      BA7443B3 
 184      1F289834 
 184      B6ECCB
 185 01f8 70812257 		.ascii	"p\201\"Wb\230\213!R\264\027#_\034\236\242Kh^5R\212\252"
 185      62988B21 
 185      52B41723 
 185      5F1C9EA2 
 185      4B685E35 
 186 020f 5EA7E8FF 		.ascii	"^\247\350\377\247\345\012\221\273<<-\325H\340*\245\005"
 186      A7E50A91 
 186      BB3C3C2D 
 186      D548E02A 
 186      A505
 187 0221 2F38D99C 		.ascii	"/8\331\234\372\222NB\005\377\255F\347S\002\257\2620"
 187      FA924E42 
 187      05FFAD46 
 187      E75302AF 
 187      B230
 188 0233 43EF14D7 		.ascii	"C\357\024\327\265\347O\237\0108\005:\211\221\021\307"
 188      B5E74F9F 
 188      0838053A 
 188      899111C7 
 189 0243 A5846943 		.ascii	"\245\204iC[#\320\\\204\321\204\230\360\2427\323\305"
 189      5B23D05C 
 189      84D18498 
 189      F0A237D3 
 189      C5
 190 0254 C208229C 		.ascii	"\302\010\"\234\226V\272D\210=c\331\330\363\273\314\212"
 190      9656BA44 
 190      883D63D9 
 190      D8F3BBCC 
 190      8A
 191 0265 8FE5602A 		.ascii	"\217\345`*v\231\323}\254\025\244\020gt\217~F\270\006"
 191      7699D37D 
 191      AC15A410 
 191      67748F7E 
 191      46B806
 192 0278 D3D029AB 		.ascii	"\323\320)\253]9!\223\000\310\020\0115\370\254\023\347"
 192      5D392193 
 192      00C81009 
 192      35F8AC13 
 192      E7
 193 0289 BA73CBA1 		.ascii	"\272s\313\241\032\030\222\204\215\205&\255\000!\222"
 193      1A189284 
 193      8D8526AD 
ARM GAS  C:\Users\pc\AppData\Local\Temp\cc4n66R4.s 			page 15


 193      002192
 194 0298 1DB988C1 		.ascii	"\035\271\210\301\037\364\3140\364YC\376\214m\234b1\250"
 194      1FF4CC30 
 194      F45943FE 
 194      8C6D9C62 
 194      31A8
 195 02aa 1D9EBCEB 		.ascii	"\035\236\274\353\230\263:J^\035%\017\330K\212\2723\277"
 195      98B33A4A 
 195      5E1D250F 
 195      D84B8ABA 
 195      33BF
 196 02bc F0A969CA 		.ascii	"\360\251i\312:)_\331\032\351Q\021\0174\037W\214\262"
 196      3A295FD9 
 196      1AE95111 
 196      0F341F57 
 196      8CB2
 197 02ce 84AC6FC0 		.ascii	"\204\254o\300\024Q\237\007\376\332\006\011\357\300M"
 197      14519F07 
 197      FEDA0609 
 197      EFC04D
 198 02dd 90056F06 		.ascii	"\220\005o\006\177\012E+8Y\321b\231\362\223\346m$\333"
 198      7F0A452B 
 198      3859D162 
 198      99F293E6 
 198      6D24DB
 199 02f0 87070BAF 		.ascii	"\207\007\013\257\233\205w=yC\003\310\230\263\264H\221"
 199      9B85773D 
 199      794303C8 
 199      98B3B448 
 199      91
 200 0301 03C63A20 		.ascii	"\003\306: \255\364Y\371\257s\351tnn@\207\274\314\362"
 200      ADF459F9 
 200      AF73E974 
 200      6E6E4087 
 200      BCCCF2
 201 0314 6A032525 		.ascii	"j\003%%L\314TI\211\277\301\220\372R1\342\015/W\373\243"
 201      4CCC5449 
 201      89BFC190 
 201      FA5231E2 
 201      0D2F57FB 
 202 0329 28BD6783 		.ascii	"(\275g\203\325\013;\300\303M\360\027\244\302-\342\200"
 202      D50B3BC0 
 202      C34DF017 
 202      A4C22DE2 
 202      80
 203 033a 0F8E9DBF 		.ascii	"\017\216\235\277\365\334h;@\207\367~\353\341fh\004/"
 203      F5DC683B 
 203      4087F77E 
 203      EBE16668 
 203      042F
 204 034c 6C462FEA 		.ascii	"lF/\352l2\350\273\221\236)i\006;\201\246\3426\3306\243"
 204      6C32E8BB 
 204      919E2969 
 204      063B81A6 
 204      E236D836 
 205 0361 CE080368 		.ascii	"\316\010\003h\002\033\221\363N\":\324\034HIPl\367\354"
 205      021B91F3 
ARM GAS  C:\Users\pc\AppData\Local\Temp\cc4n66R4.s 			page 16


 205      4E223AD4 
 205      1C484950 
 205      6CF7EC
 206 0374 0695A229 		.ascii	"\006\225\242)\230\242$(\226\225_>\247W\351X\320\001"
 206      98A22428 
 206      96955F3E 
 206      A757E958 
 206      D001
 207 0386 EE686C6A 		.ascii	"\356hlj\263n6\232\325`\230\215p\270+\310HZ\254f\214"
 207      B36E369A 
 207      D560988D 
 207      70B82BC8 
 207      485AAC66 
 208 039b D501E979 		.ascii	"\325\001\351y\337\227p\025\331\254\202\037\315\252:"
 208      DF977015 
 208      D9AC821F 
 208      CDAA3A
 209 03aa 6C22F070 		.ascii	"l\"\360p\000\370\033\2410~\355\032\021}l\261\274\023"
 209      00F81BA1 
 209      307EED1A 
 209      117D6CB1 
 209      BC13
 210 03bc C8B76550 		.ascii	"\310\267eP\260V\260a\000\321\2544L\301g\220\361\360"
 210      B056B061 
 210      00D1AC34 
 210      4CC16790 
 210      F1F0
 211 03ce 6DC1BDA7 		.ascii	"m\301\275\247\016\223\326\017\201\374;'\315\375\245"
 211      0E93D60F 
 211      81FC3B27 
 211      CDFDA5
 212 03dd 6E13A5BE 		.ascii	"n\023\245\276'J=\264\256\355j]\233\356\257/]&b0\261"
 212      274A3DB4 
 212      AEED6A5D 
 212      9BEEAF2F 
 212      5D266230 
 213 03f2 CD5DD706 		.ascii	"\315]\327\006$NB_D\341\305\216\336\037\370\313A\201"
 213      244E425F 
 213      44E1C58E 
 213      DE1FF8CB 
 213      4181
 214 0404 C0B7A636 		.ascii	"\300\267\2466Ft\327\215\224\361\300/L\314\315\3030\314"
 214      4674D78D 
 214      94F1C02F 
 214      4CCCCDC3 
 214      30CC
 215 0416 A3FD37D6 		.ascii	"\243\3757\326\213lXa\"n\273\375;6J\352\3619\232B\207"
 215      8B6C5861 
 215      226EBBFD 
 215      3B364AEA 
 215      F1399A42 
 216 042b 60D48967 		.ascii	"`\324\211g\025uk\366\274K\360h\270\2515\373q\304\254"
 216      15756BF6 
 216      BC4BF068 
 216      B8A935FB 
 216      71C4AC
 217 043e 02310681 		.ascii	"\0021\006\201J\311\3555\322\253T\375\201\037fQ\034m"
ARM GAS  C:\Users\pc\AppData\Local\Temp\cc4n66R4.s 			page 17


 217      4AC9ED35 
 217      D2AB54FD 
 217      811F6651 
 217      1C6D
 218 0450 748305B3 		.ascii	"t\203\005\263\372\322\324}\275\367\024e\203\002#H&\334"
 218      FAD2D47D 
 218      BDF71465 
 218      83022348 
 218      26DC
 219 0462 47794100 		.ascii	"GyA\000\346\207\314\246\334\255{\364\024\320\315ap\253"
 219      E687CCA6 
 219      DCAD7BF4 
 219      14D0CD61 
 219      70AB
 220 0474 46E461F7 		.ascii	"F\344a\3673\350\202T:\207\233\343\255q\254\0052\352"
 220      33E88254 
 220      3A879BE3 
 220      AD71AC05 
 220      32EA
 221 0486 2BCE80E6 		.ascii	"+\316\200\346\000\263\004`/HXG\251\2769\312\315#\214"
 221      00B30460 
 221      2F485847 
 221      A9BE39CA 
 221      CD238C
 222 0499 7DAD1700 		.ascii	"}\255\027\000\263\"3\374\304\350\317J\231\232\225\377"
 222      B32233FC 
 222      C4E8CF4A 
 222      999A95FF 
 223 04a9 2634DDC8 		.ascii	"&4\335\310vTe\331`\326\336~#(\313\203Q\224\245\233\224"
 223      765465D9 
 223      60D6DE7E 
 223      2328CB83 
 223      5194A59B 
 224 04be A567B8B2 		.ascii	"\245g\270\262<\304\012?\242\266{\024\324I!D\343\237"
 224      3CC40A3F 
 224      A2B67B14 
 224      D4492144 
 224      E39F
 225 04d0 909DF4F8 		.ascii	"\220\235\364\370\265Bt\017(Da\024\261ts\313\260\031"
 225      B542740F 
 225      28446114 
 225      B17473CB 
 225      B019
 226 04e2 9042CE40 		.ascii	"\220B\316@\"\225\257W\314\000\027\257~\006O\264\341"
 226      2295AF57 
 226      CC0017AF 
 226      7E064FB4 
 226      E1
 227 04f3 7E8F9048 		.ascii	"~\217\220H\316\021M\255I\353~\313\000\372\033\005\347"
 227      CE114DAD 
 227      49EB7ECB 
 227      00FA1B05 
 227      E7
 228 0504 E90882D3 		.ascii	"\351\010\202\323\013\2448\317\372\025\347\204\2528\005"
 228      0BA438CF 
 228      FA15E784 
 228      AA3805
ARM GAS  C:\Users\pc\AppData\Local\Temp\cc4n66R4.s 			page 18


 229 0513 956B8F58 		.ascii	"\225k\217X\021.\033-:\320\342-\350\003\233J\3509v\207"
 229      112E1B2D 
 229      3AD0E22D 
 229      E8039B4A 
 229      E8397687 
 230 0527 3A053A16 		.ascii	":\005:\026\370\004\313-\224\246!S\257\222\011\037vT"
 230      F804CB2D 
 230      94A62153 
 230      AF92091F 
 230      7654
 231 0539 CB88D2F2 		.ascii	"\313\210\322\362\242\177\332\005\360\313~ii\347*\224"
 231      A27FDA05 
 231      F0CB7E69 
 231      69E72A94 
 232 0549 15D182B5 		.ascii	"\025\321\202\265\304\027BKB\202{\227\020z`\020\372+"
 232      C417424B 
 232      42827B97 
 232      107A6010 
 232      FA2B
 233 055b D212ABE0 		.ascii	"\322\022\253\340\255\017\356S\221\321\010u\215\3371"
 233      AD0FEE53 
 233      91D10875 
 233      8DDF31
 234 056a 4344E5FC 		.ascii	"CD\345\374\350\242\242H\241Za\265\024,*\364q\204c\227"
 234      E8A2A248 
 234      A15A61B5 
 234      142C2AF4 
 234      71846397 
 235 057e D194734F 		.ascii	"\321\224sO\327\377%\027T\255\361y\370\312\020\014\323"
 235      D7FF2517 
 235      54ADF179 
 235      F8CA100C 
 235      D3
 236 058f 241A3BC9 		.ascii	"$\032;\311\303\337\026\005\357VUA|W\016H\320\251\341"
 236      C3DF1605 
 236      EF565541 
 236      7C570E48 
 236      D0A9E1
 237 05a2 8284CDD0 		.ascii	"\202\204\315\320P\321Z\242\215t\204\232\020\032Q\261"
 237      50D15AA2 
 237      8D74849A 
 237      101A51B1 
 238 05b2 94EB8F5C 		.ascii	"\224\353\217\\\000\314\223\256\2760\012?\004\214\314"
 238      00CC93AE 
 238      BE300A3F 
 238      048CCC
 239 05c1 5FCE2007 		.ascii	"_\316 \007gC|\007t\341\261\335\234\013s\222&^\332\332"
 239      67437C07 
 239      74E1B1DD 
 239      9C0B7392 
 239      265EDADA 
 240 05d5 03E4A6AF 		.ascii	"\003\344\246\257o\273\006h\017h\207'\233k\377\330\266"
 240      6FBB0668 
 240      0F688727 
 240      9B6BFFD8 
 240      B6
 241 05e6 202E7E49 		.ascii	" .~I|\214+ei|\222\272\376&f\356\274\217lIN\233\303e"
ARM GAS  C:\Users\pc\AppData\Local\Temp\cc4n66R4.s 			page 19


 241      7C8C2B65 
 241      697C92BA 
 241      FE2666EE 
 241      BC8F6C49 
 242 05fe 733AEC36 		.ascii	"s:\3546{\234#vY\274\323\345X5\333\316\344\304\305\011"
 242      7B9C2376 
 242      59BCD3E5 
 242      5835DBCE 
 242      E4C4C509 
 243 0612 B1DCEE4A 		.ascii	"\261\334\356J\226\\\311<\321\225<\347M\010\361\211\366"
 243      965CC93C 
 243      D1953CE7 
 243      4D08F189 
 243      F6
 244 0623 E5294B63 		.ascii	"\345)Kc\021\305\271\3129;\216\351V,^\236\022\373\371"
 244      11C5B9CA 
 244      393B8EE9 
 244      562C5E9E 
 244      12FBF9
 245 0636 A86EF6A4 		.ascii	"\250n\366\244\204\204\244D[r\222\303\345\264\315_\030"
 245      8484A444 
 245      5B7292C3 
 245      E5B4CD5F 
 245      18
 246 0647 BD207A25 		.ascii	"\275 z%\372\333\223\034\261\213V\314K@\220/\307\342"
 246      FADB931C 
 246      B18B56CC 
 246      4B40902F 
 246      C7E2
 247 0659 1EBBD265 		.ascii	"\036\273\322e[\020\035\363U\314\000\207\004g\274s\321"
 247      5B101DF3 
 247      55CC0087 
 247      0467BC73 
 247      D1
 248 066a 32BB1D21 		.ascii	"2\273\035!\306E\307,\214\\\262\330\031\233\354\210\177"
 248      C645C72C 
 248      8C5CB2D8 
 248      199BEC88 
 248      7F
 249 067b 3F72DA1C 		.ascii	"?r\332\034&9\230!!6!\311\261\212}8\366C\275NM\034\373"
 249      26399821 
 249      213621C9 
 249      B18A7D38 
 249      F643BD4E 
 250 0692 17FA754D 		.ascii	"\027\372uM\205"
 250      85
 251              		.text
 252              		.section	.gnu.lto_chRegFindThreadByPointer.6ed94cce,"",%progbits
 253 0000 789CA556 		.ascii	"x\234\245V\355OSW\030?\317=\267\267\245/\314l\211\311"
 253      ED4F5357 
 253      183FCF3D 
 253      B7B7A52F 
 253      CC6C89C9 
 254 0014 98593019 		.ascii	"\230Y0\031A\223\305j\262\3148\023\023\347\247} K\344"
 254      4193C56A 
 254      B2CC3813 
 254      13E7A77D 
ARM GAS  C:\Users\pc\AppData\Local\Temp\cc4n66R4.s 			page 20


 254      204BE4
 255 0027 0F305A1B 		.ascii	"\0170Z\033\355\"\224\265\325\350'\356\000\007\370\222"
 255      ED2294B5 
 255      D5E827EE 
 255      0007F892 
 256 0037 2D6EE252 		.ascii	"-n\342R+vN\247f\323)\242\016Z\241\202C\030\276\262:"
 256      2B764EA7 
 256      66D329A2 
 256      0E5AA182 
 256      4318BEB2 
 257 004c 19385F07 		.ascii	"\0318_\007X\254\235\210\303\327u{\236s\213\024Z\252"
 257      58AC9D88 
 257      C3D7757B 
 257      9E738B14 
 257      5AAA
 258 005e D96EC2E5 		.ascii	"\331n\302\345\234{\236\227\337\371=\317\357\234*\214"
 258      9C7B9E97 
 258      DFF93DCF 
 258      EF9C2A8C 
 259 006e B1374C8C 		.ascii	"\2617L\214\275\006\214}\214c\310b }~\216\261O\014\022"
 259      BD068C7D 
 259      8C63C862 
 259      207D7E8E 
 259      B14F0C12 
 260 0082 706DC025 		.ascii	"pm\300%}L\307T\243\274\253\2351\325,K\312n\013Nu\321"
 260      7D4CC754 
 260      A3BCAB9D 
 260      31D52C4B 
 260      CA6E0B4E 
 261 0098 104D75A0 		.ascii	"\020Mu\240hf\212d\020\006Fam6h\356\013\365\000\364_"
 261      68668A64 
 261      10064661 
 261      6D3668EE 
 261      0BF500F4 
 262 00ad 35002B95 		.ascii	"5\000+\225\270\254S\014z\300\001K<\233\370\227\034."
 262      B8AC530C 
 262      7AC0014B 
 262      3C9BF897 
 262      1C2E
 263 00bf 561CF2F1 		.ascii	"V\034\362\361\215\334\307\031\3108\035:\353\275\225"
 263      8DDCC719 
 263      C8381D3A 
 263      EBBD95
 264 00ce 4D53805C 		.ascii	"MS\200\\\234Fcm\365\346\231{U\265L\015m{\222\275\275"
 264      9C46636D 
 264      F5E6997B 
 264      55B54C0D 
 264      6D7B92BD 
 265 00e3 FE829AE5 		.ascii	"\376\202\232\345\343\022\253A\363z\230\006G`\032!?\012"
 265      E312AB41 
 265      F37A9806 
 265      47601A21 
 265      3F0A
 266 00f5 33D1F854 		.ascii	"3\321\370T\337\263.\023\177\007\030\216;+:\273\225\374"
 266      DFB32E13 
 266      7F07188E 
 266      3B2B3ABB 
ARM GAS  C:\Users\pc\AppData\Local\Temp\cc4n66R4.s 			page 21


 266      95FC
 267 0107 3DC2F1C1 		.ascii	"=\302\361\301\036\256\276\205^p\014x\262#\005\202\343"
 267      1EAEBE85 
 267      5E700C78 
 267      B2230582 
 267      E3
 268 0118 904FF667 		.ascii	"\220O\366g\342\365\347\215|\256\360\335p\255\371\241"
 268      E2F5E78D 
 268      7CAEF0DD 
 268      70ADF9A1 
 269 0128 3EEF1BE1 		.ascii	">\357\033\341;\022\310\371\272\\mWe\362\377q\274?=h"
 269      3B12C8F9 
 269      BA5C6D57 
 269      65F2FF71 
 269      BC3F3D68 
 270 013c 7EF3707C 		.ascii	"~\363p|\253E\221\241\001\362\010\027\302i\004E\302\205"
 270      AB4591A1 
 270      01F20817 
 270      C2690445 
 270      C285
 271 014e 3B55ED7B 		.ascii	";U\355{\015\2118\261\300\324\2618\3072\304\251P\361"
 271      0D8938B1 
 271      C0D4B138 
 271      C732C4A9 
 271      50F1
 272 0160 098D045F 		.ascii	"\011\215\004_\005\010`@\212U\303\005\254\356\360\301"
 272      05086040 
 272      8A55C305 
 272      ACEEF0C1 
 273 0170 FD263E5F 		.ascii	"\375&>_\214\253c]w\263\023\241\343\337%A<\221\021b\023"
 273      8CAB635D 
 273      77B313A1 
 273      E3DF2541 
 273      3C911162 
 274 0185 450C8202 		.ascii	"E\014\202\002\315\240\244\244<\2400\372^\203\254\214"
 274      CDA0A4A4 
 274      3CA030FA 
 274      5E83AC8C 
 275 0195 B93008A1 		.ascii	"\2710\010\241\371\311T\363\247\003\371h\177\222\354"
 275      F9C954F3 
 275      A703F968 
 275      7F92EC
 276 01a4 39AD0D04 		.ascii	"9\255\015\004+\303\300K\004\272h\177UHN\240{X;cG\371"
 276      2BC3C04B 
 276      04BA687F 
 276      55484EA0 
 276      7B583B63 
 277 01ba C6CDAABF 		.ascii	"\306\315\252\277l\212\217sh}\341\326c;\320\354\024\001"
 277      6C8A8F73 
 277      687DE1D6 
 277      633BD0EC 
 277      1401
 278 01cc 6DA1E0F2 		.ascii	"m\241\340\36280?!\2306\004C\257\011~\333\266\274\242"
 278      38303F21 
 278      98360443 
 278      AF097EDB 
 278      B6BCA2
ARM GAS  C:\Users\pc\AppData\Local\Temp\cc4n66R4.s 			page 22


 279 01df 4FD0A563 		.ascii	"O\320\245c\023\330\217\357\313y9\366eh\247\314\2471"
 279      13D88FEF 
 279      CB7939F6 
 279      6568A7CC 
 279      A731
 280 01f1 4D471A8A 		.ascii	"MG\032\212\366c\346\216T\212~F\363\316\311(\352|N\321"
 280      F663E68E 
 280      548A7E46 
 280      F3CEC928 
 280      EA7C4ED1 
 281 0205 FFA7E52C 		.ascii	"\377\247\345,\201;\223J\3139\004p\236h\301\027\252\231"
 281      813B934A 
 281      CB390470 
 281      9E68C117 
 281      AA99
 282 0217 532FD24E 		.ascii	"S/\322N\250\340?t\351Bj\374\237Jd('\020\216\364\344"
 282      A8E03F74 
 282      E9426AFC 
 282      9F4A6428 
 282      27108EF4 
 283 022c 4F0546EB 		.ascii	"O\005F\353\022\365\277\002$\000\344\015\215\015\370"
 283      12F5BF02 
 283      2400E40D 
 283      8D0DF8
 284 023b 41CEA297 		.ascii	"A\316\242\227\221\221\243\211\206fzY\304\234\261*\354"
 284      9191A389 
 284      86667A59 
 284      C49CB12A 
 284      EC
 285 024c EEDD2635 		.ascii	"\356\335&5\304\252\221\200\335\246\362\020\353\007)"
 285      C4AA9180 
 285      DDA6F210 
 285      EB0729
 286 025b CDCEBC99 		.ascii	"\315\316\274\231w\006\027 \017\235*#\352\011\231\244"
 286      77061720 
 286      0F9D2A23 
 286      EA0999A4 
 287 026b CE21172E 		.ascii	"\316!\027.\342\332\035(\273y|\333\241.\230\260\365/"
 287      E2DA1D28 
 287      BB797CDB 
 287      A12E98B0 
 287      F52F
 288 027d EA8C09DA 		.ascii	"\352\214\011\332S)\256\\\240c\320Ek\372\211k\303\265"
 288      5329AE5C 
 288      A063D045 
 288      6BFA896B 
 288      C3B5
 289 028f 33B673CA 		.ascii	"3\266s\312\305\340\227T\312\302\310\324%\242\354\022"
 289      C5E09754 
 289      CAC2C8D4 
 289      25A2EC12 
 290 029f 5106EC11 		.ascii	"Q\006\354\021e\335\265\263\356\221qz\265\264S\375*\327"
 290      65DDB5B3 
 290      EE91717A 
 290      B5B453FD 
 290      2AD7
 291 02b1 A7B5D181 		.ascii	"\247\265\321\201[\001\325 K\210\372W\230.\252r/\032"
ARM GAS  C:\Users\pc\AppData\Local\Temp\cc4n66R4.s 			page 23


 291      5B01D520 
 291      4B88FA57 
 291      982EAA72 
 291      2F1A
 292 02c3 EE95F00B 		.ascii	"\356\225\360\013\\\006Y\340f\320-\316\256}M\255}\346"
 292      5C0659E0 
 292      66D02DCE 
 292      AE7D4DAD 
 292      7DE6
 293 02d5 E99B12DE 		.ascii	"\351\233\022\336\002\353\375\203u\227L\302\3737\362"
 293      02EBFD83 
 293      75974CC2 
 293      FB37F2
 294 02e4 861E9091 		.ascii	"\206\036\220\221\263\262\\\301\001c\203P\326\370\270"
 294      B3B25CC1 
 294      01638350 
 294      D6F8B8
 295 02f3 E5DB39B4 		.ascii	"\345\3339\264;/\327\243C\315\372\226\363z\"E/\224\324"
 295      3B2FD7A3 
 295      43CDFA96 
 295      F37A2245 
 295      2F94D4
 296 0306 D010EDD5 		.ascii	"\320\020\355\325\227\376\255\032\360\203\237k]Q_>\264"
 296      97FEAD1A 
 296      F0839F6B 
 296      5D515F3E 
 296      B4
 297 0317 25DB0FB5 		.ascii	"%\333\017\265\340\343\006\270\002\245\320K\030p\341"
 297      E0E306B8 
 297      02A5D04B 
 297      1870E1
 298 0326 D8E92B4F 		.ascii	"\330\351+O\015\326\003\264y\377G>\236\005\277\203\037"
 298      0DD603B4 
 298      79FF473E 
 298      9E05BF83 
 298      1F
 299 0337 B6A217F5 		.ascii	"\266\242\027\3653\031<\271\\\276^J\030\354\002\322\302"
 299      33193CB9 
 299      5CBE5E4A 
 299      18EC02D2 
 299      C2
 300 0348 55B06EC5 		.ascii	"U\260n\305\323E\030\3005\260\0228\177\016\301\241\216"
 300      D34518C0 
 300      35B01238 
 300      7F0EC1A1 
 300      8E
 301 0359 40480262 		.ascii	"@H\002b\304\267\0074\210\206d\210\222\200\030l9\333"
 301      C4B70734 
 301      88866488 
 301      9280186C 
 301      39DB
 302 036b A668708C 		.ascii	"\246hp\214\350\000\327\023h\302\225\335WMZ2d\303\004"
 302      E800D713 
 302      68C295DD 
 302      574D5A32 
 302      64C304
 303 037e 37041829 		.ascii	"7\004\030)\221\353&\346\032\204\362\232O\033\270\026"
ARM GAS  C:\Users\pc\AppData\Local\Temp\cc4n66R4.s 			page 24


 303      91EB26E6 
 303      1A84F29A 
 303      4F1BB816 
 304 038e 394B0B7E 		.ascii	"9K\013~\264\362\314a#\0057\001\300-\014\205\371\303"
 304      B4F2CC61 
 304      23053701 
 304      C02D0C85 
 304      F9C3
 305 03a0 1B44F697 		.ascii	"\033D\366\227\313\345\237J\276\177\214K\326\007VL \232"
 305      CBE59F4A 
 305      BE7F8C4B 
 305      D607564C 
 305      209A
 306 03b2 952494BC 		.ascii	"\225$\224\274\007\332|\177r\357i\022J\364C|\347\215"
 306      07DA7C7F 
 306      72EF6912 
 306      4AF4437C 
 306      E78D
 307 03c4 26D368A9 		.ascii	"&\323h\251\373E\251\007D\251'\326\365\266V\327\353\015"
 307      FB45A907 
 307      44A927D6 
 307      F5B656D7 
 307      EB0D
 308 03d6 9F35AE10 		.ascii	"\2375\256\0209\230\230n\354\030\000:\222\304\251\"\012"
 308      3998986E 
 308      EC18003A 
 308      92C4A922 
 308      0A
 309 03e7 2F667453 		.ascii	"/ftS\340S\215\307\002\336\217\011\031\321W/\302\351"
 309      E0538DC7 
 309      02DE8F09 
 309      19D1572F 
 309      C2E9
 310 03f9 838A9ED6 		.ascii	"\203\212\236\326\253\301\331d\211s/6\022>#\200#\275"
 310      ABC1D964 
 310      89732F36 
 310      123E2380 
 310      23BD
 311 040b D4787F9E 		.ascii	"\324x\177\236\227[\014=\303\035\200\3562\303[w\324="
 311      975B0C3D 
 311      C31D80EE 
 311      32C35B77 
 311      D43D
 312 041d A0B9FF37 		.ascii	"\240\271\3777EF\360\254\310(\301-\246\304\3450\211\004"
 312      4546F0AC 
 312      C828C12D 
 312      A6C4E530 
 312      8904
 313 042f 07334830 		.ascii	"\0073H0B\022\274\223*\301(Rq\227\352s7\211\3624\352"
 313      4212BC93 
 313      2AC12852 
 313      7197EA73 
 313      3789F234 
 314 0444 8AA5A5FC 		.ascii	"\212\245\245\374\317\347R\212\214I\251n\036\241\364"
 314      CFE7528A 
 314      8C49A96E 
 314      1EA1F4
ARM GAS  C:\Users\pc\AppData\Local\Temp\cc4n66R4.s 			page 25


 315 0453 72634AB3 		.ascii	"rcJ\263@\332f)\246.\276'\232\205\213\233\221\301PB\005"
 315      40DA6629 
 315      A62EBE27 
 315      9A858B9B 
 315      91C15042 
 316 0468 6F52243A 		.ascii	"oR$:\3670\232V\224\376\357\315c\321_\250\314\373\223"
 316      F7309A56 
 316      94FEEFCD 
 316      63D15FA8 
 316      CCFB93
 317 047b 28730448 		.ascii	"(s\004H\232\303\243\322\014j\322\334\327\276\371H6\206"
 317      9AC3A3D2 
 317      0C6AD2DC 
 317      D7BEF948 
 317      3686
 318 048d AB428B41 		.ascii	"\253B\213A\2640\303\003\260j\200\376\202R\246\265\213"
 318      B430C303 
 318      B06A80FE 
 318      8252A6B5 
 318      8B
 319 049e 8EC5E763 		.ascii	"\216\305\347c\271\205${\327+\032\030S\312V\215\223j"
 319      B985247B 
 319      D72B1A18 
 319      53CA568D 
 319      936A
 320 04b0 70645416 		.ascii	"pdT\026\"\360\303Q\015F\270\026\312\214\321\222E\327"
 320      22F0C351 
 320      0D46B816 
 320      CA8CD192 
 320      45D7
 321 04c2 9C467469 		.ascii	"\234Fti\203\373\227Q\364G\343\242?&\321\231\005n%\271"
 321      83FB9751 
 321      F447E3A2 
 321      3F26D199 
 321      056E25B9 
 322 04d6 4F05A316 		.ascii	"O\005\243\026m\214\327\374\004\365\265eV\337\223\264"
 322      6D8CD7FC 
 322      04F5B565 
 322      56DF93B4 
 323 04e6 ADF0749C 		.ascii	"\255\360t\234\372\350\267\003\213B\305\365\352\333\272"
 323      FAE8B703 
 323      8B42C5F5 
 323      EADBBA
 324 04f5 D11F3A49 		.ascii	"\321\037:I\325\262\324`q\004\302gH,6\206\217g\213\202"
 324      D5B2D460 
 324      7104C267 
 324      482C3686 
 324      8F678B82 
 325 0509 076A5F17 		.ascii	"\007j_\027\352\014\214\323jS\252r\261\031z[\343AES\250"
 325      EA0C8CD3 
 325      6A53AA72 
 325      B1197A5B 
 325      E3414553 
 326 051e 45238424 		.ascii	"E#\204$*\206r\317\221\016\324\252Q\327S7\017oL\003\213"
 326      2A8672CF 
 326      910ED4AA 
 326      51D75337 
ARM GAS  C:\Users\pc\AppData\Local\Temp\cc4n66R4.s 			page 26


 326      0F6F4C03 
 327 0533 B630A846 		.ascii	"\2660\250Fm\210\0133\206\333\366\"Gd.ar\356\035\036"
 327      6D880B33 
 327      86DBF622 
 327      47642E61 
 327      72EE1D1E 
 328 0547 12ADA934 		.ascii	"\022\255\2514\216\\\004\264\007\264\303\3459\266\367"
 328      8E5C04B4 
 328      07B4C3E5 
 328      39B6F7
 329 0556 AC8B563A 		.ascii	"\254\213V:\2269\012=\253\227;\234\332\370\303\3029s"
 329      96390A3D 
 329      AB973B9C 
 329      DAF8C3C2 
 329      3973
 330 0568 DFB53ADD 		.ascii	"\337\265:\335V\227\307\352v\331\254\266\225.\373\012"
 330      5697C7EA 
 330      76D9ACB6 
 330      952EFB0A 
 331 0578 87DBE35A 		.ascii	"\207\333\343Z7\313\306$O\011\267\341_\261\247d\366\213"
 331      37CBC624 
 331      4F09B7E1 
 331      5FB1A764 
 331      F68B
 332 058a 9C1DC5B6 		.ascii	"\234\035\305\266U\253\227\3331\200{\235{\326J\246[\263"
 332      55AB97DB 
 332      31807B9D 
 332      7BD64AA6 
 332      5BB3
 333 059c 74D56AFB 		.ascii	"t\325j\373\202\214n6gQ\221\263\330Z\342ty\334\326\205"
 333      828C6E36 
 333      675191B3 
 333      D85AE274 
 333      79DCD685 
 334 05b0 8B0B1615 		.ascii	"\213\013\026\025\254E\177\233\323e_\262fn\021\006y\377"
 334      AC457F9B 
 334      D3655FB2 
 334      666E1106 
 334      79FF
 335 05c2 65DCED6B 		.ascii	"e\334\355k=\326E\005\205\037\024\216a(r;\334KV\330l"
 335      3DD64505 
 335      851F148E 
 335      6128723B 
 335      DC4B56D8 
 336 05d7 18624A41 		.ascii	"\030bJA\341\342\334eK\335\366\022\227\343\355\334\274"
 336      E1E2DC65 
 336      4BDDF612 
 336      97E3EDDC 
 336      BC
 337 05e8 D94C7231 		.ascii	"\331Lr1}\221\275\310\351Z\307\376\005M?\3562"
 337      7D91BDC8 
 337      E95AC7FE 
 337      054D3FEE 
 337      32
 338              		.text
 339              		.section	.gnu.lto_chRegFindThreadByWorkingArea.6ed94cce,"",%progbits
 340 0000 789CA556 		.ascii	"x\234\245V\373OSW\034?\337{n\037\264\245\230eq\2311"
ARM GAS  C:\Users\pc\AppData\Local\Temp\cc4n66R4.s 			page 27


 340      FB4F5357 
 340      1C3FDF7B 
 340      6E1FB4A5 
 340      98657199 
 341 0015 0B26121F 		.ascii	"\013&\022\037Y\254&f\306\271\2308\177Z\026\262D\376"
 341      59AC2666 
 341      C6B99838 
 341      7F5A16B2 
 341      44FE
 342 0027 00839568 		.ascii	"\000\203\225h\027y\254\255N\177\342\012(\340c\032T0"
 342      1779ACAD 
 342      4E7FE20A 
 342      28E0631A 
 342      5430
 343 0039 B58E0E51 		.ascii	"\265\216\016Q1\363\211\350\006\242t\340\264\"\212\""
 343      31F389E8 
 343      06A274E0 
 343      B4228A22 
 344 0049 BEC0E103 		.ascii	"\276\300\341\003\001\321\332)S|\200e\337\357\271E\012"
 344      01D1DA29 
 344      537C8065 
 344      DFEFB945 
 344      0A
 345 005a 14245B7F 		.ascii	"\024$[\177\270=\347\236\357\343\363}}\316\3252\306\032"
 345      B83DE79E 
 345      EFE3F37D 
 345      7DCED532 
 345      C61A
 346 006c 8C8C7D0B 		.ascii	"\214\214}\013\214\375\200k\210b m\275\314\330Z\275\004"
 346      8CFD806B 
 346      8862206D 
 346      BDCCD85A 
 346      BD04
 347 007e 5C5D7049 		.ascii	"\\]pI\027\3200\305 \027\371\030SL\262\244-\216\306\255"
 347      17D030C5 
 347      2017F918 
 347      534CB2A4 
 347      2D8EC6AD 
 348 0092 C6EFA5AD 		.ascii	"\306\357\245\255\006\264\252\230V\322\013\001\203\220"
 348      06B4AA98 
 348      56D20B01 
 348      8390
 349 00a0 36E955F5 		.ascii	"6\351U\365\005:\000\372W\364\300\322%.k\264z\035\340"
 349      053A00FA 
 349      57F4C0D2 
 349      252E6BB4 
 349      7A1DE0
 350 00b3 82857E9B 		.ascii	"\202\205~\233\370v\016W\263\216\272\371F\356\346\014"
 350      F8760E57 
 350      B38EBAF9 
 350      46EEE60C 
 351 00c3 64DC3EBF 		.ascii	"d\334>\277\344j5\323\026 \026\267\376\300\2712\323\264"
 351      E46A35D3 
 351      162016B7 
 351      FEC0B932 
 351      D3B4
 352 00d5 FD8A92A1 		.ascii	"\375\212\222\241x\013^\304\354*\273\242D\271\271\304"
ARM GAS  C:\Users\pc\AppData\Local\Temp\cc4n66R4.s 			page 28


 352      780B5EC4 
 352      EC2ABBA2 
 352      44B9B9C4 
 353 00e5 F251BC0C 		.ascii	"\362Q\274\014&\302q\230H\310O\3004\024>x\347r>\347\263"
 353      26C27198 
 353      48C84FC0 
 353      34143E78 
 353      E7723EE7 
 354 00fa 81E1FADA 		.ascii	"\201\341\372\332\266\237\246L\331+\364\036\356\343\312"
 354      B69FA64C 
 354      D92BF41E 
 354      EEE3CA
 355 0109 6437E770 		.ascii	"d7\347p\022x\270\036\276b\360\033L!\361\272`Y\275\201"
 355      1278B81E 
 355      BE62F01B 
 355      4C21F1BA 
 355      6059BD81 
 356 011d CF11AA1B 		.ascii	"\317\021\252\033\356V\275\322\305\355\021\272-U\023"
 356      EE56BDD2 
 356      C5ED11BA 
 356      2D5513
 357 012c 7EC9547C 		.ascii	"~\311T|\212\214N\341\367\301\372\364C\361\007\307\202"
 357      8A8C4EE1 
 357      F7C1FAF4 
 357      43F107C7 
 357      82
 358 013d 3BA2B532 		.ascii	";\242\2652\224C\034\301B4\025\240\225\360\340l[o\203"
 358      94431CC1 
 358      423415A0 
 358      95F0E06C 
 358      5B6F83
 359 0150 91CF1336 		.ascii	"\221\317\0236\237\344\370\366\353C6oT\215\037\260yj"
 359      9FE4F8F6 
 359      EB43366F 
 359      548D1FB0 
 359      796A
 360 0162 149B590A 		.ascii	"\024\233Y\012\376\274-\276\217\000*\3218\331\315\347"
 360      FEBC2DBE 
 360      8F002AD1 
 360      38D9CDE7 
 361 0172 C2DCADC6 		.ascii	"\302\334\255\306\303\007\214|\276X\347\006\032\236\232"
 361      C3078C7C 
 361      BE58E706 
 361      1A9E9A
 362 0181 43A683BF 		.ascii	"C\246\203\277\206\301=3*\334*\262x\032\264\340\005\355"
 362      86C13D33 
 362      2ADC2AB2 
 362      781AB4E0 
 362      05ED
 363 0193 5097DD87 		.ascii	"P\227\335\207\264\214\336\347c\246\007T\030\374\201"
 363      B48CDEE7 
 363      63A60754 
 363      18FC81
 364 01a2 E2D5C3C5 		.ascii	"\342\325\303\305\257\355\374\312\306\350\000\263Og\035"
 364      AFEDFCCA 
 364      C6E800B3 
 364      4F671D
ARM GAS  C:\Users\pc\AppData\Local\Temp\cc4n66R4.s 			page 29


 365 01b1 95D98DC0 		.ascii	"\225\331\215\300\035\002\235\277=\307+\207\320\325\027"
 365      1D029DBF 
 365      3DC72B87 
 365      D0D517
 366 01c0 4EDD9DB9 		.ascii	"N\335\235\271q\263\342\311\030\347\3462\234\375`\350"
 366      71B3E2C9 
 366      18E7E632 
 366      9CFD60E8 
 367 01d0 81DD58B5 		.ascii	"\201\335X\265?\011h\015\031\227\007\2019\207`\316#\030"
 367      3F09680D 
 367      19970781 
 367      398760CE 
 367      2318
 368 01e2 7A0CD12B 		.ascii	"z\014\321+\350\215\321\205\322\245\031\232\375`\311"
 368      E88DD185 
 368      D2A5199A 
 368      FD60C9
 369 01f1 84B1655F 		.ascii	"\204\261e_\206\013\344\331\207nj#\244\350\000z\256\035"
 369      860BE4D9 
 369      876E6A23 
 369      A4E8007A 
 369      AE1D
 370 0203 9EA28B28 		.ascii	"\236\242\213(^7R\212\352\336\247\350\377\247\3452\201"
 370      5E37528A 
 370      EADEA7E8 
 370      FFA7E532 
 370      81
 371 0214 BB343C2D 		.ascii	"\2734<-\365\010\340\012\245\005\0378\330\234\372\222"
 371      F508E00A 
 371      A5051F38 
 371      D89CFA92 
 372 0224 22A1821F 		.ascii	"\"\241\202\037i\320x\225`_6f\350\343\252g\235[\246}"
 372      69D07895 
 372      605F3666 
 372      E8E3AA67 
 372      9D5BA67D 
 373 0238 028CCE25 		.ascii	"\002\214\316%\234\005\011UP\014G\026GBO\303\021\205"
 373      9C050955 
 373      500C4716 
 373      47424FC3 
 373      1185
 374 024a 0F8D811E 		.ascii	"\017\215\201\036FF\332&ZF\323\303,\366\214\345`\273"
 374      4646DA26 
 374      5A46D3C3 
 374      2CF68CE5 
 374      60BB
 375 025c 171B152F 		.ascii	"\027\033\025/\313\305,\024\0333\275\254\035\244\010"
 375      CBC52C14 
 375      1B33BDAC 
 375      1DA408
 376 026b E1B9460F 		.ascii	"\341\271F\017\017\256B\034*ew*\247e\032}\031b\241\001"
 376      0FAE421C 
 376      2A65772A 
 376      A7651A7D 
 376      1962A101 
 377 027f CF9E40C6 		.ascii	"\317\236@\306\203\326\202\243\0150$\376m\245\206P\356"
 377      83D682A3 
ARM GAS  C:\Users\pc\AppData\Local\Temp\cc4n66R4.s 			page 30


 377      0D3024FE 
 377      6DA58650 
 377      EE
 378 0290 23E43976 		.ascii	"#\3449v1\203kt\246\033zv\261p\352.N\276\0304\016\317"
 378      31836B74 
 378      A61B7A76 
 378      B170EA2E 
 378      4EBE1834 
 379 02a6 DB754CD7 		.ascii	"\333uL\327\015\312\333\015\312\033\260\036\362ZTX\372"
 379      0DCADB0D 
 379      CA1BB01E 
 379      F25A5458 
 379      FA
 380 02b7 DA306993 		.ascii	"\3320i\223T\250\354\214u\253\336\016\265\236R\364\262"
 380      54A8EC8C 
 380      75ABDE0E 
 380      B59E52F4 
 380      B2
 381 02c8 84A86FC2 		.ascii	"\204\250o\302$Q\232g\376\306f\011\337\300-\220\005n"
 381      24519A67 
 381      FEC66609 
 381      DFC02D90 
 381      056E
 382 02da 06B70597 		.ascii	"\006\267\005\227\225\234\251i3M\332\022\322\026x\272"
 382      959CA969 
 382      334DDA12 
 382      D21678BA 
 383 02ea 0E975E37 		.ascii	"\016\227^7\012\355&\322\206f\2201g\031\261\"\007\214"
 383      0AED26D2 
 383      86669031 
 383      6719B122 
 383      078C
 384 02fc 3D868C8A 		.ascii	"=\206\214\2127\325\373fQt.Nm\235\277\256\272^GI\321"
 384      37D5FB66 
 384      51742E4E 
 384      6D9DBFAE 
 384      BA5E4749 
 385 0311 8B712A2F 		.ascii	"\213q*/\3677\353\322\337)z|\341\341jk\224e>\3173{\340"
 385      F737EBD2 
 385      DF297A7C 
 385      E1E16A6B 
 385      94653ECF 
 386 0328 6770F328 		.ascii	"gp\363(\370\013\322\341\016a\300\203\223\347\357\364"
 386      F80BD2E1 
 386      0E61C083 
 386      93E7EFF4 
 387 0338 E82D8728 		.ascii	"\350-\207(x\317\367nn\200\026\360\300\016\324\242\246"
 387      78CFF76E 
 387      6E8016F0 
 387      C00ED4A2 
 387      A6
 388 0349 2681B737 		.ascii	"&\201\26773\327I!\201\"\240\201\270\013\226\035H1B\000"
 388      33D74921 
 388      8122A081 
 388      B80B961D 
 388      48314200 
 389 035d EE8185C0 		.ascii	"\356\201\205\300y&\020\034j\016\204$ v\272\367\202\012"
ARM GAS  C:\Users\pc\AppData\Local\Temp\cc4n66R4.s 			page 31


 389      7926101C 
 389      6A0E8424 
 389      2076BAF7 
 389      820A
 390 036f 312A1CA2 		.ascii	"1*\034\242$ VV_:\247U\341\030Q\001\356\207\3204f\337"
 390      24205656 
 390      5F3AA755 
 390      E1185101 
 390      EE87D034 
 391 0385 6A31AACE 		.ascii	"j1\252\3160\033&x \300H!_\255\350\3531d\346\257/\347"
 391      301B2678 
 391      20C04821 
 391      5FADE8EB 
 391      3164E6AF 
 392 039b AA65836A 		.ascii	"\252e\203j\374Dv\3351\003\0317\001\300C4\205\376\033"
 392      FC4476DD 
 392      31031937 
 392      01C04334 
 392      85FE1B
 393 03ae 3708EF63 		.ascii	"7\010\357c\363\345\031O\272m\203\234\265\203\005\035"
 393      F3E5194F 
 393      BA6D839C 
 393      B583051D 
 394 03be 8866A539 		.ascii	"\210f\2459\012\217A\306\340;\302{O\235\243P?\004\013"
 394      0A8F41C6 
 394      E03BC27B 
 394      4F9DA350 
 394      3F040B
 395 03d1 EF9F31F6 		.ascii	"\357\2371\366\227\272C\224\372\221(\365\320\272v\252"
 395      97BA4394 
 395      FA9128F5 
 395      D0BA76AA 
 396 03e1 75BDD7B6 		.ascii	"u\275\327\266\245b\231\360\301\304vc\260\003\210\227"
 396      A56299F0 
 396      C1C47663 
 396      B0038897 
 397 03f1 04B588C2 		.ascii	"\004\265\210\302\213\035]\035\370\313En\300\37324F\364"
 397      8B1D5D1D 
 397      F8CB456E 
 397      C0FB3234 
 397      46F4
 398 0403 D685B5C0 		.ascii	"\326\205\265\300\200{\015\314\305\365\350\246\355\302"
 398      807B0DCC 
 398      C5F5E8A6 
 398      EDC2
 399 0411 B6F52682 		.ascii	"\266\365&\202\031\015\023q\253\364x6\310j\370\034E\341"
 399      190D1371 
 399      ABF47836 
 399      C86AF81C 
 399      45E1
 400 0423 B140F404 		.ascii	"\261@\364\004c\025u\333S\374)\231G\301\355\3559/c\246"
 400      631575DB 
 400      53FC2999 
 400      47C1EDED 
 400      392F63A6 
 401 0437 97883108 		.ascii	"\227\2101\010\372$\227GO\227\250\372\003?L'?\241\321"
 401      FA249747 
ARM GAS  C:\Users\pc\AppData\Local\Temp\cc4n66R4.s 			page 32


 401      4F97A8FA 
 401      033F4C27 
 401      3FA1D1
 402 044a 0DE7CABE 		.ascii	"\015\347\312\276\332\311\267\273\037)J\236\002#\260"
 402      DAC9B7BB 
 402      1F294A9E 
 402      0223B0
 403 0459 253C4566 		.ascii	"%<EfA\003\254\015\262\232j\012\266\346\231\310\243\213"
 403      4103AC0D 
 403      B29A6A0A 
 403      B6E699C8 
 403      A38B
 404 046b EB102F9D 		.ascii	"\353\020/\235w\003`]\244\246\276\271.n\326\277-\252"
 404      7703605D 
 404      A4A6BEB9 
 404      2E6ED6BF 
 404      2DAA
 405 047d 058C5266 		.ascii	"\005\214Rf\370\261\320\037e\245\032\345\177#\216\000"
 405      F8B1D01F 
 405      65A51AE5 
 405      7F238E00 
 406 048d 7A1F9529 		.ascii	"z\037\225)\362\214\241\213l\004\246\370{\024\246\010"
 406      F28CA18B 
 406      6C04A6F8 
 406      7B14A608 
 407 049d 10533C1B 		.ascii	"\020S<\033\316\024\317\261b]\324F]a\235\021\201\004"
 407      CE14CFB1 
 407      625DD446 
 407      5D619D11 
 407      8104
 408 04af FE89D819 		.ascii	"\376\211\330\031/\336O|``\342K\347\022J\0277\016\353"
 408      2FDE4F7C 
 408      6060E24B 
 408      E7124A17 
 408      370EEB
 409 04c2 6988D8D3 		.ascii	"i\210\330\323)T\216\227\242\247\271\270\305\031t\207"
 409      29548E97 
 409      A2A7B9B8 
 409      C5197487 
 410 04d2 86F533B2 		.ascii	"\206\3653\262D\364\214\326\324\252\264\0374\015X\377"
 410      44F48CD6 
 410      D4AAB41F 
 410      340D58FF 
 411 04e2 2081BC1A 		.ascii	" \201\274\032\201@\272\201\030\344u?\203\234V\031\244"
 411      8140BA81 
 411      18E4753F 
 411      839C5619 
 411      A4
 412 04f3 C4B7F9B8 		.ascii	"\304\267\371\270\031\315\345\240\304c\2240\303\033\260"
 412      19CDE5A0 
 412      C4639430 
 412      C31BB0
 413 0502 A880DE42 		.ascii	"\250\200\336B:S\273Z\303\202\363\260\334\2029\232\327"
 413      3A53BB5A 
 413      C382F3B0 
 413      DC82399A 
 413      D7
ARM GAS  C:\Users\pc\AppData\Local\Temp\cc4n66R4.s 			page 33


 414 0513 695530A6 		.ascii	"iU0\246a\241\032G\244\212\236\376\351\025\206{\373\251"
 414      61A11A47 
 414      A48A9EFE 
 414      E915867B 
 414      FBA9
 415 0525 A293ABA6 		.ascii	"\242\223\253\246\242\321Z87x#pCD\343\236%d\375\335 "
 415      A2D15A38 
 415      37782370 
 415      4344E39E 
 415      2564FDDD 
 416 053a EB41E286 		.ascii	"\353A\342\206h\201[\033\336\247\"\243fu\215\237$CH\342"
 416      68815B1B 
 416      DEA722A3 
 416      66758D9F 
 416      244348E2 
 417 054e FCE824D1 		.ascii	"\374\350$\321\027\261\025\024)\234$\350;\207\371!\353"
 417      17B11514 
 417      299C24E8 
 417      3B87F921 
 417      EB
 418 055f 5EEE234D 		.ascii	"^\356#M\377GYX\265b\362\361\012\020\010\327J\351H\007"
 418      FF475958 
 418      B562F2F1 
 418      0A1008D7 
 418      4AE94807 
 419 0573 18D63851 		.ascii	"\030\3268Q\360#\352\224\213O\304\001J\251\032N0\330"
 419      F023EA94 
 419      8B4FC401 
 419      4AA91A4E 
 419      30D8
 420 0585 0CCD35ED 		.ascii	"\014\3155\355>\255:\241f5!4\242b)7\035\277\200\263j"
 420      3EAD3AA1 
 420      66352134 
 420      A2622937 
 420      1DBF80B3 
 421 059a D43495CE 		.ascii	"\3244\225\316\305\213]\317\374\325\014rq6\304\275\036"
 421      C58B5DCF 
 421      FCD50C72 
 421      7136C4BD 
 421      1E
 422 05ab C0B05D82 		.ascii	"\300\260]\2022\272AB\347\274\242\250K\264\246\266iO"
 422      32BA4142 
 422      E7BCA2A8 
 422      4BB4A6B6 
 422      694F
 423 05bd 03A03CA0 		.ascii	"\003\240<\240\034\036\317\262~iY\270\334\266\304\226"
 423      1C1ECFB2 
 423      7E6959B8 
 423      DCB6C496 
 424 05cd E05CB9D4 		.ascii	"\340\\\271\324\226\252\256\277K\2305\347\013K\252\303"
 424      96AAAEBF 
 424      4B9835E7 
 424      0B4BAAC3 
 425 05dd 62775A1C 		.ascii	"bwZ\034v\253\305\272\334\236\264\314\346p\332\327\314"
 425      76ABC5BA 
 425      DC9EB4CC 
 425      E670DAD7 
ARM GAS  C:\Users\pc\AppData\Local\Temp\cc4n66R4.s 			page 34


 425      CC
 426 05ee B032E9C7 		.ascii	"\2602\351\307Dnu\246I\3164\236\342L\233\371!}[\212u"
 426      446E75A6 
 426      49CE349E 
 426      E24C9BF9 
 426      217D5B8A 
 427 0603 C5CAA549 		.ascii	"\305\312\245Ih\303\261\3061c9\323\254J\\\2612i\376\250"
 427      68C3B1C6 
 427      316339D3 
 427      AC4A5CB1 
 427      3269FEA8 
 428 0617 6AD6D4E4 		.ascii	"j\326\324\344\344\324\024KZ\252\335\351\260,X\024\277"
 428      E4D4144B 
 428      5AAADDE9 
 428      B02C5814 
 428      BF
 429 0628 307E35EA 		.ascii	"0~5\352[S\355I\213W\315IF#_\217E=i\265\323\2620>\341"
 429      5B53ED49 
 429      8B57CD49 
 429      46235F8F 
 429      453D69B5 
 430 0641 9B84010C 		.ascii	"\233\204\001\014\311\016\233c\3612\253\025M\214\213"
 430      C90E9B63 
 430      F132AB15 
 430      4D8C8B
 431 0650 4F5814BB 		.ascii	"OX\024\273$\321\221\224f\267}\036\0337\223Iv\246KNJ"
 431      24D19194 
 431      66B77D1E 
 431      1B379349 
 431      76A64B4E 
 432 0665 4EB5AF61 		.ascii	"N\265\257a\263\307\036\224\023S\223\270\224\002\373"
 432      B3C71E94 
 432      135393B8 
 432      9402FB
 433 0674 17A5FC3B 		.ascii	"\027\245\374;\277"
 433      BF
 434              		.text
 435              		.section	.gnu.lto_ch_debug.6ed94cce,"",%progbits
 436 0000 789C558E 		.ascii	"x\234U\216[K\002a\020\206\277\331\317\365\220\353!\210"
 436      5B4B0261 
 436      1086BFD9 
 436      CFF590EB 
 436      2188
 437 0012 E8622FAA 		.ascii	"\350b/\252\177\220W^\366\323$,\244@H\364FV\020\202\016"
 437      7F90575E 
 437      F6D3242C 
 437      A44048F4 
 437      46561082 
 438 0027 179150B9 		.ascii	"\027\221P\271\036\262\314\264\023uQ\030\024A\031b\024"
 438      1EB2CCB4 
 438      13755118 
 438      14411962 
 438      14
 439 0038 A8581821 		.ascii	"\250X\030!\0056\263\343M\013\303\303\263\357\3147c\027"
 439      0536B3E3 
 439      4D0BC3C3 
 439      B3EFCC37 
ARM GAS  C:\Users\pc\AppData\Local\Temp\cc4n66R4.s 			page 35


 439      6317
 440 004a 42381421 		.ascii	"B8\024!@\360\027\227\260\323\316\017<+\322\220\370\023"
 440      40F01797 
 440      B0D3CE0F 
 440      3C2BD290 
 440      F813
 441 005c 35163563 		.ascii	"5\0265c\012\353,j\344\261\335\327XgP?\256\223M/\353"
 441      0AEB2C6A 
 441      E4B1DDD7 
 441      5867503F 
 441      AE934D2F 
 442 0071 346AAED4 		.ascii	"4j\256\324\011\260\351h\335p\253\341f\235\242\336\337"
 442      09B0E968 
 442      DD70ABE1 
 442      669DA2DE 
 442      DF
 443 0082 94E9629D 		.ascii	"\224\351b\235@\275\355]\245F\251\037\365\347-\376\000"
 443      40BDED5D 
 443      A546A91F 
 443      F5E72DFE 
 443      00
 444 0093 AC1A6AB2 		.ascii	"\254\032j\262\330\277TY\235\250\306s\345i4[\245\253"
 444      D8BF5459 
 444      9DA8C673 
 444      E569345B 
 444      A5AB
 445 00a5 6AC3EFB2 		.ascii	"j\303\357\262\217]A\275\011g\014\311jC-\256/l[G\002"
 445      8F5D41BD 
 445      09670CC9 
 445      6A432DAE 
 445      2F6C5B47 
 446 00ba 84CBD4FE 		.ascii	"\204\313\324\3765X\356\216\306'Q\353f{\323jW\240Kq\345"
 446      3558EE8E 
 446      C62751EB 
 446      667BD36A 
 446      57A04B71 
 447 00cf 33B361F5 		.ascii	"3\263a\365K\220\250\275\265\346\222\306\361\373\277"
 447      4B90A8BD 
 447      B5E692C6 
 447      F1FBBF
 448 00de 65D25A76 		.ascii	"e\322Zv\377\332*\2719~\241\270\0365\032N\366\016\371"
 448      FFDA2AB9 
 448      397EA1B8 
 448      1E351A4E 
 448      F60EF9
 449 00f1 EAE2D69D 		.ascii	"\352\342\326\235\022\314\206\"\351\320\274!m0\247\303"
 449      12CC8622 
 449      E9D0BC21 
 449      6D30A7C3 
 450 0101 19E810D0 		.ascii	"\031\350\020\320\341\024Q\303\252b\235`U@\247\201a\241"
 450      E11451C3 
 450      AA629D60 
 450      5540A781 
 450      61A1
 451 0113 E0E5FEB4 		.ascii	"\340\345\376\264jH5\201W\236C0\201\327\357\202\236\300"
 451      6A483581 
 451      579E4330 
ARM GAS  C:\Users\pc\AppData\Local\Temp\cc4n66R4.s 			page 36


 451      81D7EF82 
 451      9EC0
 452 0125 678F0912 		.ascii	"g\217\011\022\312\004\033\034\021T8$\330\241Dp\300\001"
 452      CA041B1C 
 452      11543824 
 452      D8A14470 
 452      C001
 453 0137 C1094582 		.ascii	"\301\011E\202\013\012\2041\310\023\334\220#h`\022<\220"
 453      0B0A8431 
 453      C813DC90 
 453      23686012 
 453      3C90
 454 0149 2578619F 		.ascii	"%xa\237\340\203=\202\237\027\215\023\004\\@P\374\001"
 454      E0833D82 
 454      9F178D13 
 454      045C4050 
 454      FC01
 455 015b 57A39DB3 		.ascii	"W\243\235\263"
 456              		.text
 457              		.section	.gnu.lto_.symbol_nodes.6ed94cce,"",%progbits
 458 0000 789C558C 		.ascii	"x\234U\214;\016\302@\020C\355u6\341\026 N\002'\233E"
 458      3B0EC240 
 458      1043ED75 
 458      36E11620 
 458      4E02279B 
 459 0015 424ACB79 		.ascii	"BJ\313y\370\203P\212\010\245\200\2262e\016\301,\025"
 459      F883508A 
 459      08A58096 
 459      32650EC1 
 459      2C15
 460 0027 5B8C6CBD 		.ascii	"[\214l\2757r\015\340\340\207p\242\001\273\001\360\330"
 460      37720DE0 
 460      E08770A2 
 460      01BB01F0 
 460      D8
 461 0038 A73510EF 		.ascii	"\2475\020\357\304\"\2333\215\205\011\027Z(\311\225\246"
 461      C4229B33 
 461      8D850917 
 461      5A28C995 
 461      A6
 462 0049 92DC6855 		.ascii	"\222\334hU\271w$7K\037\344\203\026\177\012Hi\345\240"
 462      B9772437 
 462      4B1FE483 
 462      167F0A48 
 462      69E5A0
 463 005c A3D5FF40 		.ascii	"\243\325\377@\241\301\330Nsi\206\261\037>\222\032l\337"
 463      A1C1D84E 
 463      736986B1 
 463      1F3E921A 
 463      6CDF
 464 006e DD53AABC 		.ascii	"\335S\252\274\274r\211\376\222\013\276\015\3471!"
 464      BC7289FE 
 464      920BBE0D 
 464      E73121
 465              		.text
 466              		.section	.gnu.lto_.refs.6ed94cce,"",%progbits
 467 0000 789C6363 		.ascii	"x\234cc``P\006bF badbbdcb\006\262\230\030\245\231X\300"
ARM GAS  C:\Users\pc\AppData\Local\Temp\cc4n66R4.s 			page 37


 467      60605006 
 467      62462062 
 467      61646262 
 467      64636206 
 468 001b B438132B 		.ascii	"\2648\023+\230\226b\000\000\015\315\000\262"
 468      98966200 
 468      000DCD00 
 468      B2
 469              		.text
 470              		.section	.gnu.lto_.decls.6ed94cce,"",%progbits
 471 0000 789CB55B 		.ascii	"x\234\265[\013T\024\351\225\356\277\376\242\273i^\023"
 471      0B5414E9 
 471      95EEBFFE 
 471      A2BB695E 
 471      13
 472 0011 35733C27 		.ascii	"5s<'\356\256;a&l\222\021\235\231\314L\036'\231dN\036"
 472      EEAE3B61 
 472      266C9211 
 472      9D99CC4C 
 472      1E279964 
 473 0027 B3D99964 		.ascii	"\263\331\231dg\222\335\354\304M\207\201V\311\360Jw3"
 473      6792DDEC 
 473      C44D8781 
 473      56C9F04A 
 473      7733
 474 0039 8E39674F 		.ascii	"\2169gO\212\207\310K\036\202\212<\024\001\025\004\024"
 474      8A87C84B 
 474      1E828A3C 
 474      14011504 
 474      14
 475 004a 47140554 		.ascii	"G\024\005TDD\024\004DEy#*>AD\361\001*{\377GwU7\325\352"
 475      44441404 
 475      44457923 
 475      2A3E4144 
 475      F1012A7B 
 476 0065 E4247DBC 		.ascii	"\344$}\274T\335\252\373\337\373\335\373\337\377\326"
 476      54DDAAFB 
 476      DFFBDDFB 
 476      DFFFD6
 477 0074 FFFF556A 		.ascii	"\377\377Uj5\032M\324\233\032\315q\275FS\2115\232i\370"
 477      351A4DD4 
 477      9B1ACD71 
 477      BD465389 
 477      359A69F8 
 478 0088 E9E0DA61 		.ascii	"\351\340\332a `5\277B\032\315\327\201\276\006D~\344"
 478      206035BF 
 478      421ACDD7 
 478      81BE0644 
 478      7EE4
 479 009a 5E0A9CAF 		.ascii	"^\012\234\257\001Z\007\224\005\224\013\224\017T\016"
 479      015A0794 
 479      05940B94 
 479      0F540E
 480 00a9 24C07D11 		.ascii	"$\300}\021\376|W\3208\374\376\011\224y\302q\026\320"
 480      FE7C57D0 
 480      38FCFE09 
 480      9479C271 
ARM GAS  C:\Users\pc\AppData\Local\Temp\cc4n66R4.s 			page 38


 480      16D0
 481 00bb 1CAEB70E 		.ascii	"\034\256\267\016\216\363\200\276\017\262?\002z\007H"
 481      8EF380BE 
 481      0FB23F02 
 481      7A0748
 482 00ca 00BA0FF7 		.ascii	"\000\272\017\367~\015$\"\206a\032\216c@\377\007\244"
 482      7E0D2422 
 482      86611A8E 
 482      6340FF07 
 482      A4
 483 00db E5F6DF05 		.ascii	"\345\366\337\005\271\237\002\375\022\350}\240_\001!"
 483      B99F02FD 
 483      12E87DA0 
 483      5F0121
 484 00ea 6E5BF97B 		.ascii	"n[\371{\031\024\370<\303.\261\345`[`\266\377\023\216"
 484      1914F83C 
 484      C32EB1E5 
 484      605B60B6 
 484      FF138E
 485 00fd 9B388618 		.ascii	"\2338\206\030\304p\020\014$\006k\\`\310\3471\370\235"
 485      C470100C 
 485      24066B5C 
 485      60C8E731 
 485      F89D
 486 010f 3013CBAB 		.ascii	"0\023\313\253\230aPb\371:\307\363\361s\304\342\177\200"
 486      98615062 
 486      F93AC7F3 
 486      F173C4E2 
 486      7F80
 487 0121 FF18A88C 		.ascii	"\377\030\250\214c\264\341\023\235bD\260\0324\254\177"
 487      63B4E113 
 487      9D6244B0 
 487      1A34AC7F 
 488 0131 9C7192D8 		.ascii	"\234q\222\330\331\260\226\363~S\213\333\242\347\210"
 488      D9B096F3 
 488      7E538BDB 
 488      A2E788
 489 0140 9B1AC667 		.ascii	"\233\032\306g\341r\327\260\234y\032.W\230\276\013\230"
 489      E172D7B0 
 489      9C791A2E 
 489      5798BE0B 
 489      98
 490 0151 BEE284E9 		.ascii	"\276\342\204\351k\317\211\353\367\302\363a\313\375\033"
 490      6BCF89EB 
 490      F7C2F361 
 490      CBFD1B
 491 0160 B1594496 		.ascii	"\261YD\226\233\004\307+@\377\212\030\306\177\001\271"
 491      9B04C72B 
 491      40FF8A18 
 491      C67F01B9 
 492 0170 B70586F9 		.ascii	"\267\005\206\371_\341\370\032\320B\240\177\003\362\007"
 492      5FE1F81A 
 492      D042A07F 
 492      03F207
 493 017f 7A19E8EB 		.ascii	"z\031\350\353@\257\000\275\001\344\007\364\022\220/"
 493      40AF00BD 
 493      01E407F4 
ARM GAS  C:\Users\pc\AppData\Local\Temp\cc4n66R4.s 			page 39


 493      12902F
 494 018e D022A057 		.ascii	"\320\"\240W\201\276\011\364m\240o\001}\303\311\256\355"
 494      81BE09F4 
 494      6DA06F01 
 494      7DC3C9AE 
 494      ED
 495 019f 9789D1A9 		.ascii	"\227\211\321\251-\351g0\026\0209\357\215)\373`A\231"
 495      2DE96730 
 495      161039EF 
 495      8D29FB60 
 495      4199
 496 01b1 C47EFA4F 		.ascii	"\304~\372O5h7\302v\271\330\212\\\234\204\321,\003\022"
 496      356837C2 
 496      76B9D88A 
 496      5C9C84D1 
 496      2C0312
 497 01c4 81BD7D32 		.ascii	"\201\275}2\373\2427\260s\014h>\260U\243\245U^\354n\035"
 497      FBA237B0 
 497      730C683E 
 497      B055A3A5 
 497      555EEC6E 
 498 01d9 912E1ECE 		.ascii	"\221.\036\316M\361d\374\333\300\236i\357\337\202\361"
 498      4DF164FC 
 498      DBC09E69 
 498      EFDF82F1 
 499 01e9 0FA891BE 		.ascii	"\017\250\221\276\246\222R\242\350\033\006D\312\206\017"
 499      A69252A2 
 499      E81B0644 
 499      CA860F
 500 01f8 5CDA7973 		.ascii	"\\\332ys\377C/v\211Ht\244\216\027\351\360O\311\2710"
 500      FF432F76 
 500      894874A4 
 500      8E17E9F0 
 500      4FC9B930 
 501 020c D035D5EB 		.ascii	"\3205\325\353\215\014~\361\222\024-\345\307H\356\277"
 501      8D0C7EF1 
 501      92142DE5 
 501      C748EEBF 
 502 021c D0A0BD68 		.ascii	"\320\240\275h\036\332\203\346i\320A\344G\332T\242\005"
 502      1EDA83E6 
 502      69D041E4 
 502      47DA54A2 
 502      05
 503 022d 1A540317 		.ascii	"\032T\003\027\253\341\342V\202\275\356X\366\0177\214"
 503      ABE1E256 
 503      82BDEE58 
 503      F60F378C 
 504 023d 4BD27C74 		.ascii	"K\322|t\000\031P-\302T\006\372\340\033\006\346MIQz\201"
 504      0019502D 
 504      C25406FA 
 504      E01B06E6 
 504      4D49517A 
 505 0252 1657216A 		.ascii	"\026W!j\243&\347\362Q\301\225\215\303\256m\354{\251"
 505      A326E7F2 
 505      51C1958D 
 505      C3AE6DEC 
 505      7BA9
ARM GAS  C:\Users\pc\AppData\Local\Temp\cc4n66R4.s 			page 40


 506 0264 71A52409 		.ascii	"q\245$\011\250\016l\034\222m\200IfD\312\234\332\344"
 506      A80E6C1C 
 506      926D8049 
 506      6644CA9C 
 506      DAE4
 507 0276 8573696C 		.ascii	"\205sil\205[19[\\:\322\340\322\310\225\226\371Y\223"
 507      855B3139 
 507      5B5C3AD2 
 507      E0D2C895 
 507      96F95993 
 508 028a C4912360 		.ascii	"\304\221#`\244^6Rg3\322\273{\365\021=\036e\035\230]"
 508      A45E3652 
 508      6733D2BB 
 508      7BF5113D 
 508      1E651D98 
 509 029f 73F7841B 		.ascii	"s\367\204\033\013\273\036\330\264\336\207\265\036\370"
 509      0BBB1ED8 
 509      B4DE87B5 
 509      1EF8
 510 02ad 1EBB577A 		.ascii	"\036\273Wz?v\217\017\236b\214\255\277\346\360\376\232"
 510      3F768F0F 
 510      9E628CAD 
 510      BFE6F0FE 
 510      9A
 511 02be CCD8BFC7 		.ascii	"\314\330\277\307\003Gaz\263\341\342\351&7\274\2121\371"
 511      0347617A 
 511      B3E1E2E9 
 511      2637BC8A 
 511      31F9
 512 02d0 F5175EC5 		.ascii	"\365\027^\305Y\354\274zm\355\210\036\3471\346\360\343"
 512      59ECBC7A 
 512      6DED881E 
 512      E731E6F0 
 512      E3
 513 02e1 AE5C032E 		.ascii	"\256\\\003.gL\307XK\236\0073\374\002\260{\207\2177\032"
 513      674CC758 
 513      4B9E0733 
 513      FC02B07B 
 513      878F371A 
 514 02f5 987A0901 		.ascii	"\230z\011\001\377hK\333y=\336\303dk\252j\0339\310\205"
 514      FF684BDB 
 514      793DDEC3 
 514      646BAA6A 
 514      1B39C885 
 515 0309 C0C65CCA 		.ascii	"\300\306\\\312\273\340\215\017\262{\215\251\261\311"
 515      BBE08D0F 
 515      B27B8DA9 
 515      B1C9
 516 0317 067C8C32 		.ascii	"\006|\2142\302\304\251\233\033\264\256B\326\3512d\335"
 516      C2C4A99B 
 516      1BB4AE42 
 516      D6E93264 
 516      DD
 517 0328 732179D1 		.ascii	"s!y\321Y\210\327\031\225x\345\334\351\273\346\316\254"
 517      5988D719 
 517      9578E5DC 
 517      E9BBE6CE 
ARM GAS  C:\Users\pc\AppData\Local\Temp\cc4n66R4.s 			page 41


 517      AC
 518 0339 FB9144A8 		.ascii	"\373\221D\250\276\263E\213O3\353C\323O\376\204{\331"
 518      BEB3458B 
 518      4F33EB43 
 518      D34FFE84 
 518      7BD9
 519 034b 79425942 		.ascii	"yBYB\2437\276\304\230\202C57u\370.cl\251?\213\245~\361"
 519      A337BEC4 
 519      98824335 
 519      3775F82E 
 519      636CA93F 
 520 0363 F5814718 		.ascii	"\365\201G\030\307\210\364\336\205\336c\025\336x%cj\356"
 520      C788F4DE 
 520      85DE6315 
 520      DE782563 
 520      6AEE
 521 0375 E7D4F8E0 		.ascii	"\347\324\370\340d\306\234\2748=n\300\031\214\251\312"
 521      64C69CBC 
 521      383D6EC0 
 521      198CA9CA 
 522 0385 7E5227E2 		.ascii	"~R'\342l\306\254\\]\276\236\004K\313\006\204\016.]\032"
 522      6CC6AC5C 
 522      5DBE9E04 
 522      4BCB0684 
 522      0E2E5D1A 
 523 0399 9BDC2BB2 		.ascii	"\233\334+\262K\304\245\317\341R\336\206\336]\336x#m"
 523      4BC4A5CF 
 523      E152DE86 
 523      DE5DDE78 
 523      236D
 524 03ab 221C3CBD 		.ascii	"\"\034<\275/\326\013\371\031l\311\376\346\2061\222#"
 524      2FD60BF9 
 524      196CC9FE 
 524      E6863192 
 524      23
 525 03bc C3E0F325 		.ascii	"\303\340\363%\331g-q9\236\2108\007\3572\004O\313\203"
 525      D9672D71 
 525      399E8838 
 525      07EF3204 
 525      4FCB83
 526 03cf 77112E0E 		.ascii	"w\021.\016\301E\2601\376p\254R\304\305\314\306\356\214"
 526      C145B031 
 526      FE70AC52 
 526      C4C5CCC6 
 526      EE8C
 527 03e1 4759DEB2 		.ascii	"GY\336\262\215}\257\355\241\311~\015l\\\221m\014#\227"
 527      8D7DAFED 
 527      A1C97E0D 
 527      6C5C916D 
 527      0C2397
 528 03f4 46AEAA1B 		.ascii	"F\256\252\033\271 Mm\360\304\025\314HN}\301n\301n\344"
 528      B9204D6D 
 528      F0C415CC 
 528      484E7DC1 
 528      6EC16EE4 
 529 0408 4ACB1B2C 		.ascii	"J\313\033,\331o\202\221\353\262\221k\256\215\334P7\222"
 529      D96F8291 
ARM GAS  C:\Users\pc\AppData\Local\Temp\cc4n66R4.s 			page 42


 529      EBB2916B 
 529      AE8DDC50 
 529      3792
 530 041a B47664AB 		.ascii	"\264vd\2537\336\313\002<u5\263\013\261\016\363\0046"
 530      37DECB02 
 530      3C7535B3 
 530      0BB10EF3 
 530      0436
 531 042c BAA62BDD 		.ascii	"\272\246+\335\207%\347 \315\335\311\370'\">\302d\317"
 531      8725E720 
 531      CDDDC9F8 
 531      27223EC2 
 531      64CF
 532 043e 259FEED1 		.ascii	"%\237\356\321\342f\206\256\252\271w\012\333\321\235"
 532      E26686AE 
 532      AAB9770A 
 532      DBD19D
 533 044d A0797507 		.ascii	"\240yu\007\240\335~.h\343\352\320\032\333\362\357\350"
 533      A0DD7E2E 
 533      68E3EAD0 
 533      1ADBF2EF 
 533      E8
 534 045e F129666E 		.ascii	"\361)fn\177\372\032\030Q\347\030\323\237\225T\343\201"
 534      7FFA1A18 
 534      51E718D3 
 534      9F9554E3 
 534      81
 535 046f AF33E660 		.ascii	"\2573\346`\352\370>w|\2331\253\036\014U\370\340I\321"
 535      EAF83E77 
 535      7C9B31AB 
 535      1E0C55F8 
 535      E049D1
 536 0482 61ACCD61 		.ascii	"a\254\315ac\355zL\335\005\021G\271\321{;W^*\321\303"
 536      63ED7A4C 
 536      DD051147 
 536      B9D17B3B 
 536      575E2AD1 
 537 0497 BD79904B 		.ascii	"\275y\220KHQY\347\261\312ZYw\247\\\304qTV\330U~\351"
 537      485159E7 
 537      B1CA5A59 
 537      77A75CC4 
 537      715456D8 
 538 04ae 4F8A1C5A 		.ascii	"O\212\034Z\260r\025\351\337i\360\357\261\354\337<\356"
 538      B07215E9 
 538      DF69F0EF 
 538      B1ECDF3C 
 538      EE
 539 04bf 5EB42415 		.ascii	"^\264$\025Jx\256\006\275>\017-\004\347\236\200s\363"
 539      4A78AE06 
 539      BD3E0F2D 
 539      04E79E80 
 539      73F3
 540 04d1 B8738FC0 		.ascii	"\270s\217\300\271)\346\\\311\246\342\006/\234\306\014"
 540      B929E65C 
 540      C9A6E206 
 540      2F9CC60C 
 541 04e1 F497DF6A 		.ascii	"\364\227\337j\305\212\014zi7\315\240h\001\262Z\260["
ARM GAS  C:\Users\pc\AppData\Local\Temp\cc4n66R4.s 			page 43


 541      C58A0C7A 
 541      6937CDA0 
 541      6801B25A 
 541      B05B
 542 04f3 98462E4C 		.ascii	"\230F.LD\011\252&\2423N\227\271\343,f\"\372h\332)\235"
 542      4409AA26 
 542      A2334E97 
 542      B9E32C66 
 542      22FA68DA 
 543 0509 AD443836 		.ascii	"\255D86_\251\322\334\226fo\237\243\276\306\002\222\030"
 543      5FA9D2DC 
 543      96666F9F 
 543      A3BEC602 
 543      9218
 544 051b 19090063 		.ascii	"\031\011\000c5bm\366\360\\\234\317\"\232\224\374d'\306"
 544      35626DF6 
 544      F05C9CCF 
 544      229A94FC 
 544      6427C6
 545 052e 5B99B991 		.ascii	"[\231\271\221\224\342*\255\272\271\004\227\346\206t"
 545      94E22AAD 
 545      BAB90497 
 545      E68674
 546 053d EFA078B0 		.ascii	"\357\240x\260\264J\305R_\336\255;\"\336\301L\025\035"
 546      B44AC552 
 546      5FDEAD3B 
 546      22DEC14C 
 546      151D
 547 054f D9794A87 		.ascii	"\331yJ\207+\231\251\256\211\346\014yd\\\007\035\253"
 547      2B99A9AE 
 547      89E60C79 
 547      645C071D 
 547      AB
 548 0560 414792B3 		.ascii	"AG\222\263\016\025$\311\352q\033\215\275<\310K\364\\"
 548      0E1524C9 
 548      EA711B8D 
 548      BD3CC84B 
 548      F45C
 549 0572 52F133B3 		.ascii	"R\3613\263^\307\007\230\341\221-\255_\220\232\350g@"
 549      5EC70798 
 549      E1912DAD 
 549      5F909AE8 
 549      6740
 550 0584 7F55248D 		.ascii	"\177U$\215\037K\232\334\364\241\365\356\270\201\301"
 550      1F4B9ADC 
 550      F4A1F5EE 
 550      B881C1
 551 0593 DA305139 		.ascii	"\3320Q9e\177\214U\304H_\211Z\244A\307\301J#I\371L0\355"
 551      657F8C55 
 551      C4485F89 
 551      5AA441C7 
 551      C14A2349 
 552 05ab C74DA70B 		.ascii	"\307M\247\013\363P\232 ?\220_\311\243\017\344\014\360"
 552      F3509A20 
 552      3F905FC9 
 552      A30FE40C 
 552      F0
ARM GAS  C:\Users\pc\AppData\Local\Temp\cc4n66R4.s 			page 44


 553 05bc 628DEC85 		.ascii	"b\215\354\205\037\017\304\252\330\342T\017\334\306\214"
 553      1F0FC4AA 
 553      D8E2540F 
 553      DCC68C
 554 05cb 64A60EF5 		.ascii	"d\246\016\365\350\224\245\347\030M\234\365\320t\255"
 554      E894A5E7 
 554      184D9CF5 
 554      D074AD
 555 05da DC34430E 		.ascii	"\3344C\016\300\014 \353T\200\220\021\266\263\247A\304"
 555      C00C20EB 
 555      54809011 
 555      B6B3A741 
 555      C4
 556 05eb E7999589 		.ascii	"\347\231\225\211\204\221|\327\256d\273te\240\026\367"
 556      84917CD7 
 556      AE64BB74 
 556      65A016F7 
 557 05fb 1D499424 		.ascii	"\035I\224$\021m\000@Y2\240\365\266^\255N\236\210\365"
 557      116D0040 
 557      5932A0F5 
 557      B65EAD4E 
 557      9E88F5
 558 060e F04CB43F 		.ascii	"\360L\264?\266\250\240\255.hP\216\340\311'U\321C{;\021"
 558      B6A8A0AD 
 558      2E68508E 
 558      E0C92755 
 558      D1437B3B 
 559 0623 DEA8A571 		.ascii	"\336\250\245q>\373\340\300\244'.\244\214X\026\263}L"
 559      3EFBE0C0 
 559      A4272EA4 
 559      8C5816B3 
 559      7D4C
 560 0635 447EF310 		.ascii	"D~\363\020\264B,\020dN\246A\233AU\236\200m3\270l\011"
 560      B4422C10 
 560      644EA641 
 560      9B41559E 
 560      806D33B8 
 561 064b E08FFD95 		.ascii	"\340\217\375\225\\\206s==\252\344\304F\360\206\334\322"
 561      5C86733D 
 561      3DAAE4C4 
 561      46F086DC 
 561      D2
 562 065c A07CF065 		.ascii	"\240|\360e\023\213\306\256\334\246\207\356\006.\035"
 562      138BC6AE 
 562      DCA687EE 
 562      062E1D
 563 066b FF2CE90B 		.ascii	"\377,\351\013\017\246\033<\225N\02588Uhw\352\360\311"
 563      0FA61B3C 
 563      954E1538 
 563      38556877 
 563      EAF0C9
 564 067e 98120F5C 		.ascii	"\230\022\017\\\314\234\032z\274\371\222\016\357`\314"
 564      CC9C1A7A 
 564      BCF9920E 
 564      EF60CC
 565 068d 83ACE345 		.ascii	"\203\254\343E^\270\2221k\312\332\317i\361>\306\364\357"
 565      5EB89231 
ARM GAS  C:\Users\pc\AppData\Local\Temp\cc4n66R4.s 			page 45


 565      6BCADACF 
 565      69F13EC6 
 565      F4EF
 566 069f 7852ABC5 		.ascii	"xR\253\3055\214\331\324{\273\\\207\017RF\350\234\276"
 566      358CD9D4 
 566      7BBB5C87 
 566      0F5246E8 
 566      9CBE
 567 06b1 7A15EAB6 		.ascii	"z\025\352\266\237\302\360\037_\224\213l)@5z\362\036"
 567      9FC2F01F 
 567      5F948B6C 
 567      2940357A 
 567      F21E
 568 06c3 60FD339A 		.ascii	"`\3753\232\373\317Q\222\204\320v\301\023\225\310\275"
 568      FBCF5192 
 568      84D076C1 
 568      1395C8BD 
 569 06d3 63F464F0 		.ascii	"c\364d\360\006\243\033O\353\3611f\352\366\350\231G^"
 569      06A31B4F 
 569      EBF13166 
 569      EAF6E899 
 569      475E
 570 06e5 B89931D2 		.ascii	"\270\2311\322\303\203\335Z\334\306\230\236\265\017\006"
 570      C383DD5A 
 570      DCC6989E 
 570      B50F06
 571 06f4 DD710763 		.ascii	"\335q\007c\232\316&\035\022\361Y\306lk\036\224\334\360"
 571      9ACE261D 
 571      12F159C6 
 571      6C6B1E94 
 571      DCF0
 572 0706 79C6D426 		.ascii	"y\306\324&6?\322\343\036\306dW\257\2126\340~\306\224"
 572      363FD2E3 
 572      1EC66457 
 572      AF8A36E0 
 572      7EC694
 573 0719 4EDF49F5 		.ascii	"N\337I\365\304\027\270\347\265\247\012\0046\370|\201"
 573      C417B8E7 
 573      B5A70A04 
 573      36F87C81 
 574 0729 DD5E97D4 		.ascii	"\335^\227\324\204Y\011\317\0272\261G\313\312\226Uz\344"
 574      845909CF 
 574      1732B147 
 574      CBCA9655 
 574      7AE4
 575 073b CB7EB3FD 		.ascii	"\313~\263\375|}\013\210\267u\267\372\360\215\322\304"
 575      7C7D0B88 
 575      B775B7FA 
 575      F08DD2C4 
 576 074b D5527E3D 		.ascii	"\325R~=\363\246\014\2749(\314\226\275O\021H\350\367"
 576      F3A60CBC 
 576      3928CC96 
 576      BD4F1148 
 576      E8F7
 577 075d 920ED0B0 		.ascii	"\222\016\320\260&C\377\233-\325\305b*\276\333Y\334\237"
 577      2643FF9B 
 577      2DD5C562 
ARM GAS  C:\Users\pc\AppData\Local\Temp\cc4n66R4.s 			page 46


 577      2ABEDB59 
 577      DC9F
 578 076f 482F9285 		.ascii	"H/\222\205\257+\204\277P\025V\252\236THW8K7\"g\361\023"
 578      AF2B84BF 
 578      501556AA 
 578      9E544857 
 578      384B3722 
 579 0786 7F90C577 		.ascii	"\177\220\305w8\213\267\315\020\037R\210\027;\213\367"
 579      388BB7CD 
 579      101F5288 
 579      173B8BF7 
 580 0796 2227E41D 		.ascii	"\"'\344\035\012\351r\365\250P\351t\222\021i@H\004s\220"
 580      0AE972F5 
 580      A850E974 
 580      92116940 
 580      48047390 
 581 07aa CC7BE01E 		.ascii	"\314{\340\036\252\344- 3\320!H\240}\202/\332\017t\030"
 581      AAE42D20 
 581      33D02148 
 581      A07D822F 
 581      DA0F7418 
 582 07be A81AA80E 		.ascii	"\250\032\250\016\250\006\350\000P\025P\255\340K\007"
 582      A806E800 
 582      501550AD 
 582      E04B07
 583 07cd 1BCBAF   		.ascii	"\033\313\257"
 584 07d0 D69E1768 		.ascii	"\326\236\027h~\201\006\015O.\215\035Xc\377\254\202\030"
 584      7E81060D 
 584      4F2E8D1D 
 584      5863FFAC 
 584      8218
 585 07e2 A9692145 		.ascii	"\251i!E\266S\335m\205\037\343\212\230\356R\217)\225"
 585      B653DD6D 
 585      851FE38A 
 585      98EE528F 
 585      2995
 586 07f4 2613C0A1 		.ascii	"&\023\300\241\221Q7\345\370S\312jP\275}\374\365\327"
 586      915137E5 
 586      F853CA6A 
 586      50BD7DFC 
 586      F5D7
 587 0806 16DCF7C2 		.ascii	"\026\334\367\302e:\222xx\362N\315^\204|\375f3{P\273"
 587      653A9278 
 587      78F24ECD 
 587      5E847CFD 
 587      66337B50 
 588 081b B22F27B1 		.ascii	"\262/'\261\214\202\026h\033\330lTO\021\356l\011s\266"
 588      8C821668 
 588      1BD86C54 
 588      4F11EE6C 
 588      0973B6
 589 082e D1D1D974 		.ascii	"\321\321\331t>\341aq\2655>\302\265\221\270\036\205\270"
 589      3EE16171 
 589      B5353EC2 
 589      B591B81E 
 589      85B8
 590 0840 36F0B891 		.ascii	"6\360\270\221\321\020}e\004\343\375\024\024\2721\\\332"
ARM GAS  C:\Users\pc\AppData\Local\Temp\cc4n66R4.s 			page 47


 590      D1107D65 
 590      04E3FD14 
 590      14BA315C 
 590      DA
 591 0851 29E0838C 		.ascii	")\340\203\214\311\035\250\357\347\023\362\006\302\357"
 591      C91DA8EF 
 591      E713F206 
 591      C2EF
 592 085f 1DC84CF0 		.ascii	"\035\310L\360\344c\203\2544\257\334\273\327\251\305"
 592      E46383AC 
 592      34AFDCBB 
 592      D7A9C5
 593 086e 4D4C78F7 		.ascii	"MLx\367tI\034\306\255\224\371AQ\323@\243\007\232\355"
 593      74491CC6 
 593      AD94F941 
 593      51D340A3 
 593      079AED
 594 0881 EB39DB77 		.ascii	"\3539\333w\266/\371\013\377|\311\271\037\374\350@\362"
 594      B62FF90B 
 594      FF7CC9B9 
 594      1FFCE840 
 594      F2
 595 0892 F39DE34B 		.ascii	"\363\235\343K\357\370\002\357\351I.\372\371\332\177"
 595      EFF802EF 
 595      E9492EFA 
 595      F9DA7F
 596 08a1 7E7EEA6E 		.ascii	"~~\352nt\303\364\347$w\343*\270\321\312\335`!|<\211"
 596      74C3F4E7 
 596      2477E32A 
 596      B8D1CADD 
 596      60217C3C 
 597 08b6 AB2B2529 		.ascii	"\253+%)A\213\332 \200\307\270\254J\000\025]\325\356"
 597      418BDA20 
 597      80C7B8AC 
 597      4A00155D 
 597      D5EE
 598 08c8 D055A41D 		.ascii	"\320U\244\035\013\245Cz\236\200\364<N\3223\036\373\241"
 598      0BA5437A 
 598      9E80F43C 
 598      4ED2331E 
 598      FBA1
 599 08da 0E6E7F15 		.ascii	"\016n\177\025\234\307a_\264\022(\026(\006(\032(\012"
 599      9CC7615F 
 599      B4122816 
 599      2806281A 
 599      280A
 600 08ec 48029A86 		.ascii	"H\002\232\206\364|\002\364\030\350:\3200\320e\240K@"
 600      F47C02F4 
 600      18E83AD0 
 600      30D065A0 
 600      4B40
 601 08fe 67804E03 		.ascii	"g\200N\003\235r\300\337\361\001K9\250\232\315\320_\035"
 601      9D72C0DF 
 601      F1014B39 
 601      A89ACDD0 
 601      5F1D
 602 0910 4AF05548 		.ascii	"J\360UH}\344\330\2415\361\026\377\030h\375'g\025\322"
ARM GAS  C:\Users\pc\AppData\Local\Temp\cc4n66R4.s 			page 48


 602      7DE4D8A1 
 602      35F116FF 
 602      1868FD27 
 602      6715D2
 603 0923 C14316BB 		.ascii	"\301C\026\273\373\221\023\270}3j\306\223\2269L\376,"
 603      FB9113B8 
 603      7D336AC6 
 603      9396394C 
 603      FE2C
 604 0935 44F4A8BA 		.ascii	"D\364\250\272\274sWt:t\305Y6j\034\234m\207\273d\240"
 604      BC735774 
 604      3A74C559 
 604      366A1C9C 
 604      6D87BB64 
 605 094a A253A0B1 		.ascii	"\242S\240\261\223;;\004y\320\003\200\273\201\3169\200"
 605      933B3B04 
 605      79D00380 
 605      BB81CE39 
 605      80
 606 095b 6E4E707B 		.ascii	"nNp{\302\362\341<\317\207NW\205Q\001\243\313\001\306"
 606      C2F2E13C 
 606      CF874E57 
 606      855101A3 
 606      CB01C6
 607 096e F9A7C1B8 		.ascii	"\371\247\301\270\010\246\237\015ch\033\226\212\346\322"
 607      08A69F0D 
 607      63681B96 
 607      8AE6D2
 608 097d DC6A52C7 		.ascii	"\334jR\307`+;0\252;\327\353\242h\022\364\202\330\011"
 608      602B3B30 
 608      AA3BD7EB 
 608      A26812F4 
 608      82D809
 609 0990 2E6E9FFA 		.ascii	".n\237\372\370\253'\201\375\376\005\000\321\317\001"
 609      F8AB2781 
 609      FDFE0500 
 609      D1CF01
 610 099f 0DC2F900 		.ascii	"\015\302\371\000\200\351s\0003=\211K\216\246\2602C\020"
 610      80E97300 
 610      333D894B 
 610      8EA6B032 
 610      4310
 611 09b1 B580897E 		.ascii	"\265\200\211~\027\017\027u\033\315\274\205k\033\365"
 611      170F1775 
 611      1BCDBC85 
 611      6B1BF5
 612 09c0 DF64796C 		.ascii	"\337dyl\033\2053\365+\312\330\023^\306\372\035\313\030"
 612      1B8533F5 
 612      2BCAD813 
 612      5EC6FA1D 
 612      CB18
 613 09d2 BB792ED5 		.ascii	"\273y.\325\255\270p\015\231\320\221p\234\224\027?D\332"
 613      ADB8700D 
 613      99D09170 
 613      9C94173F 
 613      44DA
 614 09e4 26D496E0 		.ascii	"&\324\226\340\366\260\202L`;\325T\014\257\323\221\305"
ARM GAS  C:\Users\pc\AppData\Local\Temp\cc4n66R4.s 			page 49


 614      F6B0824C 
 614      603BD554 
 614      0CAFD391 
 614      C5
 615 09f5 21E9D556 		.ascii	"!\351\325V\271}'m\317\340NM\342\246\343qRZ\000\335\231"
 615      B97D276D 
 615      CFE04E4D 
 615      E2A6E371 
 615      525A00DD 
 616 0a0a 38ED9CAC 		.ascii	"8\355\234\254\035\216\311\015*;~)w\321y.n\017\317\271"
 616      1D8EC90D 
 616      2A3B7E29 
 616      77D1792E 
 616      6E0FCFB9 
 617 0a1e 19E243FF 		.ascii	"\031\342C\377\316\302q\005\304\272\234\265\237s\032"
 617      CEC27105 
 617      C4BA9CB5 
 617      9F731A
 618 0a2d D7334ADE 		.ascii	"\3273J\3365\010\261Z\311c\3365\362\350\235t\021\275"
 618      3508B15A 
 618      C963DE35 
 618      F2E89D74 
 618      11BD
 619 0a3f 0D31347A 		.ascii	"\01514z\304t\217\354\375I\233\367\022M\210M%<!n\010"
 619      C4748FEC 
 619      FD499BF7 
 619      124D884D 
 619      253C216E 
 620 0a54 73509F33 		.ascii	"sP\2373\302^\205Ck\324 jh;\202\357\021\340\233\202t"
 620      C25E8543 
 620      6BD4206A 
 620      683B82EF 
 620      11E09B82 
 621 0a69 98047A08 		.ascii	"\230\004z\0104\001t\027h\024h\004\350\246C\232\\\177"
 621      34017417 
 621      68146804 
 621      E8A6439A 
 621      5C7F
 622 0a7b 8FC58544 		.ascii	"\217\305\205D\275\037\254\022-.'D\243M\212\2022\360"
 622      BD1FAC12 
 622      2D2E2744 
 622      A34D8A82 
 622      32F0
 623 0a8d 2CE9A11F 		.ascii	",\351\241\0371\325\267@x\320\265\260b\324\2179\214\372"
 623      31D5B740 
 623      78D0B5B0 
 623      62D48F39 
 623      8CFA
 624 0a9f 5B2AA3FE 		.ascii	"[*\243\376\026\334\035%\355G@\341\030\357\221;\340\361"
 624      16DC1D25 
 624      ED4740E1 
 624      18EF913B 
 624      E0F1
 625 0ab1 3878765B 		.ascii	"8xv[\366\214\254\2136\272\335\032\277*Ik<\351~\311\005"
 625      F68CAC8B 
 625      36BADD1A 
 625      BF2A496B 
ARM GAS  C:\Users\pc\AppData\Local\Temp\cc4n66R4.s 			page 50


 625      3CE97EC9 
 626 0ac6 DEC0F5A8 		.ascii	"\336\300\365\250\277\376\"\251\020\266!?\246>\344y>"
 626      BFFE22A9 
 626      10B6213F 
 626      A63EE479 
 626      3E
 627 0ad7 C7B9917C 		.ascii	"\307\271\221|\036\2331\305a}yc\033\357K\262\0332\366"
 627      1E9B31C5 
 627      617D7963 
 627      1BEF4BB2 
 627      1B32F6
 628 0aea AC38DD3B 		.ascii	"\2548\335;\300\243z\017\002u\367\271\002u\037$\345@"
 628      C0A37A0F 
 628      0275F7B9 
 628      02751F24 
 628      E540
 629 0afc DD638172 		.ascii	"\335c\201r\361@E\017 <\3623\325\236\225\3111I$+\211"
 629      F140450F 
 629      203CF233 
 629      D59E95C9 
 629      3149242B 
 630 0b11 AA09392B 		.ascii	"\252\0119+\333\250.{\231j;\306=\201\307\341\275\247"
 630      DBA82E7B 
 630      996A3BC6 
 630      3D81C7E1 
 630      BDA7
 631 0b23 3A42C641 		.ascii	":B\306A-\177>\021\267\357?K\372\304\367Yz\020\341\007"
 631      2D7F3E11 
 631      B7EF3F4B 
 631      FAC4F759 
 631      7A10E107 
 632 0b37 AE8519DE 		.ascii	"\256\205\031\336\316j-\0118\310\314\234S\336\3339+&"
 632      CE6A2D09 
 632      38C8CC9C 
 632      53DEDB39 
 632      2B26
 633 0b49 46CA5A48 		.ascii	"F\312ZH\367+&\371\310\341K56n\036*\347\335\376YR]\024"
 633      F72B26F9 
 633      C8E14B35 
 633      366E1E2A 
 633      E7DDFE59 
 634 0b60 A65B0E71 		.ascii	"\246[\016q\202\212\360\353\212\005\300\002&K\266\026"
 634      828AF0EB 
 634      8A05C002 
 634      264BB616 
 635 0b70 12D56415 		.ascii	"\022\325d\025\275\330\270\203\367\",_Q\252\363\314a"
 635      BDD8B883 
 635      F7222C5F 
 635      51AAF3CC 
 635      61
 636 0b81 E64A64F2 		.ascii	"\346Jd\362\333\314}X\030\242\\uq\205\366\372o\313\325"
 636      DBCC7D58 
 636      18A25C75 
 636      7185F6FA 
 636      6FCBD5
 637 0b94 BCC8597A 		.ascii	"\274\310Yz\346ja\362[\262\370\026uqEO\214\226\362~#"
 637      E66A61F2 
ARM GAS  C:\Users\pc\AppData\Local\Temp\cc4n66R4.s 			page 51


 637      5BB2F816 
 637      7571454F 
 637      8C96F27E 
 638 0ba9 93D3ADCE 		.ascii	"\223\323\255\316\3423\227.C\\;\231\206\034S\027Wh\357"
 638      E233972E 
 638      435C3B99 
 638      861C5317 
 638      5768EF
 639 0bbc FE96E3B3 		.ascii	"\376\226\343\263\264\343i\003\253\263\224\225\322\016"
 639      B4E36903 
 639      ABB39495 
 639      D20E
 640 0bca 17A574FA 		.ascii	"\027\245t\372.y\306\220\364n\221\227\256\035\264\222"
 640      2E79C690 
 640      F46E9197 
 640      AE1DB492 
 641 0bda 1267C9E6 		.ascii	"\022g\311\346\302\341\003\207<\006\240\202\222w\227"
 641      C2E10387 
 641      3C06A082 
 641      927797
 642 0be9 2FD0D608 		.ascii	"/\320\326\010\261\277p$D\371i\333\017\261\353pU`\007"
 642      B1BF7024 
 642      44F969DB 
 642      0FB1EB70 
 642      556007
 643 0bfc 2E4A185B 		.ascii	".J\030[\023d\277\"p\035\202M/\375\307\025 \245Vv\237"
 643      1364BF22 
 643      701D824D 
 643      2FFDC715 
 643      20A55676 
 644 0c11 99B3FD34 		.ascii	"\231\263\3754L\236\341\221\333\261K\202lL\321d\006V"
 644      4C9EE191 
 644      DBB14B82 
 644      6C4CD164 
 644      0656
 645 0c23 8DFDB61D 		.ascii	"\215\375\266\035\224\354$=\207 \324wD]5\014BA\327\240"
 645      94EC243D 
 645      8720D477 
 645      445D350C 
 645      4241D7A0 
 646 0c37 8F359A34 		.ascii	"\2175\2324}(]\035L\3549\274K\2137\273S\346\350\364\375"
 646      7D285D1D 
 646      4CEC39BC 
 646      4B8B37BB 
 646      53E6E8F4 
 647 0c4c 3A1FB6AE 		.ascii	":\037\266\256\200%6J\334\276>\312{\356:Zkc\244\027\004"
 647      8025364A 
 647      DCBE3ECA 
 647      7BEE3A5A 
 647      6B63A417 
 648 0c61 9A3A306E 		.ascii	"\232:0nP2&]\264\032\317\205\277a\"S_\334R\234\356\361"
 648      5032265D 
 648      B41ACF85 
 648      BF612253 
 648      5FDC529C 
 649 0c77 52BE3438 		.ascii	"R\27648\010\235\262\303-\345r\034\024\211(\351\235w"
 649      089DB2C3 
ARM GAS  C:\Users\pc\AppData\Local\Temp\cc4n66R4.s 			page 52


 649      2DE5721C 
 649      148928E9 
 649      9D77
 650 0c89 881C4AC2 		.ascii	"\210\034J\302\366\236\201S\370\233\210\007\021J\300"
 650      F69E8153 
 650      F89B8807 
 650      114AC0
 651 0c98 03802605 		.ascii	"\003\200&\005\277\004\3557\346\017\306\272\343K\014"
 651      BF04ED37 
 651      E60FC6BA 
 651      E34B0C
 652 0ca7 48DFDEE6 		.ascii	"H\337\336\346v\221\274\371\243&\301\004\\+\257\235H"
 652      7691BCF9 
 652      A326C104 
 652      5C2BAF9D 
 652      48
 653 0cb8 72738D26 		.ascii	"rs\215&\235\242I\303\034\316\352\353\327{D\016g\234"
 653      9DA249C3 
 653      1CCEEAEB 
 653      D77B440E 
 653      679C
 654 0cca E466B424 		.ascii	"\344f\264$E\011D\012\245\312XR\235\261\254\241X\216"
 654      4509440A 
 654      A5CA5852 
 654      9DB1ACA1 
 654      588E
 655 0cdc 1536DC76 		.ascii	"\0256\334v\307w\031\226\266\346\265\353|(\226B;\226"
 655      C7771996 
 655      B6E6B5EB 
 655      7C289642 
 655      3B96
 656 0cee E4FD9B2B 		.ascii	"\344\375\233+=\\cYK\261d\332\260\244\357\225\252\011"
 656      3D5C6359 
 656      4BB164DA 
 656      B0A4EF95 
 656      AA09
 657 0d00 967CC0D2 		.ascii	"\226|\300\322\3616\303\"\011D\012e\310X2\234\261\254"
 657      F136C322 
 657      09440A65 
 657      C858329C 
 657      B1AC
 658 0d12 A3581213 		.ascii	"\243X\022\023\016\335\360\301\211l_1/\265.\336\203k"
 658      0EDDF0C1 
 658      896C5F31 
 658      2FB52EDE 
 658      836B
 659 0d24 BAFE7DBB 		.ascii	"\272\376}\273&\342\325zY\323zgMYTSr\313\332\001\037"
 659      26E2D57A 
 659      59D37A67 
 659      4D595453 
 659      72CBDA01 
 660 0d39 5CC83475 		.ascii	"\\\3104u'm;\254\243^\345\330\275\312+.I\360q\355U\016"
 660      276D3BAC 
 660      A35EE5D8 
 660      BDCA2B2E 
 660      49F071ED 
 661 0d4f F52ADBE6 		.ascii	"\365*\333\346\325\345\312\033\247\004\233W?\262c\001"
ARM GAS  C:\Users\pc\AppData\Local\Temp\cc4n66R4.s 			page 53


 661      D5E5CA1B 
 661      A7049B57 
 661      3FB26301 
 662 0d5f 29B441C6 		.ascii	")\264A\306\262\301\031K.\3052\225p\341\241'\2563\270"
 662      B2C1194B 
 662      2EC53295 
 662      70E1A127 
 662      AE33B8
 663 0d72 ECED9BB7 		.ascii	"\354\355\233\267\352\243\260\022\313\037_T@\331D\241"
 663      EAA3B012 
 663      CB1F5F54 
 663      40D944A1 
 664 0d82 6CB441D9 		.ascii	"l\264A\331<\331\237\346F:\033\012\302\255.\267\007\253"
 664      3CD99FE6 
 664      463A1B0A 
 664      C2AD2EB7 
 664      07AB
 665 0d94 20F73623 		.ascii	" \3676#*\206\362d,y\230\355\001\242|\212al\323\315L"
 665      2A86F264 
 665      2C7998ED 
 665      01A27C8A 
 665      616CD3CD 
 666 0da9 0F1CEDC1 		.ascii	"\017\034\355\301\336(\255Ol\3018\2011\333\327\225\335"
 666      DE28AD4F 
 666      6CC13881 
 666      31DBD795 
 666      DD
 667 0dba F60440A8 		.ascii	"\366\004@\250\200\266 \257\242v^K\322\342\024v{h0e+"
 667      80B620AF 
 667      A2765E4B 
 667      D2E21476 
 667      7B683065 
 668 0dcf 22B78BE0 		.ascii	"\"\267\213\3406*\304\024pET\3356/\234\301$.\306\235"
 668      362AC414 
 668      704554DD 
 668      362F9CC1 
 668      242EC69D 
 669 0de3 3DE84124 		.ascii	"=\350A$\266\022\211-LB-\221\216N\227\306\273\333\257"
 669      B612892D 
 669      4C422D91 
 669      8E4E97C6 
 669      BBDBAF
 670 0df6 1533C1BB 		.ascii	"\0253\301\273\275\033j\335p\016Su`\242\357\270@Tm\267"
 670      BD1B6ADD 
 670      700E5375 
 670      60A2EFB8 
 670      40546DB7 
 671 0e0a 61195B5B 		.ascii	"a\031[[X)*C\363\261\301\026\032T\012\032P\031\215N\211"
 671      58292A43 
 671      F3B1C116 
 671      1A540A1A 
 671      50198D4E 
 672 0e1f 2D3A2949 		.ascii	"-:)I\227\327 \022\235|\251n\340\346\313--qu\355\222"
 672      97D72012 
 672      9D7CA96E 
 672      E0E6CB2D 
 672      2D7175ED 
ARM GAS  C:\Users\pc\AppData\Local\Temp\cc4n66R4.s 			page 54


 673 0e34 8427E712 		.ascii	"\204'\347\022A\264\331\026\037\264\015\213\204c!*\247"
 673      41B4D916 
 673      1FB40D8B 
 673      8463212A 
 673      A7
 674 0e45 213A77F7 		.ascii	"!:w\367~\275\001O2$\323\327\272\012\371\256\303\030"
 674      7EBD014F 
 674      3224D3D7 
 674      BA0AF9AE 
 674      C318
 675 0e57 E1E3B675 		.ascii	"\341\343\266u\257\346;r\022y\003w\353BL\221\017~\314"
 675      AFE63B72 
 675      12790377 
 675      EB424C91 
 675      0F7ECC
 676 0e6a 84F39BE3 		.ascii	"\204\363\233\343[\335q\224'e*\322\242\2420NgLLt\021"
 676      5BDD7194 
 676      27652AD2 
 676      A2A2304E 
 676      674C4C74 
 677 0e7f 4C156162 		.ascii	"L\025ab\022\363\364MQ|~We\2217\362\235\355W \305\306"
 677      12F3F44D 
 677      517C7E57 
 677      659137F2 
 677      9DED5720 
 678 0e95 D09947F2 		.ascii	"\320\231G\362\352\0146\363\250\304\236h7\000\337\213"
 678      EA0C36F3 
 678      A8C49E68 
 678      3700DF8B 
 679 0ea5 551730EA 		.ascii	"U\0270\352\023\366/x\0032=\254\202\205\370\036\254\234"
 679      13F62F78 
 679      03323DAC 
 679      8285F81E 
 679      AC9C
 680 0eb7 B00F0FB0 		.ascii	"\260\017\017\260\247\014H(\2372d\0277ab\247\210s(z\241"
 680      A70C4828 
 680      9F326417 
 680      376162A7 
 680      8873287A 
 681 0ecc B631E58C 		.ascii	"\2661\345\214\007\362\233m\177\372\364\260\211|5(\336"
 681      07F29B6D 
 681      7FFAF4B0 
 681      897C3528 
 681      DE
 682 0edd 27A71AD1 		.ascii	"'\247\032\321\342\012\307~\260\255\206\003L=\314\272"
 682      E20AC77E 
 682      B0AD8603 
 682      4C3DCCBA 
 683 0eed 96E085B7 		.ascii	"\226\340\205\267\263@]m\272wY\217w1f\313\344\324\030"
 683      B3405D6D 
 683      BA77598F 
 683      773166CB 
 683      E4D418
 684 0f00 09F62BE4 		.ascii	"\011\366+\344\215'V\274qx\205\215\241C\315\307\267z"
 684      8D2756BC 
 684      7178858D 
 684      A143CDC7 
ARM GAS  C:\Users\pc\AppData\Local\Temp\cc4n66R4.s 			page 55


 684      B77A
 685 0f12 E22A0672 		.ascii	"\342*\006rG\366\243G>\266mz\310\0217?\215}\360\240\303"
 685      47F6A347 
 685      3EB66D7A 
 685      C811373F 
 685      8D7DF0A0 
 686 0f27 60F215BE 		.ascii	"`\362\025\276K\177\020R\346\000V\274pXO_\362\324a\003"
 686      4B7F1052 
 686      E60056BC 
 686      70584F5F 
 686      F2D46103 
 687 0f3b 3A243BF3 		.ascii	":$;\363\012\337\243?\230\3363l\300\365\314Ft\373\332"
 687      0ADFA33F 
 687      98DE336C 
 687      C0F5CC46 
 687      74FBDA
 688 0f4e 3B2E6D34 		.ascii	";.m4\270\266\261\357\265\006\372f\342\010\330\250\227"
 688      B8B6B1EF 
 688      B506FA66 
 688      E208D8A8 
 688      97
 689 0f5f 6D804966 		.ascii	"m\200If$uO\317#\037\334\314\214\354\2558\364\330\340"
 689      24754FCF 
 689      231FDCCC 
 689      8CECAD38 
 689      F4D8E0
 690 0f72 CAC83197 		.ascii	"\312\3101\227F\240[F\316\220IA#\0309*\0339b3r\241\254"
 690      46A05B46 
 690      CE904941 
 690      2318392A 
 690      1B396233 
 691 0f89 3E418BCF 		.ascii	">A\213\317\262\320\356(\233\2520\3201h\264\015\313\374"
 691      B2D0EE28 
 691      9BAA30D0 
 691      3168B40D 
 691      CBFC
 692 0f9b ECA40A2F 		.ascii	"\354\244\012/\227"
 692      97
 693 0fa0 D5E7041D 		.ascii	"\325\347\004\035_\307m\343+?*\351\264\303.#\334W$t3"
 693      5FC76DE3 
 693      2B3F2AE9 
 693      B4C32E23 
 693      DC572474 
 694 0fb5 B64DB3C9 		.ascii	"\266M\263\311S\262*\263\324\003w3\357*\037\306\366\013"
 694      53B22AB3 
 694      D4037733 
 694      EF2A1FC6 
 694      F60B
 695 0fc7 C8CF9327 		.ascii	"\310\317\223'`\316\013\321$\001[A\276E\306\014\315\035"
 695      60CE0BD1 
 695      24015B41 
 695      BE45C60C 
 695      CD1D
 696 0fd9 E7F14AED 		.ascii	"\347\361J\355\350$\304\300\301@]e\365nO|\221yv\373Q"
 696      E824C4C0 
 696      C1405D65 
 696      F56E4F7C 
ARM GAS  C:\Users\pc\AppData\Local\Temp\cc4n66R4.s 			page 56


 696      917976FB 
 697 0fee 5E151FB1 		.ascii	"^\025\037\261s\200}<\220\226\246\343\333\204\344Mgy"
 697      73807D3C 
 697      9096A6E3 
 697      DB84E44D 
 697      6779
 698 1000 FE1D2889 		.ascii	"\376\035(\211w\231l\335\324\276\036O\374\2002\206cC"
 698      77996CDD 
 698      D4BE1E4F 
 698      FC803286 
 698      6343
 699 1012 D9302598 		.ascii	"\3310%\230M\267\000}\375f\373:\254\267NA\254\333I\007"
 699      4DB7007D 
 699      FD66FB3A 
 699      ACB74E41 
 699      ACDB4907 
 700 1026 7482F15E 		.ascii	"t\202\361^\236\310=p\336\215}\321y\240>\240s@g\261\323"
 700      9EC83D70 
 700      DE8D7DD1 
 700      79A03EA0 
 700      734067B1 
 701 103b 06474EB3 		.ascii	"\006GN\263\274r\350\000\027{\261\372\024\324\336\213"
 701      BC72E800 
 701      177BB1FA 
 701      14D4DE8B 
 702 104b C7D91EC3 		.ascii	"\307\331\036\303\031\220;-\207\244\027\317Vj\335P\312"
 702      19903B2D 
 702      87A417CF 
 702      566ADD50 
 702      CA
 703 105c B592C835 		.ascii	"\265\222\31059\253\2359U}r\236\317\312\2730\333f\351"
 703      39AB9D39 
 703      557D729E 
 703      CFCABB30 
 703      DB66E9
 704 106f 9D514566 		.ascii	"\235QEf\354=\235\301\312Uh\027\355\023\333~\364\357"
 704      EC3D9DC1 
 704      CA556817 
 704      ED13DB7E 
 704      F4EF
 705 1081 D8CC9768 		.ascii	"\330\314\227h;\246\252M\341\323\350yVez\361\314\275"
 705      3BA6AA4D 
 705      E1D3E879 
 705      56657AF1 
 705      CCBD
 706 1093 E119F16D 		.ascii	"\341\031\361m\343\276<_|\033\273fe\304H\305\013i\322"
 706      E3BE3C5F 
 706      7C1BBB66 
 706      65C448C5 
 706      0B69D2
 707 10a6 D7F2A6F6 		.ascii	"\327\362\246\366\301\342\2701\276\345\360\275:\003\216"
 707      C1E2B831 
 707      BEE5F0BD 
 707      3A038E
 708 10b5 F7A23DFF 		.ascii	"\367\242=\377\350\213\362GZ\274\2112\332\334\343Q\373"
 708      E88BF247 
 708      5ABC8932 
ARM GAS  C:\Users\pc\AppData\Local\Temp\cc4n66R4.s 			page 57


 708      DADCE351 
 708      FB
 709 10c6 7CC86B15 		.ascii	"|\310k\025\350u\276\224\352V\204\2138xI\335A&\335\331"
 709      E875BE94 
 709      EA56848B 
 709      387849DD 
 709      4126DDD9 
 710 10da AB403180 		.ascii	"\253@1\200\231\264\023\012\345\322\253\261\307\2513"
 710      99B4130A 
 710      E5D2ABB1 
 710      C7A933
 711 10e9 666A679D 		.ascii	"fjg\235\301\343\327\315\342w\351)\361\263\357\007\364"
 711      C1E3D7CD 
 711      E277E929 
 711      F1B3EF07 
 711      F4
 712 10fa 73F3247E 		.ascii	"s\363$~\027!~\203\020\263!\240\313@\027\034b\327\331"
 712      17217E83 
 712      10B321A0 
 712      CB40171C 
 712      62D7D9
 713 110d E3143B15 		.ascii	"\343\024;\025\324\266\330e\234\370\342\272\016\027\323"
 713      D4B6D865 
 713      9CF8E2BA 
 713      0E17D3
 714 111c 70094949 		.ascii	"p\011II\367\033E\345\343\2405f\035\311\330\253\320~"
 714      F71B45E5 
 714      E3A03566 
 714      1DC9D8AB 
 714      D07E
 715 112e 58CED84B 		.ascii	"X\316\330K\362\343`\006\312+\200\354Y(\301\354\276\003"
 715      F2E36006 
 715      CA2B80EC 
 715      5928C1EC 
 715      BE03
 716 1140 23AFB1A1 		.ascii	"#\257\261\241<\217\254h\372n\327\361\017\032\006\311"
 716      3C8FAC68 
 716      FA6ED7F1 
 716      0F1A06C9 
 717 1150 50AE684D 		.ascii	"P\256hM\311\365\302\007Y\207\226\247Ge\010\270\2011"
 717      C9F5C207 
 717      598796A7 
 717      476508B8 
 717      8131
 718 1162 5DABEE9E 		.ascii	"]\253\356\236p\303\035\224\321\357\252\356\212\365\342"
 718      70C31D94 
 718      D1EFAAEE 
 718      8AF5E2
 719 1171 2FCDE8FB 		.ascii	"/\315\350\373\015\2667\321S\332*\321\021d[\217M`\325"
 719      0DB637D1 
 719      53DA2AD1 
 719      11645B8F 
 719      4D60D5
 720 1184 F598E3FB 		.ascii	"\365\230\343\3732\333Rob\346pSH\267\366\363\016\266"
 720      32DB526F 
 720      62E67053 
 720      48B7F6F3 
ARM GAS  C:\Users\pc\AppData\Local\Temp\cc4n66R4.s 			page 58


 720      0EB6
 721 1196 AD3B275C 		.ascii	"\255;'\\\014z\276\274\376\203\274J\035\301N\322\216"
 721      0C7ABEBC 
 721      FE83BC4A 
 721      1DC14ED2 
 721      8E
 722 11a7 4B60C07E 		.ascii	"K`\300~\257\317i\225\252\202E9\364;\225`\212\324\301"
 722      AFCF6995 
 722      AA824539 
 722      F43B9560 
 722      8AD4C1
 723 11ba 28D3ADB3 		.ascii	"(\323\255\263\217\245\333\304S\322\355:\014\327k$Mn"
 723      8FA5DBC4 
 723      53D2ED3A 
 723      0CD76B24 
 723      4D6E
 724 11cc 72B8A423 		.ascii	"r\270\244#\357BG\216B\007\336\002\032\007\032\003\272"
 724      EF42478E 
 724      4207DE02 
 724      1A071A03 
 724      BA
 725 11dd 03745BEE 		.ascii	"\003t[\356\320K\267\326]\023q7\313\243\234\216\221*"
 725      D04BB7D6 
 725      5D137137 
 725      CBA39C8E 
 725      912A
 726 11ef 1F34DB4F 		.ascii	"\0374\333O]\363\003\320\366\274\232\355\231\270\363"
 726      5DF303D0 
 726      F6BC9AED 
 726      99B8F3
 727 11fe 482ADDCB 		.ascii	"H*\335\313\201v\367\344L\234\240\231\010\346\333\357"
 727      8176F7E4 
 727      4C9CA099 
 727      08E6DBEF 
 728 120e 16C223F0 		.ascii	"\026\302#\360\012K\222u\303'\307\335\361mV\002\212R"
 728      0A4B9275 
 728      C327C7DD 
 728      F16D5602 
 728      8A52
 729 1220 AE9CF0A0 		.ascii	"\256\234\360\240%\300WN\221\363\345\274\310\222\211"
 729      25C0574E 
 729      91F3E5BC 
 729      C89289
 730 122f CE2ED027 		.ascii	"\316.\320'\211\352\233\245|k5\204-\360\3118\250\341"
 730      89EA9BA5 
 730      7C6B3584 
 730      2DF0C938 
 730      A8E1
 731 1241 D2F68C77 		.ascii	"\322\366\214w\332\370 \342\241L\234,\342'\271\270\375"
 731      DAF820E2 
 731      A14C9C2C 
 731      E227B9B8 
 731      FD
 732 1252 05CAB919 		.ascii	"\005\312\271\031\3352|\203u\013\210\315\334kk\2749+"
 732      DD327C83 
 732      750B88CD 
 732      DC6B6BBC 
ARM GAS  C:\Users\pc\AppData\Local\Temp\cc4n66R4.s 			page 59


 732      392B
 733 1264 43227D4C 		.ascii	"C\"}L<\277\301\225\331C\351b\243\276\002\356\357$\367"
 733      3CBFC195 
 733      D943E962 
 733      A3BE02EE 
 733      EF24F7
 734 1277 1FF20624 		.ascii	"\037\362\006$\324O \324\323\020\332G@S@\217\345\316"
 734      D44F20D4 
 734      D310DA47 
 734      4053408F 
 734      E5CE
 735 1289 3BB032F6 		.ascii	";\2602\366\236\027~\304:/?a4N\353\334yv\2151\242\337"
 735      9E177EC4 
 735      3A2F3F61 
 735      344EEBDC 
 735      79768D31 
 736 129f 3335DA3B 		.ascii	"35\332;\355\352\221\024\322i\321 \037%\332;\215\370"
 736      EDEA9114 
 736      D269D120 
 736      1F25DA3B 
 736      8DF8
 737 12b1 49CD366D 		.ascii	"I\3156m\032]\355\363r!]\350@\247lOm\226\244\315\002"
 737      1A5DEDF3 
 737      72215DE8 
 737      40A76C4F 
 737      6D96A4CD 
 738 12c6 15DFC1FA 		.ascii	"\025\337\301\372\330nWC\256\300\337X\361eh\330p\343"
 738      D86E5743 
 738      AEC0DF58 
 738      F16568D8 
 738      70E3
 739 12d8 78AC16C7 		.ascii	"x\254\026\307{\2635\377\303\304Q>-x\021\3303\233\327"
 739      7BB335FF 
 739      C3C4513E 
 739      2D7811D8 
 739      339BD7
 740 12eb 0FF25A52 		.ascii	"\017\362ZRAj\211\355s\2779\354s\277\341\330\364^o\234"
 740      416A89ED 
 740      73BF39EC 
 740      73BFE1D8 
 740      F45E6F9C 
 741 12ff CE9ADABE 		.ascii	"\316\232\332\276\210\231\303\276\210IiJl\327\343<v/"
 741      8899C3BE 
 741      8849694A 
 741      6CD7E33C 
 741      762F
 742 1311 AFED4683 		.ascii	"\257\355F\203'\336\312\230\3768\230\310V\260\363\334"
 742      27DECA98 
 742      FE3898C8 
 742      56B0F3DC 
 743 1321 B6A22A1F 		.ascii	"\266\242*\037\\\315\030\333g\256s\330g\256RU\345\317"
 743      5CCD18DB 
 743      67AE73D8 
 743      67AE5255 
 743      E5CF
 744 1333 F0316F87 		.ascii	"\3601o\207\257\034\347\260\257\034\237H\321\323\036"
 744      AF1CE7B0 
ARM GAS  C:\Users\pc\AppData\Local\Temp\cc4n66R4.s 			page 60


 744      AF1C9F48 
 744      D1D31E
 745 1342 B89DDD3B 		.ascii	"\270\235\335;Z{\367\026\302\335\2149\224\274\266\331"
 745      5A7BF716 
 745      C2DD8C39 
 745      94BCB6D9 
 746 1352 1D5F62CC 		.ascii	"\035_b\314\311\341\007\220a7\031\323\236^T,\340\011"
 746      C9E10790 
 746      613719D3 
 746      9E5E542C 
 746      E009
 747 1364 C6DC8889 		.ascii	"\306\334\210\211\276\246\305\222\017e\232S\213\023`"
 747      BEA6C592 
 747      0F659A53 
 747      8B1360
 748 1373 81C7988D 		.ascii	"\201\307\230\215\323\367R\335q:c\012\242\3166{\341\015"
 748      D3F752DD 
 748      713A630A 
 748      A2CE367B 
 748      E10D
 749 1385 8C697BD8 		.ascii	"\214i{\330t\315\033odL\357H\301Y\035.dL\375x\3056\376"
 749      74CD1B6F 
 749      644CEF48 
 749      C1591D2E 
 749      644CFD78 
 750 139c 7D2E997F 		.ascii	"}.\231\177\017\246\035\231\3661\310_\261\221\353\362"
 750      0FA61D99 
 750      F631C85F 
 750      B191EBF2 
 751 13ac 0C61A348 		.ascii	"\014a\243H>\005\361\237\207\362D\366\005\326\341\334"
 751      3E05F19F 
 751      87F244F6 
 751      05D6E1DC 
 752 13bc 4CFDAC34 		.ascii	"L\375\2544\236 \357 \372M\212,\276I\234ekD\261v\355"
 752      9E20EF20 
 752      FA4D8A2C 
 752      BE499C65 
 752      6B44B176 
 753 13d1 48F2C13B 		.ascii	"H\362\301;\250\3359\033Gc6\332?t\340\245\233~\363\340"
 753      A8DD391B 
 753      476336DA 
 753      3F74E0A5 
 753      9B7EF3E0 
 754 13e5 CB07E7A8 		.ascii	"\313\007\347\250n\244:V\222\342<\211\032\224\013i\263"
 754      6EA43A56 
 754      92E23C89 
 754      1A940B69 
 754      B3
 755 13f6 5B7CCA13 		.ascii	"[|\312\023zr\025\226\222\347\322O\312\326pY\276\177"
 755      7A721596 
 755      92E7D24F 
 755      CAD67059 
 755      BE7F
 756 1408 C9EA65BA 		.ascii	"\311\352e\272(\313v\313\262\353\324d\225O\362\372\271"
 756      28CB76CB 
 756      B2EBD464 
 756      954FF2FA 
ARM GAS  C:\Users\pc\AppData\Local\Temp\cc4n66R4.s 			page 61


 756      B9
 757 1419 6C639408 		.ascii	"lc\224\010\247\251\011\247*\024w\310\212\327\253\311"
 757      A7A909A7 
 757      2A1477C8 
 757      8AD7ABC9 
 758 1429 2A365C87 		.ascii	"*6\\\207d\321\265j\242\211\012\265\343\012\014\371\216"
 758      64D1B56A 
 758      A2890AB5 
 758      E30A0CF9 
 758      8E
 759 143a C2ACB8C7 		.ascii	"\302\254\270\307+\205e\305\031j\212\225\262\365\353"
 759      2B8565C5 
 759      196A8A95 
 759      B2F5EB
 760 1449 B1943997 		.ascii	"\261\2249\227.Z6pY\373\364\300\177F\324\024(\222\325"
 760      2E5A3670 
 760      59FBF4C0 
 760      7F46D414 
 760      2892D5
 761 145c 5028C376 		.ascii	"P(\303v]!\234\240&\354\260\313\252\020NR\023V\006\243"
 761      5D219CA0 
 761      26ECB0CB 
 761      AA104E52 
 761      135606A3 
 762 1470 4321BC5A 		.ascii	"C!\274ZM\370uEE]\207\311^\372\356\031\005\225<\301\317"
 762      4DF87545 
 762      455D87C9 
 762      5EFAEE19 
 762      05953CC1 
 763 1485 61595196 		.ascii	"aYQ\226Z\244\224\331\025g\017j\266\243\250\277sLO(\360"
 763      5AA494D9 
 763      15670F6A 
 763      B6A3A8BF 
 763      734C4F28 
 764 149a A5A8E153 		.ascii	"\245\250\341S~\364!\253\315QQ\353\374ZT\320\240U\342"
 764      7EF421AB 
 764      CD5151EB 
 764      FC5A54D0 
 764      A055E2
 765 14ad 3C1447AC 		.ascii	"<\024G\254QaR\031w@!\336,\372\242/\200*\200J\200v\002"
 765      51615219 
 765      774021DE 
 765      2CFAA22F 
 765      802A804A 
 766 14c4 6D012A04 		.ascii	"m\001*\004\332\012T\011T\014T\000T\004\264\013\250\034"
 766      DA0A5409 
 766      540C5400 
 766      5404B40B 
 766      A81C
 767 14d6 683B5019 		.ascii	"h;P\031P)\3206\321\341e\231\234E\231j\261a\320`Pw\216"
 767      5029D036 
 767      D1E16599 
 767      9C45996A 
 767      B161D060 
 768 14ed B7EFD4E2 		.ascii	"\267\357\324\342\021:\250\205\274\222\242]\330\341\221"
 768      113AA885 
 768      BC92A25D 
ARM GAS  C:\Users\pc\AppData\Local\Temp\cc4n66R4.s 			page 62


 768      D8E191
 769 14fc A1808CAA 		.ascii	"\241\200\214\252\000\351?\0125\177\271\233E\337\235"
 769      00E93F0A 
 769      357FB99B 
 769      45DF9D
 770 150b EC05237B 		.ascii	"\354\005#{\344\347\314n\333s\346Lm\301\023\367\331\034"
 770      E4E7CC6E 
 770      DB73E64C 
 770      6DC113F7 
 770      D91C
 771 151d 5CBC4B70 		.ascii	"\\\274Kp\232\277+2\362\315\327\344\210D\236o\025ut\023"
 771      9ABF2B32 
 771      F2CDD7E4 
 771      88449E6F 
 771      15757413 
 772 1531 B934069E 		.ascii	"\2714\006\236o\371\002\332\007\346V2\230\212~%W\376"
 772      6FF902DA 
 772      07E65632 
 772      988A7E25 
 772      57FE
 773 1543 00C8F6D3 		.ascii	"\000\310\366\323'\\\372\330x\206\326e=\256\266\325\343"
 773      275CFAD8 
 773      7886D665 
 773      3DAEB6D5 
 773      E3
 774 1554 85AC1CD7 		.ascii	"\205\254\034\327\214N\211\316\345X^\340\327\320rL\333"
 774      8C4E89CE 
 774      E5585EE0 
 774      D7D0724C 
 774      DB
 775 1565 5086CCD6 		.ascii	"P\206\314\326\246\312\253\371\027\354Z\362\004j\211"
 775      A6CAABF9 
 775      17EC5AF2 
 775      046A89
 776 1574 ADF57069 		.ascii	"\255\365pi\355\200\315Z-\253\376w\023W\336\347\377\021"
 776      ED80CD5A 
 776      2DABFE77 
 776      1357DEE7 
 776      FF11
 777 1586 846C9495 		.ascii	"\204l\224\225\016e6#g\353P\035\321A\352\327!j\375\000"
 777      0E653623 
 777      67EB501D 
 777      D141EAD7 
 777      216AFD00 
 778 159a B37E885A 		.ascii	"\263~\210Z\217\351\311?\356\243\334b\210\026\225\353"
 778      8FE9C93F 
 778      EEA3DC62 
 778      881695EB 
 779 15aa D13A91AE 		.ascii	"\321:\221\256G\311\221<\003Gk\222=\360}\366\324*K\236"
 779      47C9913C 
 779      03476B92 
 779      3DF07DF6 
 779      D42A4B9E 
 780 15be CE7473B9 		.ascii	"\316ts\271\223Q/*\267\360\357dg\334#;\272u\203R]O\274"
 780      93512F2A 
 780      B7F0EF64 
 780      67DC233B 
ARM GAS  C:\Users\pc\AppData\Local\Temp\cc4n66R4.s 			page 63


 780      BA758352 
 781 15d5 7BE2C938 		.ascii	"{\342\3118\251\035\374\373\005\225C\207\345<\201S\307"
 781      A91DFCFB 
 781      05954387 
 781      E53C8153 
 781      C7
 782 15e6 4DDD2322 		.ascii	"M\335#\"\331-\034\334t%\303\013W\276@\015\337\212\357"
 782      D92D1CDC 
 782      7425C30B 
 782      57BE400D 
 782      DF8AEF
 783 15f9 DEE6C595 		.ascii	"\336\346\305\225\335\350\303\335\273\257J\0228\020\213"
 783      DDE8C3DD 
 783      BBAF4A12 
 783      38108B
 784 1608 44AAAD41 		.ascii	"D\252\255A\326\326\340\254\355(\325vn\270>\010\3271"
 784      D6D6E0AC 
 784      ED28D576 
 784      6EB83E08 
 784      D731
 785 161a 65DBCB37 		.ascii	"e\333\3137Vx\343V\306$\325\037\311\325\222\035\321c"
 785      5678E356 
 785      C624D51F 
 785      C9D5921D 
 785      D163
 786 162c 22DF113D 		.ascii	"\"\337\021=V\274\3470\242;8\344\377\225\260-\234\365"
 786      56BCE730 
 786      A23B38E4 
 786      FF95B02D 
 786      9CF5
 787 163e A70BAA9F 		.ascii	"\247\013\252\237\262\205C\035?.r\317\353\232W\237\321"
 787      B285431D 
 787      3F2E72CF 
 787      EB9A579F 
 787      D1
 788 164f 72B05772 		.ascii	"r\260Wr\334SJ6\262\227\027M\002\221D\2156\260\250I\024"
 788      DC534A36 
 788      B297174D 
 788      0291448D 
 788      36B0A849 
 789 1664 09E788B7 		.ascii	"\011\347\210\267\231\342M^\271=J\2077}\205mi\027\027"
 789      99E24D5E 
 789      B93D4A87 
 789      377D856D 
 789      691717
 790 1677 35F97085 		.ascii	"5\371p\205\003\361\356\243IIL\341/\250\363-\262\363"
 790      03F1EEA3 
 790      49494CE1 
 790      2FA8F32D 
 790      B2F3
 791 1689 2DCECA4E 		.ascii	"-\316\312NRe[\357?H\362\306%LYq\353\203C\0069\224\333"
 791      52655BEF 
 791      3F48F2C6 
 791      254C5971 
 791      EB834306 
 792 16a0 9D42D92A 		.ascii	"\235B\331*kku\326\326F\265\365D\265o\322+\323\347\276"
 792      6B6B75D6 
ARM GAS  C:\Users\pc\AppData\Local\Temp\cc4n66R4.s 			page 64


 792      D646B5F5 
 792      44B56FD2 
 792      2BD3E7BE 
 793 16b4 C376463B 		.ascii	"\303vF;O\237v\232>k\223\273\366\353\224\302\233\034"
 793      4F9F769A 
 793      3E6B93BB 
 793      F6EB94C2 
 793      9B1C
 794 16c6 B6B34E71 		.ascii	"\266\263Nq\341STx__Z\221\210w3\234\233O\336Yg\300\207"
 794      E1535478 
 794      5F5F5A91 
 794      8877339C 
 794      9B4FDE59 
 795 16dd 19B363FC 		.ascii	"\031\263c\374\356\016-\313y\362\377\225\322\373\016"
 795      EE0E2DCB 
 795      79F2FF95 
 795      D2FB0E
 796 16ec 4F7AB91C 		.ascii	"Oz\271\0340gm\003\346\014\237.\305\234\372\302\333y"
 796      30676D03 
 796      E60C9F2E 
 796      C59CFAC2 
 796      DB79
 797 16fe 84D8BEEE 		.ascii	"\204\330\276\356\321\240N:B\316\332\246K\273\036L\337"
 797      D1A04E3A 
 797      42CEDAA6 
 797      4BBB1E4C 
 797      DF
 798 170f 71534A17 		.ascii	"qSJ\027<M\372\344\360\364}\001jL;\2531\335[VJQq\260"
 798      3C4DFAE4 
 798      F0F47D01 
 798      6A4C3BAB 
 798      31DD5B56 
 799 1727 98380793 		.ascii	"\2308\007\223\247\323\020\3125\370%E\343\016^d\316\323"
 799      A7D310CA 
 799      35F82545 
 799      E30E5E64 
 799      CED3
 800 1739 225352DF 		.ascii	"\"SR\337v\337a\034\026:\274t\357\342\261\351b\201<5"
 800      76DF611C 
 800      163ABC74 
 800      EFE2B1E9 
 800      62813C35 
 801 174d 948594C2 		.ascii	"\224\205\224\302e\016\201\354\346\302\335Lx\377\361"
 801      650E81EC 
 801      E6C2DD4C 
 801      78FFF1
 802 175c 5C874F85 		.ascii	"\\\207O\205s\0344\367par\\\030\370=\377w\227\005\177"
 802      731C34F7 
 802      7061725C 
 802      18F83DFF 
 802      7797057F 
 803 1770 12FC9135 		.ascii	"\022\374\22152(8\234\235\377\352\243Eo\275\351\037n"
 803      3228389C 
 803      9DFFEAA3 
 803      456FBDE9 
 803      1F6E
 804 1782 F1375BFD 		.ascii	"\3617[\375-\346@\377\300ef\323\322`\213\325\274bA\240"
ARM GAS  C:\Users\pc\AppData\Local\Temp\cc4n66R4.s 			page 65


 804      2DE640FF 
 804      C06566D3 
 804      D2608BD5 
 804      BC6241A0 
 805 1796 FEE71FFC 		.ascii	"\376\347\037\374v\376\273\213\026i\364fS@H\20498\334"
 805      76FEBB8B 
 805      1669F466 
 805      53404884 
 805      3938DC
 806 17a9 60344606 		.ascii	"`4F\006\207Y_\177\315h]\022\370\275\305\201D\203\205"
 806      87595F7F 
 806      CD685D12 
 806      F8BDC581 
 806      448385
 807 17bc 6A5B6C0D 		.ascii	"j[l\015\017\017\261,^\032\0269\237\236\315\0170\207"
 807      0F0FB12C 
 807      5E1A1639 
 807      9F9ECD0F 
 807      3087
 808 17ce CE37     		.ascii	"\3167"
 809 17d0 857E620A 		.ascii	"\205~b\012\0122\005-~k\301\302\371\257-\\\364\326\237"
 809      0A32052D 
 809      7E6BC1C2 
 809      F9AF2D5C 
 809      F4D69F
 810 17e3 DF580CD7 		.ascii	"\337X\014\327_\015\013\0173\275j\012\370$xqpX`Hd\220"
 810      5F0D0B0F 
 810      33BD6A0A 
 810      F8247871 
 810      70586048 
 811 17f9 69716800 		.ascii	"iqh\000\350\0123-6\006\231\226\004D\206X\215\326\025"
 811      E80A332D 
 811      36069996 
 811      04448658 
 811      8DD615
 812 180c 1126CB82 		.ascii	"\021&\313\202e\032\275\315\336\357\377\256\366,+,\213"
 812      651ABDCD 
 812      DEEFFFAE 
 812      F62C2B2C 
 812      8B
 813 181d 8D166B10 		.ascii	"\215\026k\020(\007#:+q\316h}\357\251\021\012\014\017"
 813      2807233A 
 813      2B71CE68 
 813      7DEFA911 
 813      0A0C0F
 814 1830 0D0D0FF3 		.ascii	"\015\015\017\363\217\0107[-\376?\376\360\375w\337\377"
 814      8F08375B 
 814      2DFE3FFE 
 814      F0FD77DF 
 814      FF
 815 1841 9C5C8B08 		.ascii	"\234\\\213\010\0161\231-\376?\177\367]\010\236\015\266"
 815      0E31992D 
 815      FE3F7FF7 
 815      5D089E0D 
 815      B6
 816 1852 2ED4FA79 		.ascii	".\324\372y\010@\025\303L\237[\335\302\227\207\231\314"
 816      084015C3 
ARM GAS  C:\Users\pc\AppData\Local\Temp\cc4n66R4.s 			page 66


 816      4C9F5BDD 
 816      C2978799 
 816      CC
 817 1863 6E7F8E34 		.ascii	"n\177\2164E\232^\010\\f\264B\214\003\202,FzA\2140\233"
 817      459A5E08 
 817      5C66B442 
 817      8C03822C 
 817      467A418C 
 818 1879 3EF371B8 		.ascii	">\363q\270d\264\352B#\255\246\317\215V=H\323S\275)\302"
 818      64B4EA42 
 818      23ADA6CF 
 818      8D563D48 
 818      D353BD29 
 819 188e 14066897 		.ascii	"\024\006h\227z\230>3\205YC\003,\237\302\335P\313R\332"
 819      7A983E33 
 819      85594303 
 819      2C9FC2DD 
 819      50CB52DA 
 820 18a2 40B73C20 		.ascii	"@\267< \330\0127}\024\312\211uo%c\264\242H\255i9i\252"
 820      D80A377D 
 820      14CA8975 
 820      6F2563B4 
 820      A248AD69 
 821 18b9 5D6E057C 		.ascii	"]n\005|\021p\260\230B#p`\230\325\335h\344q\326\361\243"
 821      1170B098 
 821      42237060 
 821      98D5DD68 
 821      E471D6F1 
 822 18ce 1B5C355A 		.ascii	"\033\\5Z=A#\310\004D,\0137\233t\026b\332\262\324\015"
 822      3D4123C8 
 822      04442C0B 
 822      379B7416 
 822      62DAB2D4 
 823 18e3 0804965B 		.ascii	"\010\004\226[\255\346\210Y\314\204\321lZb2\233\302\002"
 823      ADE68859 
 823      CC84D16C 
 823      5A62329B 
 823      C202
 824 18f5 013CA80D 		.ascii	"\001<\250\015\377\344O\021z\323\347\301\326\300\360"
 824      FFE44F11 
 824      7AD3E7C1 
 824      D6C0F0
 825 1904 2093D61C 		.ascii	" \223\326\034\264\002Z\210 bqg\011\3646\330\261\035"
 825      B4025A88 
 825      20627167 
 825      09F436D8 
 825      B11D
 826 1916 ADE43AA8 		.ascii	"\255\344:\250[\022\022\260\324\242\263\206B\013\340"
 826      5B1212B0 
 826      D4A2B386 
 826      420BE0
 827 1925 2CD600AB 		.ascii	",\326\000\253Io\245\007\2422\340\223\000\213\211\247"
 827      496FA507 
 827      A232E093 
 827      008B89A7 
 828 1935 DF9B6F80 		.ascii	"\337\233o\200\357\266\023\203\305\372i@H\360\3220\243"
 828      EFB61383 
ARM GAS  C:\Users\pc\AppData\Local\Temp\cc4n66R4.s 			page 67


 828      C5FA6940 
 828      48F0D230 
 828      A3
 829 1946 F57B5FBE 		.ascii	"\365{_\276\373\226\005\202_\320_bX@\250I\014\\\026`"
 829      FB960582 
 829      5FD05F62 
 829      5840A849 
 829      0C5C1660 
 830 195a 760B0F09 		.ascii	"v\013\017\011\202\316\0123-7\231q\240\365s\301\022!"
 830      82CE0A33 
 830      2D379971 
 830      A0F573C1 
 830      1221
 831 196c 84986104 		.ascii	"\204\230a\004,\205L2Z\261y\321\"\240\205\202\371\273"
 831      2C854C32 
 831      5AB179D1 
 831      22A08582 
 831      F9BB
 832 197e 82F96DC1 		.ascii	"\202\371m\301\374\226`~S0\177G0\277\341A4\223(B\243"
 832      FC96607E 
 832      53307F47 
 832      30BFE141 
 832      34932842 
 833 1993 1FFE8D48 		.ascii	"\037\376\215H\214\237\275\025\012h<\251\252\300\360"
 833      8C9FBD15 
 833      0A683CA9 
 833      AAC0F0
 834 19a2 30E879AB 		.ascii	"0\350y\253Hr\323\335\336\263n\241\021\220\357z\036v"
 834      4872D3DD 
 834      DEB36EA1 
 834      1190EF7A 
 834      1E76
 835 19b4 EBA2670D 		.ascii	"\353\242g\015j\236\361`\300\022\270,\010\224?\263\014"
 835      6A9EF160 
 835      C012B82C 
 835      08943FB3 
 835      0C
 836 19c5 C82D2049 		.ascii	"\310- I\240\301w\276\204\211\025\026\333\010\370\022"
 836      A0C177BE 
 836      84891516 
 836      DB08F812 
 837 19d5 6620C1A0 		.ascii	"f \301\240\001\214\214\017MK\177\026l\266X\177C\235"
 837      018C8C0F 
 837      4D4B7F16 
 837      6CB6587F 
 837      439D
 838 19e7 7BA66BCE 		.ascii	"{\246k\316\365J\343CU|\000Ac\032\276\312U\206\0051\376"
 838      F54AE343 
 838      557C0041 
 838      631ABECA 
 838      55860531 
 839 19fc 272B3E80 		.ascii	"'+>\200n\236;\343\352\257\303\241\333L\346y3n\374w\270"
 839      6E9E3BE3 
 839      EAAFC3A1 
 839      DB4CE679 
 839      336EFC77 
 840 1a11 F9531857 		.ascii	"\371S\030W?\006\016F\302o\226\005}h\0121A\"\276\361"
ARM GAS  C:\Users\pc\AppData\Local\Temp\cc4n66R4.s 			page 68


 840      3F060E46 
 840      C26F9605 
 840      7D680A31 
 840      4122BEF1 
 841 1a25 FCCEF121 		.ascii	"\374\316\361!\010\016j\001e`h\204\030\021i6\211\240"
 841      080E6A01 
 841      65606884 
 841      18116936 
 841      89A0
 842 1a37 66892E2C 		.ascii	"f\211.,\034\356\206/\207cXXdH\310\177\375}K\234\325"
 842      1CEE862F 
 842      87635858 
 842      6448C87F 
 842      FD7D4B9C 
 843 1a4c 0CD0C1AE 		.ascii	"\014\320\301\256\020\270\014\007}B\213\003\351\037S"
 843      10B80C07 
 843      7D428B03 
 843      E91F53
 844 1a5b 2814D94F 		.ascii	"(\024\331O\"\227\272G\004\204\005\007\032adz+/\303`"
 844      2297BA47 
 844      04840507 
 844      1A61647A 
 844      2B2FC360 
 845 1a6f FBCC4AEA 		.ascii	"\373\314J\352\205[\220)\304\032\300\207\334\2427\371"
 845      855B9029 
 845      C41AC087 
 845      DCA237F9 
 846 1a7f 902327EE 		.ascii	"\220#'\356D>8\024\306\245\270$2,P\377\231\225\034\214"
 846      443E3814 
 846      C6A5B824 
 846      322C50FF 
 846      99951C8C 
 847 1a93 5652DB3E 		.ascii	"VR\333>\0136[#\003B\214\344\276\031G\004\230}\034\256"
 847      0B365B23 
 847      03428CE4 
 847      BE194704 
 847      987D1CAE 
 848 1aa7 18AD2F3A 		.ascii	"\030\255/:\013\261\352\244\017\011\260X\011\377U\225"
 848      0BB1EAA4 
 848      0F09B058 
 848      09FF5595 
 849 1ab7 9B500FCC 		.ascii	"\233P\017\314\344\350\005mI4W\320\253\272\300H3\224"
 849      E4E8056D 
 849      493457D0 
 849      ABBAC048 
 849      3394
 850 1ac9 1CABA77C 		.ascii	"\034\253\247|\011\260\331\2754\204\006\000^\032}\017"
 850      09B0D9BD 
 850      34840600 
 850      5E1A7D0F 
 851 1ad9 D9755A52 		.ascii	"\331uZR\251\243\036\341K\226\030\241\370B\005\264\352"
 851      A9A31EE1 
 851      4B9618A1 
 851      F84205B4 
 851      EA
 852 1aea C939AD4F 		.ascii	"\3119\255O\344\204V\"zF\313\217';\3734$84\230I\222b"
 852      E4845622 
ARM GAS  C:\Users\pc\AppData\Local\Temp\cc4n66R4.s 			page 69


 852      7A46CB8F 
 852      273BFB34 
 852      24383498 
 853 1b01 41EFD35A 		.ascii	"A\357\323ZA\317h\275\320\2213\030\376z\246\032\236\227"
 853      41CF68BD 
 853      D0913318 
 853      FE7AA61A 
 853      9E97
 854 1b13 BCF783FF 		.ascii	"\274\367\203\377\002\265\014\374!'\272\010\253\231\036"
 854      02B50CFC 
 854      2127BA08 
 854      AB991E
 855 1b22 3F03F782 		.ascii	"?\003\367\202\303\303D\302\210\1771\231\303\015\301"
 855      C3C344C2 
 855      887F3199 
 855      C30DC1
 856 1b31 41E04EF0 		.ascii	"A\340N\360\222`\223\231j -\276\304\340\263\017\204e"
 856      92609399 
 856      6A202DBE 
 856      C4E0B30F 
 856      8465
 857 1b43 1A8802EF 		.ascii	"\032\210\002\357Lp\375\243\025\226\337\206\205\204\007"
 857      4C70FDA3 
 857      1596DF86 
 857      858407
 858 1b52 7EFA6586 		.ascii	"~\372e\206\344\012\222\261\254\244E\322\306^Fx\020X"
 858      E40A92B1 
 858      ACA445D2 
 858      C65E4678 
 858      1058
 859 1b64 8D3FF9F1 		.ascii	"\215?\371\361G?\375\365\207\357y\005\204,\017Xa\201"
 859      473FFDF5 
 859      87EF7905 
 859      842C0F58 
 859      6181
 860 1b76 7217028F 		.ascii	"r\027\002\217\355\237<O\271\203Q\351\377\356\373\037"
 860      ED9F3C4F 
 860      B98351E9 
 860      FFEEFB1F 
 861 1b86 BDF7916C 		.ascii	"\275\367\221l&\324\022l1.\015\014d\210\001\347\177\200"
 861      26D4126C 
 861      312E0D0C 
 861      648801E7 
 861      7F80
 862 1b98 21776A94 		.ascii	"!wj\224\233\244\211e\\\360\346\353o}Wo\343\376\037\216"
 862      9BA48965 
 862      5CF0E6EB 
 862      6F7D576F 
 862      E3FE1F8E 
 863 1bac AA9334   		.ascii	"\252\2234"
 864              		.text
 865              		.section	.gnu.lto_.symtab.6ed94cce,"",%progbits
 866 0000 63685265 		.ascii	"chRegFirstThread\000"
 866      67466972 
 866      73745468 
 866      72656164 
 866      00
ARM GAS  C:\Users\pc\AppData\Local\Temp\cc4n66R4.s 			page 70


 867 0011 00       		.ascii	"\000"
 868 0012 00       		.ascii	"\000"
 869 0013 00       		.ascii	"\000"
 870 0014 00000000 		.ascii	"\000\000\000\000\000\000\000\000"
 870      00000000 
 871 001c 8E010000 		.ascii	"\216\001\000\000"
 872 0020 63685265 		.ascii	"chRegNextThread\000"
 872      674E6578 
 872      74546872 
 872      65616400 
 873 0030 00       		.ascii	"\000"
 874 0031 00       		.ascii	"\000"
 875 0032 00       		.ascii	"\000"
 876 0033 00000000 		.ascii	"\000\000\000\000\000\000\000\000"
 876      00000000 
 877 003b 92010000 		.ascii	"\222\001\000\000"
 878 003f 63685265 		.ascii	"chRegFindThreadByName\000"
 878      6746696E 
 878      64546872 
 878      65616442 
 878      794E616D 
 879 0055 00       		.ascii	"\000"
 880 0056 00       		.ascii	"\000"
 881 0057 00       		.ascii	"\000"
 882 0058 00000000 		.ascii	"\000\000\000\000\000\000\000\000"
 882      00000000 
 883 0060 96010000 		.ascii	"\226\001\000\000"
 884 0064 63685265 		.ascii	"chRegFindThreadByPointer\000"
 884      6746696E 
 884      64546872 
 884      65616442 
 884      79506F69 
 885 007d 00       		.ascii	"\000"
 886 007e 00       		.ascii	"\000"
 887 007f 00       		.ascii	"\000"
 888 0080 00000000 		.ascii	"\000\000\000\000\000\000\000\000"
 888      00000000 
 889 0088 98010000 		.ascii	"\230\001\000\000"
 890 008c 63685265 		.ascii	"chRegFindThreadByWorkingArea\000"
 890      6746696E 
 890      64546872 
 890      65616442 
 890      79576F72 
 891 00a9 00       		.ascii	"\000"
 892 00aa 00       		.ascii	"\000"
 893 00ab 00       		.ascii	"\000"
 894 00ac 00000000 		.ascii	"\000\000\000\000\000\000\000\000"
 894      00000000 
 895 00b4 9C010000 		.ascii	"\234\001\000\000"
 896 00b8 63685F64 		.ascii	"ch_debug\000"
 896      65627567 
 896      00
 897 00c1 00       		.ascii	"\000"
 898 00c2 00       		.ascii	"\000"
 899 00c3 00       		.ascii	"\000"
 900 00c4 00000000 		.ascii	"\000\000\000\000\000\000\000\000"
 900      00000000 
ARM GAS  C:\Users\pc\AppData\Local\Temp\cc4n66R4.s 			page 71


 901 00cc 39020000 		.ascii	"9\002\000\000"
 902 00d0 636800   		.ascii	"ch\000"
 903 00d3 00       		.ascii	"\000"
 904 00d4 02       		.ascii	"\002"
 905 00d5 00       		.ascii	"\000"
 906 00d6 00000000 		.ascii	"\000\000\000\000\000\000\000\000"
 906      00000000 
 907 00de 04020000 		.ascii	"\004\002\000\000"
 908 00e2 63685468 		.ascii	"chThdRelease\000"
 908      6452656C 
 908      65617365 
 908      00
 909 00ef 00       		.ascii	"\000"
 910 00f0 02       		.ascii	"\002"
 911 00f1 00       		.ascii	"\000"
 912 00f2 00000000 		.ascii	"\000\000\000\000\000\000\000\000"
 912      00000000 
 913 00fa A0010000 		.ascii	"\240\001\000\000"
 914              		.text
 915              		.section	.gnu.lto_.opts,"",%progbits
 916 0000 272D666D 		.ascii	"'-fmath-errno' '-fsigned-zeros' '-ftrapping-math' '"
 916      6174682D 
 916      6572726E 
 916      6F272027 
 916      2D667369 
 917 0033 2D666E6F 		.ascii	"-fno-trapv' '-fno-openmp' '-fno-openacc' '-mcpu=cor"
 917      2D747261 
 917      70762720 
 917      272D666E 
 917      6F2D6F70 
 918 0066 7465782D 		.ascii	"tex-m3' '-mno-thumb-interwork' '-mthumb' '-O2' '-fo"
 918      6D332720 
 918      272D6D6E 
 918      6F2D7468 
 918      756D622D 
 919 0099 6D69742D 		.ascii	"mit-frame-pointer' '-falign-functions=16' '-ffuncti"
 919      6672616D 
 919      652D706F 
 919      696E7465 
 919      72272027 
 920 00cc 6F6E2D73 		.ascii	"on-sections' '-fdata-sections' '-fno-common' '-flto"
 920      65637469 
 920      6F6E7327 
 920      20272D66 
 920      64617461 
 921 00ff 2700     		.ascii	"'\000"
 922              		.text
 923              		.comm	__gnu_lto_v1,1,1
 924              		.comm	__gnu_lto_slim,1,1
 925              		.ident	"GCC: (GNU Tools for Arm Embedded Processors 7-2017-q4-major) 7.2.1 20170904 (release) [ARM
ARM GAS  C:\Users\pc\AppData\Local\Temp\cc4n66R4.s 			page 72


DEFINED SYMBOLS
                            *ABS*:00000000 chregistry.c
                            *COM*:00000001 __gnu_lto_v1
                            *COM*:00000001 __gnu_lto_slim

NO UNDEFINED SYMBOLS
