ARM GAS  C:\Users\pc\AppData\Local\Temp\ccUO0QZO.s 			page 1


   1              		.cpu cortex-m3
   2              		.eabi_attribute 20, 1
   3              		.eabi_attribute 21, 1
   4              		.eabi_attribute 23, 3
   5              		.eabi_attribute 24, 1
   6              		.eabi_attribute 25, 1
   7              		.eabi_attribute 26, 1
   8              		.eabi_attribute 30, 2
   9              		.eabi_attribute 34, 1
  10              		.eabi_attribute 18, 4
  11              		.file	"chthreads.c"
  12              		.section	.gnu.lto_.profile.6ed9512f,"",%progbits
  13 0000 789C6363 		.ascii	"x\234cc```\003bF\206\253,\207\230\000\005\212\001\253"
  13      60606003 
  13      624686AB 
  13      2C879800 
  13      058A01AB 
  14              		.text
  15              		.section	.gnu.lto_.icf.6ed9512f,"",%progbits
  16 0000 789C01B2 		.ascii	"x\234\001\262\000M\377\006\000\000\000\242\000\000\000"
  16      004DFF06 
  16      000000A2 
  16      000000
  17 000f 00000000 		.ascii	"\000\000\000\000\000\000\000\000\033\000\311\312\220"
  17      00000000 
  17      1B00C9CA 
  17      90
  18 001c E00701BF 		.ascii	"\340\007\001\277\276\327\357\007\003\277\267\343\256"
  18      BED7EF07 
  18      03BFB7E3 
  18      AE
  19 0029 0305848F 		.ascii	"\003\005\204\217\353\303\014\006\270\302\251\274\003"
  19      EBC30C06 
  19      B8C2A9BC 
  19      03
  20 0036 07BEAC82 		.ascii	"\007\276\254\202\325\007\010\324\204\257\223\013\011"
  20      D50708D4 
  20      84AF930B 
  20      09
  21 0043 F0F99938 		.ascii	"\360\371\2318\012\210\207\351\303\006\013\240\355\232"
  21      0A8887E9 
  21      C3060BA0 
  21      ED9A
  22 0051 89040CFF 		.ascii	"\211\004\014\377\272\262\307\015\015\376\233\275\330"
  22      BAB2C70D 
  22      0DFE9BBD 
  22      D8
  23 005e 030EE385 		.ascii	"\003\016\343\205\305\231\014\017\357\333\307\301\004"
  23      C5990C0F 
  23      EFDBC7C1 
  23      04
  24 006b 10EF8787 		.ascii	"\020\357\207\207\340\001\021\315\275\241\245\014\022"
  24      E00111CD 
  24      BDA1A50C 
  24      12
  25 0078 DCE9D1F0 		.ascii	"\334\351\321\360\001\023\336\312\332\215\001\024\375"
  25      0113DECA 
ARM GAS  C:\Users\pc\AppData\Local\Temp\ccUO0QZO.s 			page 2


  25      DA8D0114 
  25      FD
  26 0085 E0E1B706 		.ascii	"\340\341\267\006\025\245\327\210\357\010\026\233\245"
  26      15A5D788 
  26      EF08169B 
  26      A5
  27 0092 C1F00F17 		.ascii	"\301\360\017\027\257\322\361\217\004\030\371\230\223"
  27      AFD2F18F 
  27      0418F998 
  27      93
  28 009f BD0C19A3 		.ascii	"\275\014\031\243\326\372\266\004\032\331\362\277m\033"
  28      D6FAB604 
  28      1AD9F2BF 
  28      6D1B
  29 00ad B39CF9F1 		.ascii	"\263\234\371\361\014\034\371\213\267\272\016\000gOS"
  29      0C1CF98B 
  29      B7BA0E00 
  29      674F53
  30 00bc BA       		.ascii	"\272"
  31              		.text
  32              		.section	.gnu.lto_.jmpfuncs.6ed9512f,"",%progbits
  33 0000 789C9552 		.ascii	"x\234\225R;O\3030\020\276\263\363NKx\277\032\011\376"
  33      3B4FC330 
  33      10BEB3F3 
  33      4E4B78BF 
  33      1A09FE
  34 0013 05BFAD53 		.ascii	"\005\277\255S\026\230X\021\003\352\212\030\220J%\240"
  34      16985811 
  34      03EA8A18 
  34      904A25A0 
  35 0023 D0B2A08E 		.ascii	"\320\262\240\216,\210\001\211\037\321\251\352\302\004"
  35      2C880189 
  35      1FD1A9EA 
  35      C204
  36 0031 7739A76A 		.ascii	"w9\247j\354\250\202H\226\025\337\367\214\023\000\300"
  36      ECA88248 
  36      9615DFF7 
  36      8C1300C0 
  37 0041 B1078BA7 		.ascii	"\261\007\213\247\003\210X\3644\320\031\276z\010\264"
  37      038858F4 
  37      34D019BE 
  37      7A08B4
  38 0050 7EE8C9C0 		.ascii	"~\350\311\300~GM\310\220\241\264\230\242\264P\265O;"
  38      7E474DC8 
  38      90A1B498 
  38      A2B450B5 
  38      4F3B
  39 0062 D2AE54D7 		.ascii	"\322\256T\327a\005\325\314\0360\030\255\263\320\200"
  39      6105D5CC 
  39      1E3018AD 
  39      B3D080
  40 0071 9D2C78A1 		.ascii	"\235,x\241\361n:\372n\237\353\236\246\001\336c\276\200"
  40      F16E3AFA 
  40      6E9FEB9E 
  40      A601DE63 
  40      BE80
  41 0083 00341947 		.ascii	"\0004\031Ge*<\242\200>\255\200\003\323\342\002\276\253"
ARM GAS  C:\Users\pc\AppData\Local\Temp\ccUO0QZO.s 			page 3


  41      652A3CA2 
  41      803EAD80 
  41      03D3E202 
  41      BEAB
  42 0095 6F09C6D5 		.ascii	"o\011\306\325Gi\020\266\261\211\301\246fo\012\343\264"
  42      476910B6 
  42      B189C1A6 
  42      666F0AE3 
  42      B4
  43 00a6 6F093852 		.ascii	"o\0118R\334\254?\233\367\003n\026c\206\017F<\223f6\261"
  43      DCAC3F9B 
  43      F7036E16 
  43      63860F46 
  43      3C936636 
  44 00bb 2D9F28AA 		.ascii	"-\237(\252\273\024\260\266\312\235Mn\207\327c\024\223"
  44      BB14B0B6 
  44      CA9D4D6E 
  44      87D76314 
  44      93
  45 00cc 181F8D49 		.ascii	"\030\037\215I\\\232d\302U\260nD6\304$\361\230x\3652"
  45      5C9A64C2 
  45      55B06E44 
  45      36C424F1 
  45      9878F532 
  46 00e0 7FF38518 		.ascii	"\177\363\205\030\341\320\020#IW\367\322\260)\002D\264"
  46      E1D01023 
  46      4957F7D2 
  46      B0290244 
  46      B4
  47 00f1 903518B2 		.ascii	"\2205\030\262\354\345\331\344=d\331\204\256\363\011"
  47      ECE5D9E4 
  47      3D64D984 
  47      AEF309
  48 0100 733A1A7F 		.ascii	"s:\032\177}\236\310\011\203\2361\337R\210\232\365\376"
  48      7D9EC809 
  48      839E31DF 
  48      52889AF5 
  48      FE
  49 0111 A2C9224C 		.ascii	"\242\311\"L\332\246\301\216\344H\313\346\223\331\340"
  49      DAA6C18E 
  49      E448CBE6 
  49      93D9E0
  50 0120 A6250534 		.ascii	"\246%\0054\216\214\204.%v\215Aj\014\352S\325\305z\275"
  50      8E8C842E 
  50      25768D41 
  50      6A0CEA53 
  50      D5C57ABD 
  51 0134 BD2578E4 		.ascii	"\275%x\344\\\315~5\345\373q~\261\232X\001\007\377\001"
  51      5CCD7E35 
  51      E5FB717E 
  51      B19A5801 
  51      07FF01
  52 0147 1F1A70AB 		.ascii	"\037\032p\253\250.\345\343t\320\323\322\311\303\261"
  52      A82EE5E3 
  52      74D0D3D2 
  52      C9C3B1
  53 0156 49ED35A7 		.ascii	"I\3555\247\356,\261\335\324\371\312)\374\002\341\265"
ARM GAS  C:\Users\pc\AppData\Local\Temp\ccUO0QZO.s 			page 4


  53      EE2CB1DD 
  53      D4F9CA29 
  53      FC02E1B5 
  54 0166 F4FA     		.ascii	"\364\372"
  55              		.text
  56              		.section	.gnu.lto_.inline.6ed9512f,"",%progbits
  57 0000 789C9554 		.ascii	"x\234\225TA\213\323P\020\376&yM^\323\3274m\265\253m"
  57      418BD350 
  57      10FE2679 
  57      4D5ED3D7 
  57      346DB5AB 
  58 0015 B101C15D 		.ascii	"\261\001\301]\024\366\352M\212\202\007\017\371\007\202"
  58      14F6EA4D 
  58      8A82070F 
  58      F90782
  59 0024 2078D805 		.ascii	" x\330\005\377\201\330\203\302\202\227 \213 \356\241"
  59      FF81D883 
  59      C2829720 
  59      8B20EEA1 
  60 0034 DE3C8A7A 		.ascii	"\336<\212zX\026\221\340A<\010\372\013\304\223.x)\370"
  60      581691E0 
  60      413C08FA 
  60      0BC4932E 
  60      7829F8
  61 0047 079C792F 		.ascii	"\007\234y/\211\255]\017\3460o\362f\33673_\276\227\000"
  61      89AD5D0F 
  61      E6306FF2 
  61      66DE3733 
  61      5FBE9700 
  62 005b C05D85FA 		.ascii	"\300]\205\372\031\001:!BJ\360gJ\321q\210po\323\003;"
  62      19013A21 
  62      424AF067 
  62      4AD17188 
  62      706FD303 
  63 0070 CA59C9F2 		.ascii	"\312Y\311\362\015\340\345Y\236\021\372=\227\015\257"
  63      0DE0E559 
  63      9E11FA3D 
  63      970DAF
  64 007f 7FB8CFAF 		.ascii	"\177\270\317\257\307\017\310\263)\230\234\243\300\342"
  64      C70FC8B3 
  64      29989CA3 
  64      C0E2
  65 008d 4CAD4D1D 		.ascii	"L\255M\035\246\203\236\273\005\326\336\212/\346\037"
  65      A6839EBB 
  65      05D6DE8A 
  65      2FE61F
  66 009c 3D04F349 		.ascii	"=\004\363IU\307?\334P\342j\273\241\305$\326M\304\244"
  66      55C73FDC 
  66      50E26ABB 
  66      A1C524D6 
  66      4DC4A4
  67 00af D64DC54C 		.ascii	"\326M\305L\255;\0253#\317-R\275!S\300S\363\211\203-"
  67      AD3B1533 
  67      23CF2D52 
  67      BD2153C0 
  67      53F38983 
  68 00c4 7BA63C0B 		.ascii	"{\246<\013\320\034r\2047\376\012\224K\210\326\370\204"
ARM GAS  C:\Users\pc\AppData\Local\Temp\ccUO0QZO.s 			page 5


  68      D01C7284 
  68      37FE0A94 
  68      4B88D6F8 
  68      84
  69 00d5 933C6D95 		.ascii	"\223<m\225\250\221n\221G2\263\035\\m\277\374Qv\357}"
  69      A8916E91 
  69      4732B31D 
  69      5C6DBFFC 
  69      5176EF7D 
  70 00e9 E928F051 		.ascii	"\351(\360Q\263|\254yr/\022\212\240C\016\351\342\012"
  70      B37CAC79 
  70      722F128A 
  70      A0430EE9 
  70      E20A
  71 00fb F462DB86 		.ascii	"\364b\333\206Z\230tyk\353\3713B\374\364\252\335\363"
  71      5A987479 
  71      6BEBF933 
  71      42FCF4AA 
  71      DDF3
  72 010d 5AB670B9 		.ascii	"Z\266p\271\030\014\177\201S.<^\250\032\321\306\330\222"
  72      180C7F81 
  72      532E3C5E 
  72      A81AD1C6 
  72      D892
  73 011f 64B411C4 		.ascii	"d\264\021\304\374\302\335\254\306\363,Fw\304\221dq\007"
  73      FCC2DDAC 
  73      C6F32C46 
  73      77C49164 
  73      7107
  74 0131 517E790D 		.ascii	"Q~y\015\034\035t\006\034\037\024\007T\037\245\210M\262"
  74      1C1D7406 
  74      1C1F1407 
  74      541FA588 
  74      4DB2
  75 0143 DE69F71F 		.ascii	"\336i\367\037s!\317z0\206C\346\333\315\265P\037q\314"
  75      7321CF7A 
  75      308643E6 
  75      DBCDB550 
  75      1F71CC
  76 0156 EC25C29E 		.ascii	"\354%\302\236\030?~{\273&\317,g\236\202\221)\222\331"
  76      183F7E7B 
  76      BB26CF2C 
  76      679E8291 
  76      2992D9
  77 0169 BDD5564E 		.ascii	"\275\325VN#\352\361~\363\305u'\315z\372\001L\237|Jv"
  77      23EAF17E 
  77      F3C57527 
  77      CD7AFA01 
  77      4C9F7C4A 
  78 017e F67D7AF2 		.ascii	"\366}z\362\360\375\347\360\221\177\340G\314\310k\032"
  78      F0FDE7F0 
  78      917FE047 
  78      CCC86B1A 
  79 018e 8392DD72 		.ascii	"\203\222\335r\345\242\215\232\032\356\2365U\210\322"
  79      E5A28D9A 
  79      1AEE9E35 
  79      5588D2
ARM GAS  C:\Users\pc\AppData\Local\Temp\ccUO0QZO.s 			page 6


  80 019d FC62A005 		.ascii	"\374b\240\005L\265\241m\003\033\210\014\371Hw\227\361"
  80      4CB5A16D 
  80      031B880C 
  80      F9487797 
  80      F1
  81 01ae DA8CF786 		.ascii	"\332\214\367\206\306\"\335\235\312\021%\007\225\242"
  81      C622DD9D 
  81      CA112507 
  81      95A2
  82 01bc 9C561B7B 		.ascii	"\234V\033{\233\214\373N\211\230\217\332\252lR\011\323"
  82      9B8CFB4E 
  82      89988FDA 
  82      AA6C5209 
  82      D3
  83 01cd 672AD8FF 		.ascii	"g*\330\377\304\021[\362\243\334\355;\353\030\212\276"
  83      C4115BF2 
  83      A3DCED3B 
  83      EB188ABE 
  84 01dd DF80FE70 		.ascii	"\337\200\376piYYy6\224/\251\230\214\365\351\335u\014"
  84      69595979 
  84      36942FA9 
  84      988CF5E9 
  84      DD750C
  85 01f0 AB429682 		.ascii	"\253B\226\202fqM\013\017\251\\9YJR\226\371\030I9\357"
  85      66714D0B 
  85      0FA95C39 
  85      594A5296 
  85      F9184939 
  86 0205 CFC54523 		.ascii	"\317\305E#|5A\370\365\374\312\357\241\222\177\251\253"
  86      7C3541F8 
  86      F5FCCAEF 
  86      A1927FA9 
  86      AB
  87 0216 31CC4F51 		.ascii	"1\314OQ\246\231\037)\350O\367\313\357eu\212\337r\037"
  87      A6991F29 
  87      E84FF7CB 
  87      EF65758A 
  87      DF721F
  88 0229 8CDF     		.ascii	"\214\337"
  89              		.text
  90              		.section	.gnu.lto_.pureconst.6ed9512f,"",%progbits
  91 0000 789C0DC3 		.ascii	"x\234\015\303\207\015\2000\000\003\301\274\020\241\367"
  91      870D8030 
  91      0003C1BC 
  91      10A1F7
  92 000f 9618E661 		.ascii	"\226\030\346ahO\007']\014!\274\377;dT\25041U\2466\215"
  92      684F0727 
  92      5D0C21BC 
  92      FF3B6454 
  92      A8343155 
  93 0026 694D677A 		.ascii	"iMgz\015f4\223\231\315bV\263\231\335\034:u))\033\351"
  93      0D663493 
  93      99CD6256 
  93      B399DD1C 
  93      3A752929 
  94 003c D6A30F00 		.ascii	"\326\243\017\000b\016\""
  94      620E22
ARM GAS  C:\Users\pc\AppData\Local\Temp\ccUO0QZO.s 			page 7


  95              		.text
  96              		.section	.gnu.lto_chThdRelease.part.1.6ed9512f,"",%progbits
  97 0000 789CA553 		.ascii	"x\234\245S\377KSQ\024\277\347\335\267\347R\373\362["
  97      FF4B5351 
  97      14BFE7DD 
  97      B7E752FB 
  97      F25B
  98 0012 81FEE00F 		.ascii	"\201\376\340\017\216\245\220\257(\024\372!\010\177\226"
  98      8EA590AF 
  98      2814FA21 
  98      087F96
  99 0021 20FF80B0 		.ascii	" \377\200\2609\332@\235lS\352\247=\347\246[\026E\351"
  99      39DA409D 
  99      6C53EAA7 
  99      3DE7A65B 
  99      1645E9
 100 0034 06E3190B 		.ascii	"\006\343\031\013)\203\220\222\312\232-\233\313L3\265"
 100      29839092 
 100      CA9A2D9B 
 100      CB4C33B5 
 101 0044 A41F8A22 		.ascii	"\244\037\212\"\244pZ-%*C2\353\2347\213\234\366\005\272"
 101      A4705A2D 
 101      252A4332 
 101      EB9C378B 
 101      9CF605BA 
 102 0058 F0EEBDE7 		.ascii	"\360\356\275\347\336\363\371\234\3179\357\\\2111\226"
 102      DEF3F99C 
 102      CF39EF5C 
 102      893196
 103 0067 2D323689 		.ascii	"-26\211\3536\374@\307@<9\206\033\021\004m\025\200\323"
 103      EB36FC40 
 103      C7403C39 
 103      861B1104 
 103      6D1580D3 
 104 007b DAA0E700 		.ascii	"\332\240\347\000\264Q\364\300\\\242\300\301\005\307"
 104      B451F4C0 
 104      5CA2C0C1 
 104      05C7
 105 0089 782B8778 		.ascii	"x+\207xs\"\"\024t*8b\301\236\234&\305\273E\345\214\005"
 105      73222214 
 105      742A3862 
 105      C19E9C26 
 105      C5BB45E5 
 106 009f F0A30157 		.ascii	"\360\243\001W\240\000\275\036y.\253\274\205\253H\"\242"
 106      A000BD1E 
 106      792EABBC 
 106      85AB4822 
 106      A2
 107 00b0 F97E34F4 		.ascii	"\371~4\364j\003\231\002\344\24190\2658\221\305w\002"
 107      6A039902 
 107      E4A13930 
 107      B53891C5 
 107      7702
 108 00c2 C3FD8867 		.ascii	"\303\375\210g\344\211d<\247(n%\226\354\340J\276\312"
 108      E489643C 
 108      A7286E25 
 108      96ECE04A 
ARM GAS  C:\Users\pc\AppData\Local\Temp\ccUO0QZO.s 			page 8


 108      BECA
 109 00d4 39F40047 		.ascii	"9\364\000GB\270\006\271p\025r\031\0361\270\016F\362"
 109      42B806B9 
 109      70157219 
 109      1E31B80E 
 109      46F2
 110 00e6 7FD9BDD4 		.ascii	"\177\331\275\324\266^\022) \334\000I\233\204\237\347"
 110      B65E1229 
 110      20DC0049 
 110      9B849FE7 
 111 00f6 1E4DD78B 		.ascii	"\036M\327\213\205\324y\200\303\257\020\210\200\004\275"
 111      85D47980 
 111      C3AF1088 
 111      8004BD
 112 0105 884973FF 		.ascii	"\210Is\377\2200\242\177/\371\013t7\035m~\014\374\220"
 112      9030A27F 
 112      2FF90B74 
 112      371D6D7E 
 112      0CFC90
 113 0118 864D267C 		.ascii	"\206M&|1\321\320\241\311\233k\337\332\336\330r\\\011"
 113      31D1D0A1 
 113      C99B6BDF 
 113      DADED872 
 113      5C09
 114 012a BB37A95C 		.ascii	"\2737\251\\\204\350J\2214\322\210g\3331\227[``p\223"
 114      84E84A91 
 114      34D28867 
 114      DB31975B 
 114      60607093 
 115 013e C8F90A31 		.ascii	"\310\371\0121}(\3466%\200S\032.\370<G\267f\0021\304"
 115      7D28E636 
 115      2580531A 
 115      2EF83C47 
 115      B7660231 
 116 0153 F4AF4EE0 		.ascii	"\364\257N\340s\302X\314\350b9\201\377\027}\207D\307"
 116      73C258CC 
 116      E8623981 
 116      FF177D87 
 116      44C7
 117 0165 578B1E40 		.ascii	"W\213\036@\001wI4N\300\030\017k\327\335\357\026\372"
 117      01774934 
 117      4EC0180F 
 117      6BD7DDEF 
 117      16FA
 118 0177 258A774A 		.ascii	"%\212wJ\353\211\363\215\336!ET\271\216\245\207\202A"
 118      EB89F38D 
 118      DE214554 
 118      B98EA587 
 118      8241
 119 0189 30A4F93F 		.ascii	"0\244\371?\354\027~\347|\017\014\227&t\212\262\364\255"
 119      EC177EE7 
 119      7C0F0C97 
 119      26748AB2 
 119      F4AD
 120 019b 595142C6 		.ascii	"YQB\306\315\022\000u\201\200\375 qF\020\346\303\266"
 120      CD120075 
 120      8180FD20 
ARM GAS  C:\Users\pc\AppData\Local\Temp\ccUO0QZO.s 			page 9


 120      714610E6 
 120      C3B6
 121 01ad A32EF571 		.ascii	"\243.\365q\221V\356\307\002\320:\003\015\341\216\250"
 121      9156EEC7 
 121      02D03A03 
 121      0DE18EA8 
 122 01bd 8E6A18C4 		.ascii	"\216j\030\304\032\276\001w\357k\377\211,\262C\234\332"
 122      1ABE0177 
 122      EF6BFF89 
 122      2CB2439C 
 122      DA
 123 01ce 25E08D8F 		.ascii	"%\340\215\217gPG\246*\034\215\217\016Ja8\003*\317\010"
 123      675047A6 
 123      2A1C8D8F 
 123      0E4A6138 
 123      032ACF08 
 124 01e2 61D30E91 		.ascii	"a\323\016\221\006<\277\330\367q^'wQa\3620*\014C\030"
 124      063CBFD8 
 124      F7715E27 
 124      775161F2 
 124      302A0C43 
 125 01f7 DAB45687 		.ascii	"\332\264V\207\373 \023\357b&\013qz\030S\303\247\233"
 125      FB2013EF 
 125      62260B71 
 125      7A1853C3 
 125      A79B
 126 0209 B289510F 		.ascii	"\262\211Q\017\271h*_\302G\305\024\243\216\030G\210\021"
 126      B9682A5F 
 126      C247C514 
 126      A38E1847 
 126      8811
 127 021b 1E209E25 		.ascii	"\036 \236%\300\035\236\007\322\202~\255\011\337\247"
 127      C01D9E07 
 127      D2827EAD 
 127      09DFA7
 128 022a 8D8517B4 		.ascii	"\215\205\027\264\322/\315\360\263\215\036\240v_~M\243"
 128      D22FCDF0 
 128      B38D1EA0 
 128      765F7E4D 
 128      A3
 129 023b 50886044 		.ascii	"P\210`Dh\377\365\255o\250S\277\374_\247\273\362\237"
 129      68FFF5AD 
 129      6FA853BF 
 129      FC5FA7BB 
 129      F29F
 130 024d CECF5009 		.ascii	"\316\317P\011a\215\027\243\201\307\300@\004,\011\336"
 130      618D17A3 
 130      81C7C040 
 130      042C09DE 
 131 025d C916FF9C 		.ascii	"\311\026\377\234\026\221h\"\221\344\263\014\327WE\257"
 131      16916822 
 131      91E4B30C 
 131      D75745AF 
 132 026d F275012C 		.ascii	"\362u\001,\034\203qpa\026\002&\242\362L\204\372QA\252"
 132      1C837170 
 132      61160226 
 132      A2F24C84 
ARM GAS  C:\Users\pc\AppData\Local\Temp\ccUO0QZO.s 			page 10


 132      FA5141AA 
 133 0281 8CC08258 		.ascii	"\214\300\202X\322Y\214\257\015\037\212\301\013\264\266"
 133      D2598CAF 
 133      0D1F8AC1 
 133      0BB4B6
 134 0290 9B76CBA5 		.ascii	"\233v\313\245\026\353Ak\271\263\256\322jK\355\367\225"
 134      16EB416B 
 134      B9B3AED2 
 134      6A4BEDF7 
 134      95
 135 02a1 EF282996 		.ascii	"\357()\226m\016\331\356\224\035v\223l\2628-vsE\245\243"
 135      6D0ED9EE 
 135      941D7693 
 135      6CB2382D 
 135      767345A5 
 136 02b6 C8C40467 		.ascii	"\310\304\004g\355_1\326\032SU]\245\031q\216#\216\"\013"
 136      ED5F31D6 
 136      1A53555D 
 136      A519718E 
 136      238E220B 
 137 02ca D3D55754 		.ascii	"\323\325WT\325\231\367\374\021f\262UW\333j\344Z\233"
 137      D599F7FC 
 137      1166B255 
 137      57DB6AE4 
 137      5A9B
 138 02dc DDE990F7 		.ascii	"\335\351\220\367\356/+-;\214x\223\315n>P_R\215$\273"
 138      EE2F2B2D 
 138      3B8C7893 
 138      CD6E3E50 
 138      5F528D24 
 139 02f1 FE3DEA0F 		.ascii	"\376=\352\017\265\026\366\035\272\225\230j"
 139      B516F61D 
 139      BA95986A 
 140              		.text
 141              		.section	.gnu.lto__thread_init.6ed9512f,"",%progbits
 142 0000 789C9D96 		.ascii	"x\234\235\226\355O[e\024\300\237s\237\333KK\241\240"
 142      ED4F5B65 
 142      14C09F73 
 142      9FDB4B4B 
 142      A1A0
 143 0012 5BE632F9 		.ascii	"[\3462\371\300\007\027\\bV\027\223\231\314\230\230\370"
 143      C007175C 
 143      62561793 
 143      99CC9898 
 143      F8
 144 0023 07F8617F 		.ascii	"\007\370a\177\200\231\205\204&s t&~\342R\230\240\260"
 144      80998584 
 144      26732074 
 144      267EE252 
 144      98A0B0
 145 0036 4C175E4C 		.ascii	"L\027^LiL\347\034.Y&.0\224\027\265c\035/c\014\206\335"
 145      694CE71C 
 145      2E59262E 
 145      309417B5 
 145      631D2F63 
 146 004d 86C09031 		.ascii	"\206\300\2201\007\003\013\033\023\2310\005\3179\267"
 146      07030B1B 
ARM GAS  C:\Users\pc\AppData\Local\Temp\ccUO0QZO.s 			page 11


 146      13993005 
 146      CF39B7
 147 005c D496B1A2 		.ascii	"\324\226\261\242\375@y\036\356=\277s\316\357\\\356S"
 147      FD40791E 
 147      EE3DBF73 
 147      CEEF5CEE 
 147      53
 148 006d 4D0871D4 		.ascii	"M\010q\324\"\304\007\370\373y\374\001)@\371\344\252"
 148      22C407F8 
 148      FB79FC01 
 148      2940F9E4 
 148      AA
 149 007e 10C56605 		.ascii	"\020\305f\005\200\026\272\031D\221\002EP)\253$\\+\375"
 149      8016BA19 
 149      44910245 
 149      5029AB24 
 149      5C2BFD
 150 0091 C62B2BA4 		.ascii	"\306++\244\027oSq;\337\347\271c\243-@&nCs\235M)\273"
 150      176F5371 
 150      3BDFE7B9 
 150      63A32D40 
 150      266E4373 
 151 00a9 BED275B7 		.ascii	"\276\322u\267\356\257}\240\3255\015\350\026\257TD\015"
 151      EEAF7DA0 
 151      D5350DE8 
 151      16AF5444 
 151      0D
 152 00ba DEDE0419 		.ascii	"\336\336\004\031\320\010\031\224\343<\354\302\233\003"
 152      D0081994 
 152      E33CECC2 
 152      9B03
 153 00c8 77FF1AB4 		.ascii	"w\377\032\264\312W@\340\272\267\264wH\313:\305\201\301"
 153      CA5740E0 
 153      BAB7B477 
 153      48CB3AC5 
 153      81C1
 154 00da 2FA5FE02 		.ascii	"/\245\376\002FA3\310\350@\002\301\267\220\205\267\273"
 154      464133C8 
 154      E84002C1 
 154      B79085B7 
 154      BB
 155 00eb 279A6F80 		.ascii	"'\232o\200\334\313\241\227.\234^N]\013\255\347P\011"
 155      DCCBA197 
 155      2E9C5E4E 
 155      5D0BADE7 
 155      5009
 156 00fd DFAD0FC5 		.ascii	"\337\255\017\305M\013\207\236qO\315J\371\032\207Nt\337"
 156      4D0B879E 
 156      714FCD4A 
 156      F91A874E 
 156      74DF
 157 010f AE328543 		.ascii	"\2562\205C\003\333=\272_\365J\025Z\327\307\252\002\332"
 157      03DB3DBA 
 157      5FF54A15 
 157      5AD7C7AA 
 157      02DA
 158 0121 208B03CE 		.ascii	" \213\003\316\255T\247j*\365\203m\264\203&\000\027\015"
ARM GAS  C:\Users\pc\AppData\Local\Temp\ccUO0QZO.s 			page 12


 158      AD54A76A 
 158      2AF5836D 
 158      B4832600 
 158      170D
 159 0133 8326BFBE 		.ascii	"\203&\277\276\262Z\246\373\027\266{V\315\317\001\225"
 159      B25AA6FB 
 159      17B67B56 
 159      CDCF0195 
 160 0143 AAE08749 		.ascii	"\252\340\207I\342\207f\002\252Z\003\202\330\200\312"
 160      E2876602 
 160      AA5A0382 
 160      D880CA
 161 0152 10A21C01 		.ascii	"\020\242\034\001(W\367\213\217\260+\\\225\370\305\014"
 161      2857F78B 
 161      8FB02B5C 
 161      95F8C50C 
 162 0162 B83DD3AD 		.ascii	"\270=\323\255'\223\211\213\271j\216t\364'\221Z\205k"
 162      2793898B 
 162      B96A8E74 
 162      F427915A 
 162      856B
 163 0174 6DEFE8EB 		.ascii	"m\357\350\353\324|\360y\261\256\353\276m^\231\344\221"
 163      D47CF079 
 163      B1AEEBBE 
 163      6D5E99E4 
 163      91
 164 0185 26F89E7C 		.ascii	"&\370\236|\342\305`\331\320\230\325~\026/\351\231\324"
 164      E2C560D9 
 164      D098D57E 
 164      162FE999 
 164      D4
 165 0196 C20FE083 		.ascii	"\302\017\340\203j\252Q\300\217`\367H\215\340\013\367"
 165      6AAA51C0 
 165      8F60F748 
 165      8DE00BF7 
 166 01a6 DA22F0FF 		.ascii	"\332\"\360\377A3\203\237i\324)\\\000;)_}\344O\243\322"
 166      4133839F 
 166      69D4295C 
 166      003B295F 
 166      7DE44FA3 
 167 01bb 2CA04007 		.ascii	",\240@\007F1\275=\021z2\\d\272B\364\000\323\033B-K\251"
 167      4631BD3D 
 167      117A325C 
 167      64BA42F4 
 167      00D31B42 
 168 01d2 065DC025 		.ascii	"\006]\300%\203\356\231\356I\204\256B'\323y\\]Q&.'B\263"
 168      83EE99EE 
 168      4984AE42 
 168      27D3795C 
 168      5D51262E 
 169 01e9 4237D354 		.ascii	"B7\323T\242\365p\255\221!Y\261\326\313k&\372\022\241"
 169      A2F570AD 
 169      912159B1 
 169      D6CB6B26 
 169      FA12A1
 170 01fc A7402FD3 		.ascii	"\247@/\323MD\277\022k\"\025\351}k\364\221D\3506\270"
 170      4D44BF12 
ARM GAS  C:\Users\pc\AppData\Local\Temp\ccUO0QZO.s 			page 13


 170      6B2215E9 
 170      7D6BF491 
 170      44E836B8 
 171 0210 CA748DE8 		.ascii	"\312t\215\350\375Lo\012t}h6<\003\014\254y\036M\204\216"
 171      FD4C6F0A 
 171      747D6836 
 171      3C030CAC 
 171      791E4D84 
 172 0225 EF05A627 		.ascii	"\357\005\246'\021}\220<\333\210\266\\v\253-e\003Zf\\"
 172      117D903C 
 172      DB88B65C 
 172      76AB2D65 
 172      035A665C 
 173 0239 98023F31 		.ascii	"\230\002?1\314L\260`\254\3464\376_hi\011\215$\025\375"
 173      CC4CB060 
 173      ACE634FE 
 173      5F686909 
 173      8D2415FD 
 174 024d AD9BF10F 		.ascii	"\255\233\361\017>\232-uS2\177\334\206|\360\312t\270"
 174      3E9A2D75 
 174      53327FDC 
 174      867CF0CA 
 174      74B8
 175 025f 81AFABEB 		.ascii	"\201\257\253\353axs\327\350cs\004\376\014\334d\270\305"
 175      617873D7 
 175      E8637304 
 175      FE0CDC64 
 175      B8C5
 176 0271 883ADD7D 		.ascii	"\210:\335}\264\321\206\244r\276\370,\014\201\035\223"
 176      B4D186A4 
 176      72BEF82C 
 176      0C811D93 
 177 0281 FE0C4554 		.ascii	"\376\014ET~\253\205j\367H\370/)\207\343\244\034\211"
 177      7EAB856A 
 177      F748F82F 
 177      2987E3A4 
 177      1C89
 178 0293 4EB97CB3 		.ascii	"N\271|\263\344\210\022\325\354(\330\253e2\365z\013\223"
 178      E48812D5 
 178      EC28D8AB 
 178      6532F57A 
 178      0B93
 179 02a5 63DAE0C7 		.ascii	"c\332\340\307\220\200\2631\316a%\316/4\000\340qZ\236"
 179      9080B331 
 179      CE6125CE 
 179      2F3400E0 
 179      715A9E
 180 02b8 4A82A792 		.ascii	"J\202\247\222\306\377\265\177\233H\246\030\322\246\""
 180      C6FFB57F 
 180      9B48A618 
 180      D2A622
 181 02c7 26E288B8 		.ascii	"&\342\210\270\023O\304\257\021\021w#i\227\313N\275n"
 181      134FC4AF 
 181      11117723 
 181      6997CB4E 
 181      BD6E
 182 02d9 0C4159FF 		.ascii	"\014AY\377D~A\257\3318J\266\300$gK1\262\235\351\233"
ARM GAS  C:\Users\pc\AppData\Local\Temp\ccUO0QZO.s 			page 14


 182      447E41AF 
 182      D9384AB6 
 182      C024674B 
 182      31B29DE9 
 183 02ee 19D3B06E 		.ascii	"\031\323\260n\012\265\341\253\031\246x\324\367p\324"
 183      0AB5E1AB 
 183      19A678D4 
 183      F770D4
 184 02fd 93E0CE0C 		.ascii	"\223\340\316\014w\267R\325sV\225o\360Sv\374ay\273y\347"
 184      77B752D5 
 184      7356956F 
 184      F05376FC 
 184      6179BB79 
 185 0312 493E1D3A 		.ascii	"I>\035:\353\266\235(\321\273u\225\"\247c\017\010~\315"
 185      EBB69D28 
 185      D1BB7595 
 185      22A7630F 
 185      087ECD
 186 0325 CEC04EAC 		.ascii	"\316\300N\254\221M-U\226\004>\333\0279-J)\245\2776\230"
 186      914D2D55 
 186      96043EDB 
 186      17392D4A 
 186      29A5BF36 
 187 033a 24E9263E 		.ascii	"$\351&>5j$D\237&\360\033h\020\242\303$\304E\234\357"
 187      356A2444 
 187      9F26F01B 
 187      6810A2C3 
 187      24C4459C 
 188 034f F50FF3D3 		.ascii	"\365\017\363\323n\202\027\251\362\332\305\012i\330\335"
 188      6E8217A9 
 188      F2DAC50A 
 188      69D8DD
 189 035e 42EDCE86 		.ascii	"B\355\316\206\333m\010\316\316H\243\335\361\306\312"
 189      DB6D08CE 
 189      CE48A3DD 
 189      F1C6CA
 190 036d F4F28B40 		.ascii	"\364\362\213@\026\347\270\351T\206\012\270O&\025\352"
 190      16E7B8E9 
 190      54860AB8 
 190      4F2615EA 
 191 037d 70BC62C6 		.ascii	"p\274b\306A\271\271\010C\355\365\260Z\271^m\375&j\267"
 191      41B9B908 
 191      43EDF5B0 
 191      5AB95E6D 
 191      FD266AB7 
 192 0391 C203CE62 		.ascii	"\302\003\316b\333P\255\006\363\254\366a\254\332\321"
 192      DB50AD06 
 192      F3ACF661 
 192      ACDAD1
 193 03a0 BAB1158B 		.ascii	"\272\261\025\213|\237;\277r\354\353O\255O\252\325\340"
 193      7C9F3BBF 
 193      72ECEB4F 
 193      AD4FAAD5 
 193      E0
 194 03b1 F70DD42E 		.ascii	"\367\015\324.\220Z\271\246v\352I\265\303\250v!\242V"
 194      905AB9A6 
 194      76EA49B5 
ARM GAS  C:\Users\pc\AppData\Local\Temp\ccUO0QZO.s 			page 15


 194      C3A87621 
 194      A256
 195 03c3 8951FB07 		.ascii	"\211Q\373\007v\274H&\026\271\210\311\252\342U \265\032"
 195      76BC4826 
 195      16B988C9 
 195      AAE25520 
 195      B51A
 196 03d5 BC84DB81 		.ascii	"\274\204\333\201\372k'\300P\273\225\332}\024n\267mr"
 196      FA6B27C0 
 196      50BB95DA 
 196      7D146EB7 
 196      6D72
 197 03e7 E0ED88D9 		.ascii	"\340\355\210\331\214J\303\354\237\334s\0323\005,\221"
 197      8C4AC3EC 
 197      9FDC731A 
 197      33052C91 
 198 03f7 59A3AAE9 		.ascii	"Y\243\252\351\376s\2560\177s\240o\007\261\226\231\225"
 198      FE73AE30 
 198      7F73A06F 
 198      07B19699 
 198      95
 199 0408 1E663D36 		.ascii	"\036f=6X<\245YcJ\324\217\230\003\267\357\376\261\035"
 199      583CA559 
 199      634AD48F 
 199      9803B7EF 
 199      FEB11D
 200 041b C694E85C 		.ascii	"\306\224\350\\\300\357\015@\337\026\360\264|\331\261"
 200      C0EF0D40 
 200      DF16F0B4 
 200      7CD9B1
 201 042a CFFE66AE 		.ascii	"\317\376f\256\363\035\347~\327\341lg\236\261~k\377\236"
 201      F31DE77E 
 201      D7E16C67 
 201      9EB17E6B 
 201      FF9E
 202 043c 57F7DAF3 		.ascii	"W\367\332\363\012\355\005.{a\201\303\356\310u\345\026"
 202      0AED052E 
 202      7B6181C3 
 202      EEC875E5 
 202      16
 203 044d E41CC82E 		.ascii	"\344\034\310.\334\355\020\212+_=t\340\335\0345\277\300"
 203      DCED108A 
 203      2B5F3D74 
 203      E0DD1C35 
 203      BFC0
 204 045f 99275D07 		.ascii	"\231']\007\363\367lFp\036r\034<\234\235\203\224BGn\366"
 204      F3F76C46 
 204      701E721C 
 204      3C9C9D83 
 204      9442476E 
 205 0474 EE5C215D 		.ascii	"\356\\!]\357\345\377\003|POY"
 205      EFE5FF03 
 205      7C504F59 
 206              		.text
 207              		.section	.gnu.lto_chThdCreateSuspendedI.6ed9512f,"",%progbits
 208 0000 789C9D97 		.ascii	"x\234\235\227\373OTG\024\307\357\271\263\354\233]^\242"
 208      FB4F5447 
ARM GAS  C:\Users\pc\AppData\Local\Temp\ccUO0QZO.s 			page 16


 208      14C7EFB9 
 208      B3EC9B5D 
 208      5EA2
 209 0012 026DA9D6 		.ascii	"\002m\251\326\030\223\306\255iR\023\223\246?\264\277"
 209      1893C6AD 
 209      69521393 
 209      A63FB4BF 
 210 0022 F707FF02 		.ascii	"\367\007\377\002\013&\320X\245\200\27741\\X\025\020"
 210      0B26D058 
 210      A580BF34 
 210      315C5815 
 210      10
 211 0033 5444405C 		.ascii	"TD@\\V\273-\261\330Z\244VT^\266[\336X\021\037\210\250"
 211      56BB2DB1 
 211      D85AA456 
 211      545EB65B 
 211      DE58111F 
 212 0049 88544145 		.ascii	"\210TAEA\305Z\255\240K\317\231\271\273\356\362\222-"
 212      41C55AAD 
 212      A04BCF99 
 212      B9BBEEF2 
 212      922D
 213 005b 09B3F731 		.ascii	"\011\263\3671\3639\337\363\235\271g\356\325J\222\244"
 213      F339DFF3 
 213      9DB967EE 
 213      D54A92A4 
 214 006b B34AD216 		.ascii	"\263J\322\026\374\215\305\177`\022\310\005\347$)S/\003"
 214      FC8DC57F 
 214      6012C805 
 214      E7242953 
 214      2F03
 215 007d D081A207 		.ascii	"\320\201\242\007)C\206\014\310gE\014.l\375\305\311\362"
 215      2943860C 
 215      C867450C 
 215      2E6CFDC5 
 215      C9F2
 216 008f 9813BB69 		.ascii	"\230\023\273i\360t\254\323q\333B\247\000\361x:\362\260"
 216      F074ACD3 
 216      71DB42A7 
 216      00F1783A 
 216      F2B0
 217 00a1 B5DABCA2 		.ascii	"\265\332\274\242BQ\262\024\367\276\203\246\262\352\363"
 217      4251B214 
 217      F7BE83A6 
 217      B2EAF3
 218 00b0 8AC1C964 		.ascii	"\212\301\311d\251\004\273WC\034\034\2078\212q\002V`"
 218      A904BB57 
 218      431C1C87 
 218      388A7102 
 218      5660
 219 00c2 67576EE3 		.ascii	"gWn\343^`\037\202\204\307/\273\366\027i\227\037\342"
 219      5E601F82 
 219      84C72FBB 
 219      F6176997 
 219      1FE2
 220 00d4 03072B98 		.ascii	"\003\007+\230\362\236\22318\011\314\177 ^\222\340\024"
 220      F29E9331 
ARM GAS  C:\Users\pc\AppData\Local\Temp\ccUO0QZO.s 			page 17


 220      3809CC7F 
 220      205E92E0 
 220      14
 221 00e5 2CA7FECD 		.ascii	",\247\376\315C//\232\330j>\366AN{\205~Y9\037\333Z\031"
 221      432F2F9A 
 221      D86A3EF6 
 221      414E7B85 
 221      7E59391F 
 222 00fc F39D5D69 		.ascii	"\363\235]iW4\030\025j\002\307\323\037v\277u\314S\034"
 222      57341815 
 222      6A02C7D3 
 222      1F76BF75 
 222      CC531C
 223 010f AAD5402D 		.ascii	"\252\325@-,s1\211\244\241\242:\320J\200\277t\265\352"
 223      2C733189 
 223      A4A1A23A 
 223      D04A80BF 
 223      74B5EA
 224 0122 62885BF1 		.ascii	"b\210[\361Lf+n\317\373\271M=5\362\022\220\350\272\016"
 224      4C662B6E 
 224      CFFBB94D 
 224      3D35F212 
 224      90E8BA0E 
 225 0136 15C87A6C 		.ascii	"\025\310zl4\006lBB\201\304X\360Pk\245&\014\033]86\372"
 225      34066C42 
 225      4281C458 
 225      F0506BA5 
 225      260C1B5D 
 226 014d 086C0C91 		.ascii	"\010l\014\221\330\030\243\2601IR\016\306@+\025\267\224"
 226      D818A3B0 
 226      3149520E 
 226      C6402B15 
 226      B794
 227 015f 8B66E091 		.ascii	"\213f\340\221\335-\335\207\254\272\341\321\241\010\012"
 227      DD2DDD87 
 227      ACBAE1D1 
 227      A1080A
 228 016e ED601614 		.ascii	"\355`\026\024V\262\255\261KG^2\236VCcg\253\326\005\007"
 228      56B2ADB1 
 228      4B475E32 
 228      9E564363 
 228      67ABD605 
 229 0183 33154589 		.ascii	"3\025E\211w2\263\203\205B=\245A\266\347\025\366\202"
 229      7732B383 
 229      85423DA5 
 229      41B6E715 
 229      F682
 230 0195 AD5229E0 		.ascii	"\255R)\340\267B\241\001\\PL\211Hp\032l\310\266;\267"
 230      B742A101 
 230      5C504C89 
 230      48701A6C 
 230      C8B63BB7 
 231 01a9 270B3208 		.ascii	"'\0132\010xe\351\211Kf1o5\223\223\223V\370\015Qw +\236"
 231      7865E989 
 231      4B66316F 
 231      35939393 
 231      56F80D51 
ARM GAS  C:\Users\pc\AppData\Local\Temp\ccUO0QZO.s 			page 18


 232 01c1 7A5176D8 		.ascii	"zQv\330Sh\032\0372\212\221\326 E\374\316E\000\211ps"
 232      53681A1F 
 232      328A91D6 
 232      2045FCCE 
 232      45008970 
 233 01d6 1159DD3B 		.ascii	"\021Y\335;\206\031\261\260\363\351\037'\007e\212/\213"
 233      8619B1B0 
 233      F3E91F27 
 233      07658A2F 
 233      8B
 234 01e7 F878C97E 		.ascii	"\370x\311~\323\225kQ\331\256h'\263\240R\370C\205?\353"
 234      D3956B51 
 234      D9AE6827 
 234      B3A052F8 
 234      43853FEB 
 235 01fb A82ED320 		.ascii	"\250.\323 \\\304\325B#\207\313\004o\002\033\212#\376"
 235      5CC4D542 
 235      2387CB04 
 235      6F021B8A 
 235      23FE
 236 020d 78F6E84D 		.ascii	"x\366\350M\263\020\033\206c~:\372L\3419\032\240H\215"
 236      B3101B86 
 236      637E3AFA 
 236      4CE1391A 
 236      A0488D
 237 0220 31FEA8E9 		.ascii	"1\376\250\351(\303\030\240\342\233U|\316\201\252\011"
 237      28C318A0 
 237      E29B557C 
 237      CE81AA09 
 238 0230 6BC61692 		.ascii	"k\306\026\222\323\202d\244\266B\206\220\014\252b\177"
 238      D38264A4 
 238      B6428690 
 238      0CAA627F 
 239 0240 79F173AA 		.ascii	"y\361s\252\263B\033W\307\304\002\253/o\353\262\370n"
 239      B3421B57 
 239      C7C402AB 
 239      2F6FEBB2 
 239      F86E
 240 0252 EAA01D6C 		.ascii	"\352\240\035l\305LC\312;Hy\030\267\331 d\207\007\345"
 240      C54C43CA 
 240      3B487918 
 240      B7D92064 
 240      8707E5
 241 0265 71189CE1 		.ascii	"q\030\234\341\201B\010\366\247\327c\257`\337\372\321"
 241      814208F6 
 241      A7D763AF 
 241      60DFFAD1 
 242 0275 CDB47EC2 		.ascii	"\315\264~\30212\234U\261\335\331\275\375&\237\304\010"
 242      31329C55 
 242      B1DDD9BD 
 242      FD269FC4 
 242      08
 243 0286 E8E4582D 		.ascii	"\350\344X-a\317\221\306p\177\215\021Ai\214\204.\016"
 243      61CF91C6 
 243      707F8D11 
 243      41698C84 
 243      2E0E
ARM GAS  C:\Users\pc\AppData\Local\Temp\ccUO0QZO.s 			page 19


 244 0298 D311ECFC 		.ascii	"\323\021\354\374T\215\301\210\272\3009z\342\\$Q\021"
 244      548DC188 
 244      BAC0397A 
 244      E25C2451 
 244      11
 245 02a9 62CAFF0F 		.ascii	"b\312\377\017\352\022G\031\010\325\0156\354P[;r]\227"
 245      EA124719 
 245      08D50D36 
 245      EC505B3B 
 245      725D97
 246 02bc F14AC9E1 		.ascii	"\361J\311\341\035\242Jh\331\302e\261\004\352\206s\333"
 246      1DA24A68 
 246      D9C265B1 
 246      04EA8673 
 246      DB
 247 02cd B422F5C8 		.ascii	"\264\"\365\310)q\\\343 \315\236\275\353K'[\000=<\226"
 247      29715CE3 
 247      20CD9EBD 
 247      EB4B275B 
 247      003D3C96 
 248 02e1 91625D11 		.ascii	"\221b]\021\351{\215\214\232J\273#\277\201\026\015\275"
 248      E97B8D8C 
 248      9A4ABB23 
 248      BF81160D 
 248      BD
 249 02f2 9C6622DA 		.ascii	"\234f\"\332U\244y\237\330)e\317\363s\364\234e\017\256"
 249      55A4799F 
 249      D82965CF 
 249      F373F49C 
 249      650FAE
 250 0305 89071C87 		.ascii	"\211\007\034\207\273*\2341*!\353\326\311\036`k\370j"
 250      BB2A9C31 
 250      2A21EBD6 
 250      C91E606B 
 250      F86A
 251 0317 C96C393F 		.ascii	"\311l9?f\230N3\302\365\031h}D\213\234B;\222uw\224\261"
 251      66984E33 
 251      C2F51968 
 251      7D448B9C 
 251      423B9275 
 252 032e 4F38CD3E 		.ascii	"O8\315>\366k\256y:m!\334\230\201\326O\264(2\3121\\W"
 252      F66BAE79 
 252      3A6D21DC 
 252      9881D64F 
 252      B42832CA 
 253 0345 6EF495E8 		.ascii	"n\364\225\350\2554}\356s5Q@]((\245\301ku\011V\202\327"
 253      AD347DEE 
 253      73355140 
 253      5D2828A5 
 253      C16B7509 
 254 035c A55C829B 		.ascii	"\245\\\202\233X\303\006\250\204\017\004<\2720\373c\353"
 254      58C306A8 
 254      840F043C 
 254      BA30FB63 
 254      EB
 255 036d 7AB03384 		.ascii	"z\2603\204\004\375\305\3755s\204\004\267h\235q)O\357"
 255      04FDC5FD 
ARM GAS  C:\Users\pc\AppData\Local\Temp\ccUO0QZO.s 			page 20


 255      35738404 
 255      B7689D71 
 255      294FEF
 256 0380 D5971B83 		.ascii	"\325\227\033\203\300a\375Z\004\2679,T\205\015\362\225"
 256      C061FD5A 
 256      04B7392C 
 256      54850DF2 
 256      95
 257 0391 D632F9DC 		.ascii	"\3262\371\334m\245\247r1\3100\204#9\274!Xx\014\334\341"
 257      6DA5A772 
 257      31C83084 
 257      2339BC21 
 257      58780CDC 
 258 03a6 708B0ABF 		.ascii	"p\213\012\277\313\341U#\265/B\005\\\202{\002\356\030"
 258      CBE15523 
 258      B52F4205 
 258      5C827B02 
 258      EE18
 259 03b8 EE0816BE 		.ascii	"\356\010\026\276\020\2069\334\252\302\357\373\331p&"
 259      108639DC 
 259      AAC2EFFB 
 259      D97026
 260 03c7 58582C3C 		.ascii	"XX,<\340\2600\0256\302\225\372\212S,*\035\365\332\320"
 260      E0B03015 
 260      36C295FA 
 260      8A532C2A 
 260      1DF5DAD0 
 261 03db 192C3C0E 		.ascii	"\031,<\016\036rx\270\012\177\024h\203\011\341\217\275"
 261      1E7278B8 
 261      0A7F1468 
 261      8309E18F 
 261      BD
 262 03ec F0EBC1C2 		.ascii	"\360\353\301\302\337\2021\016\217P\341O8\274\272\271"
 262      DF82310E 
 262      8F50E14F 
 262      38BCBAB9 
 263 03fc 6DBB5E78 		.ascii	"m\273^x\014\360\267\327\343\276`\341Fx\312\341\221*"
 263      0CF0B7D7 
 263      E3BE60E1 
 263      4678CAE1 
 263      912A
 264 040e FC1FF238 		.ascii	"\374\037\3628R\224\264\033\365\346\371\303\342\351\031"
 264      5294B41B 
 264      F5E6F9C3 
 264      E2E919
 265 041d 7FC65951 		.ascii	"\177\306YQ*\353y\240\305o\363g\320[\342\364x\301E\365"
 265      2AEB79A0 
 265      C56FF367 
 265      D05BE2F4 
 265      78C145F5 
 266 0431 8D72B18F 		.ascii	"\215r\261\217\025\252\370w\340\005\276\323\375\253\362"
 266      15AAF877 
 266      E005BED3 
 266      FDABF2
 267 0440 4FB6F54D 		.ascii	"O\266\365M\350}\374x\030\347\374\005\202\217\367\017"
 267      E87DFC78 
 267      18E7FC05 
ARM GAS  C:\Users\pc\AppData\Local\Temp\ccUO0QZO.s 			page 21


 267      828FF70F 
 268 0450 B7EF3C6E 		.ascii	"\267\357<n\361\325\313wa\002l\"\364K\265f\032(\001\007"
 268      F1D5CB77 
 268      61026C22 
 268      F44BB566 
 268      1A280107 
 269 0464 D3CD27F0 		.ascii	"\323\315'\360\2539\002{\246\004\036\277b\337&\373%>"
 269      AB39027B 
 269      A6041EBF 
 269      62DF26FB 
 269      253E
 270 0476 499B69B4 		.ascii	"I\233i\264\232\267\"\373\266\227\340\354\313\224)\312"
 270      9AB722FB 
 270      B697E0EC 
 270      CB9429CA 
 271 0486 42159325 		.ascii	"B\025\223%\343T\350\370\274\032T\220\317K9`/\025\\\035"
 271      E354E8F8 
 271      BC1A5490 
 271      CF4B3960 
 271      2F155C1D 
 272 049a D8E599F6 		.ascii	"\330\345\231\366\031\031\266\312\376\323\262\215\270"
 272      1919B6CA 
 272      FED3B28D 
 272      B8
 273 04a7 10C07DA3 		.ascii	"\020\300}\2437\333\345\331\275\311\226\347\366&G\366"
 273      37DBE5D9 
 273      BDC996E7 
 273      F62647F6 
 274 04b7 F326D717 		.ascii	"\363&\327\027|<\373\320\307bv\364\363\\\256\337\343"
 274      7C3CFBD0 
 274      C76276F4 
 274      F35CAEDF 
 274      E3
 275 04c8 CD25B083 		.ascii	"\315%\260\203\207[\344\013W[U\324kB\355\324\303\202"
 275      875BE40B 
 275      575B55D4 
 275      6B42EDD4 
 275      C382
 276 04da 6FC19027 		.ascii	"o\301\220'\253\213 _\316\020;\223H\322S\324Q\251a\237"
 276      AB8B205F 
 276      CE103B93 
 276      48D253D4 
 276      51A9619F 
 277 04ee 71E70A9F 		.ascii	"q\347\012\237\3444\370^\316\313|;\201\006v\312\323w"
 277      E434F85E 
 277      CECB7C3B 
 277      810676CA 
 277      D377
 278 0500 825D32EE 		.ascii	"\202]2\356\004zn\330\213R{s\351\232){\301\276n\035\243"
 278      047A6ED8 
 278      8B527B73 
 278      E99A297B 
 278      C1BE6E1D 
 279 0515 4EBCCE97 		.ascii	"N\274\316\227\340\373\226\377\036\260[\326B\201\214"
 279      E0FB96FF 
 279      1EB05BD6 
 279      42818C
ARM GAS  C:\Users\pc\AppData\Local\Temp\ccUO0QZO.s 			page 22


 280 0524 6AB0C1EB 		.ascii	"j\260\301\353\203\025O\212\0154\203\032\030P_\006\235"
 280      83154F8A 
 280      0D34831A 
 280      18505F06 
 280      9D
 281 0535 8F73FACD 		.ascii	"\217s\372\315\"\365%\224\372\036u\026\333<\255\235L"
 281      22F52594 
 281      FA1E7516 
 281      DB3CAD9D 
 281      4C
 282 0546 A43E703B 		.ascii	"\244>p;?,\247\011\310\315B\236\376b\016\226`/\331\251"
 282      3F2CA709 
 282      C8CD429E 
 282      FE620E96 
 282      602FD9A9 
 283 055a A72C07F2 		.ascii	"\247,\007\362\356'P|.D\370{Y\365\3270O\177\177\300\233"
 283      EE27507C 
 283      2E44F87B 
 283      59F5D730 
 283      4F7F7FC0 
 284 056f 4BA18807 		.ascii	"K\241\210\007\210\231\315\337\020(\366\372[\022\350"
 284      8899CDDF 
 284      1028F6FA 
 284      5B12E8
 285 057e 6F5F59BF 		.ascii	"o_Y\277\307\300\276\341\376\236\335}t\217i\272\277!"
 285      C7C0BEE1 
 285      FE9EDD7D 
 285      748F69BA 
 285      BF21
 286 0590 B06F067F 		.ascii	"\260o\006\177K\311_\203\327\337\273\323\375\275\206"
 286      4BC95F83 
 286      D7DFBBD3 
 286      FDBD86
 287 059f FE96FAFC 		.ascii	"\376\226\372\374\325\004\370\273\037\375u\220\025\016"
 287      D504F8BB 
 287      1FFD7590 
 287      150E
 288 05ad EEEFE19E 		.ascii	"\356\357\341\236S\273\214\344o\010\014\252\376N\034"
 288      53BB8CE4 
 288      6F080CAA 
 288      FE4E1C
 289 05bc 3975D524 		.ascii	"9u\325$R_J\251\227\251\376\266\344\025\270B}\376\306"
 289      525F4AA9 
 289      97A9FEB6 
 289      E415B842 
 289      7DFEC6
 290 05cf E50B7F9D 		.ascii	"\345\013\177\235<\375X\016\226\340\000\371+\244\015"
 290      3CFD580E 
 290      96E000F9 
 290      2BA40D
 291 05de 771D4B57 		.ascii	"w\035KW\203\314\203\350\212!\330A\016\213Sa\337\012"
 291      83CC83E8 
 291      8A21D841 
 291      0E8B5361 
 291      DF0A
 292 05f0 189FAC51 		.ascii	"\030\237\254Q1Y\224\225\377\013\013\177\225x\375\001"
 292      31599495 
ARM GAS  C:\Users\pc\AppData\Local\Temp\ccUO0QZO.s 			page 23


 292      FF0B0B7F 
 292      9578FD01 
 293 0600 D41770D6 		.ascii	"\324\027p\326Og\017\3253\007\377\244\301o8\240/7\374"
 293      4F670FD5 
 293      3307FFA4 
 293      C16F38A0 
 293      2F37FC
 294 0613 02F92061 		.ascii	"\002\371 a\215\355\323\244\344/\222\327\246oNL\336$"
 294      8DEDD3A4 
 294      E42F92D7 
 294      A66F4E4C 
 294      DE24
 295 0625 8E3F5FBB 		.ascii	"\216?_\273j\365G\266Mi\266\324t[Zj\202-!)=)u\375\272"
 295      6AF547B6 
 295      4D69B6D4 
 295      745B5A6A 
 295      822D2129 
 296 063e C4B49509 		.ascii	"\304\264\225\011\022KOL\221\323S4\033\327}\265^\223"
 296      124B4F4C 
 296      91D35334 
 296      1BD77DB5 
 296      5E93
 297 0650 929ABC89 		.ascii	"\222\232\274\211\245oHY\365&J\362\306\204\015\233\023"
 297      A56F4859 
 297      F5264AF2 
 297      C6840D9B 
 297      13
 298 0661 D723292D 		.ascii	"\327#)-!)qe\022b\276N\371\017\211\177\000\235"
 298      21297165 
 298      1262BE4E 
 298      F90F897F 
 298      009D
 299              		.text
 300              		.section	.gnu.lto_chThdCreateSuspended.6ed9512f,"",%progbits
 301 0000 789C8D52 		.ascii	"x\234\215RKOSQ\020\236\271\347\322VAd\255,Jb\003$\206"
 301      4B4F5351 
 301      109EB9E7 
 301      D2564164 
 301      AD2C4A62 
 302 0017 624C2471 		.ascii	"bL$qA\242\254\\\020\023\372\003\010\3346\320H)\351-"
 302      41A2AC5C 
 302      1013FA03 
 302      08DC36D0 
 302      4829E92D 
 303 002b 04565CA1 		.ascii	"\004V\\\241\332\0224\222\200\240P\036J\010nTD|\360\264"
 303      DA123492 
 303      80A0501E 
 303      4A086E54 
 303      447CF0B4 
 304 003f 82028A14 		.ascii	"\202\002\212\024DLLp\201\020 \206\206\240nLDt\316iU"
 304      444C4C70 
 304      81102086 
 304      86A06E4C 
 304      4474CE69 
 305 0054 1E06BD8B 		.ascii	"\036\006\275\213\233s\316|\337\3147\337\214\016\000"
 305      9B73CE7C 
 305      DFCC37DF 
ARM GAS  C:\Users\pc\AppData\Local\Temp\ccUO0QZO.s 			page 24


 305      8C0E00
 306 0063 9618402C 		.ascii	"\226\030@,\002\034\24632@\251&\010p\336 !\362\203f@"
 306      021CA633 
 306      3240A926 
 306      0870DE20 
 306      21F28366 
 307 0078 2897B01C 		.ascii	"(\227\260\034/\261:\206\257=]~V\315\374\004\223\351"
 307      2FB13A86 
 307      AF3D5D7E 
 307      56CDFC04 
 307      93E9
 308 008a FA69B271 		.ascii	"\372i\262q1\226_\021\215t\015\255\215\366\304$wjZ\205"
 308      31965F11 
 308      8D740DAD 
 308      8DF6C424 
 308      776A5A85 
 309 009e 1668588F 		.ascii	"\026hX\217m\352\231\326\366\371\231\004\365\004\357"
 309      6DEA99D6 
 309      F6F99904 
 309      F504EF
 310 00ad C178BC8F 		.ascii	"\301x\274\217\361\274\306\003L&p[\325p-\262\343\010"
 310      F1BCC603 
 310      4C26705B 
 310      D5702DB2 
 310      E308
 311 00bf 74DE98BA 		.ascii	"t\336\230\272^\247K\354\020\304\367\235L;\342g\014\037"
 311      5EA74BEC 
 311      10C4F79D 
 311      4C3BE267 
 311      0C1F
 312 00d1 22DB4AA4 		.ascii	"\"\333J\244'\300G\230\310\361\317\2266f\242Y\232\340"
 312      27C04798 
 312      C8F1CF96 
 312      3666A259 
 312      9AE0
 313 00e3 AEFAC63B 		.ascii	"\256\372\306;\015\246v\301\015\366\037\272Q\251\215"
 313      0DA676C1 
 313      0DF61FBA 
 313      51A98D
 314 00f2 6B3255C5 		.ascii	"k2U\305\307\333\371\374#\370\302\275\315\253\007t2\366"
 314      C7DBF9FC 
 314      23F8C2BD 
 314      CDAB0774 
 314      32F6
 315 0104 A2A98D1A 		.ascii	"\242\251\215\032'\004)\352C\035\376\216y4\372\002\301"
 315      270429EA 
 315      431DFE8E 
 315      7934FA02 
 315      C1
 316 0115 419D78AF 		.ascii	"A\235x\257g\270\205\006\330O\320\001\324\301\016\370"
 316      67B88506 
 316      D84FD001 
 316      D4C10EF8 
 317 0125 9B9544C2 		.ascii	"\233\225D\302\017p\274\304c+\003\336Yd\347\0047\264"
 317      0F70BCC4 
 317      632B03DE 
 317      5964E704 
ARM GAS  C:\Users\pc\AppData\Local\Temp\ccUO0QZO.s 			page 25


 317      37B4
 318 0137 EC0BC811 		.ascii	"\354\013\310\021\205S-I\315\225\325\227\265\266\212"
 318      85532D49 
 318      CD95D597 
 318      B5B68A
 319 0146 383F9371 		.ascii	"8?\223qh\017\215\341\304k\315d\305\0234\001\016\362"
 319      680F8DE1 
 319      C46BCD64 
 319      C5133401 
 319      0EF2
 320 0158 E46C9B98 		.ascii	"\344l\233\230\000\211yJb\370\217&\210\274\253\2733Q"
 320      0089794A 
 320      62F88F26 
 320      88BCABBB 
 320      3351
 321 016a 016DF387 		.ascii	"\001m\363\207\227F\020\327_sq\362\233\254\247Q\222q"
 321      974610D7 
 321      5F7371F2 
 321      9BACA751 
 321      9271
 322 017c 84A73080 		.ascii	"\204\2470\200\217Z\246\311j\001\250\"\255t\252\014\300"
 322      8F5AA6C9 
 322      6A01A822 
 322      AD74AA0C 
 322      C0
 323 018d 324A7F51 		.ascii	"2J\177Q\332\270\267R\034F\023\221\274\037\265A\231/"
 323      DAB8B752 
 323      1C461391 
 323      BC1FB541 
 323      992F
 324 019f 818C461C 		.ascii	"\201\214F\034\241\330*V,\2647t\315\354\264\264\266\345"
 324      A1D82A56 
 324      2CB43774 
 324      CDECB4B4 
 324      B6E5
 325 01b1 60C45279 		.ascii	"`\304Ry\227}\336\364(\300g<\026\26536\321\222\324\304"
 325      977DDEF4 
 325      28C0673C 
 325      16B53336 
 325      D192D4C4 
 326 01c5 782DC0E7 		.ascii	"x-\300\347\273-\030\245\316\307\270\005c\334\002\204"
 326      BB2D18A5 
 326      CEC7B805 
 326      63DC0284 
 327 01d5 2FBCEACD 		.ascii	"/\274\352\315\326\356\257\373\023<R\253v\315\350\017"
 327      D6EEAFFB 
 327      133C52AB 
 327      76CDE80F 
 328 01e5 67BCBDD8 		.ascii	"g\274\275\330\257\031d\211T\217c\202py=4;'\321\013\276"
 328      AF196489 
 328      548F6382 
 328      70793D34 
 328      3B27D10B 
 329 01fa 4059E806 		.ascii	"@Y\350\006|)\266\372\326\320\310RL\2027\302\026\243"
 329      7C29B6FA 
 329      D6D0C852 
 329      4C8237C2 
ARM GAS  C:\Users\pc\AppData\Local\Temp\ccUO0QZO.s 			page 26


 329      16A3
 330 020c FE7CA7FB 		.ascii	"\376|\247\373m\264`Op6\276B\231<\2530\012\017\000B\350"
 330      6DB4604F 
 330      7036BE42 
 330      993CAB30 
 330      0A0F0042 
 331 0221 99AF7E37 		.ascii	"\231\257~7\206\274\273F\306s\364\366\206\346\364\345"
 331      86BCBB46 
 331      C673F4F6 
 331      86E6F4E5 
 332 0231 DF35839F 		.ascii	"\3375\203\237\351\353)\007\340$\226C#\223\374\314 \230"
 332      E9EB2907 
 332      E0249643 
 332      2393FCCC 
 332      2098
 333 0243 62E7681E 		.ascii	"b\347h\036\004\027\356\363\031\023\257\376\302\360\224"
 333      0417EEF3 
 333      1913AFFE 
 333      C2F094
 334 0252 3E6C2660 		.ascii	">l&`p\253\231\341\031G\032\334l\3750\024\375K{Ph\237"
 334      70AB99E1 
 334      19471ADC 
 334      6CFD3014 
 334      FD4B7B50 
 335 0268 12DA770A 		.ascii	"\022\332w\012\235\016\013\235\357\270\322\227'j\000"
 335      9D0E0B9D 
 335      EFB8D297 
 335      276A00
 336 0277 ACD1B57A 		.ascii	"\254\321\265znL\027\021\313'\351\243%\247E Z\252r\322"
 336      6E4C1711 
 336      CB27E9A3 
 336      25A74520 
 336      5AAA72D2 
 337 028b 9C916FCF 		.ascii	"\234\221o\317\265[\334\305V\2733|>k9\226v\302\354T\315"
 337      B55BDCC5 
 337      56BB337C 
 337      3E6B3996 
 337      76C2EC54 
 338 02a0 2EB75975 		.ascii	".\267Yu)f%\337\235\357\262\345X\325\024\005\230\333"
 338      296625DF 
 338      9DEFB2E5 
 338      58D51405 
 338      98DB
 339 02b2 5A24B98B 		.ascii	"Z$\271\213\376\311\263\027*\005\305V\033q\32525%\037"
 339      FEC9B317 
 339      2A05C556 
 339      1B71D532 
 339      35251F
 340 02c5 A24A720A 		.ascii	"\242Jr\012\212m\351{\322\024\247\303\341,4\0279]n\325"
 340      8A6DE97B 
 340      D214A7C3 
 340      E12C3417 
 340      395D6ED5 
 341 02d9 7C2A2B33 		.ascii	"|*+3#\263\224\370\212\323e\313.IsP\222\323\377C\267"
 341      23B394F8 
 341      8AD365CB 
 341      2E497350 
ARM GAS  C:\Users\pc\AppData\Local\Temp\ccUO0QZO.s 			page 27


 341      92D3FF43 
 342 02ee 95BACD19 		.ascii	"\225\272\315\031\231\2263\226?\032\034\252]\315\316"
 342      99963396 
 342      3F1A1CAA 
 342      5DCDCE
 343 02fd 53144A11 		.ascii	"S\024J\021\227i\3112\346\346\250\266\"\227\375\250\321"
 343      9769C932 
 343      E6E6A8B6 
 343      2297FDA8 
 343      D1
 344 030e 940A920B 		.ascii	"\224\012\222\013\364\016\233\303\351*\203\237E\225\227"
 344      F40E9BC3 
 344      E92A839F 
 344      459597
 345 031d CB       		.ascii	"\313"
 346              		.text
 347              		.section	.gnu.lto_chThdCreateI.6ed9512f,"",%progbits
 348 0000 789C558F 		.ascii	"x\234U\217\277KBQ\024\307\317\367\035}\032TCc98\004"
 348      BF4B4251 
 348      14C7CFF7 
 348      1D7D1A54 
 348      43633938 
 349 0015 E2D22B02 		.ascii	"\342\322+\002\203\326\246\246 \377\202\322@'C_\2637"
 349      83D6A6A6 
 349      20FF82D2 
 349      4027435F 
 349      B337
 350 0027 134A6A08 		.ascii	"\023Jj\010*+{\220C\345X\221\375\260\226GD[?\327\232"
 350      2A2B7B90 
 350      43E55891 
 350      FDB09647 
 350      445B3FD7 
 351 003c 6A15A1BD 		.ascii	"j\025\241\275\254s\225\240\206\313\375~/\237\363\375"
 351      AC7395A0 
 351      86CBFD7E 
 351      2F9FF3FD 
 352 004c DE6312D1 		.ascii	"\336c\022\3218\210\"r\367\311\001\023\214\325{\242y"
 352      38882272 
 352      F7C90113 
 352      8CD57BA2 
 352      79
 353 005d BF0168A1 		.ascii	"\277\001h\241\374\240\254\201,Vx\235\361\224?rx\231"
 353      FCA0AC81 
 353      2C56789D 
 353      F1943F72 
 353      7899
 354 006f 1DC13C62 		.ascii	"\035\301<b?\356J\357\335\332\002A\261\365\306m\2653"
 354      3FEE4AEF 
 354      DDDA0241 
 354      B1F5C66D 
 354      B533
 355 0081 5C512AA7 		.ascii	"\\Q*\247\334\315\255\236\235\352\243\352p\330\240\242"
 355      DCCDAD9E 
 355      9DEAA3EA 
 355      70D8A0A2 
 356 0091 E0550470 		.ascii	"\340U\004p\202\200\3568EX\340r\341z\015<\014\022\375"
 356      8280EE38 
ARM GAS  C:\Users\pc\AppData\Local\Temp\ccUO0QZO.s 			page 28


 356      4558E072 
 356      E17A0D3C 
 356      0C12FD
 357 00a4 F9B0BD6E 		.ascii	"\371\260\275n\206\366[\203\257\007\254\372\035f\234"
 357      86F65B83 
 357      AF07ACFA 
 357      1D669C
 358 00b3 81FF0ECA 		.ascii	"\201\377\016\312\023\341\034!\315\277\03577\272L\217"
 358      13E11C21 
 358      CDBF1D37 
 358      37BA4C8F 
 359 00c3 0E96BC0B 		.ascii	"\016\226\274\013\230$;\320\341\263\327U\315\357E\345"
 359      98243BD0 
 359      E1B3D755 
 359      CDEF45E5 
 360 00d3 DE54B03B 		.ascii	"\336T\260;\351\203\314\030\3625\0312\265$Z\022^\226"
 360      E983CC18 
 360      F2351932 
 360      B5245A12 
 360      5E96
 361 00e5 522E15C4 		.ascii	"R.\025\304\212Zp\251\216|\371j\257W\247\224\030\022"
 361      8A5A70A9 
 361      8E7CF96A 
 361      AF57A794 
 361      1812
 362 00f7 5EABD55F 		.ascii	"^\253\325_|\331/\345w\330Sd\011F\015Y*\261\254\351\325"
 362      7CD92FE5 
 362      77D85364 
 362      09460D59 
 362      2AB1ACE9 
 363 010c 74B08D9A 		.ascii	"t\260\215\232\377Q\263\250\013p\331B\341\260\217\032"
 363      FF51B3A8 
 363      0B70D942 
 363      E1B08F1A 
 364 011c C8FDA2F2 		.ascii	"\310\375\242\3629\351\206n\024h06j\215%\222\323\311"
 364      39E9866E 
 364      14683036 
 364      6A8D2592 
 364      D3C9
 365 012e A83D174F 		.ascii	"\250=\027O\246\332z\":4\022\261R\031+m[\231t\314\212"
 365      A6DA7A22 
 365      3A3412B1 
 365      52192B6D 
 365      5B9974CC 
 366 0143 25EC447A 		.ascii	"%\354Dzf*\236\031\210\021\333\361\331\037\226\235y\037"
 366      662A9E19 
 366      8811DBF1 
 366      D91F969D 
 366      791F
 367              		.text
 368              		.section	.gnu.lto_chThdCreate.6ed9512f,"",%progbits
 369 0000 789C8D53 		.ascii	"x\234\215S\335K\223a\024?\347}^\267\325R\302\356\312"
 369      DD4B9361 
 369      143FE77D 
 369      5EB7D552 
 369      C2EECA
 370 0013 8B190D13 		.ascii	"\213\031\015\023\302\025AB\027By\325\205\004\355\017"
ARM GAS  C:\Users\pc\AppData\Local\Temp\ccUO0QZO.s 			page 29


 370      C2154142 
 370      174279D5 
 370      8504ED0F 
 371 0023 107B1D39 		.ascii	"\020{\0359rm\354\235QW{\363\203MV\024d\263\346[j\321"
 371      726DEC9D 
 371      51577BF3 
 371      834D5614 
 371      64B3E65B 
 372 0039 C74D6565 		.ascii	"\307Mee\037\226\331\262\362#\263\251Y\020\222\224\222"
 372      1F96D9B2 
 372      F223B3A9 
 372      59109294 
 372      92
 373 004a 220E29BB 		.ascii	"\"\016)\273)0\353<\317V\351\014\353\275\030\317\363"
 373      2930EB3C 
 373      CF56E90C 
 373      EBBD18CF 
 373      F3
 374 005b 9CDFEF9C 		.ascii	"\234\337\357\234\337\371\2353\003\000\254\227\0012\020"
 374      DFF99D33 
 374      0300AC97 
 374      013210
 375 006a 601D9D91 		.ascii	"`\035\235\221\001J'^\002\0341I\210\374\240\231\020\374"
 375      014A275E 
 375      021C3149 
 375      88FCA099 
 375      10FC
 376 007c 12FAF128 		.ascii	"\022\372\361(\253c8X\335\242\263\020\323\011&\323\365"
 376      AB633858 
 376      DDA2B310 
 376      D30926D3 
 376      F5
 377 008d 737F643C 		.ascii	"s\177d<\203_\021-t\215\317t\265\256\312\275\254i\225"
 377      835F112D 
 377      748DCF74 
 377      B5AECABD 
 377      AC6995
 378 00a0 5AB47E36 		.ascii	"Z\264~6\263\241u@[\2413\011\302\004o\305,\274\205Y\274"
 378      B3A17540 
 378      5BA13309 
 378      C2046FC5 
 378      2CBC8559 
 379 00b5 C66DCC25 		.ascii	"\306m\314%pSm\347Id[\021\350<\027;Sg\310\271(\210\303"
 379      70536DE7 
 379      49645B11 
 379      E83C173B 
 379      5367C8B9 
 380 00cc 9798B641 		.ascii	"\227\230\266Ag\014\357 [H\244'\300\273\230\303\361O"
 380      670CEF20 
 380      5B48A427 
 380      C0BB98C3 
 380      F14F
 381 00de 3FCE0D99 		.ascii	"?\316\015\231Y\276\340N\007{.\233\254\027\004\367M\337"
 381      59BEE04E 
 381      077B2E9B 
 381      AC1704F7 
 381      4DDF
ARM GAS  C:\Users\pc\AppData\Local\Temp\ccUO0QZO.s 			page 30


 382 00f0 DAE62AAD 		.ascii	"\332\346*\255G\223\251*\336[\314\347\037\301\307n\314"
 382      4793A92A 
 382      DE5BCCE7 
 382      1FC1C76E 
 382      CC
 383 0101 9F4A37C8 		.ascii	"\237J7\310\330\206\326&\006\\\032)\272\217\006\374\035"
 383      D886D626 
 383      065C1A29 
 383      BA8F06FC 
 383      1D
 384 0112 ABD6E88B 		.ascii	"\253\326\350\213\216\366\033\304{\230\341\002\032\340"
 384      8EF61BC4 
 384      7B98E102 
 384      1AE0
 385 0120 0382B6A3 		.ascii	"\003\202\266\243\001R\340\257&s\010\337\316\361\022"
 385      0152E0AF 
 385      267308DF 
 385      CEF112
 386 012f 8F4DB607 		.ascii	"\217M\266\007\206\221\355\027\334\370D0*'\025\306\316"
 386      8691ED17 
 386      DCF84430 
 386      2A2715C6 
 386      CE
 387 0140 6D3C5B15 		.ascii	"m<[\025:\2465U\256\326\231\214\035\313hL$\2369KV<B+"
 387      3AA63555 
 387      AED6998C 
 387      1DCB684C 
 387      249E394B 
 388 0158 E0439E9C 		.ascii	"\340C\236\234-\022\023%1\217I\014\377\241\011\"\357"
 388      2D121325 
 388      318F490C 
 388      FFA10922 
 388      EF
 389 0169 EAFA505A 		.ascii	"\352\372PZT\233\377\021\240\021d\366\215N\215\346\362"
 389      549BFF11 
 389      A01164F6 
 389      8D4E8DE6 
 389      F2
 390 017a 49926F04 		.ascii	"I\222o\004\247(@\220:\246\301jQ\250%\251t\252\212\302"
 390      A7284090 
 390      3AA6C16A 
 390      51A825A9 
 390      74AA8AC2 
 391 018e 044A7F11 		.ascii	"\004J\177\021\032Y^(v\242\225H\201)\355\241\314w@F\013"
 391      1A595E28 
 391      76A29548 
 391      8129EDA1 
 391      CC774046 
 392 01a3 3EA1D834 		.ascii	">\241\3304V\216]\250o\031Ju\364d\313\232\244\243\362"
 392      568E5DA8 
 392      6F194A75 
 392      F464CB9A 
 392      A4A3F2
 393 01b6 12F70205 		.ascii	"\022\367\002\005i\200Oy,-5\326wnc\003\343\265\000\237"
 393      69804F79 
 393      2C2D35D6 
 393      776E6303 
ARM GAS  C:\Users\pc\AppData\Local\Temp\ccUO0QZO.s 			page 31


 393      E3B5009F 
 394 01ca 2D75A08B 		.ascii	"-u\240\213\032\357\346\016ts\007\020\276\360\252\347"
 394      1AEFE60E 
 394      74730710 
 394      BEF0AAE7 
 395 01da 1B6F7E5D 		.ascii	"\033o~]\231]-5j\247-z\"\343\325\361\007\232I\226Hu\017"
 395      995D2D35 
 395      6AA72D7A 
 395      22E3D5F1 
 395      079A4996 
 396 01f1 660B933F 		.ascii	"f\013\223?\305\207G$z\301^\224\205n\300\347b\251\257"
 396      C5874724 
 396      7AC15E94 
 396      856EC0E7 
 396      62A9AF
 397 0204 743CF9B8 		.ascii	"t<\371\270*;\220d\213I\317^\273\371\332,\330}\234\215"
 397      2A3B9064 
 397      8B49CF5E 
 397      BBF9DA2C 
 397      D87D9C8D 
 398 0218 2F5026CF 		.ascii	"/P&\317*-\302\003\2008V\277\017\275\355E\336]\204\361"
 398      2A2DC203 
 398      803856BF 
 398      0FBDED45 
 398      DE5D84F1 
 399 022c 1C6D6DF1 		.ascii	"\034mm\361\021\243\377\273f\322\2311L9\000\373\321\017"
 399      11A3FFBB 
 399      66D29931 
 399      4C3900FB 
 399      D10F
 400 023e 1126E9CC 		.ascii	"\021&\351\314$\230b\345h\036\004'zM\323\364%\306\237"
 400      249862E5 
 400      681E0427 
 400      7A4DD3F4 
 400      25C69F
 401 0251 60317745 		.ascii	"`1wE\230\031\211\373Rpy\336\353\361\266o\351\334\354"
 401      981989FB 
 401      527079DE 
 401      EBF1B66F 
 401      E9DCEC
 402 0264 95D46C0C 		.ascii	"\225\324l\014\263tf\026\303\343\033B\341pMg\314\230"
 402      B3746616 
 402      C3E31B42 
 402      E1704D67 
 402      CC98
 403 0276 9805E040 		.ascii	"\230\005\340@r\026\315\365-\231\211\005I\3323\337\370"
 403      7216CDF5 
 403      2D998905 
 403      49DA33DF 
 403      F8
 404 0287 A1C3FCAB 		.ascii	"\241\303\374\253\363\001\321\371\240\350<\265\315\241"
 404      F301D1F9 
 404      A0E83CB5 
 404      CDA1
 405 0295 449BEF2F 		.ascii	"D\233\357/\036\277\277O\224\000\230\241k\350]\257!\331"
 405      1EBFBF4F 
 405      940098A1 
ARM GAS  C:\Users\pc\AppData\Local\Temp\ccUO0QZO.s 			page 32


 405      6BE85DAF 
 405      21D9
 406 02a7 2ADF8320 		.ascii	"*\337\203 \375Ch\215\210\266Y\331n+,s\356u\332}\025"
 406      FD43688D 
 406      88B659D9 
 406      6E2B2C73 
 406      EE75DA7D 
 407 02bc A54E77E2 		.ascii	"\245Nw\342\274\333\276%\177\233\315\255\332\274>\233"
 407      BCDBBE25 
 407      7F9BCDAD 
 407      DABC3E9B 
 408 02cc EA556C4A 		.ascii	"\352UlJ\231\257\314\353()U\363\024`\276R\217\344\363"
 408      99AFCCEB 
 408      282955F3 
 408      1460BE52 
 408      8FE4F3
 409 02df FC93E73C 		.ascii	"\374\223\347<\240\224W\224:\210\253\036V\363\312 \355"
 409      A0945794 
 409      3A88AB1E 
 409      56F3CA20 
 409      ED
 410 02f0 60497985 		.ascii	"`Iy\205\243`Y\232\342v\271\334\007l\036\267\327\247"
 410      A360599A 
 410      E276B9DC 
 410      076C1EB7 
 410      D7A7
 411 0302 DA76EC29 		.ascii	"\332v\354)*,:D|\305\355u\024\037\314wQ\222\235\377C"
 411      2A2C3A44 
 411      7CC5ED75 
 411      141FCC77 
 411      51929DFF 
 412 0317 771CF2D9 		.ascii	"w\034\362\331\012\213\354\273\354\1774\270T\247Z\274"
 412      0A8BECBB 
 412      EC7F34B8 
 412      54A75ABC 
 413 0327 4F5128C5 		.ascii	"OQ(\305\352\"\373\036\313\336\022\325\341\361:7Y\254"
 413      EA22FB1E 
 413      CBDE12D5 
 413      E1F13A37 
 413      59AC
 414 0339 9B41F282 		.ascii	"\233A\362\202\321\345p\271\275\207\341'\026\373\252"
 414      D1E570B9 
 414      BD87E127 
 414      16FBAA
 415 0348 DC       		.ascii	"\334"
 416              		.text
 417              		.section	.gnu.lto_chThdCreateStatic.6ed9512f,"",%progbits
 418 0000 789C9557 		.ascii	"x\234\225WkP\024W\026\276\247o\317\213\227\003&l\226"
 418      6B501457 
 418      16BEA76F 
 418      CF8B9703 
 418      266C96
 419 0013 B09B6123 		.ascii	"\260\233a#\245\251Je\222\332\252\2656\225\335\252\254"
 419      A5A94A65 
 419      92DAAAB5 
 419      3695DDAA 
 419      AC
ARM GAS  C:\Users\pc\AppData\Local\Temp\ccUO0QZO.s 			page 33


 420 0024 FB23FBC3 		.ascii	"\373#\373\303\332\252\3603?,2\022\241J\204e0\233\244"
 420      DAAAF033 
 420      3F2C3212 
 420      A14A8465 
 420      309BA4
 421 0037 B68A6650 		.ascii	"\266\212fP\036A\362P@\2041\214\017\300\204\345\3413"
 421      1E41F250 
 421      4084318C 
 421      0FC084E5 
 421      E133
 422 0049 2260263E 		.ascii	"\"`&>1\210\"b$\202\006e\005yn \256Q\243\260\347\334"
 422      31882262 
 422      24820665 
 422      05796E20 
 422      AE51A3B0 
 423 005f EE99CC0C 		.ascii	"\356\231\314\014\010\314\024\325t\367=\337w\316\371"
 423      08CC14D5 
 423      74F73DDF 
 423      77CEF9
 424 006e CEB9F7F6 		.ascii	"\316\271\367\366\3253\306\306\315\214\275\003\214=\213"
 424      D533C6C6 
 424      CD8CBD03 
 424      8C3D8B
 425 007d F7C01948 		.ascii	"\367\300\031H\237\\`,\333(\001\320\215b\004\226%A\026"
 425      9F5C602C 
 425      DB2801D0 
 425      8D620496 
 425      254116
 426 0090 6CE1C51C 		.ascii	"l\341\305\034.mjt\362B\356D3\031\037';\312\007\"\350"
 426      2E6D6A74 
 426      F242EE44 
 426      33191F27 
 426      3BCA0722 
 427 00a5 11C0828F 		.ascii	"\021\300\202\217c\023g\016\205\275P\243(\016\305\275"
 427      6313670E 
 427      85BD50A3 
 427      280EC5BD 
 428 00b5 BD2CBAE2 		.ascii	"\275,\272\342P\247brr\211\225\242\371!\210\205\203\020"
 428      50A76272 
 428      728995A2 
 428      F9218885 
 428      8310
 429 00c7 4B3E0EC3 		.ascii	"K>\016\303\013h\354\036\035\250\225\371\357\201\341"
 429      0B68EC1E 
 429      1DA895F9 
 429      EF81E1
 430 00d6 7DCFCCC1 		.ascii	"}\317\314\301\332\210\345U\002\330\267\227+\313\234"
 430      DA88E555 
 430      02D8B797 
 430      2BCB9C
 431 00e5 9CC311E0 		.ascii	"\234\303\021\340\276@|\305\340KX\216\346\273\263\257"
 431      BE407CC5 
 431      E04B588E 
 431      E6BBB3AF 
 432 00f5 B487F395 		.ascii	"\264\207\363\225\002\332_PW$k\320GU\002*\303\321@\250"
 432      02DA5F50 
 432      57246BD0 
ARM GAS  C:\Users\pc\AppData\Local\Temp\ccUO0QZO.s 			page 34


 432      4755022A 
 432      C3D140A8 
 433 0109 CCA04940 		.ascii	"\314\240I@k\035C\343\234\277&\240\267\332n\026\3534"
 433      6B1D43E3 
 433      9CBF26A0 
 433      B7DA6E16 
 433      EB34
 434 011b E8444FCC 		.ascii	"\350DO\314\336\034\345\015'\327\301\261@\260\216A\263"
 434      DE1CE50D 
 434      27D7C1B1 
 434      40B08E41 
 434      B3
 435 012c 009F1F69 		.ascii	"\000\237\037i>l\344\257\013\360\243\316\343G\303<!W"
 435      3E6CE4AF 
 435      0BF0A3CE 
 435      E347C33C 
 435      2157
 436 013e 0BBF7A68 		.ascii	"\013\277zh\011\204\352\031\264\012\350\250R\330\012"
 436      0984EA19 
 436      B40AE8A8 
 436      52D80A
 437 014d FCAF025A 		.ascii	"\374\257\002Z\365\321\375\375\222\006\035\253\321\262"
 437      F5D1FDFD 
 437      92061DAB 
 437      D1B2
 438 015b 3D3E47B6 		.ascii	"=>G\266_\301r\262?u\373QW(\177C`G\363\333j\214\361{"
 438      5FC172B2 
 438      3F75FB51 
 438      57287F43 
 438      6047F3DB 
 439 0173 04F65E4F 		.ascii	"\004\366^O\314\256\034\245M\221Qcp\373\343\351G)\356"
 439      CCAE1CA5 
 439      4D915163 
 439      70FBE3E9 
 439      4729EE
 440 0186 9F2E09D7 		.ascii	"\237.\011\327\313\3605\304\2738\243B\240\376'@\017\336"
 440      CBF035C4 
 440      BB38A342 
 440      A0FE2740 
 440      0FDE
 441 0198 B14D0AFE 		.ascii	"\261M\012\376\334\023\327\365\342})\007\037\030\203"
 441      DC13D7F5 
 441      E27D2907 
 441      1F1883
 442 01a7 93687A0A 		.ascii	"\223hz\012\364,\300\274w\307k)\214\006J\261\27286\324"
 442      F42CC0BC 
 442      77C76B29 
 442      8C064AB1 
 442      BA3836D4 
 443 01bb 92D70DFC 		.ascii	"\222\327\015\374_\002;6\230\357\226\265\010\257\356"
 443      5F023B36 
 443      98EF96B5 
 443      08AFEE
 444 01ca 5BB133A7 		.ascii	"[\2613\247\260Hq9\314Nn\2003\363\304\250\305\261\023"
 444      B0487139 
 444      CC4E6E80 
 444      33F3C4A8 
ARM GAS  C:\Users\pc\AppData\Local\Temp\ccUO0QZO.s 			page 35


 444      C5B113
 445 01dd A5380BF1 		.ascii	"\2458\013\361\014N\0239\367\013\246\015\2039\207\301"
 445      0C4E1339 
 445      F70BA60D 
 445      833987C1 
 446 01ed D005FB15 		.ascii	"\320\005\373\025(\253\206.\235[\231\236\311\303\206"
 446      28AB862E 
 446      9D5B999E 
 446      C9C386
 447 01fc 8BE929CE 		.ascii	"\213\351)\316-j\325-\003\240Zc\373b\263\310($\323\341"
 447      2D6AD52D 
 447      03A05A63 
 447      FB62B3C8 
 447      2824D3E1 
 448 0210 C5883034 		.ascii	"\305\210047\001\325#\024H\332\010\240\262\232qP\212"
 448      3701D523 
 448      1448DA08 
 448      A0B29A71 
 448      508A
 449 0222 C48B290A 		.ascii	"\304\213)\012/!\214\345\243F\330\370\212\233\025`rx"
 449      2F218CE5 
 449      A346D8F8 
 449      8A9B1560 
 449      7278
 450 0234 97E36683 		.ascii	"\227\343f\203 \315\221Z\371\374\251\3017\020\217\240"
 450      20CD915A 
 450      F9FCA9C1 
 450      37108FA0 
 451 0244 BC61A555 		.ascii	"\274a\245U\2469b\000\013\264\343\330(8n\3258\033\273"
 451      A6396200 
 451      0BB4E3D8 
 451      28386ED5 
 451      381BBB
 452 0257 026BB06D 		.ascii	"\002k\260m*Z\253\201<[o\313\032\006\347iL\0278vy\337"
 452      2A5AAB81 
 452      3C5B6FCB 
 452      1A06E769 
 452      4C173876 
 453 026d 8A0A4EBE 		.ascii	"\212\012N\276\030t\314\326\354\002Ju\2214\273H\232\001"
 453      1874CCD6 
 453      EC024A75 
 453      9134BB48 
 453      9A01
 454 027f DB24D1FC 		.ascii	"\333$\321\374\251<p?$\256D\252T\312,N\036J\200\272\201"
 454      A93C703F 
 454      24AE44AA 
 454      54CA2C4E 
 454      1E4A80BA 
 455 0294 66C5284B 		.ascii	"f\305(K\030u'\304\211\262\3740\326\335+\341\033\270"
 455      187527C4 
 455      89B2FC30 
 455      D6DD2BE1 
 455      1BB8
 456 02a6 04B2889B 		.ascii	"\004\262\210\233A\227\230\364\373\216\237\274\035\026"
 456      419798F4 
 456      FB8E9FBC 
 456      1D16
ARM GAS  C:\Users\pc\AppData\Local\Temp\ccUO0QZO.s 			page 36


 457 02b4 57A6A1C3 		.ascii	"W\246\241\303\310v\252\376\300\225P\201\276Lh\350\006"
 457      C876AAFE 
 457      C0955081 
 457      BE4C68E8 
 457      06
 458 02c5 19357358 		.ascii	"\0315sX\204\006\214\215@Nin\303\375\272\267(\275r.\227"
 458      84068C8D 
 458      404E696E 
 458      C3FDBAB7 
 458      28BD722E 
 459 02da 73CABDAE 		.ascii	"s\312\275\256\354\360\3450u-9:33\263\004\256\240\023"
 459      ECF0E530 
 459      752D393A 
 459      3333B304 
 459      AEA013
 460 02ed 3475E6A6 		.ascii	"4u\346\246\250v\370'\241\265`\022M\213\005\304\267h"
 460      A876F827 
 460      A1B56012 
 460      4D8B05C4 
 460      B768
 461 02ff E3281F6E 		.ascii	"\343(\037no7\320;\344)\335|\342\242\201x$\321\177-'"
 461      6F37D03B 
 461      E429DD7C 
 461      E2A28178 
 461      24D17F2D 
 462 0314 3ACEE85D 		.ascii	":\316\350]\360Y6\212\343\212v\362p\204\300\267\024?"
 462      F059368A 
 462      E38A76F2 
 462      7084C0B7 
 462      143F
 463 0326 0E76E7F5 		.ascii	"\016v\347\365\334\010\265\326\221p\030{\004\\\005\027"
 463      DC08B5D6 
 463      9170187B 
 463      045C0517 
 464 0336 947051AD 		.ascii	"\224pQ\255\036\260\242?5\200\307M\341j\010:\004#lpG"
 464      1EB0A23F 
 464      3580C74D 
 464      E16A083A 
 464      04236C70 
 465 034b A3D3A086 		.ascii	"\243\323\240\206\332'B\375N\204\352\350\376\020\264"
 465      DA2742FD 
 465      4E84EAE8 
 465      FE10B4
 466 035a 207CBD5A 		.ascii	" |\275Z\346u\272\004\256\011\247\240v\177\375\270\343"
 466      E675BA04 
 466      AE09A7A0 
 466      767FFDB8 
 466      E3
 467 036b 82EC1D34 		.ascii	"\202\354\0354B/XK0\014\014\250\217\002\322\211lM\201"
 467      422F584B 
 467      300C0CA8 
 467      8F02D289 
 467      6C4D81
 468 037e A91A67A5 		.ascii	"\251\032g\245\212`3\232\303\3659\235F\302\015\341T\314"
 468      8A60339A 
 468      C3F5399D 
 468      46C20DE1 
ARM GAS  C:\Users\pc\AppData\Local\Temp\ccUO0QZO.s 			page 37


 468      54CC
 469 0390 FFEF89D8 		.ascii	"\377\357\211\330\344G\034\014S\277`\222\211\351&1\205"
 469      E4471C0C 
 469      53BF6092 
 469      89E92631 
 469      85
 470 03a1 12D3C3BC 		.ascii	"\022\323\303\274'(1/\325-A\245#\252\001\260\242AS\323"
 470      2728312F 
 470      D52D41A5 
 470      23AA01B0 
 470      A24153D3 
 471 03b5 58AF21EB 		.ascii	"X\257!\353\261\222/\014\242J\261\332\014\376\003Y\336"
 471      B1922F0C 
 471      A24AB1DA 
 471      0CFE0359 
 471      DE
 472 03c6 1E085802 		.ascii	"\036\010X\002\007{\242\347]\002\341\266\3322\010w}U"
 472      077BA2E7 
 472      5D02E1B6 
 472      DA320877 
 472      7D55
 473 03d8 CF3506C7 		.ascii	"\3175\006\307\255#\337\002w\251\375\222}\272s\3224\233"
 473      AD23DF02 
 473      77A9FD92 
 473      7DBA73D2 
 473      349B
 474 03ea 6E290CCE 		.ascii	"n)\014\316A7$\246teek\227\034W\345;\003v\015o\233\242"
 474      413724A6 
 474      7465656B 
 474      971C57E5 
 474      3B03760D 
 475 0401 C0CBB0E9 		.ascii	"\300\313\260\351\206\352\377\350\344O\301\035\210#\177"
 475      86EAFFE8 
 475      E44FC11D 
 475      88237F
 476 0410 0C86D5F8 		.ascii	"\014\206\325\370}\002\310\231<P\0206\333\347\254\275"
 476      7D02C899 
 476      3C501036 
 476      DBE7ACBD 
 477 0420 47F81CA1 		.ascii	"G\370\034\241\024\"\324\256?\266'$`\372_\270\036F\026"
 477      1422D4AE 
 477      3FB62724 
 477      60FA5FB8 
 477      1E4616
 478 0433 141925AB 		.ascii	"\024\031%\253\255 \006\277E`\024\347\316\030E2\346W"
 478      AD2006BF 
 478      456014E7 
 478      CE184532 
 478      E657
 479 0445 2178729F 		.ascii	"!xr\237\272F\213t\024\317\270(\220^P0\230\240r\213H"
 479      BA468B74 
 479      14CFB828 
 479      905E5030 
 479      98A0728B 
 480 045a EEDE69DE 		.ascii	"\356\336i\336\023\022\004\035\316\303\247\341\277\202"
 480      1312041D 
 480      CEC3A7E1 
ARM GAS  C:\Users\pc\AppData\Local\Temp\ccUO0QZO.s 			page 38


 480      BF82
 481 0468 CCA091FD 		.ascii	"\314\240\221\375 \012~z\346'\367\022\352\350h\220`R"
 481      200A7E7A 
 481      E627F712 
 481      EAE86890 
 481      6052
 482 047a 9D5577EF 		.ascii	"\235Uw\357\264\004K\376+\230\022\344F\215\374GA\336"
 482      B4044BFE 
 482      2B9812E4 
 482      468DFC47 
 482      41DE
 483 048c 30D6F420 		.ascii	"0\326\364 \\%gpW%/\037>\027,\271\016\376'\310M\032\371"
 483      5C256770 
 483      57252F1F 
 483      3E172CB9 
 483      0EFE27C8 
 484 04a3 3D1F19BE 		.ascii	"=\037\031\276\011\226\354\031\370I\220\205hd\367E\244"
 484      0996EC19 
 484      F8499085 
 484      6864F745 
 484      A4
 485 04b4 DE89FD0C 		.ascii	"\336\211\375\014F\372\300#CG\260\344\277\206\207\202"
 485      46FAC023 
 485      4347B0E4 
 485      BF868782 
 486 04c4 3C5423FF 		.ascii	"<T#\377\331_\206\030$\177\344!\357\015\226\374Yx,\310"
 486      D95F8618 
 486      247FE421 
 486      EF0D96FC 
 486      59782CC8 
 487 04d8 C334F269 		.ascii	"\3034\362iA~\350\324\331\\\243\2521\300\214G\343\276"
 487      417EE8D4 
 487      D95CA3AA 
 487      31C08C47 
 487      E3BE
 488 04ea 60C99782 		.ascii	"`\311\227\202\"\021y\270F\236-Y\027\230U\016)K]x\256"
 488      221179B8 
 488      469E2D59 
 488      1798550E 
 488      294B5D78 
 489 04ff 37872DDE 		.ascii	"7\207-\336\227\205\026\212\034\341*Bs\265I\362\253@"
 489      9785168A 
 489      1CE12A42 
 489      73B549F2 
 489      AB40
 490 0511 AC58153C 		.ascii	"\254X\025<\013\221\021_\270h\255\246Ts&\267F\250\364"
 490      0B91115F 
 490      B868ADA6 
 490      547326B7 
 490      46A8F4
 491 0524 BF815C29 		.ascii	"\277\201\\)\0136K*\377\221\263}?\033\275\374\277\205"
 491      0B364B2A 
 491      FF91B37D 
 491      3F1BBDFC 
 491      BF85
 492 0536 3CC1BF44 		.ascii	"<\301\277D\345\247\035\263\255\350`\204wU{\016\362%"
 492      E5A71DB3 
ARM GAS  C:\Users\pc\AppData\Local\Temp\ccUO0QZO.s 			page 39


 492      ADE86084 
 492      77557B0E 
 492      F225
 493 0548 ABEABA40 		.ascii	"\253\352\272@\315\341\230\211\022(\347\346\3058\376"
 493      CDE19889 
 493      1228E7E6 
 493      C538FE
 494 0557 701EC785 		.ascii	"p\036\307\205\001\216\037^\315\331,\371$\276E\302\315"
 494      018E1F5E 
 494      CDD92CF9 
 494      24BE45C2 
 494      CD
 495 0568 C5ACE55D 		.ascii	"\305\254\345]$Y={Xp\362}$\274Dj4\037K8\033\314\332n"
 495      24593D7B 
 495      5870F27D 
 495      24BC446A 
 495      341F4B38 
 496 0580 321791F9 		.ascii	"2\027\221\371\211D\237\370\325\341S\"\322\373\021-("
 496      89449FF8 
 496      D5E15322 
 496      D2FB112D 
 496      28
 497 0591 C6D679C4 		.ascii	"\306\326y\304\330\266\200\030\305\276b\224x\235?\314"
 497      D8B68018 
 497      C5BE6294 
 497      789D3FCC 
 498 05a1 ABFA935A 		.ascii	"\253\372\223Z\216\310E\266\357n\034\264@\251p\027\345"
 498      8EC845B6 
 498      EF6E1CB4 
 498      40A97017 
 498      E5
 499 05b2 7557DB31 		.ascii	"uW\3331rC\217\261\223E\004~^\302vO\325\313$m?S\223\234"
 499      72438FB1 
 499      9345047E 
 499      5EC2764F 
 499      D5CB246D 
 500 05ca 2E3E5727 		.ascii	".>W'\363:u7\332:\225\337\342\331\334\316Txw\006\023"
 500      F33A7537 
 500      DA3A95DF 
 500      E2D9DCCE 
 500      54787706 
 501 05df EC9066EF 		.ascii	"\354\220f\357\014\345\022\356\014\221B\261\007\303\005"
 501      0CE512EE 
 501      0C9142B1 
 501      07C305
 502 05ee A7CA5E0D 		.ascii	"\247\312^\015\330\033\266w\0338\031\211\205\277\024"
 502      D81BB677 
 502      1B381989 
 502      85BF14
 503 05fd 1747DF4D 		.ascii	"\027G\337M\241B\322\203S\302p\360\202\357\017\267\273"
 503      A142D283 
 503      53C270F0 
 503      82EF0FB7 
 503      BB
 504 060e AF89FE37 		.ascii	"\257\211\3767\301\012\212~\373\275B\256\346m\241\274"
 504      C10A8A7E 
 504      FBBD42AE 
ARM GAS  C:\Users\pc\AppData\Local\Temp\ccUO0QZO.s 			page 40


 504      E66DA1BC 
 505 061e 776A2237 		.ascii	"wj\"7t\217\217p5\357\376\232\032s\376I )?\023\271/\025"
 505      748F8F70 
 505      35EFFE9A 
 505      1A73FE49 
 505      20293F13 
 506 0635 A40C2A49 		.ascii	"\244\014*I\313HJ\261\277p\304F\276E\020\252\270W4q\243"
 506      CB484AB1 
 506      BF70C446 
 506      BE4510AA 
 506      B8573471 
 507 064a 16296E35 		.ascii	"\026)n5\016\306\201K8x\352I\342\206\300.\217\270\273"
 507      0EC6814B 
 507      3878EA49 
 507      E286C02E 
 507      8FB8BB
 508 065d FDC5EDAB 		.ascii	"\375\305\355\253\2701m\342\003\252\270\347?\256\377"
 508      B8316DE2 
 508      03AAB8E7 
 508      3FAEFF
 509 066c 3474B6B8 		.ascii	"4t\266\270!\260g\016q\367\222\270Q\036q\207f\213{\015"
 509      21B0670E 
 509      71F792B8 
 509      511E7187 
 509      668B7B0D 
 510 0680 C5DDEB15 		.ascii	"\305\335\353\025\327\344'n\025\212[MZT\013q\007\213"
 510      D7E4276E 
 510      158A5B4D 
 510      5A540B71 
 510      078B
 511 0692 B36780C4 		.ascii	"\263g\200\304\015\201\027\361\261\263\372\322.P\363"
 511      0D8117F1 
 511      B1B3FAD2 
 511      2E50F3
 512 06a1 8EA3BC6B 		.ascii	"\216\243\274k4q\233\007;\327x\265\215\335\242j\273O"
 512      34719B07 
 512      3BD778B5 
 512      8DDDA26A 
 512      BB4F
 513 06b3 A4FEB4E0 		.ascii	"\244\376\264\340d\3609i\253F5|q\177\246\306\2770\241"
 513      64F03969 
 513      AB46357C 
 513      717FA6C6 
 513      BF30A1
 514 06c6 2B86B8BE 		.ascii	"+\206\270\276\020\\\321\032W\255\312%\3524\256\326\211"
 514      105CD11A 
 514      57ADCA25 
 514      EA34AED6 
 514      89
 515 06d7 F211DF2A 		.ascii	"\362\021\337*C\365z\361\311M\237\024\277|\200\017\371"
 515      43F57AF1 
 515      C94D9F14 
 515      BF7C800F 
 515      F9
 516 06e8 3D8DF83D 		.ascii	"=\215\370=}MOc\260\331\365\243\372\231\023\260\212\376"
 516      7D4D4F63 
 516      B0D9F5A3 
ARM GAS  C:\Users\pc\AppData\Local\Temp\ccUO0QZO.s 			page 41


 516      FA9913B0 
 516      8AFE
 517 06fa AE940E57 		.ascii	"\256\224\016W\360o,\217\372M\355\335\225\236\307]\251"
 517      F06F2C8F 
 517      FA4DEDDD 
 517      959EC75D 
 517      A9
 518 070b 4E8A75F2 		.ascii	"N\212u\362e\342\234E\307?\337\365\330\200\303\365\222"
 518      65E29C45 
 518      C73FDFF5 
 518      D880C3F5 
 518      92
 519 071c 7A6CAA72 		.ascii	"zl\252r6F\251\247?\355$3]y\363x\250\347\220BV\014\032"
 519      3646A9A7 
 519      3FED2433 
 519      5D79F378 
 519      A8E79042 
 520 0733 24798E13 		.ascii	"$y\216\023I\243$\316\021\375\237\027\037['\\06Ay\177"
 520      49A324CE 
 520      11FD9F17 
 520      1F5B275C 
 520      30364179 
 521 0748 DFAED70E 		.ascii	"\337\256\327\016\033T\364|\\c\360\304\207\260\227m\257"
 521      1B54F47C 
 521      5C63F0C4 
 521      87B0976D 
 521      AF
 522 0759 5A5725A7 		.ascii	"ZW%\247\274\235\222\220\271qmJ\232z\377\367\204WV\376"
 522      BC9D9290 
 522      B9716D4A 
 522      9A7AFFF7 
 522      845756FE 
 523 076d C19A66B7 		.ascii	"\301\232f\267fdZ\355\0316\253-939#)q\255\375%\033\343"
 523      66645AED 
 523      1936AB2D 
 523      39333923 
 523      2971ADFD 
 524 0784 FFB4A7CB 		.ascii	"\377\264\247\313\366\224\017\222\344\364\214\2244)\375"
 524      F6940F92 
 524      E4F48C94 
 524      3429FD
 525 0793 1D9E98B1 		.ascii	"\035\236\230\261N\312L_\220(e\203m\375\306\265IHf\177"
 525      4ECA4C5F 
 525      90286583 
 525      6DFDC6B5 
 525      4948667F 
 526 07a7 DFFE5232 		.ascii	"\337\376R2\323\275\233\270~c\322\237\347\205\331\322"
 526      D3BD9BB8 
 526      7E63D29F 
 526      E785D9D2 
 527 07b7 5253D336 		.ascii	"RS\3236X\323\32322\355\326\327\337\\\275j\365{\210\267"
 527      58D3D332 
 527      32EDD6D7 
 527      DF5CBD6A 
 527      F57B88B7 
 528 07cb A56524AD 		.ascii	"\245e$\255y"
 528      79
ARM GAS  C:\Users\pc\AppData\Local\Temp\ccUO0QZO.s 			page 42


 529 07d0 77652A92 		.ascii	"we*\222\374e1\360\244\3672\255\253V'\374-\341\227\030"
 529      FC6531F0 
 529      A4F732AD 
 529      AB5627FC 
 529      2DE19718 
 530 07e4 52ED29F6 		.ascii	"R\355)\3665\353l6\2440\257Nx\323\362v\242=\011\363y"
 530      35EB6C36 
 530      A430AF4E 
 530      78D3F276 
 530      A23D09F3 
 531 07f9 D112FF32 		.ascii	"\321\022\3772\2232\230!5)5-\343}&oHLM2lH\243\177\214"
 531      93329821 
 531      3529352D 
 531      E37D266F 
 531      484C4D32 
 532 0812 67AE4F7F 		.ascii	"g\256O\177%\210,m\311k\221\236g\376#\375\377\347\017"
 532      25882C6D 
 532      C96B919E 
 532      67FE23FD 
 532      FFE70F
 533 0825 EE9D     		.ascii	"\356\235"
 534              		.text
 535              		.section	.gnu.lto_chThdStart.6ed9512f,"",%progbits
 536 0000 789C8D53 		.ascii	"x\234\215SKO\023Q\024>gn;T\012\206\270\220\205,Jb\003"
 536      4B4F1351 
 536      143E676E 
 536      3B540A86 
 536      B890852C 
 537 0017 244A3126 		.ascii	"$J1&\222\270 QV.\210\011\375\001\004\206\2066\241\224"
 537      92B82051 
 537      562E8809 
 537      FD010486 
 537      8636A194 
 538 002b 740A8115 		.ascii	"t\012\201\025c\001\001\253\306D\255\004\332@|D7\012"
 538      630101AB 
 538      C644AD04 
 538      DA407C44 
 538      370A
 539 003d 223ECACB 		.ascii	"\">\312\313\312\313\007\026\224`b\302B\204\200\022\032"
 539      CACB0716 
 539      946062C2 
 539      42848012 
 539      1A
 540 004e 1089468D 		.ascii	"\020\211F\215\202\347NQ\241\030t\026\223s\357\371\276"
 540      82E74E51 
 540      A1187416 
 540      9373EFF9 
 540      BE
 541 005f 73BEF39D 		.ascii	"s\276\363\235\031\021\000\232\030@,\002\354\241\030"
 541      1911009A 
 541      18402C02 
 541      ECA118
 542 006e 19A0706E 		.ascii	"\031\240pn\024\340\204N@\344\201\242C\250\022\260\012"
 542      14E0844E 
 542      40E481A2 
 542      43A812B0 
 542      0A
ARM GAS  C:\Users\pc\AppData\Local\Temp\ccUO0QZO.s 			page 43


 543 007f 4FB30B0C 		.ascii	"O\263\013\014_\326\264\373\230\207\371\010\246\241\343"
 543      5FD6B4FB 
 543      9887F908 
 543      A6A1E3
 544 008e 72A86966 		.ascii	"r\250if'?\"\032\350\030^\034\356\214K\273\256(n%x\351"
 544      273F221A 
 544      E8185E1C 
 544      EE8C4BBB 
 544      AE286E25 
 545 00a4 736273E7 		.ascii	"sbs\347\013e\207\217\011\340%x'&\341\035L\342=\356b"
 545      0B65878F 
 545      09E02578 
 545      2726E11D 
 545      4CE23DEE 
 546 00b9 1A810767 		.ascii	"\032\201\007g\277\217\353\331A\004\212GjF^\213)\327"
 546      BF8FEBD9 
 546      41048A47 
 546      6A465E8B 
 546      29D7
 547 00cb 54E2E055 		.ascii	"T\342\340U\246\354%\026\336C\266\221\310\013\341}L\341"
 547      A6EC2516 
 547      DE43B691 
 547      C80BE17D 
 547      4CE1
 548 00dd F8E9DBAB 		.ascii	"\370\351\333\253\027\343EM+)'\010\225|\200\"\376\276"
 548      17E3454D 
 548      2B292708 
 548      957C8022 
 548      FEBE
 549 00ef AF51E809 		.ascii	"\257Q\350\011\016\277\027\325{/\303\015\024\300\000"
 549      0EBF17D5 
 549      7B2FC30D 
 549      14C000
 550 00fe 41BB5084 		.ascii	"A\273P\204(\370\312\\\012\341\2738^\340\271w=u\023\310"
 550      28F8CA5C 
 550      0AE1BB38 
 550      5EE0B977 
 550      3D7513C8 
 551 0112 8A546E78 		.ascii	"\212Tnx\256>\2501^Q\345-\371S\375\325\2363J\253;\301"
 551      AE3EA831 
 551      5E51E52D 
 551      F953FDD5 
 551      9E334AAB 
 552 0128 C718F66C 		.ascii	"\307\030\366l\026\311\237\250\302\213~\202\365\242\021"
 552      16C99FA8 
 552      C28B7E82 
 552      F5A211
 553 0137 B09B1767 		.ascii	"\260\233\027g\233\304\364\221\230\207$\206\277h\005"
 553      9BC4F491 
 553      98872486 
 553      BF6805
 554 0146 D036AE0D 		.ascii	"\3206\256\015*\253ku\344\337\3567\215\363\236\375\""
 554      2AAB6B75 
 554      E4DFEE37 
 554      8DF39EFD 
 554      22
 555 0157 AD810F0D 		.ascii	"\255\201\017\015\3654'\355C\011B\003\011\244\250:\010"
ARM GAS  C:\Users\pc\AppData\Local\Temp\ccUO0QZO.s 			page 44


 555      F53427ED 
 555      43094203 
 555      09A4A83A 
 555      08
 556 0168 7328FC45 		.ascii	"s(\374E^\323\366\3620\210F\"\325\315+\275\032\276:\206"
 556      5ED3F6F2 
 556      30884622 
 556      D5CD2BBD 
 556      1ABE3A86 
 557 017c 067C44B9 		.ascii	"\006|D\271\005tO\257x\333\307\243}<\377-q\335G\315\026"
 557      05744FAF 
 557      78DBC7A3 
 557      7D3CFF2D 
 557      71DD47CD 
 558 0191 CF4E6669 		.ascii	"\317Nfi\001\373yN\033\235[\360\24763\336\013p`\353\334"
 558      01FB794E 
 558      1B9D5BF0 
 558      A73633DE 
 558      0B7060EB 
 559 01a6 8334EE10 		.ascii	"\2034\356\020\237{\210\317\215\260\304\273^n\351\370"
 559      9F7B88CF 
 559      8DB0C4BB 
 559      5E6EE9F8 
 560 01b6 129BAC08 		.ascii	"\022\233\254\010-J\243\301\027\351vs\246[\321i\004R"
 560      2D4AA3C1 
 560      17E97673 
 560      A65BD169 
 560      0452
 561 01c8 3D8CC9AA 		.ascii	"=\214\311\252\265\037\302\023\223\002\335\340c\324\250"
 561      B51FC213 
 561      9302DDE0 
 561      63D4A8
 562 01d7 BA019FA8 		.ascii	"\272\001\237\250\337\342\215\276\201\331\270\344\352"
 562      DFE28DBE 
 562      81D9B8E4 
 562      EA
 563 01e4 75B6AAE7 		.ascii	"u\266\252\347\343\255\216Wz\225\375\224\263\361\031"
 563      E3AD8E57 
 563      7A95FD94 
 563      B3F119
 564 01f3 6AC833B7 		.ascii	"j\3103\267A\365\000 \214\265S\015kz>\034G\007\002\341"
 564      41F50020 
 564      8CB5530D 
 564      6B7A3E1C 
 564      470702E1 
 565 0207 C998AA1F 		.ascii	"\311\230\252\037\212\316\307H\257H\370\021\254\242\277"
 565      8ACEC748 
 565      AF48F811 
 565      ACA2BF
 566 0216 43A05C5B 		.ascii	"C\240\\[8\3605\236\273\025Cj\237c\222\217\351T\367\371"
 566      38F0359E 
 566      BB15436A 
 566      9F63928F 
 566      E954F7F9 
 567 022a 6229EDAD 		.ascii	"b)\355\255\355\037\213\211\230\011\030Z7s\331\333\276"
 567      ED1F8B89 
 567      9809185A 
ARM GAS  C:\Users\pc\AppData\Local\Temp\ccUO0QZO.s 			page 45


 567      3773D9DB 
 567      BE
 568 023b 2BB2D7F5 		.ascii	"+\262\327\365\371V[\336\366\351\177I\017\251\322GU\351"
 568      F9565BDE 
 568      F6E97F49 
 568      0FA9D247 
 568      55E9
 569 024d D13AC722 		.ascii	"\321:\307\":\247>\235\355*R[\000,\322\321s*$r\261$\211"
 569      3AA73E9D 
 569      ED2A525B 
 569      002CD2D1 
 569      732A2472 
 570 0264 2FB29E9A 		.ascii	"/\262\236\232\321w@q\206t\330\224m\265\025\330\314\256"
 570      D1774071 
 570      8674D894 
 570      6DB515D8 
 570      CCAE
 571 0276 B2429B23 		.ascii	"\262B\233#\022\0377\037\310<dr\310&\247\313$;%\223d"
 571      121F371F 
 571      C83C6472 
 571      C826A7CB 
 571      243B2593 
 572 028b 75599D96 		.ascii	"uY\235\226\374B9]\002\301U\372O\216\255D*.+\264\020"
 572      FC42395D 
 572      02C155FA 
 572      4F8EAD44 
 572      2A2E2BB4 
 573 02a0 4FAE94D3 		.ascii	"O\256\224\323\255\240-\317/.\263dmK\223\034v\273\243"
 573      ADA02DCF 
 573      2F2EB364 
 573      6D4B931C 
 573      76BBA3
 574 02b3 C454EA70 		.ascii	"\304T\352p\272d\323\221\334\234\354\234\012\342K\016"
 574      BA64D391 
 574      DC9CEC9C 
 574      0AE24B0E 
 575 02c3 A725AF3C 		.ascii	"\247%\257<\323NE\216\376\017\335R\3412e\347\230\217"
 575      D34E458E 
 575      FE0FDD52 
 575      E13265E7 
 575      988F
 576 02d5 99FF68B0 		.ascii	"\231\377h\260\31369\257H\222\250DB\2169\327P\220/[J"
 576      CB3639AF 
 576      4892A844 
 576      428E39D7 
 576      50902F5B 
 577 02ea 9DB67D06 		.ascii	"\235\266}\006c\006\010N\210\261[\354\016g%\374\004\027"
 577      6306084E 
 577      88B15BEC 
 577      0E6725FC 
 577      0417
 578 02fc 2C8212   		.ascii	",\202\022"
 579              		.text
 580              		.section	.gnu.lto_chThdAddRef.6ed9512f,"",%progbits
 581 0000 789C8D53 		.ascii	"x\234\215S\335K\223a\024?\347}\336\315\345*\244\213"
 581      DD4B9361 
 581      143FE77D 
ARM GAS  C:\Users\pc\AppData\Local\Temp\ccUO0QZO.s 			page 46


 581      DECDE52A 
 581      A48B
 582 0012 2EAA8B09 		.ascii	".\252\213\011\015\213\312\327\020\012\272\020\312\253"
 582      0D8BCAD7 
 582      100ABA10 
 582      CAAB
 583 0020 2E46E0FE 		.ascii	".F\340\376\200\320\327\341\006\255\311\336)v\345\353"
 583      80D0D7E1 
 583      06ADC9DE 
 583      2976E5EB 
 584 0030 34675911 		.ascii	"4gY\021T+\326\314aEA\330\247}\270\314\226_}\350R\327"
 584      542BD6CC 
 584      614541D8 
 584      A77DB8CC 
 584      965F7DE8 
 585 0046 0A21883E 		.ascii	"\012!\210>\320H\305\276(\012\302:\3173+\233a\275\027"
 585      D048C5BE 
 585      280AC23A 
 585      CF332B9B 
 585      61BD17
 586 0059 0FCFF39C 		.ascii	"\017\317\363\234\363\373\235\337\371=\3475\002@\276"
 586      F3FB9DDF 
 586      F93DE735 
 586      0240BE
 587 0068 0C908900 		.ascii	"\014\220\211\000\313i\217\014P:\370\020\240\306$!\362"
 587      CB698F0C 
 587      503AF810 
 587      A0C62421 
 587      F2
 588 0079 8D6E42A8 		.ascii	"\215nB\250\226\260\032\367\261\303\014\207\353.\206"
 588      96B01AF7 
 588      B1C30C87 
 588      EB2E86
 589 0088 59230B53 		.ascii	"Y#\013S\232L\307\367\361\320\253\305\374\210h\241\343"
 589      9A4CC7F7 
 589      F1D0ABC5 
 589      FC8868A1 
 589      E3
 590 0099 E4545FDB 		.ascii	"\344T_\333\302\325gt\335\257\307\216&\226\035o\033\322"
 590      C2D56774 
 590      DDAFC78E 
 590      26961D6F 
 590      1BD2
 591 00ab 17849904 		.ascii	"\027\204\231\004AJo\303\025x\005W\360\032Wq5%\367\214"
 591      414A6FC3 
 591      15780557 
 591      F01A5771 
 591      3525F78C 
 592 00bf 7E4B9859 		.ascii	"~K\230Y>\002\355\373\353\372G\2149\247\005p\340\024"
 592      3E02EDFB 
 592      EBFA478C 
 592      39A70570 
 592      E014
 593 00d1 D357120A 		.ascii	"\323W\022\012\257!\233\015\344Dx\035sx\376\313K\323"
 593      AF219B0D 
 593      E444781D 
 593      7378FECB 
ARM GAS  C:\Users\pc\AppData\Local\Temp\ccUO0QZO.s 			page 47


 593      4BD3
 594 00e3 471619E5 		.ascii	"G\026\031\345\010\003\316M\2247\320\210\277\356\353"
 594      0803CE4D 
 594      9437D088 
 594      BFEEEB
 595 00f2 74FA629F 		.ascii	"t\372b\237\307\215\342>\310p\026\004\260\235R\243h\204"
 595      C78DE23E 
 595      C8701604 
 595      B09D52A3 
 595      6884
 596 0104 B4F48F63 		.ascii	"\264\364\217c9\224\037\345\371\022\217\275\356\010$"
 596      39941FE5 
 596      F9128FBD 
 596      EE0824
 597 0113 919509EC 		.ascii	"\221\225\011\354\344XCL\266\236\024\362\3366\255j\252"
 597      E458434C 
 597      B69E14F2 
 597      DE36AD6A 
 597      AA
 598 0124 6DDCAF47 		.ascii	"m\334\257G\374Ya\306\260\343O\221\374K#\236j\242\264"
 598      FC5961C6 
 598      B0E34F91 
 598      FC4B239E 
 598      6AA2B4
 599 0137 5B6805BC 		.ascii	"[h\005\274\311\311\331\037b:I\314m\022\303\027z\002"
 599      C9C9D91F 
 599      623A49CC 
 599      6D12C317 
 599      7A02
 600 0149 B89030C4 		.ascii	"\270\2200\304\364\351\357\001\362o\311x\350M\373:\223"
 600      F4E9EF01 
 600      F26FC978 
 600      E84DFB3A 
 600      93
 601 015a 448DCB8C 		.ascii	"D\215\313\214/2\212\366\241\201:\246\227\321c\260\207"
 601      2F328AF6 
 601      A1813AA6 
 601      97D163B0 
 601      87
 602 016b A4D2AE36 		.ascii	"\244\322\2566\006c(\375Ehh~\241\030C+\201\002o\364["
 602      066328FD 
 602      4568687E 
 602      A118432B 
 602      81026FF4 
 603 0180 327F4486 		.ascii	"2\177D\206\026\274C\261\011\364\277\374\030\274\230"
 603      16BC43B1 
 603      09F4BFFC 
 603      18BC98
 604 018f 4877F4D0 		.ascii	"Hw\364\320\223e3\216\312s\334\253/0\000v\361\230!=6"
 604      9365338E 
 604      CA73DCAB 
 604      2F300076 
 604      F198213D 
 605 01a4 D1B4EA38 		.ascii	"\321\264\3528\343\265\000\273\347:\320C\215\367r\007"
 605      E3B500BB 
 605      E73AD043 
 605      8DF77207 
ARM GAS  C:\Users\pc\AppData\Local\Temp\ccUO0QZO.s 			page 48


 606 01b4 7AB90308 		.ascii	"z\271\003\010oy\325\226\346\313_2\263u\251Y?f\011\247"
 606      6F79D596 
 606      E6CB5F32 
 606      B375A959 
 606      3F6609A7 
 607 01c8 185B5FDD 		.ascii	"\030[_\335\324M\262D\252\3730[\230\374n2\371T\242\033"
 607      D44DB244 
 607      AAFB305B 
 607      98FC6E32 
 607      F954A21B 
 608 01dc BC8BB2D0 		.ascii	"\274\213\262\320\015xOL\345\331\316\356\321\205\331"
 608      0D784F4C 
 608      E5D9CEEE 
 608      D185D9
 609 01eb B53368F1 		.ascii	"\2653h\361\322\037\316_~l\026\350\373\034\215\017P&"
 609      D21FCE5F 
 609      7E6C16E8 
 609      FB1C8D0F 
 609      5026
 610 01fd CFFC16E1 		.ascii	"\317\374\026\341\001\3008\372\243_[\316\255\341\335"
 610      01C038FA 
 610      A35F5BCE 
 610      ADE1DD
 611 020c 85984480 		.ascii	"\205\230D\200\340\356\256\301\014n\212$&\240\243+\336"
 611      E0EEAEC1 
 611      0C6E8A24 
 611      26A0A32B 
 611      DE
 612 021d 678CE089 		.ascii	"g\214\340\211\032j\21083BL\306~^\222b\311\300\3103\263"
 612      1A6A8838 
 612      33424CC6 
 612      7E5E9262 
 612      C9C0C833 
 613 0232 D2AAA742 		.ascii	"\322\252\247B&\034\300\010\036a\302\3408*\304]\033\254"
 613      261CC008 
 613      1E61C2E0 
 613      382AC45D 
 613      1BAC
 614 0244 6F67296A 		.ascii	"og)j\226b\277\032\030\270\224\311\331M\210\370\220x"
 614      9662BF1A 
 614      18B894C9 
 614      D94D88F8 
 614      9078
 615 0256 4840722F 		.ascii	"H@r/\362\234\264b\221\245\377\2506\370\273\332\020*"
 615      F29CB462 
 615      91A5FFA8 
 615      36F8BBDA 
 615      102A
 616 0268 5441CC02 		.ascii	"TA\314\002\037\270\331]\320?\200\303\263\23765p3vO7"
 616      1FB8D95D 
 616      D03F80C3 
 616      B39F3635 
 616      7033764F 
 617 027d BFE834FF 		.ascii	"\277\3504\377trX8\231\020N\246\333\366(e\333\363O\007"
 617      74725838 
 617      99104EA6 
 617      DBF62865 
ARM GAS  C:\Users\pc\AppData\Local\Temp\ccUO0QZO.s 			page 49


 617      DBF34F07 
 618 0291 A265A206 		.ascii	"\242e\242\006\300\024\035\033o\304\215\251\376d.\244"
 618      C0141D1B 
 618      6FC48DA9 
 618      FE642EA4 
 619 02a1 81AAD158 		.ascii	"\201\252\321X\022,O\335\244\024:]%.\273\257\242\324"
 619      122C4FDD 
 619      A4143A5D 
 619      252EBBAF 
 619      A2D4
 620 02b3 E549EDB7 		.ascii	"\345I\355\267\331\327o\334\240x4\305\353S4\257\252\250"
 620      D9D76FDC 
 620      A07834C5 
 620      EB5334AF 
 620      AAA8
 621 02c5 4E9FD3EB 		.ascii	"N\237\323\353(.\325rU\220|\345\377\304\270v\252;*J\035"
 621      282ED572 
 621      55907CE5 
 621      FFC4B876 
 621      AA3B2A4A 
 622 02da 84D37669 		.ascii	"\204\323vi\271N0T\026\357\250p\024\314\013S=n\267g\247"
 622      B94E3054 
 622      16EFA870 
 622      14CC0B53 
 622      3D6EB767 
 623 02ef 52EEF1FA 		.ascii	"R\356\361\3724es\221\255\320VEx\325\343ul\257\334\350"
 623      34657391 
 623      ADD05645 
 623      78D5E375 
 623      6CAFDCE8 
 624 0303 26922DFF 		.ascii	"&\222-\377\003wT\371\224B\233}\253\375\267\006\267\346"
 624      037754F9 
 624      94429B7D 
 624      ABFDB706 
 624      B7E6
 625 0315 D2B697A9 		.ascii	"\322\266\227\251*Qd\331\354E\226\222b\315Q\356u\255"
 625      2A5164D9 
 625      EC459692 
 625      62CD51EE 
 625      75AD
 626 0327 B558F340 		.ascii	"\265X\363@\362B\206\333\341\366xw\301\017_\250\260\372"
 626      F24286DB 
 626      E1F67877 
 626      C10F5FA8 
 626      B0FA
 627              		.text
 628              		.section	.gnu.lto_chThdRelease.6ed9512f,"",%progbits
 629 0000 789CA556 		.ascii	"x\234\245V[LTW\024=\373\236;\367\016\014\210\365\203"
 629      5B4C5457 
 629      143DFB9E 
 629      3BF70E0C 
 629      88F583
 630 0013 34EA0726 		.ascii	"4\352\007&\022\3246\016\215F\223\246\261i\375\352\007"
 630      12D4360E 
 630      8D4693A6 
 630      B169FDEA 
 630      07
ARM GAS  C:\Users\pc\AppData\Local\Temp\ccUO0QZO.s 			page 50


 631 0024 6922BF4D 		.ascii	"i\"\277M\214\216DH\30413h\364\213\0133\002jm\214\217"
 631      8C8E4448 
 631      C4313368 
 631      F48B0B33 
 631      026A6D8C 
 632 0039 A1A5838C 		.ascii	"\241\245\203\214\232F\177\240j\255\226\021qDT,\365\205"
 632      9A467FA0 
 632      6AAD9611 
 632      7144542C 
 632      F585
 633 004b D88A5A1F 		.ascii	"\330\212Z\037(\343\214<T\360\031\247\320\275\317\271"
 633      28E38C3C 
 633      54F019A7 
 633      D0BDCFB9 
 634 005b 537040D4 		.ascii	"Sp@\324t\22299\217\275\327^\373u\316\325\030c\321$\306"
 634      74923939 
 634      8FBDD75E 
 634      FB75CED5 
 634      1863D124 
 635 0070 3E07C6BE 		.ascii	">\007\306\276\3019X\031([\3163VbU\024\3362\231\031\311"
 635      C1395819 
 635      285BCE33 
 635      56625514 
 635      DE329919 
 636 0085 5ACB1C66 		.ascii	"Z\313\034f\244p\256\257\307\225U\025\243E\316A\227\242"
 636      A470AEAF 
 636      C7955515 
 636      A345CE41 
 636      97A2
 637 0097 1639012D 		.ascii	"\0269\001-\276\241\003\320\304\260\002+V\270j\321t("
 637      BEA103D0 
 637      C4B0022B 
 637      56B86AD1 
 637      7428
 638 00a9 866FF976 		.ascii	"\206o\371v\016M\345\341ze\346^\003\177\241\312\303S"
 638      0E4DE5E1 
 638      7A65E65E 
 638      037FA1CA 
 638      C353
 639 00bb CA8CF51F 		.ascii	"\312\214\365\037\3729c>\374\323\017~\201\231(u\311\273"
 639      FA39633E 
 639      FCD30F7E 
 639      81992875 
 639      C9BB
 640 00cd DFCF3771 		.ascii	"\337\3177q?\007Pq\371\370\\\325\335\011\264T \003\227"
 640      3F075071 
 640      F9F85CD5 
 640      DD09B454 
 640      200397
 641 00e0 CD5DB136 		.ascii	"\315]\2616\033\237\003\014\347\255\336\326\253Z\326"
 641      1B9F030C 
 641      E7ADDED6 
 641      AB5AD6
 642 00ef 4F86516A 		.ascii	"O\206Qj\204z\366pc\272\237s8\014\034\001\341W\230\012"
 642      847AF670 
 642      63BA9F73 
 642      380C1C01 
ARM GAS  C:\Users\pc\AppData\Local\Temp\ccUO0QZO.s 			page 51


 642      E157980A 
 643 0103 87602AC3 		.ascii	"\207`*\303-\006G \213\344;\017\014\356H\325\324@\334"
 643      2D064720 
 643      8BE43B0F 
 643      0CEE48D5 
 643      D440DC
 644 0116 26FC069A 		.ascii	"&\374\006\232\362\337\276W\360\272\371R\023\373>\016"
 644      F2DFBE57 
 644      F0BAF952 
 644      13FB3E0E 
 645 0126 235418D4 		.ascii	"#T\030\324\243\203A\320X\202\370@8\013\345\203$\257"
 645      A38341D0 
 645      5882F840 
 645      380BE583 
 645      24AF
 646 0138 D0D9FD86 		.ascii	"\320\331\375\206\362v\340\313\205nO\270\"\244f\356\021"
 646      F276E0CB 
 646      856E4FB8 
 646      22A466EE 
 646      11
 647 0149 F41E56CF 		.ascii	"\364\036V\317\250\366l\332l\004J'\372\271\012\015\257"
 647      A8F66CDA 
 647      6C044A27 
 647      FAB90A0D 
 647      AF
 648 015a 93A45F02 		.ascii	"\223\244_\002p_5\372r\0142\031\034%p\376\032\231F$s"
 648      705F35FA 
 648      720C3219 
 648      1C2570FE 
 648      1A994624 
 649 016f 1CC9D090 		.ascii	"\034\311\320\220\240Wyc\212eL\007B\250sb\264\003\317"
 649      A0577963 
 649      8A654C07 
 649      42A87362 
 649      B403CF
 650 0182 C359F318 		.ascii	"\303Y\363\030\035\230\016\374\177\322'\211t\323h\322"
 650      1D980EFC 
 650      7FD22789 
 650      74D368D2 
 651 0192 CD48E014 		.ascii	"\315H\340\024\221\306\001+\216\375\334f\011\031\203"
 651      91C6012B 
 651      8EFDDC66 
 651      091983
 652 01a1 43E5C839 		.ascii	"C\345\3109\275wk\324oO\007\314\226E\241\201\323\240"
 652      BD776BD4 
 652      6F4F07CC 
 652      9645A181 
 652      D3A0
 653 01b3 E2A05968 		.ascii	"\342\240Yh\320(\215:\015V\032\222\3504\025(\255\223"
 653      D0288D3A 
 653      0D561A92 
 653      E8341528 
 653      AD93
 654 01c5 70AA3356 		.ascii	"p\2523V\201\351\304\2423Bl\003\272\2013O\210\205a,\207"
 654      81E9C4A2 
 654      33426C03 
 654      BA81334F 
ARM GAS  C:\Users\pc\AppData\Local\Temp\ccUO0QZO.s 			page 52


 654      8885612C 
 655 01da AAC67708 		.ascii	"\252\306w\010NC&*\225G\215c*\025\235\012\031p\006\317"
 655      4E43262A 
 655      95478D63 
 655      2A159D0A 
 655      197006CF 
 656 01ee BAA1B473 		.ascii	"\272\241\264s\300\267\277\015\022<\336\026\234bF[\035"
 656      C0B7BF0D 
 656      123CDE16 
 656      9C62465B 
 656      1D
 657 01ff 551A650B 		.ascii	"U\032e\0130\023-tfI<\353\256\236\361#'[\014\316\216"
 657      30132D74 
 657      66493CEB 
 657      AE9EF123 
 657      275B0CCE 
 658 0214 8ED4EF18 		.ascii	"\216\324\357\030\240V\212T+E\012\330C\262\272\273\346"
 658      A0568A54 
 658      2B450AD8 
 658      43B2BABB 
 658      E6
 659 0225 E08BE469 		.ascii	"\340\213\344i\206Rc|\237\341\3078\340V\355\335\243\330"
 659      8652637C 
 659      9FE1C738 
 659      E056EDDD 
 659      A3D8
 660 0237 880AB2FE 		.ascii	"\210\012\262\376\003\246\211d<\352i\277\256\340\016"
 660      03A68964 
 660      3CEA69BF 
 660      AEE00E
 661 0246 9C0355F0 		.ascii	"\234\003U\360fp^t\321\276\306\223])\323<\246v\022\311"
 661      66705E74 
 661      D1BEC693 
 661      5D29D33C 
 661      A67612C9 
 662 025a F6D71DBC 		.ascii	"\366\327\035\274b\023\332\027H\033.\202\2121+\315\020"
 662      6213DA17 
 662      481B2E82 
 662      8A312BCD 
 662      10
 663 026b 3160EC01 		.ascii	"1`\354\001\224\006_v\036\371\210\274\253\342\304\300"
 663      94065F76 
 663      1EF988BC 
 663      ABE2C4C0 
 664 027b B7BEE982 		.ascii	"\267\276\351\202NA\221\225\325\320t\356\264\026\200"
 664      4E419195 
 664      D5D074EE 
 664      B41680
 665 028a 9D25E810 		.ascii	"\235%\350\020b&W\361T\270D&\361\254\275\374\352M\233"
 665      622657F1 
 665      54B84426 
 665      F1ACBDFC 
 665      EA4D9B
 666 029d BDD69047 		.ascii	"\275\326\220G6h\203\000\354\020m\016\227\301\216\330"
 666      36688300 
 666      EC106D0E 
 666      97C18ED8 
ARM GAS  C:\Users\pc\AppData\Local\Temp\ccUO0QZO.s 			page 53


 667 02ad 1E5F593D 		.ascii	"\036_Y=\227\320\\\242_\3664_\020mo\203!\200v\004B\006"
 667      97D05CA2 
 667      5FF6345F 
 667      106D6F83 
 667      21807604 
 668 02c3 ED1B8184 		.ascii	"\355\033\201\204\022\254\005\322\337b\356\312\260\271"
 668      12AC05D2 
 668      DF62EECA 
 668      B0B9
 669 02d1 3FC18E26 		.ascii	"?\301\216&\010\253!\332\263y\2224I\021\251\213\034\367"
 669      08AB21DA 
 669      B3799234 
 669      4911A98B 
 669      1CF7
 670 02e3 27CB7BC5 		.ascii	"'\313{\305PF\3363 \356\231{\035\301*D\331\011\246\251"
 670      5046DE33 
 670      20EE997B 
 670      1DC12A44 
 670      D909A6A9 
 671 02f7 D9D2D20F 		.ascii	"\331\322\322\017W\202\021\236]gZ\322\240\003e\340*\026"
 671      5782119E 
 671      5D675AD2 
 671      A00365E0 
 671      2A16
 672 0309 D05F22D8 		.ascii	"\320_\"\330\327 \233\234\213\225\2014d\221\266v_\334"
 672      D7209B9C 
 672      8B958134 
 672      6491B676 
 672      5FDC
 673 031b 754D236C 		.ascii	"uM#l\015\206Jb:\\G\341.\360^;9\327\024#>\375O\352L\231"
 673      0D864A62 
 673      3A5C47E1 
 673      2EF05E3B 
 673      39D71423 
 674 0335 34B86196 		.ascii	"4\270a\226\343\006\244\3362\031\213\231\262\021\355"
 674      E306A4DE 
 674      32198B99 
 674      B211ED
 675 0344 AD356113 		.ascii	"\2555a\023\0032~\3709\374-\342AM\0077E\370K\203I\022"
 675      03327EF8 
 675      39FC2DE2 
 675      414D0737 
 675      45F84B83 
 676 035a 497F4FA4 		.ascii	"I\177O\244[\002I!\244\333\022i\354\024I\034\355\215"
 676      5B024921 
 676      A4DB1269 
 676      EC14491C 
 676      ED8D
 677 036c 38778671 		.ascii	"8w\206q:)C\372HR\326\367$uw\030\354\336\333IY\337\210"
 677      3A2943FA 
 677      4852D6F7 
 677      24757718 
 677      ECDEDB49 
 678 0383 D3351CA6 		.ascii	"\3235\034\2460\221\322\304\035B\027\332\310\352W\261"
 678      3091D2C4 
 678      1D4217DA 
 678      C8EA57B1 
ARM GAS  C:\Users\pc\AppData\Local\Temp\ccUO0QZO.s 			page 54


 679 0393 25EF8FBC 		.ascii	"%\357\217\274\022\344\205f\266\351`\315\235F[\274\003"
 679      12E48566 
 679      B6E960CD 
 679      9D465BBC 
 679      03
 680 03a4 EF8BA288 		.ascii	"\357\213\242\210\210\016Ll\267\250l\267\333O\277\013"
 680      880E4C6C 
 680      B7A86CB7 
 680      DB4FBF0B 
 681 03b4 2E1736CC 		.ascii	".\0276\314\226\333\335\370\312\314r\322{\205!\005\036"
 681      96DBDDF8 
 681      CACC72D2 
 681      7B852105 
 681      1E
 682 03c5 08FAE261 		.ascii	"\010\372\342a\353\226M\026\323X\025W$RS\377\376\275"
 682      EB964D16 
 682      D3581557 
 682      245253FF 
 682      FEBD
 683 03d7 29C4DF02 		.ascii	")\304\337\002x)\"D\024\274\201ti\211\352\277\366rM\037"
 683      78292244 
 683      14BC8174 
 683      6989EABF 
 683      F6724D1F 
 684 03eb 6C852D25 		.ascii	"l\205-%xC\005\016|F\0173\253\224\301\350\305}\2248\324"
 684      7843050E 
 684      7C460F33 
 684      AB94C1E8 
 684      C57D9438 
 685 0400 7CA6CC2A 		.ascii	"|\246\314*\021hy\332\023\273d\213+\364\316G\005\350"
 685      116879DA 
 685      13BB648B 
 685      2BF4CE47 
 685      05E8
 686 0412 43D84A99 		.ascii	"C\330J\231\210\207R\347\324\320\363P\232\324!#\035\321"
 686      888752E7 
 686      D4D0F350 
 686      9AD42123 
 686      1DD1
 687 0424 48548DEB 		.ascii	"HT\215\353\354\"#\360H\350\010\326\217QG\024\275\312"
 687      EC2223F0 
 687      48E808D6 
 687      8F514714 
 687      BDCA
 688 0436 7AAD58F4 		.ascii	"z\255X\364\021(A`\242H\240\030\235X2\3723\011q\272\316"
 688      11284160 
 688      A248A018 
 688      9D5832FA 
 688      330971BA 
 689 044b 6E2B13CE 		.ascii	"n+\023\316\244\302T\\\032\257\002\033U\331\254:E\250"
 689      A4C2545C 
 689      1AAF021B 
 689      55D9AC3A 
 689      45A8
 690 045d 5FC47D00 		.ascii	"_\304}\000\343A!\016\014\034\231eV\303\366p\305\323"
 690      E341210E 
 690      0C1C9965 
ARM GAS  C:\Users\pc\AppData\Local\Temp\ccUO0QZO.s 			page 55


 690      56C3F670 
 690      C5D3
 691 046f B459FBC4 		.ascii	"\264Y\373\304\035<\030\341\273<^\360s\363\363\203\301"
 691      1D3C18E1 
 691      BB3C5EF0 
 691      73F3F383 
 691      C1
 692 0480 139885DA 		.ascii	"\023\230\205\332\361\207\243\273\242e\257\325|8n\235"
 692      F187A3BB 
 692      A265AFD5 
 692      7C386E9D 
 693 0490 9DDEF12C 		.ascii	"\235\336\361,b\030[\015\030\343\033C(?\205L\002`=\340"
 693      62185B0D 
 693      18E31B43 
 693      283F854C 
 693      02603DE0 
 694 04a4 BDBD29D6 		.ascii	"\275\275)\326+rH0\365\365=\327\365\342\177\014\253\237"
 694      2B724830 
 694      F5F53DD7 
 694      F5E27F0C 
 694      AB9F
 695 04b6 4FF06149 		.ascii	"O\360aI1x\006\305\344\206\237\247\011g-\303\316\356"
 695      317806C5 
 695      E4869FA7 
 695      09672DC3 
 695      CEEE
 696 04c8 69B0486F 		.ascii	"i\260Ho9\302\250c L\364\321k\007\317\005B\252\237\177"
 696      39C2A863 
 696      204CF4D1 
 696      6B07CF05 
 696      42AA9F7F 
 697 04dc 201034D6 		.ascii	" \0204\3262\307|\360\350\223!\241:\217\217_\235/\306"
 697      32C77CF0 
 697      E89321A1 
 697      3A8F8F5F 
 697      9D2FC6
 698 04ef ACCE97AF 		.ascii	"\254\316\227\257U'}\207\010K\272\371\266F\000Dq\364"
 698      55277D87 
 698      084BBAF9 
 698      B6460044 
 698      71F4
 699 0501 81226357 		.ascii	"\201\"cW\201\013<\302U\266\343S\373\302\374\202\245"
 699      810B3CC2 
 699      55B6E353 
 699      FBC2FC82 
 699      A5
 700 0512 05B945AB 		.ascii	"\005\271E\253\227\0258\345\374\353\334O\346\317\263"
 700      971538E5 
 700      FCEBDC4F 
 700      E6CFB3
 701 0521 3BDD7657 		.ascii	";\335vW\221\335\355r\330\035\371E\371\256\274%\313\334"
 701      91DDED72 
 701      D81DF945 
 701      F9AEBC25 
 701      CBDC
 702 0533 B31D4C29 		.ascii	"\263\035L)Z\365V\235\202\225\216\025\253\227\345\241"
 702      5AF5569D 
ARM GAS  C:\Users\pc\AppData\Local\Temp\ccUO0QZO.s 			page 56


 702      82958E15 
 702      AB97E5A1 
 703 0543 9E7B9D7B 		.ascii	"\236{\235{v>\263\254Y\262bu\336\202q\325\034\316\302"
 703      763EB3AC 
 703      59B26275 
 703      DE8271D5 
 703      1CCEC2
 704 0556 42E74AFB 		.ascii	"B\347J\373*\247\253\310m\377bQ\316\302\234\265\250\357"
 704      2AA7ABC8 
 704      6DFF6251 
 704      CEC29CB5 
 704      A8EF
 705 0568 70BAF216 		.ascii	"p\272\362\026\257\231_\210 _\276\213z\336\332\"\373"
 705      AF995F88 
 705      205FBE8B 
 705      7ADEDA22 
 705      FB
 706 0579 C29CDCAF 		.ascii	"\302\234\334\257r\2079\024\272\013\334\213\227;\034"
 706      72873914 
 706      BA0BDC8B 
 706      973B1C
 707 0588 08313127 		.ascii	"\01011'wQ\306\322%\356\274U\256\202\21732\263\231\342"
 707      7751C6D2 
 707      25EEBC55 
 707      AE828F33 
 707      32B399E2 
 708 059c 627A615E 		.ascii	"bza^\241\323\265\216\315}w\247\342\301\310g\377\002"
 708      A1D3B58E 
 708      CD7D77A7 
 708      E2C1C867 
 708      FF02
 709 05ae 4D579CC1 		.ascii	"MW\234\301"
 710              		.text
 711              		.section	.gnu.lto_chThdExitS.6ed9512f,"",%progbits
 712 0000 789C9555 		.ascii	"x\234\225U\335O\\E\024\237s\347\336\273\227]\240e\321"
 712      DD4F5C45 
 712      149F73E7 
 712      DEBB975D 
 712      A065D1
 713 0013 6A1A1249 		.ascii	"j\032\022Im\203\365\241+\321\330\244\257\376\001>\364"
 713      6D83F5A1 
 713      2BD1D8A4 
 713      AFFE013E 
 713      F4
 714 0024 C557BB34 		.ascii	"\305W\2734.\006\205\000\365QnY( \232TR(]7fk\2434mZ "
 714      2E068500 
 714      F5516E59 
 714      28209A54 
 714      52285D37 
 715 003f 7C541075 		.ascii	"|T\020uY>J-\037\026\251\264\260\"R\371\224\222\024\233"
 715      593E4A2D 
 715      1F16A9B4 
 715      B02252F9 
 715      9492149B 
 716 0053 2A0557CF 		.ascii	"*\005W\317\231\271\013[>\212\334d\347\316\314=\363\373"
 716      99B90B5B 
 716      3E8ADC64 
ARM GAS  C:\Users\pc\AppData\Local\Temp\ccUO0QZO.s 			page 57


 716      E7CECC3D 
 716      F3FB
 717 0065 FDE677CE 		.ascii	"\375\346w\316\314\352\214\261\200\301X6\276s\360\007"
 717      CCEA8CB1 
 717      80C15836 
 717      BE73F007 
 718 0075 710C94D3 		.ascii	"q\014\224\323\375\214\2354\024Pe\207\313N\273\241*\274"
 718      FD8C9D34 
 718      14506587 
 718      CB4EBBA1 
 718      2ABC
 719 0087 31C49869 		.ascii	"1\304\230i\327\302\016f\306k\212^\3752\216\214\277_"
 719      D7C20E66 
 719      C66B8A5E 
 719      FD328E8C 
 719      BF5F
 720 0099 C491AED8 		.ascii	"\304\221\256\330bF60\344b\003\200:\246\001\254@\341"
 720      62463630 
 720      E4620380 
 720      3AA601AC 
 720      40E1
 721 00ab AAA6DB0C 		.ascii	"\252\246\333\014(PTf=\037\3633\034B%S-\312\301\032\023"
 721      28505466 
 721      3D1FF333 
 721      1C422553 
 721      2DCAC11A 
 722 00c0 9FE0D991 		.ascii	"\237\340\331\221\027N\231\305\317\3739cU\\\306@\003"
 722      174E99C5 
 722      CFFB3963 
 722      555CC640 
 722      03
 723 00d1 1CC4A85B 		.ascii	"\034\304\250[Eu~^\316\375\034@\305\341\203>\337\275"
 723      45757E5E 
 723      CEFD1C40 
 723      C5E1833E 
 723      DFBD
 724 00e3 441A2A90 		.ascii	"D\032*\220\212\303\336\272\226a\225\277\012\014\373"
 724      8AC3DEBA 
 724      966195BF 
 724      0A0CFB
 725 00f2 95CDDE8B 		.ascii	"\225\315\336\213<\355K\201\267\362\0057\367\3739\207"
 725      3CED4B81 
 725      B7F20537 
 725      F7FB3987 
 726 0102 66E00808 		.ascii	"f\340\010\010M\220\002\215\220\302p\212\3015H\243\370"
 726      4D90028D 
 726      90C2708A 
 726      C13548A3 
 726      F8
 727 0113 CEC99541 		.ascii	"\316\311\225A\007?,\326\376Q\332Sc\034\270`\232\205"
 727      073F2CD6 
 727      FE51DA53 
 727      631CB860 
 727      9A85
 728 0125 66F05164 		.ascii	"f\360Qd\357y\257\331c\252~\256\302\327O\256\247\007"
 728      EF79AFD9 
 728      63AA7EAE 
ARM GAS  C:\Users\pc\AppData\Local\Temp\ccUO0QZO.s 			page 58


 728      C2D74FAE 
 728      A707
 729 0137 C327EA23 		.ascii	"\303'\352#\225\011\272\012-p \020\225\014\255\2403\300"
 729      9509BA0A 
 729      2D702010 
 729      950CADA0 
 729      33C0
 730 0149 37CDD60E 		.ascii	"7\315\326\016jA3\362o\211\031\\\370\260\355a\270Zy\026"
 730      6A4133F2 
 730      6F89195C 
 730      F8B0ED61 
 730      B85A7916 
 731 015d 905B53B0 		.ascii	"\220[S\260\32195*6\252F\215N\215\235\321*\007\220\266"
 731      D139352A 
 731      36AA468D 
 731      4E8D9DD1 
 731      2A0790B6 
 732 0171 249A7052 		.ascii	"$\232pR\223L\221\214\225\"|\330a\006Y\031W\260\343\015"
 732      934C918C 
 732      95227CD8 
 732      61065919 
 732      57B0E30D 
 733 0185 B239286C 		.ascii	"\2629(l\235]\250\265\021\247\217\333QQUqh\300F\276\330"
 733      9D5DA8B5 
 733      11A78FDB 
 733      51515571 
 733      68C046BE 
 734 019a C47E5A5A 		.ascii	"\304~ZZ\346Gm\005\377\230\006N\0048\010\321\215\336"
 734      E6476D05 
 734      FF98064E 
 734      043808D1 
 734      8DDE
 735 01ac 07158901 		.ascii	"\007\025\211\001\370\034\374\334\2006(\200ohC\370\241"
 735      F81CFCDC 
 735      80362880 
 735      6F6843F8 
 735      A1
 736 01bd F97A78D9 		.ascii	"\371zx\331p]!\343\002\227\360k\034|\013\001\250\344"
 736      705D21E3 
 736      0297F06B 
 736      1C7C0B01 
 736      A8E4
 737 01cf D6661F0F 		.ascii	"\326f\037\017{\213\025\3719\225,\371\016\\\225\004\311"
 737      7B8B15F9 
 737      39952CF9 
 737      0E5C9504 
 737      C9
 738 01e0 E07B70B1 		.ascii	"\340{p\261)(\014|@:h\003\250\205\264\371f\227\006\354"
 738      29280C7C 
 738      403A6803 
 738      A885B4F9 
 738      669706EC 
 739 01f4 34172B4C 		.ascii	"4\027+L\025\302\332B}\335:\2128Id{\374\334\216K h\011"
 739      15C2DA42 
 739      7DDD3A8A 
 739      3849647B 
 739      FCDC8E4B 
ARM GAS  C:\Users\pc\AppData\Local\Temp\ccUO0QZO.s 			page 59


 740 020b 192AB933 		.ascii	"\031*\2713\346Xer@\273\220\241H\031W\357\027\366\253"
 740      E6586572 
 740      40BB90A1 
 740      481957EF 
 740      17F6AB
 741 021e 96CA6394 		.ascii	"\226\312c\224\332\020\351\020\316w\200\313\307\035\330"
 741      DA10E910 
 741      CE7780CB 
 741      C71DD8
 742 022d 2BC331D6 		.ascii	"+\3031\326*:D\262j:\333\271\245\"r\346\306\025\225\037"
 742      2A3A44B2 
 742      6A3ADBB9 
 742      A52272E6 
 742      C615951F 
 743 0241 11122A16 		.ascii	"\021\022*\026K\333\242\271^\210\304\373\314`\021\262"
 743      4BDBA2B9 
 743      5E88C4FB 
 743      CC6011B2 
 744 0251 69D0B931 		.ascii	"i\320\2711\325\320E{\002B\033_\376\263\241;q5\367E\262"
 744      D5D0457B 
 744      02421B5F 
 744      FEB3A13B 
 744      7135F745 
 745 0266 6C2BF621 		.ascii	"l+\366!\005\006\211\354W\361\015\265\364\327t\332\271"
 745      050689EC 
 745      57F10DB5 
 745      F4D774DA 
 745      B9
 746 0277 D619D3AC 		.ascii	"\326\031\323\2540a\373j\272N8\335\350d\017U\02264\343"
 746      3061FB6A 
 746      BA4E38DD 
 746      E8640F55 
 746      123634E3 
 747 028b E34E99EE 		.ascii	"\343N\231\356\213\015\343@\223>\236\024\343#\010\013"
 747      8B0DE340 
 747      933E9E14 
 747      E323080B 
 748 029b 9D9B5918 		.ascii	"\235\233Y\030\370\012?\306\303\015a\242*\220\327\373"
 748      F80A3FC6 
 748      C30D61A2 
 748      2A90D7FB 
 749 02ab 382154FD 		.ascii	"8!T\375@Fj2\000nbN\221o\350\243\273\234\330pA\323\315"
 749      40466A32 
 749      006E624E 
 749      916FE8A3 
 749      BB9CD870 
 750 02c2 E088C8A0 		.ascii	"\340\210\310\240\006/\341\360\362\331G\345\\2'P\362"
 750      062FE1F0 
 750      F2D947E5 
 750      5C322750 
 750      F2
 751 02d3 7A2DE6DA 		.ascii	"z-\346\332\241\373s\334\302\335K\260}\202X\267p\373"
 751      A1FB73DC 
 751      C2DD4BB0 
 751      7D8258B7 
 751      70FB
 752 02e5 294749C2 		.ascii	")GI\302\311\362\262\372\034Q1d\034\315\244\212\021m"
ARM GAS  C:\Users\pc\AppData\Local\Temp\ccUO0QZO.s 			page 60


 752      C9F2B2FA 
 752      1C513164 
 752      1CCDA48A 
 752      116D
 753 02f7 9FCD4351 		.ascii	"\237\315CQ`\2178JOVqb\025\325\001\014@\001\303\355\372"
 753      608F384A 
 753      4F567162 
 753      15D5010C 
 753      4001C3ED 
 754 030c F92E916D 		.ascii	"\371.\221m\225\341-#\317\303\343\222O>=\225 \017\004"
 754      95E12D23 
 754      CFC3E392 
 754      4F3E3D95 
 754      200F04
 755 031f AC2FB405 		.ascii	"\254/\264\005:}O)\265\004\370Q\210\265\311\204\\\356"
 755      3A7D4F29 
 755      B504F851 
 755      88B5C984 
 755      5CEE
 756 0331 9B1BD391 		.ascii	"\233\033\323\221\227\226\276K\373\276\205\2460\030D"
 756      9796BE4B 
 756      FBBE85A6 
 756      301844
 757 0340 F2A8DA1D 		.ascii	"\362\250\332\035\326\321O\262\216(\221K\221\231\256"
 757      D6D14FB2 
 757      8E28914B 
 757      9199AE
 758 034f 766D7D21 		.ascii	"vm}!\235\336w\236S\224UH<\246.\030\014\241;\267\311"
 758      9DDE779E 
 758      53945548 
 758      3CA62E18 
 758      0CA13BB7 
 759 0364 C4DBB43B 		.ascii	"\304\333\264;\347\377K\302\370\362\205\347\252\337\242"
 759      E7FF4BC2 
 759      F8F285E7 
 759      AADFA2
 760 0373 44FC1C4D 		.ascii	"D\374\034M\304\020a\014\313C;^^Z\357\021\276\023+\233"
 760      C410610C 
 760      CB433B5E 
 760      5E5AEF11 
 760      BE132B9B 
 761 0387 84A2D18E 		.ascii	"\204\242\321\216^\260\374\243\242c\302a-\346\3029'\027"
 761      5EB0FCA3 
 761      A263C261 
 761      2DE6C239 
 761      2717
 762 0399 F8B8B2CE 		.ascii	"\370\270\262\316\337\324\247\232\273\033\356\010\001"
 762      DFD4A79A 
 762      BB1BEE08 
 762      01
 763 03a6 06197117 		.ascii	"\006\031q\027\331\221k\244\343\2655\250\325+b70\030"
 763      D9916BA4 
 763      E3B535A8 
 763      D52B6237 
 763      3018
 764 03b8 B12C2B43 		.ascii	"\261,+C\301\227\364(\265\257>K\306\363\035Q'\301\250"
 764      C197F428 
ARM GAS  C:\Users\pc\AppData\Local\Temp\ccUO0QZO.s 			page 61


 764      B5AF3E4B 
 764      C6F31D51 
 764      27C1A8
 765 03cb A08E23EA 		.ascii	"\240\216#\352\260\250l\357\212\216\025\224,\221B\213"
 765      B0A86CEF 
 765      8A8E1594 
 765      2C91428B 
 766 03db 7535F1C4 		.ascii	"u5\361\304\254\003\207_\020BH\353/\363:%[2Y:\337\262"
 766      AC03875F 
 766      104248EB 
 766      2FF33A25 
 766      5B32593A 
 767 03f1 94206318 		.ascii	"\224 c\030\214\255\252\263\261&\036U\367Y\37532^\335"
 767      8CADAAB3 
 767      B1261E55 
 767      F759FD33 
 767      325EDD
 768 0404 913A157E 		.ascii	"\221:\025~\025\352\354\244n\\\236\273\3268\211\244\355"
 768      15EAECA4 
 768      6E5C9EBB 
 768      D63889A4 
 768      ED
 769 0415 10E93781 		.ascii	"\020\3517\201Dw LDO0X\205\272\021G\335\022\347\336\032"
 769      4477204C 
 769      444F3058 
 769      85BA1147 
 769      DD12E7DE 
 770 042a CEEF7462 		.ascii	"\316\357tb\265XQ\233\203m-jr\015lj{Q\372\2268\323k6"
 770      B558519B 
 770      836D2D6A 
 770      720D6C6A 
 770      7B51FA96 
 771 0442 CD902855 		.ascii	"\315\220(Ud\300\220\245I7\306\265\256\364M\356\014g"
 771      64C090A5 
 771      4937C6B5 
 771      AEF44DEE 
 771      0C67
 772 0454 1545C22C 		.ascii	"\025E\302,\036[\272\367\026\037^\325e\036w\301\034\244"
 772      1E5BBAF7 
 772      161F5ED5 
 772      651E77C1 
 772      1CA4
 773 0466 F879325B 		.ascii	"\370y2[\300\177\211\351\256$\261\226\236R<\243a\007"
 773      C07F89E9 
 773      AE24B196 
 773      9E523CA3 
 773      6107
 774 0478 5E34AFB8 		.ascii	"^4\257\270\217\270\336\360d\036\313<\232\177\"#3[\366"
 774      8FB8DEF0 
 774      641ECB3C 
 774      9A7F2223 
 774      335BF6
 775 048b DF3C9A7E 		.ascii	"\337<\232~\370uWv\236+7\337\225\227\353v\271=\371\236"
 775      F8755776 
 775      9E2B37DF 
 775      9597EB76 
 775      B93DF99E 
ARM GAS  C:\Users\pc\AppData\Local\Temp\ccUO0QZO.s 			page 62


 776 049f DCE36F67 		.ascii	"\334\343og\344\035r3\376^\336;J~\016\317\317\312I\337"
 776      E41D7233 
 776      FE5EDE3B 
 776      4A7E0ECF 
 776      CFCA49DF 
 777 04b3 6E6DE6FB 		.ascii	"nm\346\373\356\254\023\031\307q}\236\333\223q\310\303"
 777      EEAC1319 
 777      C7717D9E 
 777      DB9371C8 
 777      C3
 778 04c4 FE03958E 		.ascii	"\376\003\225\216\372B"
 778      FA42
 779              		.text
 780              		.section	.gnu.lto_chThdExit.6ed9512f,"",%progbits
 781 0000 789C8D51 		.ascii	"x\234\215Q[H\024a\024>g\376\331u\311n\217E\"#$b\204"
 781      5B481461 
 781      143E67FE 
 781      D975C96E 
 781      8F452223 
 782 0017 6304093D 		.ascii	"c\004\011=\004\345S\017K\340B\257\213\216\203\273\340"
 782      04E5530F 
 782      4BE042AF 
 782      8B8E83BB 
 782      E0
 783 0028 3832B38A 		.ascii	"82\263\212>\355\357\272\265JAQ\271\225\014\030J$DiV"
 783      3EEDEFBA 
 783      B54A4151 
 783      B9950C18 
 783      4A244469 
 784 003d D6E6A549 		.ascii	"\326\346\245I\013}\250 1\012\354!\224\254p)\273<D\321"
 784      0B7DA820 
 784      310AEC21 
 784      94AC7029 
 784      BB3C44D1 
 785 0051 D6F9C790 		.ascii	"\326\371\307\220\362\241\372a\206s\371\276s\276s\216"
 785      F2A1FA61 
 785      8673F9BE 
 785      73BE738E 
 786 0061 1F000E4B 		.ascii	"\037\000\016K\000\371\010\260\215ld\200\322\311\307"
 786      00F908B0 
 786      8D6C6480 
 786      D2C9C7
 787 0070 006D0109 		.ascii	"\000m\001\011Q\030<\200\020\2270\216\307\331\031\206"
 787      51183C80 
 787      1097308E 
 787      C7D91986 
 788 0080 13A9C58C 		.ascii	"\023\251\305\214Tz\211\323s\317~-<\312\217lq\030@\232"
 788      547A89D3 
 788      73CF7E2D 
 788      3CCA8F6C 
 788      7118409A 
 789 0094 3EF1F03A 		.ascii	">\361\360:\226\022\352Ir\320a\307\230\303\020er?<\352"
 789      9612EA49 
 789      72D061C7 
 789      98C31065 
 789      723F3CEA 
 790 00a8 5ED8285C 		.ascii	"^\330(\\\011\025r\037\016f\236\311l7\002\331]\303\355"
ARM GAS  C:\Users\pc\AppData\Local\Temp\ccUO0QZO.s 			page 63


 790      0915721F 
 790      0E669EC9 
 790      6C3702D9 
 790      5DC3ED
 791 00bb FDACE4A2 		.ascii	"\375\254\344\242W\357s/\343\333\035\306p\030\031\025"
 791      57EF732F 
 791      E3DB1DC6 
 791      70181915 
 792 00cb C49B5880 		.ascii	"\304\233X\2007\260\000(\004x\013K\004~\376Z\256k\203"
 792      37B00028 
 792      04780B4B 
 792      047EFE5A 
 792      AE6B83
 793 00de 5F5E6988 		.ascii	"_^i\210\267\321\017$\034\006f|.\317\375Hq\367E\037v"
 793      B7D10F24 
 793      1C06667C 
 793      2ECFFD48 
 793      71F7451F 
 794 00f3 857D245D 		.ascii	"\205}$]\340\241\203P4\003w\241\223I\302jwa\021%Q\350"
 794      E0A18350 
 794      340377A1 
 794      9349C26A 
 794      77611125 
 795 0109 F5686A16 		.ascii	"\365hj\026Y\205'\"\273\330\341\312\305}\234'\270\373"
 795      59852722 
 795      BBD8E1CA 
 795      C57D9C27 
 795      B8FB
 796 011b 7E6AC7F9 		.ascii	"~j\307\371\347o8?\305\321a2f\376\224\342\315x\007\213"
 796      E76F383F 
 796      C5D16132 
 796      66FE94E2 
 796      CD78078B 
 797 012f 89947ACB 		.ascii	"\211\224z\313\307d1\224\214\012\216Pn\011\023\363\237"
 797      C7643194 
 797      8C0A8E50 
 797      6E0913F3 
 797      9F
 798 0140 4E0CCEE0 		.ascii	"N\014\316\340\252\314\2447\326\351\\\241\2474\315\020"
 798      AACCA437 
 798      D6E95CA1 
 798      A734CD10 
 799 0150 D6A4BE0D 		.ascii	"\326\244\276\015(a\300Q\221\223\326\346\226\246\312"
 799      2861C051 
 799      9193D6E6 
 799      96A6CA
 800 015f B68A5680 		.ascii	"\266\212V\200c\"\317~\237\036\307\321\217w\305\360\364"
 800      6322CF7E 
 800      9F1EC7D1 
 800      8F77C5F0 
 800      F4
 801 0170 435AC1B2 		.ascii	"CZ\301\262h\332\3333\364e]Q\233\324\303\317)\016\363"
 801      68DADB33 
 801      F4655D51 
 801      9BD4C3CF 
 801      290EF3
 802 0183 09C29585 		.ascii	"\011\302\225\205\021\036\220\351\276\350b\021\210\310"
ARM GAS  C:\Users\pc\AppData\Local\Temp\ccUO0QZO.s 			page 64


 802      111E90E9 
 802      BEE86211 
 802      88C8
 803 0191 7276764E 		.ascii	"rvvN\242\010\336C\331\223\0158\341\035\251\177|\362"
 803      A208DE43 
 803      D9930D38 
 803      E11DA97F 
 803      7CF2
 804 01a3 D5FAA2E4 		.ascii	"\325\372\242\344/\266_`?^\035z\232\357\261'\005\033"
 804      2FB65F60 
 804      3F5E1D7A 
 804      9AEFB127 
 804      051B
 805 01b5 EFA34CEB 		.ascii	"\357\243L\353K(\336\012\000\262\230|\3319\275\311\273"
 805      4B28DE0A 
 805      00B2987C 
 805      D939BDC9 
 805      BB
 806 01c6 02A13399 		.ascii	"\002\2413\231\354\\^\374;\0178,/\315d\302?\3008t3\311"
 806      EC5C5EFC 
 806      3B0F382C 
 806      2FCD64C2 
 806      3FC03874 
 807 01dc 61017887 		.ascii	"a\001x\207\211\013\227\307\321\303\212\327A\313\240"
 807      890B97C7 
 807      D1C38AD7 
 807      41CBA0
 808 01eb 7B50ED72 		.ascii	"{P\355rm\257Z\031\211\326DC\261\246\332\250\271b\037"
 808      6DAF5A19 
 808      89D64443 
 808      B1A6DAA8 
 808      B9621F
 809 01fe 0AEDAAD8 		.ascii	"\012\355\252\330\243\232\266j\305T\333\322T-\022\213"
 809      A39AB66A 
 809      C554DBD2 
 809      542D128B 
 810 020e 587A75AD 		.ascii	"Xzu\255]\246\0013\354:_su}\223\276\357\257T\3154\014"
 810      5DA60133 
 810      EC3A5F73 
 810      757D93BE 
 810      EFAF54CD 
 811 0224 B3416D34 		.ascii	"\263Am4\255\230\255\356\257\012V\006[\250\216fZz\270"
 811      AD98ADEE 
 811      AF0A5606 
 811      5BA88E66 
 811      5A7AB8
 812 0237 B9C2288B 		.ascii	"\271\302(\213\300\201\377\241\353-1\2652\030:\030R\243"
 812      C081FFA1 
 812      EB2D31B5 
 812      32183A18 
 812      52A3
 813 0249 0D5A7D53 		.ascii	"\015Z}S\255\256j\206\035\265\303u\232F%\376)~\225\024"
 813      ADAE6A86 
 813      1DB5C375 
 813      9A4625FE 
 813      297E9514 
 814 025d B15B6D22 		.ascii	"\261[m\"l\016\206\252\224\232j[o\264\242;\225\342r\220"
ARM GAS  C:\Users\pc\AppData\Local\Temp\ccUO0QZO.s 			page 65


 814      6C0E86AA 
 814      949A6A5B 
 814      6FB4A23B 
 814      95E27290 
 815 0271 2CC83374 		.ascii	",\3103t\303\264Z\341'N8\032#"
 815      C3B45AE1 
 815      274E381A 
 815      23
 816              		.text
 817              		.section	.gnu.lto_chThdWait.6ed9512f,"",%progbits
 818 0000 789C9555 		.ascii	"x\234\225UmLSg\024~\317}o?\020\371\2303K\266\020\203"
 818      6D4C5367 
 818      147ECF7D 
 818      6F3F10F9 
 818      98334BB6 
 819 0016 C146308B 		.ascii	"\301F0\213W\243\321d?\3146\226%\373A\026\345\377\014"
 819      57A3D164 
 819      3FCC3696 
 819      25FB4116 
 819      E5FF0C
 820 0029 9646C8AC 		.ascii	"\226F\310\254%m5\272?\\i\0150t,N`\260\212u\016aq\212"
 820      256D35BA 
 820      3F5C690D 
 820      30742C4E 
 820      60B08A75 
 821 0041 28BA81C8 		.ascii	"(\272\201\310:p\200\003T\020\007\003\307P\306\247U\207"
 821      3A708003 
 821      54100703 
 821      C750C6A7 
 821      5587
 822 0053 CBCC3667 		.ascii	"\313\3146g\267s\336{\247\245\022\346n\322\346\336{\276"
 822      B773DE7B 
 822      A7A512E6 
 822      6ED2E6DE 
 822      7BBE
 823 0065 9EF39CE7 		.ascii	"\236\363\234\347=\327\310\030K33\366\0060\266\026\357"
 823      3DD7C818 
 823      4B3333F6 
 823      0630B616 
 823      EF
 824 0076 C1C040FA 		.ascii	"\301\300@\372\3602c{\314\222\304kR\230\272@\236\\\306"
 824      F032637B 
 824      CC92C46B 
 824      5298BA40 
 824      9E5CC6
 825 0089 D4851C64 		.ascii	"\324\205\034d\355\265\014@7\252\031X\256\304e\310\205"
 825      EDB50C40 
 825      37AA1958 
 825      AEC465C8 
 825      85
 826 009a 7DFC2087 		.ascii	"}\374 \207\036\357)\037/\342>\316@\306\307\231\356\212"
 826      1EEF291F 
 826      2FE23ECE 
 826      40C6C799 
 826      EE8A
 827 00ac D1587A04 		.ascii	"\321Xz\004H\304\307\252\013\236&H\251V\361\012\2245"
 827      48C4C7AA 
ARM GAS  C:\Users\pc\AppData\Local\Temp\ccUO0QZO.s 			page 66


 827      0B9E2648 
 827      A956F10A 
 827      9435
 828 00be 27CDD45F 		.ascii	"'\315\324_U\243|\\b\245\350^\017\011p\006\022\250\370"
 828      55A37C5C 
 828      62A5E85E 
 828      0F097006 
 828      12A8F8
 829 00d1 594841E7 		.ascii	"YHA\347\213c\177\365F\3635\300\360\276\323\3339`\\^"
 829      8B637FF5 
 829      46F335C0 
 829      F0BED3DB 
 829      39605C5E 
 830 00e5 A5AA796A 		.ascii	"\245\252yj\340\306Q\256.\363q\016\347\200\207\007\342"
 830      E0C651AE 
 830      2EF3710E 
 830      E7808707 
 830      E2
 831 00f6 2B065FC2 		.ascii	"+\006_\302r\362\357:\325\320/\363u\"6\360\331`\217\331"
 831      72F2EF3A 
 831      D5D02FF3 
 831      752236F0 
 831      D9608FD9 
 832 010a 7254146D 		.ascii	"rT\024m\373\200\227\327\253j\341\253X\025\276\232\035"
 832      FB8097D7 
 832      AB6AE1AB 
 832      5815BE9A 
 832      1D
 833 011b 4F17BADF 		.ascii	"O\027\272\337\252\013\225\304\030eh\000\213\2373\202"
 833      AA0B95C4 
 833      18656800 
 833      8B9F3382 
 834 012b 86881AC1 		.ascii	"\206\210\032\301\010\217m^\221*TL\365\320P\312!,\216"
 834      088F6D5E 
 834      912A544C 
 834      F5D050CA 
 834      212C8E
 835 013e C179F46D 		.ascii	"\301y\364m\002#\213\360\2776\261\334\310\310P\212\015"
 835      02238BF0 
 835      BF36B1DC 
 835      C8C8508A 
 835      0D
 836 014f A36DA229 		.ascii	"\243m\242)\277\017\370\273\"68^\020\220\011\"\266w\245"
 836      BF0FF8BB 
 836      2236385E 
 836      10900922 
 836      B677A5
 837 0162 32F990A7 		.ascii	"2\371\220\247h\277\352\317\213\367!\257\315\363\200"
 837      68BFEACF 
 837      8BF721AF 
 837      CDF380
 838 0171 D412DF3D 		.ascii	"\324\022\337=\204\\|\015\026\006\027(9\237\005&\200"
 838      845C7C0D 
 838      16061728 
 838      399F0526 
 838      80
 839 0182 60BE4130 		.ascii	"`\276A0\364\207\263\005j\253\266\327\020PC\177\347\343"
ARM GAS  C:\Users\pc\AppData\Local\Temp\ccUO0QZO.s 			page 67


 839      F487B305 
 839      6AABB6D7 
 839      1050437F 
 839      E7E3
 840 0194 0C96EC1F 		.ascii	"\014\226\354\037-~T\367f,G\366\0142Qh\000\342\320\304"
 840      2D7E54F7 
 840      662C47F6 
 840      0C325168 
 840      00E2D0C4 
 841 01a8 C8314A70 		.ascii	"\3101Jp\312\012\360\207\263V\003\254\020\241\343\235"
 841      CA0AF087 
 841      B35603AC 
 841      10A1E39D 
 842 01b8 27C0C641 		.ascii	"'\300\306A\232\003x\305\374\300\241\005,\030\224?\245"
 842      9A0378C5 
 842      FCC0A105 
 842      2C18943F 
 842      A5
 843 01c9 5E904914 		.ascii	"^\220I\0242$B+\332nC\336\255\243e\247z#)\376h \011t"
 843      3224422B 
 843      DA6E43DE 
 843      ADA365A7 
 843      7A2329FE 
 844 01e1 8AE5A7E8 		.ascii	"\212\345\247\350\314\337\200\032\275H6C\244\255\263"
 844      CCDF801A 
 844      BD483643 
 844      A4ADB3
 845 01f0 32F9134E 		.ascii	"2\371\023N\305\030|\3734%m\310D;Q\322N\224\000\373\225"
 845      C5187CFB 
 845      34256DC8 
 845      443B51D2 
 845      4E9400FB 
 846 0205 CA7E7AF8 		.ascii	"\312~z\370\364\357\013\226z\245\303\352\307\211>.\206"
 846      F4EF0B96 
 846      7AA5C3EA 
 846      C7893E2E 
 846      86
 847 0216 7762F4BC 		.ascii	"wb\364\274j\226%\204\335\001K\005\353\277\004\373\206"
 847      6A962584 
 847      DD014B05 
 847      EBBF04FB 
 847      86
 848 0227 247C0397 		.ascii	"$|\003\227@\026\300\031|'d^\323\334:\266pi\276\036m"
 848      4016C019 
 848      7C27645E 
 848      D3DC3AB6 
 848      7069BE1E 
 849 023c 22DFFB27 		.ascii	"\"\337\373'O_\217\026\321\235\024\015] #iy\211\202\004"
 849      4F5F8F16 
 849      D19D140D 
 849      5D202369 
 849      79898204 
 850 0250 C6A621AF 		.ascii	"\306\246!\257\361\217\226\346}/R{\025\234\216N\351\336"
 850      F18F96E6 
 850      7D2F527B 
 850      159C8E4E 
 850      E9DE
ARM GAS  C:\Users\pc\AppData\Local\Temp\ccUO0QZO.s 			page 68


 851 0262 962B26A2 		.ascii	"\226+&\242E\323SSKw\233\321\017\225{\260#Lj\256\300"
 851      45D35353 
 851      4B779BD1 
 851      0F957BB0 
 851      234C6AAE 
 852 0277 D174534D 		.ascii	"\321tSM\264\365\345\017\014G+'T\315\024\005\227\301"
 852      B4F5E50F 
 852      0C472B27 
 852      54CD1405 
 852      97C1
 853 0289 0F255C50 		.ascii	"\017%\\P|\005\0246\006\336\241\326\265O2\177ql&\020"
 853      7C051436 
 853      06DEA1D6 
 853      B54F327F 
 853      716C2610 
 854 029d 4799A320 		.ascii	"G\231\243 \016\256\352\303(DZjRp\224\004e\352a\335b"
 854      0EAEEAC3 
 854      28445A6A 
 854      52709404 
 854      65EA61DD 
 855 02b2 CD5F0E47 		.ascii	"\315_\016G\262@ ih\010\016\231r\037\251f|\341Gp\364"
 855      B2402069 
 855      68080E99 
 855      721FA966 
 855      7CE14770 
 856 02c7 AEDE3373 		.ascii	"\256\3363s \026\321\201\217GC/\236\376\036\035\332\271"
 856      2016D181 
 856      8F47432F 
 856      9EFE1E1D 
 856      DAB9
 857 02d9 F61B0FCD 		.ascii	"\366\033\017\315\0324\3771\264.\204k\002\034h\302\375"
 857      1A34FF31 
 857      B42E846B 
 857      021C68C2 
 857      FD
 858 02ea B3DFB357 		.ascii	"\263\337\263W\322\315/P\253}\240\224\240\252\020\371"
 858      D2CD2F50 
 858      AB7DA094 
 858      A0AA10F9 
 859 02fa 75444E0C 		.ascii	"uDN\014\021\016\364<8^\360[\334\212\032\355\254M\362"
 859      110EF43C 
 859      385EF05B 
 859      DC8A1AED 
 859      AC4DF2
 860 030d 231E2F66 		.ascii	"#\036/f\213a\332\005\337\303\212\010\216\374\367\332"
 860      8B61DA05 
 860      DFC38A08 
 860      8EFCF7DA 
 861 031d EB80CF4B 		.ascii	"\353\200\317KT,\364\013,\\\303r\274{z\330\210}\351X"
 861      542CF40B 
 861      2C5CC372 
 861      BC7B7AD8 
 861      887DE958 
 862 0331 62600014 		.ascii	"b`\000\024*\316\340\007\310\015\207r\273\240\243\332"
 862      2ACEE007 
 862      C80D8772 
 862      BBA0A3DA 
ARM GAS  C:\Users\pc\AppData\Local\Temp\ccUO0QZO.s 			page 69


 863 0341 ACAB3CB4 		.ascii	"\254\253<\264\237W{\324\016U\236c\003\011d\203`A\026"
 863      9F577BD4 
 863      0E559E63 
 863      03096483 
 863      604116
 864 0354 291C116D 		.ascii	")\034\021m\3243\204\016^:!\363bI\360y\340~A\323\034"
 864      D433840E 
 864      5E3A21F3 
 864      6249F079 
 864      E07E41D3 
 865 0369 E9626068 		.ascii	"\351b`h\216t7\300B\315j\2029~\251\253\374\235\010\261"
 865      8E7437C0 
 865      42CD6A82 
 865      397EA9AB 
 865      FC9D08B1 
 866 037d 973D48DA 		.ascii	"\227=H\332(\274\006I\357\342\260\030g\351\375G\224\371"
 866      28BC0649 
 866      EFE2B018 
 866      67E9FD47 
 866      94F9
 867 038f 3075354C 		.ascii	"0u5L\363\215B\323\331\316\300\240\230o\014$\023\017"
 867      F38D42D3 
 867      D9CEC0A0 
 867      986F0C24 
 867      130F
 868 03a1 650F8AB8 		.ascii	"e\017\212\2706\313X\"\357'\235\274\332\276;\323\\#o"
 868      36CB5822 
 868      EF279DBC 
 868      DABE3BD3 
 868      5C236F
 869 03b4 A4B66A51 		.ascii	"\244\266jQ\371h4\365<\"(\324\3622\270\211CCh}\357\177"
 869      F96834F5 
 869      3C2228D4 
 869      F232B889 
 869      4343687D 
 870 03ca 6EA0FC61 		.ascii	"n\240\374a3\0011\012y\256Q\020\333qpK$2h\211\320\341"
 870      3301310A 
 870      79AE5110 
 870      DB71704B 
 870      24326889 
 871 03e0 E49DBCCB 		.ascii	"\344\235\274\313\262\356\340\244J\243$\015\243^\350"
 871      B2EEE0A4 
 871      4AA3240D 
 871      A35EE8
 872 03ef 6750103C 		.ascii	"gP\020<\325\252\230\2528\343\326\213=\003t\377K\224"
 872      D5AA98AA 
 872      38E3D68B 
 872      3D0374FF 
 872      4B94
 873 0401 6B6C16EA 		.ascii	"kl\026\352qJ&f4R\244+_\320\367x\350D(cA\360\372g\332"
 873      714A2666 
 873      3452A42B 
 873      5FD0F778 
 873      E8442863 
 874 041a 416862F6 		.ascii	"Ahb\3669\210/\305S\316`\002uB(\316U5\002\361i\200(\230"
 874      39882FC5 
 874      53CE6002 
ARM GAS  C:\Users\pc\AppData\Local\Temp\ccUO0QZO.s 			page 70


 874      754228CE 
 874      553502F1 
 875 0432 84041F7F 		.ascii	"\204\004\037\177N\0340Y_\226\342\204\205\352\022\264"
 875      4E1C3059 
 875      5F96E284 
 875      85EA12B4 
 876 0442 13668A14 		.ascii	"\023f\212\024\356v6\257j\027\301\224\000o\322T\033N"
 876      EE7636AF 
 876      6A17C194 
 876      006FD254 
 876      1B4E
 877 0454 D37BF419 		.ascii	"\323{\364\031\233&\232\314\244\225\333\332\011\362/"
 877      9B269ACC 
 877      A495DBDA 
 877      09F22F
 878 0463 112D3490 		.ascii	"\021-4\220\020MbS\323\347!\374\\\313\270\367\202\341"
 878      104D6253 
 878      D3E721FC 
 878      5CCBB8F7 
 878      82E1
 879 0475 8B57FB3C 		.ascii	"\213W\373<\350\2730t\370fs\364\277k.(\326\334\035\261"
 879      E8BB3074 
 879      F86673F4 
 879      BF6B2E28 
 879      D6DC1DB1 
 880 0489 E62277DA 		.ascii	"\346\"w\332]m\247\215T\0257n\0255\004e#\205Ek\346\240"
 880      5D6DA78D 
 880      5415376E 
 880      15350465 
 880      2385456B 
 881 049f ECF95202 		.ascii	"\354\371R\002\011\367\2202\354\325\307\027\263\273\010"
 881      09F79032 
 881      ECD5C717 
 881      B3BB08
 882 04ae F57CD711 		.ascii	"\365|\327\021\256\323Br/\300=\201\234a\211U\326W\224"
 882      AED34272 
 882      2FC03D81 
 882      9C618955 
 882      D65794
 883 04c1 D4ACEC2D 		.ascii	"\324\254\354-\331\351\356\035\231\331\016\355\376\355"
 883      D9E9EE1D 
 883      99D90EED 
 883      FEED
 884 04cf F4D5EBD7 		.ascii	"\364\325\353\327)\016\227\342t+.\247U\261f\271\263\234"
 884      290E97E2 
 884      742B2EA7 
 884      55B166B9 
 884      B39C
 885 04e1 B68C4CD7 		.ascii	"\266\214L\327J+\223\3349\334\356\332\372\237q\331\333"
 885      4A2B93DC 
 885      39DCEEDA 
 885      FA9F71D9 
 885      DB
 886 04f2 ADDB7664 		.ascii	"\255\333vd\3320\326\265\333\2652\213\031vfl\333a\333"
 886      DA30D6B5 
 886      DBB5328B 
 886      1976666C 
ARM GAS  C:\Users\pc\AppData\Local\Temp\ccUO0QZO.s 			page 71


 886      DB61DB
 887 0505 306F98D5 		.ascii	"0o\230\325a\267;\266+9\016\247\333\245\274\266)-5m\027"
 887      61B73BB6 
 887      2B390EA7 
 887      DBA5BCB6 
 887      292D356D 
 888 051a C65B1D4E 		.ascii	"\306[\035N\333\346\235\353\355\230\344\365g\011\267"
 888      DBE69DEB 
 888      ED98E4F5 
 888      6709B7
 889 0529 ED722BA9 		.ascii	"\355r+\251i\351o\245?\301`we\2736o\265Z1E|Z\372\246"
 889      69E96FA5 
 889      3FC16077 
 889      65BB366F 
 889      B55A3145 
 890 0541 C42D192E 		.ascii	"\304-\031.[\2163\373\345D\313*&9\231\311n\263;\234\273"
 890      5B8E33FB 
 890      E544CB2A 
 890      263999C9 
 890      6EB33B9C 
 891 0556 19776FCB 		.ascii	"\031wo\313Y\375?\032\263feb\306\177\0008\300 9"
 891      59FD3F1A 
 891      B3666562 
 891      C67F0038 
 891      C02039
 892              		.text
 893              		.section	.gnu.lto_chThdSetPriority.6ed9512f,"",%progbits
 894 0000 789C8D54 		.ascii	"x\234\215T\355O[e\024?\347>\367\266\005\272e\361\213"
 894      ED4F5B65 
 894      143FE73E 
 894      F7B605BA 
 894      65F18B
 895 0013 896252A2 		.ascii	"\211bR\242\335\2131\273[0[\242\306\250$&~ &\353\037"
 895      DD8B31BB 
 895      5B305BA2 
 895      C6A82426 
 895      7E2026EB 
 896 0028 40A034A3 		.ascii	"@\2404\243\206\322\245-s\373\304]\313\006\225-\342\013"
 896      86D2A52D 
 896      73FBC45D 
 896      CB06952D 
 896      E20B
 897 003a 8594CE36 		.ascii	"\205\224\3166sFcDq\255\233\274\214U:\241\2500\307:\331"
 897      73466344 
 897      71AD9BBC 
 897      8C553AA1 
 897      A830C73A 
 898 004f 06CE39C2 		.ascii	"\006\3169\302\026\224\240\363\203\231/\253\236\347\271"
 898      1694A0F3 
 898      83992FAB 
 898      9EE7B9
 899 005e 5760DD02 		.ascii	"W`\335\002\336\017\355\363\334s~\277\363;\277\347<\327"
 899      DE0FEDF3 
 899      DC737EBF 
 899      F33BBFE7 
 899      3CD7
 900 0070 04004526 		.ascii	"\004\000E&\200\007\021\240\202\326h\002\224\332'\000"
ARM GAS  C:\Users\pc\AppData\Local\Temp\ccUO0QZO.s 			page 72


 900      800711A0 
 900      82D66802 
 900      94DA2700 
 901 0080 0E582449 		.ascii	"\016X$I\316>\004Z1\313\226\203fe\222\334\3658\355\224"
 901      CE3E045A 
 901      31CB9683 
 901      666592DC 
 901      F538ED94 
 902 0094 DB8FD24E 		.ascii	"\333\217\322NFEOR\020\371B\263 4ILV\260\011\017\263"
 902      46454F52 
 902      10F942B3 
 902      2034494C 
 902      56B0090F 
 903 00a9 B7199E6F 		.ascii	"\267\031\236o\356\215\2616\026c\2002mo\215Gg\327\363"
 903      EE8DB136 
 903      16638032 
 903      6D6F8D47 
 903      67D7F3
 904 00bc 2DA28DB6 		.ascii	"-\242\215\266\013\213#)\353\226\3675-\250\245;g6\276"
 904      0B8B2329 
 904      EB96F735 
 904      2DA8A53B 
 904      6736BE
 905 00cf 9139F45A 		.ascii	"\2219\364Z;\306\230\004\021\312Oa)&\261\224\213\371"
 905      3BC69804 
 905      11CA4F61 
 905      2926B194 
 905      8BF9
 906 00e1 0CB75076 		.ascii	"\014\267Pv\272;\370C\021+G\340\310\360\241\224\262\351"
 906      BA3BF843 
 906      112B47E0 
 906      C8F0A194 
 906      B2E9
 907 00f3 3D81CC1D 		.ascii	"=\201\314\035g\332c\204\302\223\310V\0029\021\236\302"
 907      67DA6384 
 907      C293C856 
 907      0239119E 
 907      C2
 908 0104 4D3C3F93 		.ascii	"M<?\223h\3172\366\264\300\366\337\271\326e\266\277+"
 908      68CF32F6 
 908      B4C0F6DF 
 908      B9D665B6 
 908      BF2B
 909 0116 B0F928EB 		.ascii	"\260\371(\353NiZ\3709\216\377\374n<\177(\375\372\247"
 909      4E695AF8 
 909      398EFFFC 
 909      6E3C7F28 
 909      FDFAA7
 910 0129 F98E7526 		.ascii	"\371\216u&\031\373\320\236`\300\245\221\242~4\341R\254"
 910      19FBD09E 
 910      60C0A591 
 910      A27E34E1 
 910      52AC
 911 013b 59A3279D 		.ascii	"Y\243'\235\2171&\002\021\206+p\200\003\224;H\206\026"
 911      8F312602 
 911      11862B70 
 911      8003943B 
ARM GAS  C:\Users\pc\AppData\Local\Temp\ccUO0QZO.s 			page 73


 911      488616
 912 014e E44F773D 		.ascii	"\344Ow=\343\006\036\210\220N\212\335\034l\311!\013\350"
 912      E3061E88 
 912      904E8ADD 
 912      1C6CC921 
 912      0BE8
 913 0160 EDDD684D 		.ascii	"\355\335hM\313\206\304\251\370\346\243\241\266#Z\"\270"
 913      CB86C4A9 
 913      F8E6A3A1 
 913      B6235A22 
 913      B8
 914 0171 812AE0D0 		.ascii	"\201*\340\320*\"u\342\305\243\224v\006\355\200\2479"
 914      2A2275E2 
 914      C5A39476 
 914      06ED80A7 
 914      39
 915 0182 39BB4B4C 		.ascii	"9\273KL\232\304|\301O\227~\350\254\221\267\365\311\244"
 915      9AC47CC1 
 915      4F977EE8 
 915      AC91B7F5 
 915      C9A4
 916 0194 92D6F2FF 		.ascii	"\222\326\362\377\264\320!\224Fg#=\003/Z\221\334\223"
 916      B4D02194 
 916      4667233D 
 916      032F5A91 
 916      DC93
 917 01a6 25FA5114 		.ascii	"%\372Q\024\340)&\024NB+uO\007\255\245!L\252i\025J\303"
 917      E0292614 
 917      4E422B75 
 917      4F07ADA5 
 917      214CAA69 
 918 01bd 0D94EEA3 		.ascii	"\015\224\356\2439\272\272f\034F;\201Z\346\265\3232\037"
 918      39BABA66 
 918      1C463B81 
 918      5AE6B5D3 
 918      321F
 919 01cf 088636CC 		.ascii	"\010\2066\314P\354g\014^\277\331\331;Y\350\356[\277"
 919      50EC670C 
 919      5EBFD9D9 
 919      3B59E8EE 
 919      5BBF
 920 01e1 6F44C35D 		.ascii	"oD\303]\371^'mU\200gyL)\214]\210o\356f\274\030\340\227"
 920      F95E276D 
 920      55806779 
 920      4C298C5D 
 920      886FEE66 
 921 01f9 F7BA3142 		.ascii	"\367\2721B&\214r7F\271\033\010\177\363\262\307\342'"
 921      268C7237 
 921      46B91B08 
 921      7FF3B2C7 
 921      E227
 922 020b 6E17971D 		.ascii	"n\027\227\035\221\342Z\227-\306\304\271\365\314\016"
 922      91E25A97 
 922      2DC6C4B9 
 922      F5CC0E
 923 021a 6816F203 		.ascii	"h\026\362\0030\213e\302\360_\027r\323\022\275\3011\224"
 923      308B65C2 
ARM GAS  C:\Users\pc\AppData\Local\Temp\ccUO0QZO.s 			page 74


 923      F05F1772 
 923      D312BDC1 
 923      3194
 924 022c 8570C0AF 		.ascii	"\205p\300\257\304\210\1770\224\231\263\226\265\033h"
 924      C4887F30 
 924      9499B396 
 924      B51B68
 925 023b 33CFFDED 		.ascii	"3\317\375\355\343\023\027K\004\372k\216\306oP&\323\202"
 925      E313174B 
 925      04FA6B8E 
 925      C66F5026 
 925      D382
 926 024d 366102C0 		.ascii	"6a\002\300O\030\354\377\343\330/\207\037\341\355E\031"
 926      4F18ECFF 
 926      E3D82F87 
 926      1FE1ED45 
 926      19
 927 025e 97103938 		.ascii	"\227\02098|\316\314m\261\210q\350\353[\23067\335\321"
 927      7CCECC6D 
 927      B18871E8 
 927      EB5B9836 
 927      37DDD1
 928 0271 2CF42241 		.ascii	",\364\"A\323\305\337\245B\267\336\\\237\300w\350\276"
 928      D3C5DFA5 
 928      42B7DE5C 
 928      9FC077E8 
 928      BE
 929 0282 14E104DD 		.ascii	"\024\341\004\335\267q.\202\002'Gg\376\262\250=\274{"
 929      B7712E82 
 929      02274767 
 929      FEB2A83D 
 929      BC7B
 930 0294 12508CE7 		.ascii	"\022P\214\3470\201\035\314\230\223?\247B\007\245\245"
 930      30811DCC 
 930      98933FA7 
 930      4207A5A5 
 931 02a4 A08CDFA2 		.ascii	"\240\214\337\242\332\301\011\001\317\243*\224\214=\254"
 931      DAC10901 
 931      CFA32A94 
 931      8C3DAC
 932 02b3 CB5056CA 		.ascii	"\313PV\312\220\205\214\301\341\361\021\023\225<@\350"
 932      90858CC1 
 932      E1F11113 
 932      953C40E8 
 933 02c3 C4877C44 		.ascii	"\304\207|DJH.N\032\205s-\227\256\226,qKxA\024\2268y"
 933      4A482E4E 
 933      1A85732D 
 933      97AE962C 
 933      714B7841 
 934 02db 8EC8A9E3 		.ascii	"\216\310\251\343D\203\27084O\304/\252\315\017%\003z"
 934      4483B838 
 934      344FC42F 
 934      AACD0F25 
 934      037A
 935 02ed 3DA9A080 		.ascii	"=\251\240\200m\015\366\213\202]\\\306\357\210}\016\233"
 935      6D0DF68B 
 935      825D5CC6 
ARM GAS  C:\Users\pc\AppData\Local\Temp\ccUO0QZO.s 			page 75


 935      EF887D0E 
 935      9B
 936 02fe AF649E34 		.ascii	"\257d\2364\2508;\177\302\024\317\226\323\210Rt\"sVY"
 936      A8383B7F 
 936      C214CF96 
 936      D3885274 
 936      22735659 
 937 0312 0A9B8CB0 		.ascii	"\012\233\214\260\014\251\035\024&%\321\3713\311\343"
 937      0CA91D14 
 937      2625D1F9 
 937      33C9E3
 938 0321 C8130A1B 		.ascii	"\310\023\012\033}e\255>\247\226\225\\BU'\017\223\002"
 938      7D65AD3E 
 938      A796955C 
 938      4255270F 
 938      9302
 939 0333 FD7608EE 		.ascii	"\375v\010\356\261\344G\367\345\256Y\213\373\362\262"
 939      B1E447F7 
 939      E5AE598B 
 939      FBF2B2
 940 0342 875774EE 		.ascii	"\207Wt\356\005\014%\006&\266s\266\202\321\260Fxi\234"
 940      050C2506 
 940      26B673B6 
 940      82D1B046 
 940      78699C
 941 0355 C626625D 		.ascii	"\306&b]'\256%\377\014\254<G:j\2341n\331\\g\357\003\372"
 941      27AE25FF 
 941      0CAC3C47 
 941      3A6A9C31 
 941      6ED95C67 
 942 036c 57C098FB 		.ascii	"W\300\230\373|\374\307\241\222\377FzF\214\364\367b\244"
 942      7CFCC7A1 
 942      92FF467A 
 942      468CF4F7 
 942      62A4
 943 037e 0BE7F7AA 		.ascii	"\013\347\367\252>\277\327\346_\357\337-J\000,\322\266"
 943      3EBFD7E6 
 943      5FEFDF2D 
 943      4A002CD2 
 943      B6
 944 038f ED72B2CE 		.ascii	"\355r\262\316\230\035\356n+\025#\013\010\266\315\371"
 944      981DEE6E 
 944      2B15230B 
 944      08B6CDF9 
 945 039f 945A51E7 		.ascii	"\224ZQ\347\256q;\002\215\265n\257\276~\331\261}\347"
 945      AE713B02 
 945      8DB56EAF 
 945      BE7ED9B1 
 945      7DE7
 946 03b1 0ED5EB57 		.ascii	"\016\325\353W}\001\325\357s\252\316\272@\235\317U]\353"
 946      7D01D5EF 
 946      73AACEBA 
 946      409DCF55 
 946      5DEB
 947 03c3 DFEA0473 		.ascii	"\337\352\004s\203\353\325=>\267\327\354\255\257\345"
 947      83EBD53D 
 947      3EB7D7EC 
ARM GAS  C:\Users\pc\AppData\Local\Temp\ccUO0QZO.s 			page 76


 947      ADAFE5
 948 03d2 FF6B12B8 		.ascii	"\377k\022\270\033\234\365\215\265.\"\361\357\367o\255"
 948      1B9CF58D 
 948      B52E22F1 
 948      EFF76FAD 
 949 03e2 03656F75 		.ascii	"\003eou}\243\353\331UaN\257\307\343mP\367x}\001\277"
 949      7DA3EBD9 
 949      55614EAF 
 949      C7E36D50 
 949      F7787D01 
 950 03f7 FAFCAECA 		.ascii	"\372\374\256\312\212\312}\204wz}\256\252\275;=D\362"
 950      8ACA7D84 
 950      777A7DAE 
 950      AABD3B3D 
 950      44F2
 951 0409 C2FF81BB 		.ascii	"\302\377\201\273\366\005\324\212J\307K\216e\015\036"
 951      F605D48A 
 951      4AC74B8E 
 951      650D1E
 952 0418 BFDB5FB5 		.ascii	"\277\333_\265\333\351$\212\015\225\216]\266\232j\277"
 952      DBE9248A 
 952      0D958E5D 
 952      B69A6ABF 
 953 0428 8BBA78C2 		.ascii	"\213\272x\302f\337\006\222\017\314\036\227\307\353\333"
 953      66DF0692 
 953      0FCC1E97 
 953      C7EBDB
 954 0437 0FFF02F8 		.ascii	"\017\377\002\370kTT"
 954      6B5454
 955              		.text
 956              		.section	.gnu.lto_chThdTerminate.6ed9512f,"",%progbits
 957 0000 789C8D53 		.ascii	"x\234\215SmK\024Q\024>g\356\354\272i\205\3373X!\331"
 957      6D4B1451 
 957      143E67EE 
 957      ECBA6985 
 957      DF335821 
 958 0015 84728A20 		.ascii	"\204r\212 \241\017B\011A\037$p\177\200\350\270\350B"
 958      A10F4209 
 958      411F2470 
 958      7F80E8B8 
 958      E842
 959 0027 DBCACE2A 		.ascii	"\333\312\316*\372\311q5\327\322\"*\267\260\265\225$"
 959      FAC97135 
 959      D7D2222A 
 959      B7B0B595 
 959      24
 960 0038 EA4B65F6 		.ascii	"\352Ke\366\356\353fj/\346k\006B\024\251\270Q\212Z\026"
 960      EEEB666A 
 960      2FE66B06 
 960      4214A9B8 
 960      518A5A16 
 961 004c 189875EE 		.ascii	"\030\230u\356]3]\303\2740\303\275s\316\363\234\347<"
 961      5D335DC3 
 961      BC30C3BD 
 961      73CEF39C 
 961      E73C
 962 005e F78C1100 		.ascii	"\367\214\021\000\3142@4\002l\243=2@\351l\037@\211IB"
ARM GAS  C:\Users\pc\AppData\Local\Temp\ccUO0QZO.s 			page 77


 962      CC324034 
 962      026CA33D 
 962      3240E96C 
 962      1F408949 
 963 0073 E41BDD84 		.ascii	"\344\033\335\204P,a1V\261\013\014;\274\241\307R\342"
 963      502C6131 
 963      56B10B0C 
 963      3BBCA1C7 
 963      52E2
 964 0085 759D56F0 		.ascii	"u\235V\360\342\254eT\037\320\231\237\001\370\350\341"
 964      E2AC6554 
 964      1FD0999F 
 964      01F8E8E1 
 965 0095 0BEF6222 		.ascii	"\013\357b\"\245\015\2265\370Y%E\020e:~\351\255\031\337"
 965      A50D9635 
 965      F8592545 
 965      10653A7E 
 965      E9AD19DF 
 966 00a9 CA8F129A 		.ascii	"\312\217\022\232\351\3309\2610\024\303\366!\320\276"
 966      E9D839B1 
 966      3014C3F6 
 966      21D0BE
 967 00b8 A7AC67C4 		.ascii	"\247\254g\304h\271\246\353\036=\270P\317\364\035~\306"
 967      68B9A6EB 
 967      1E3DB850 
 967      CFF41D7E 
 967      C6
 968 00c9 F0013222 		.ascii	"\360\0012\"\304\373\030\207\3670\016\350\023\340C\264"
 968      C4FB1887 
 968      F7300EE8 
 968      13E043B4 
 969 00d9 F0FCB13B 		.ascii	"\360\374\261;\213\325[\214r\270 >B#.\177,\023\252B\001"
 969      8BD55B8C 
 969      72B8203E 
 969      42232E7F 
 969      2C13AA42 
 970 00ee 9E4D011F 		.ascii	"\236M\001\037\303\225\000|L\271Mh\204\210\374\271\220"
 970      C395007C 
 970      4CB94D68 
 970      8488FCB9 
 970      90
 971 00ff C5083CE0 		.ascii	"\305\010<\340c\022\217}l\361\016#\313\021\330\251PE"
 971      63128F7D 
 971      6CF10E23 
 971      CB11D8A9 
 971      5045
 972 0111 504EA817 		.ascii	"PN\250\027\342fjw\326\226V\236\326\353<\261~&c\313j"
 972      E2666A77 
 972      D696569E 
 972      D6EB3CB1 
 972      7E2663CB 
 973 0126 897C4510 		.ascii	"\211|E\020O\327R'\255\230\000\330\314\311\331*1m$\246"
 973      4FD75227 
 973      AD9800D8 
 973      CCC9D92A 
 973      316D24A6 
 974 013a 9DC4F017 		.ascii	"\235\304\360\027Y\017\267\207\014A}\361\227\227\\\215"
ARM GAS  C:\Users\pc\AppData\Local\Temp\ccUO0QZO.s 			page 78


 974      590FB787 
 974      0C417DF1 
 974      97975C8D 
 975 014a 0D8C9F7B 		.ascii	"\015\214\237{\327~\230l\3673\203\304_2\212\356\241\202"
 975      D77E986C 
 975      F73383C4 
 975      5F328AEE 
 975      A182
 976 015c 7AA62BD1 		.ascii	"z\246+\321\203p\222\264\322\2564\010!\224\376\241\264"
 976      837092B4 
 976      D2AE3408 
 976      2194FEA1 
 976      B4
 977 016d 667DA518 		.ascii	"f}\245\030\304\004\002y?\351\2552\277\026\031\315\370"
 977      C4040279 
 977      3FE9AD32 
 977      BF1619CD 
 977      F8
 978 017e 846293E8 		.ascii	"\204b\223\350\031\233\3635\014Ezz\376\233\005\227<\225"
 978      199BF335 
 978      0C457A7A 
 978      FE9B0597 
 978      3C95
 979 0190 D7F8579E 		.ascii	"\327\370W\236b\000\354\3401Cdl\262v\347e\306\213\001"
 979      6200ECE0 
 979      3143646C 
 979      B276E765 
 979      C68B01
 980 01a3 3E5DEB41 		.ascii	">]\353A'\265\336\305=\350\342\036 \314\360\262W\003"
 980      27B5DEC5 
 980      3DE8E21E 
 980      20CCF0B2 
 980      5703
 981 01b5 8DF3D1F1 		.ascii	"\215\363\321\361\272\024\320/\231\375L\334\326\315\361"
 981      BA14D02F 
 981      99FD4CDC 
 981      D6CDF1
 982 01c4 66DD244B 		.ascii	"f\335$K$\273\033\343\205\315\263S\303o%\372\202\317"
 982      24BB1BE3 
 982      85CDB353 
 982      C36F25FA 
 982      82CF
 983 01d6 5016C201 		.ascii	"P\026\302\001\237\213A\273\321\366tbs|\351\022:\212"
 983      9F8B41BB 
 983      D1F67462 
 983      737CE912 
 983      3A8A
 984 01e8 E77EBDD5 		.ascii	"\347~\275\325\370&F\240_p4\276D\231L\363\230\205\011"
 984      F82646A0 
 984      5F7034BE 
 984      44994CF3 
 984      988509
 985 01fb 009FD1D3 		.ascii	"\000\237\321\323\364cl\261j;o\257\206q\011\276\023\035"
 985      F4636CB1 
 985      6A3B6FAF 
 985      867109BE 
 985      131D
ARM GAS  C:\Users\pc\AppData\Local\Temp\ccUO0QZO.s 			page 79


 986 020d FD51DC96 		.ascii	"\375Q\334\226\360\000\265t\364v\033\353\360J\011uD\244"
 986      F000B574 
 986      F4761BEB 
 986      F04A0975 
 986      44A4
 987 021f A61AB2AB 		.ascii	"\246\032\262\253\207\327\244\330\260w\344}\214\262\333"
 987      87D7A4D8 
 987      B077E47D 
 987      8CB2DB
 988 022e CF36E12B 		.ascii	"\3176\341+\254\303j\361\027`/*\304[:_\216aR)\314\273"
 988      ACC36AF1 
 988      17602F2A 
 988      C45B3A5F 
 988      8E615229 
 989 0244 FC531848 		.ascii	"\374S\030Hu\0371P\355\341S\"g\343e\372\377\226\031@"
 989      751F3150 
 989      EDE15322 
 989      67E365FA 
 989      FF961940 
 990 0258 85B8C504 		.ascii	"\205\270\305\004\3609[\251\\&?\007W^hx\316\226<^\014"
 990      F0395BA9 
 990      5C263F07 
 990      575E6878 
 990      CE963C5E 
 991 026d 8CB6C5FC 		.ascii	"\214\266\305\374\261oP\3307$\354\213\364\352u\330\253"
 991      B16F50D8 
 991      3724EC8B 
 991      F4EA75D8 
 991      AB
 992 027e 0FDFCF34 		.ascii	"\017\337\3174\345\210\032\000\323t\254\374yW\346\252"
 992      E5881A00 
 992      D374ACFC 
 992      7957E6AA 
 993 028e C52C5590 		.ascii	"\305,U\220K4\212\004\332\243\036PRs\355Yv\253;?\333"
 993      4B348A04 
 993      DAA31E50 
 993      5273ED59 
 993      76AB3B3F 
 994 02a3 EE0CEF8F 		.ascii	"\356\014\357\217Z\367&\357W\234\232\342r+\232KU\324"
 994      5AF726EF 
 994      579C9AE2 
 994      722B9A4B 
 994      55D4
 995 02b5 5C77AECB 		.ascii	"\\w\256\313\226\231\255%\251 \271\363\376\213\261\037"
 995      9699AD25 
 995      A920B9F3 
 995      FE8BB11F 
 996 02c5 578FE567 		.ascii	"W\217\345g\333\010\247\025iI\271`(\310<\226oKY\027\246"
 996      DB08A715 
 996      6949B960 
 996      28C83C96 
 996      6F4B5917 
 997 02da 3A1D0EE7 		.ascii	":\035\016\347q%\317\351rk\312\301\364\264\324\264B\302"
 997      7125CFE9 
 997      726BCAC1 
 997      F4B4D4B4 
 997      42C2
ARM GAS  C:\Users\pc\AppData\Local\Temp\ccUO0QZO.s 			page 80


 998 02ec AB4E972D 		.ascii	"\253N\227-\243 \331A$\2076\002\267\025\272\225\3244"
 998      A320D941 
 998      24873602 
 998      B715BA95 
 998      D434
 999 02fe EB11EB5F 		.ascii	"\353\021\353_\015\016\315\256e\344\250*Q\304\246Y\323"
 999      0D0ECDAE 
 999      65E4A82A 
 999      51C4A659 
 999      D3
 1000 030f CD59999A 		.ascii	"\315Y\231\232-\317e\337eN\330\003\222\013\242\0346\207"
 1000      2DCF65DF 
 1000      654ED803 
 1000      920BA21C 
 1000      3687
 1001 0321 D35504BF 		.ascii	"\323U\004\277\001\236\351\251Y"
 1001      019EE9A9 
 1001      59
 1002              		.text
 1003              		.section	.gnu.lto_chThdSleep.6ed9512f,"",%progbits
 1004 0000 789C8D53 		.ascii	"x\234\215S\351KTQ\024?\347\3357K\331\"\021}\311\017"
 1004      E94B5451 
 1004      143FE7DD 
 1004      374BD922 
 1004      117DC90F 
 1005 0014 E387C192 		.ascii	"\343\207\301\222h\214\026\251\017A\011A\037$h\376\200"
 1005      688C16A9 
 1005      0F410941 
 1005      1F2468FE 
 1005      80
 1006 0025 B0E7D00C 		.ascii	"\260\347\320\0144M\314\033\243>y\033\225\321\254\210"
 1006      344DCC1B 
 1006      A33E791B 
 1006      95D1AC88 
 1007 0035 AC296C06 		.ascii	"\254)l\006\243\205\024Zl\317%}i\266XfM\006\221\021."
 1007      A385145A 
 1007      6CCF257D 
 1007      69B65866 
 1007      4D069111 
 1008 004a A444620B 		.ascii	"\244Db\013\201E\250\235{\337\264\215Q]\230\341\234{"
 1008      8145A89D 
 1008      7BDFB48D 
 1008      515D98E1 
 1008      9C7B
 1009 005c B6DFEF77 		.ascii	"\266\337\357w\356\263\002\300J\025`\015\002\314'\033"
 1009      EEB302C0 
 1009      4A15600D 
 1009      02CC271B 
 1010 006c 19A072E0 		.ascii	"\031\240r\340\021\300n\273\202(\014nG(V\260\030\367"
 1010      11C06EBB 
 1010      82280C6E 
 1010      472856B0 
 1010      18F7
 1011 007e B2430CDB 		.ascii	"\262C\014\333\"C\015\312\3023\234\216q\344Zv?\177\314"
 1011      22430DCA 
 1011      C2339C8E 
 1011      71E45A76 
ARM GAS  C:\Users\pc\AppData\Local\Temp\ccUO0QZO.s 			page 81


 1011      3F7FCC
 1012 0091 598C0144 		.ascii	"Y\214\001D\351'\016^\306\205\224\32619f\314\256\244"
 1012      E9270E5E 
 1012      C68594D6 
 1012      313966CC 
 1012      AEA4
 1013 00a3 08A2426E 		.ascii	"\010\242Bn\342\375\303x\232p\025L'\267\302\330s{:[\212"
 1013      E2FDC378 
 1013      9A70154C 
 1013      27B7C2D8 
 1013      737B3A5B 
 1014 00b8 40F6F3CF 		.ascii	"@\366\363\317\273\207gg\235\346<\314\215\227U\214\317"
 1014      BB876767 
 1014      9DE63CCC 
 1014      8D97558C 
 1014      CF
 1015 00c9 8D3186D7 		.ascii	"\2151\206\327\220QC\274\212\031x\0053\200\256\000\257"
 1015      905143BC 
 1015      8A197805 
 1015      3380AE00 
 1015      AF
 1016 00da 6396C81F 		.ascii	"c\226\310\037\2708qx\246U5\007\342\015\264\342\217\313"
 1016      B8387178 
 1016      A6553507 
 1016      E20DB4E2 
 1016      8FCB
 1017 00ec 52896AA2 		.ascii	"R\211j\242NdS \312\360\327\002l\240\334F\264BJ~\373"
 1017      4E645320 
 1017      CAF0D702 
 1017      6CA0DC46 
 1017      B4424A7E 
 1018 0101 70961544 		.ascii	"p\226\025D \312\024\021{RZ\037c&t\225\334\017]\325\203"
 1018      20CA1411 
 1018      7B525A1F 
 1018      63267495 
 1018      DC0F5DD5 
 1019 0116 B34CE80E 		.ascii	"\263L\350\016r\207\233#=\310|\262\363\310P\271\241:"
 1019      72879B23 
 1019      3DC87CB2 
 1019      F3C850B9 
 1019      A13A
 1020 0128 4F4AE893 		.ascii	"OJ\350\223\361\005\361\222\312}\374x8=\306Tl1\011\334"
 1020      F105F192 
 1020      CA7DFC78 
 1020      383DC654 
 1020      6C3109DC 
 1021 013c 2402CD44 		.ascii	"$\002\315D@\234\224\261\243q\342\331\212N\300&1\232"
 1021      409C94B1 
 1021      A371E2D9 
 1021      8A4EC026 
 1021      319A
 1022 014e FD06D520 		.ascii	"\375\006\325 \250\267\010\252\370\243\305\300\205\204"
 1022      A8B708AA 
 1022      F8A3C5C0 
 1022      8584
 1023 015c C5E01393 		.ascii	"\305\340\023\223\021\322|^\335\311\203\373\236\255\263"
 1023      11D27C5E 
ARM GAS  C:\Users\pc\AppData\Local\Temp\ccUO0QZO.s 			page 82


 1023      DDC983FB 
 1023      9EADB3
 1024 016b D2768422 		.ascii	"\322v\204\"PN:\320\232\270\001\025\204\237\254\022\003"
 1024      504E3AD0 
 1024      9AB80115 
 1024      849FAC12 
 1024      03
 1025 017c 8650F903 		.ascii	"\206P\371\003\276\352\277\343\3036tRQ\344\015\277\251"
 1025      BEEABFE3 
 1025      C3367452 
 1025      51E40DBF 
 1025      A9
 1026 018d 0ABE2A3A 		.ascii	"\012\276*:\260\235bo1<\3605Z\237H\325\271\2521\033\223"
 1026      B09D626F 
 1026      313CF035 
 1026      5A9F48D5 
 1026      B9AA311B 
 1027 01a2 3AAB5334 		.ascii	":\253S4\215\254\266\000\336\0261Kj\354k|\3011&\206\001"
 1027      8DACB600 
 1027      DE16314B 
 1027      6AEC6B7C 
 1027      C1312686 
 1028 01b7 764C657E 		.ascii	"vLe~\207\010\337\025\314\357\012\346\010\037\304\330"
 1028      8708DF15 
 1028      CCEF0AE6 
 1028      081FC4D8 
 1029 01c7 1335973E 		.ascii	"\0235\227>O\317\014+5\374\250#fv<7\330\304\355\252B"
 1029      4FCF0C2B 
 1029      35FCA823 
 1029      66763C37 
 1029      D8C4EDAA 
 1030 01dc B0EF61A6 		.ascii	"\260\357a\246\024\367\375HO\257B7x\037U\011\034\260"
 1030      14F7FD48 
 1030      4FAF4237 
 1030      781F5509 
 1030      1CB0
 1031 01ee 536EB0B6 		.ascii	"Sn\260\266\245\375\365\214\314\262d\265\334\377\307"
 1031      A5FDF58C 
 1031      CCB264B5 
 1031      DCFFC7
 1032 01fd F3979EA5 		.ascii	"\363\227\236\245\311\352\007\242\032\037\242J\242\205"
 1032      C9EA07A2 
 1032      1A1FA24A 
 1032      A285
 1033 020b 1D520410 		.ascii	"\035R\004\020f_E|\271 G\311g\337Uv\316J\312\370\252"
 1033      665F457C 
 1033      B92047C9 
 1033      67DF5576 
 1033      CE4ACAF8 
 1034 0220 8E454B78 		.ascii	"\216EKx-W\377\360J\245\210]\350\254\246=\214`Y\337\330"
 1034      2D57FFF0 
 1034      4AA5885D 
 1034      E8ACA63D 
 1034      8C6059DF 
 1035 0235 A92B2FA6 		.ascii	"\251+/\246\210\326\234\215\"')\234\3657\356\217\210"
 1035      88D69C8D 
 1035      2227299C 
ARM GAS  C:\Users\pc\AppData\Local\Temp\ccUO0QZO.s 			page 83


 1035      F537EE8F 
 1035      88
 1036 0246 72B7E0DE 		.ascii	"r\267\340\336m\276\322\206\206\221^[\3618\267\307\230"
 1036      6DBED286 
 1036      86915E5B 
 1036      F138B7C7 
 1036      98
 1037 0257 2DCA6C22 		.ascii	"-\312l\"\016\370\030\213E\254\272\351S\247E\254\311"
 1037      0EF8188B 
 1037      45ACBAE9 
 1037      53A745AC 
 1037      C9
 1038 0268 8E767C82 		.ascii	"\216v|\202\03144\306\246I\022\362\243\3502y\220\034"
 1038      193434C6 
 1038      A64912F2 
 1038      A3E83279 
 1038      901C
 1039 027a AD72ADD1 		.ascii	"\255r\255\321\262\266n\233\271V\300Dr\255_\242\365s"
 1039      B2B66E9B 
 1039      B956C044 
 1039      72AD5FA2 
 1039      F573
 1040 028c CC279614 		.ascii	"\314'\226\024z\242\246\277%\355\273\206\011\251\341"
 1040      7AA2A6BF 
 1040      25EDBB86 
 1040      09A9E1
 1041 029b 53A961AA 		.ascii	"S\251a\252`=\246`}\343\373\033\267\310\021\000\243\344"
 1041      603DA660 
 1041      7DE3FB1B 
 1041      B7C81100 
 1041      A3E4
 1042 02ad 56D65E55 		.ascii	"V\326^U\305x\251E9}\177\364\036\251(G[\345\312\363\372"
 1042      C578A945 
 1042      397D7FF4 
 1042      1EA92847 
 1042      5BE5CAF3 
 1043 02c2 36FBDCA1 		.ascii	"6\373\334\241\242B_\300\2647\270\227\344\256p\005tW"
 1043      A2425FC0 
 1043      B437B897 
 1043      E4AE7005 
 1043      7457
 1044 02d4 30E4D283 		.ascii	"0\344\322\203\232K\363\206\274AOA\241\276X\0035\344"
 1044      9A4BF386 
 1044      BC414F41 
 1044      A1BE5803 
 1044      35E4
 1045 02e6 F37BFE59 		.ascii	"\363{\376Y\345\333\246m-*\364P\245\276K_\354\005\313"
 1045      E5DBA66D 
 1045      2D2AF450 
 1045      A5BE4B5F 
 1045      EC05CB
 1046 02f9 8E82AD45 		.ascii	"\216\202\255E\236\325\177-\323\002~\177`\233k{ \030"
 1046      9ED57F2D 
 1046      D3027E7F 
 1046      609B6B7B 
 1046      2018
 1047 030b D25D6B36 		.ascii	"\322]k6\346\347\345\357\244z-\020\364l\332\221\353\247"
ARM GAS  C:\Users\pc\AppData\Local\Temp\ccUO0QZO.s 			page 84


 1047      E6E7E5EF 
 1047      A47A2D10 
 1047      F46CDA91 
 1047      EBA7
 1048 031d 266BFFA7 		.ascii	"&k\377\247\334\2633\344\312\313w\257w\377\304\340\327"
 1048      DCB333E4 
 1048      CACB77AF 
 1048      77FFC4E0 
 1048      D7
 1049 032e 7DFAA62D 		.ascii	"}\372\246-\232F-\322\363\335\033\035\233\013t\317\366"
 1049      9A462DD2 
 1049      F3DD1B1D 
 1049      9B0B74CF 
 1049      F6
 1050 033f A06F91C3 		.ascii	"\240o\221\303\231\003J\020l~\217?\020\334\005\313\376"
 1050      99034A10 
 1050      6C7E8F3F 
 1050      10DC05CB 
 1050      FE
 1051 0350 9FD47739 		.ascii	"\237\324w9\274\360\015\210\366\306\370"
 1051      BCF00D88 
 1051      F6C6F8
 1052              		.text
 1053              		.section	.gnu.lto_chThdSleepUntil.6ed9512f,"",%progbits
 1054 0000 789C9D53 		.ascii	"x\234\235SmLSg\024>\347\276\267\037\024D~\354\327\322"
 1054      6D4C5367 
 1054      143EE7BE 
 1054      B71F1444 
 1054      7EECD7D2 
 1055 0014 2DE50741 		.ascii	"-\345\007A\207\361\212\222\231\354\207\331\206Ybb\263"
 1055      87F18A92 
 1055      99EC87D9 
 1055      86596262 
 1055      B3
 1056 0025 CCFA9F60 		.ascii	"\314\372\237`il\223\326\232\266\020\375\305\245\300"
 1056      696C93D6 
 1056      9AB610FD 
 1056      C5A5C0
 1057 0034 0A635B16 		.ascii	"\012c[\026\304\302\272v\220}d\032a\250\323m|\310\356"
 1057      C4C2BA76 
 1057      907D641A 
 1057      61A8D36D 
 1057      7CC8EE
 1058 0047 284E4505 		.ascii	"(NE\005D\024\204mA\21507\342\320,\303\315\000;\357\275"
 1058      4414846D 
 1058      418D3037 
 1058      E2D02CC3 
 1058      CD003BEF 
 1059 005c 65966218 		.ascii	"e\226b\030\331M\332\274\357{\316y\317\363<\347y\365"
 1059      D94DDABC 
 1059      EF7BCE79 
 1059      CFF33CE7 
 1059      79F5
 1060 006e 0050A703 		.ascii	"\000P\247\003\230C\200\002Z\243\016P\370`\000\240\302"
 1060      98438002 
 1060      5AA30E50 
 1060      F86000A0 
ARM GAS  C:\Users\pc\AppData\Local\Temp\ccUO0QZO.s 			page 85


 1060      C2
 1061 007f 28086CC8 		.ascii	"(\010l\310\014\262IT\362A\316`(j\307\"\"_\310F\204r"
 1061      0CB24954 
 1061      F241CE60 
 1061      286AC722 
 1061      225FC846 
 1062 0095 8189588E 		.ascii	"\201\211X\216\357\262\006\206\275\241\251\016a\343\027"
 1062      EFB20686 
 1062      BDA1A90E 
 1062      61E317
 1063 00a4 327D4AE3 		.ascii	"2}J\343\302K\267\345!\231E\031@\230~\374\303\257p#\245"
 1063      C24BB7E5 
 1063      21994519 
 1063      40987EFC 
 1063      C3AF7023 
 1064 00b9 9D5F9C53 		.ascii	"\235_\234S\326\327Q\004Q\240\355\360\354\225X:\337\012"
 1064      D6D75104 
 1064      51A0EDF0 
 1064      EC95583A 
 1064      DF0A
 1065 00cb 9845DB5A 		.ascii	"\230E\333Z\345\235>\023\333\206@\353\261\307\025\323"
 1065      E59D3E13 
 1065      DB8640EB 
 1065      B1C715D3 
 1066 00db EB733F97 		.ascii	"\353s?\227\345\240\254\36450\371\271(c\37052\272\020"
 1066      E5A0ACF4 
 1066      3530F9B9 
 1066      2863F835 
 1066      32BA10
 1067 00ee CFA219CF 		.ascii	"\317\242\031\317\240\031\350\010\360\033\314\345\371"
 1067      A019E808 
 1067      F01BCCE5 
 1067      F9
 1068 00fb 774E2D1C 		.ascii	"wN-\034]\247\027\265\206\370-\352\361\337\303*\025\325"
 1068      5DA717B5 
 1068      86F82DEA 
 1068      F1DFC32A 
 1068      15D5
 1069 010d 9FAD3C9B 		.ascii	"\237\255<\233\002a\206\311\005\330A\271\235\250\207"
 1069      026186C9 
 1069      05D841B9 
 1069      9DA887
 1070 011c 94FCF874 		.ascii	"\224\374\370t\256\036x \314\004\036\273Vu2\3124\350"
 1070      AE1E7820 
 1070      CC041EBB 
 1070      567532CA 
 1070      34E8
 1071 012e 226D1F5E 		.ascii	"\"m\037^\215\334\315\324\240[h;\335\035\032A\346Ro\236"
 1071      8DDCCDD4 
 1071      A05B683B 
 1071      DD1D1A41 
 1071      E6526F9E 
 1072 0142 99AA51C4 		.ascii	"\231\252Q\304\234OU\350\213\261\015\261\312\272\367"
 1072      9C4F55E8 
 1072      8BB10DB1 
 1072      CABAF7
 1073 0151 E4966056 		.ascii	"\344\226`V\224\324\352\321\010\234#\002\335D\200\177"
ARM GAS  C:\Users\pc\AppData\Local\Temp\ccUO0QZO.s 			page 86


 1073      94D4EAD1 
 1073      089C2302 
 1073      DD44807F 
 1074 0161 296D1FC4 		.ascii	")m\037\304\210\347w\230\003\330\305[\263eP\025\202\372"
 1074      88E77798 
 1074      03D8C55B 
 1074      B3655015 
 1074      82FA
 1075 0173 3D41E57F 		.ascii	"=A\345\17741h\037\326)\362\302b\2104\177\361D\374\310"
 1075      3431681F 
 1075      D629F2C2 
 1075      6288347F 
 1075      F144FCC8 
 1076 0187 FCAD374C 		.ascii	"\374\2557L\004\217\024\021U]t\244\220NO\177z\200\032"
 1076      048F1411 
 1076      555D74A4 
 1076      904E4F7F 
 1076      7A801A
 1077 019a D2850627 		.ascii	"\322\205\006'+PK|hU\251\300\024\012\317\300\033Y\035"
 1077      2B504B7C 
 1077      6855A9C0 
 1077      140ACFC0 
 1077      1B591D
 1078 01ad 2FF6620E 		.ascii	"/\366b\016\025\205\356\313\347D\316_D\013\306)\366\033"
 1078      1585EECB 
 1078      E744CE5F 
 1078      440BC629 
 1078      F61B
 1079 01bf 06EF3C09 		.ascii	"\006\357<\011\237\034N\325\375H}\036&t\027Wh\034\332"
 1079      9F1C4ED5 
 1079      FD487D1E 
 1079      26741757 
 1079      681CDA
 1080 01d2 4186EBE3 		.ascii	"A\206\353\3431]j\354Il\303G\2147\003<\277R\211\037H"
 1080      315D6AEC 
 1080      496CC347 
 1080      8C37033C 
 1080      BF52891F 
 1081 01e7 800B5C89 		.ascii	"\200\013\\\211\013\\\011\204\207\274\355'\315\247\037"
 1081      0B5C0984 
 1081      87BCED27 
 1081      CDA71F
 1082 01f6 9BB28342 		.ascii	"\233\262\203B\263\334d\2112\003/h\273\333%\033E\201"
 1082      B3DC6489 
 1082      32032F68 
 1082      BBDB251B 
 1082      4581
 1083 0208 605FC46C 		.ascii	"`_\304lU\354\331\231\221\011\201N\360\022\212*p\300"
 1083      55ECD999 
 1083      9109814E 
 1083      F0128A2A 
 1083      70C0
 1084 021a 7E75A2C7 		.ascii	"~u\242\307z\342\3672\262\253\023\325F\236\373\350\313"
 1084      7AE2F732 
 1084      B2AB13D5 
 1084      469EFBE8 
 1084      CB
ARM GAS  C:\Users\pc\AppData\Local\Temp\ccUO0QZO.s 			page 87


 1085 022b D337D2D5 		.ascii	"\3237\322\325\352\313\274\032\257\240H\242\005-\252"
 1085      EACBBC1A 
 1085      AFA048A2 
 1085      052DAA
 1086 023a 0800BF62 		.ascii	"\010\000\277bo\347_\261K\003\365i)\330\033\033\362N"
 1086      6FE75FB1 
 1086      4B03F569 
 1086      29D81B1B 
 1086      F24E
 1087 024c 2D996D85 		.ascii	"-\231m\205\261F\307\013\356\027\000^\345ACj\360\372"
 1087      B146C70B 
 1087      EE17005E 
 1087      E541436A 
 1087      F0FA
 1088 025e 2F9B5E00 		.ascii	"/\233^\000\034\3401\3432\302\203\304s\210\023\246\277"
 1088      1CE031E3 
 1088      32C283C4 
 1088      738813A6 
 1088      BF
 1089 026f 08D35128 		.ascii	"\010\323Q(\\\335;h\340\023HS]7\32067k\322\266\374&\316"
 1089      5CDD3B68 
 1089      E0134853 
 1089      5D37D036 
 1089      376BD2B6 
 1090 0286 A825369D 		.ascii	"\250%6\235\326\202\037c\224\231p\230Fx\215\263\345\263"
 1090      D6821F63 
 1090      94997098 
 1090      46788DB3 
 1090      E5B3
 1091 0298 9BBA3C94 		.ascii	"\233\272<\224)\265\311U\025\362\344\334g\317\037\257"
 1091      29B5C955 
 1091      15F2E4DC 
 1091      67CF1FAF 
 1092 02a8 A78C74BC 		.ascii	"\247\214t\274\216-x\224\\\302[\001\216\240D\374\202"
 1092      8E2D7894 
 1092      5CC25B01 
 1092      8EA044FC 
 1092      82
 1093 02b9 8F42C799 		.ascii	"\217B\307\231\326\222w\245\223\312\246\267\333\217\335"
 1093      D69277A5 
 1093      93CAA6B7 
 1093      DB8FDD
 1094 02c8 AC609C5C 		.ascii	"\254`\234\\\204\211\021\306(\244\212\242>:r\035\235"
 1094      848911C6 
 1094      28A48AA2 
 1094      3E3A721D 
 1094      9D
 1095 02d9 C23DAC9A 		.ascii	"\302=\254\232\210\377\334\032\307DZ2\\z~x#a\246Z\032"
 1095      88FFDC1A 
 1095      C7445A32 
 1095      5C7A7E78 
 1095      2361A65A 
 1096 02ee EB90F9A9 		.ascii	"\353\220\371\251\025[\177\257\353\317LX\361\357\023"
 1096      155B7FAF 
 1096      EBCF4C58 
 1096      F1EF13
 1097 02fd EC435909 		.ascii	"\354CY\011Z\236\361\360U\037\336\304\034\336j\006\253"
ARM GAS  C:\Users\pc\AppData\Local\Temp\ccUO0QZO.s 			page 88


 1097      5A9EF1F0 
 1097      551FDEC4 
 1097      1CDE6A06 
 1097      AB
 1098 030e 27DBBBCF 		.ascii	"'\333\273\317\214\247\372\256\261)\357-\236\223\030"
 1098      8CA7FAAE 
 1098      B129EF2D 
 1098      9E9318
 1099 031d 43DA3235 		.ascii	"C\33225G\011\352\030\2479\246=\374\216\216\231\011C"
 1099      4709EA18 
 1099      A739A63D 
 1099      FC8E8E99 
 1099      0943
 1100 032f F9BC6C8C 		.ascii	"\371\274l\214\262\2140\2515\312c\267\260\234\307\"]"
 1100      B28C30A9 
 1100      35CA63B7 
 1100      B09CC722 
 1100      5D
 1101 0340 7FF4EB38 		.ascii	"\177\364\3538\360uh\304q4S\323(\313T\301\213I\017\211"
 1101      F07568C4 
 1101      713453D3 
 1101      28CB54C1 
 1101      8B490F89 
 1102 0354 3FDA649A 		.ascii	"?\332d\232\"\321\234H~\027\332\243MXu\241\371vO\372"
 1102      22D19C48 
 1102      7E17DAA3 
 1102      4D5875A1 
 1102      F9764FFA 
 1103 0368 920B2754 		.ascii	"\222\013'T\027\376\250\2720\325r?i\226\233\234\177\277"
 1103      17FEA8BA 
 1103      30D5723F 
 1103      69969B9C 
 1103      7FBF
 1104 037a 73BFDA03 		.ascii	"s\277\332\003\340\001m\353\006\317\212\234\230*E\015"
 1104      E0016DEB 
 1104      06CF8A9C 
 1104      982A450D 
 1105 038a 494A40A8 		.ascii	"IJ@\250h\213\375\025\251\320\351\332\347\262\005JK\\"
 1105      688BFD15 
 1105      A9D0E9DA 
 1105      E7B2054A 
 1105      4B5C
 1106 039c 5E6DFDA6 		.ascii	"^m\375\246-\177\373\313\222\327/\371\002\222\337g\227"
 1106      2D7FFBCB 
 1106      92D72FF9 
 1106      0292DF67 
 1106      97
 1107 03ad ECCE80D3 		.ascii	"\354\316\200\323\347(.\361o\266\203\030py\034\377Y\345"
 1107      E7282EF1 
 1107      6FB68318 
 1107      70791CFF 
 1107      59E5
 1108 03bf 3A607797 		.ascii	":`w\227\2268\250\322\177\330\277\331\011\272\262bw\251"
 1108      9638A8D2 
 1108      7FD8BFD9 
 1108      09BAB262 
 1108      77A9
ARM GAS  C:\Users\pc\AppData\Local\Temp\ccUO0QZO.s 			page 89


 1109 03d1 63C7AA65 		.ascii	"c\307\252ev\257\307\343= \035\364\372\002~\351\265="
 1109      76AFC7E3 
 1109      3D201DF4 
 1109      FA027EE9 
 1109      B53D
 1110 03e3 D642EB21 		.ascii	"\326B\353!\252\267{}\216\242\262\355\036\272\344\365"
 1110      AAB77B7D 
 1110      8EA2B2ED 
 1110      1EBAE4F5 
 1111 03f3 B5943B0E 		.ascii	"\265\224;\016\005\244B\253m\227\355)\006\217\337\345"
 1111      05A442AB 
 1111      6D97ED29 
 1111      068FDFE5 
 1112 0403 2FDA6FB7 		.ascii	"/\332o\267\323\025YV\333\036\313\276b\277\343\240\317"
 1112      D3155956 
 1112      DB1ECBBE 
 1112      62BFE3A0 
 1112      CF
 1113 0414 B5C992B3 		.ascii	"\265\311\222\263\005\004\037\030<\016\217\327w\030v"
 1113      05041F18 
 1113      3C0E8FD7 
 1113      771876
 1114 0423 AE7ABDB3 		.ascii	"\256z\275\263\330\235\200f\333k\335\266U\332\275{\247"
 1114      D89D8066 
 1114      DB6BDDB6 
 1114      55DABD7B 
 1114      A7
 1115 0434 B47797B5 		.ascii	"\264w\227\265,\237G\212\374\201\"\267\273\204\032Hk"
 1115      2C9F478A 
 1115      FC8122B7 
 1115      BB841A48 
 1115      6B
 1116 0445 57A62C40 		.ascii	"W\246,@\371\257\376_I\370\030|tA\301\332\033.\015\321"
 1116      F9AFFE5F 
 1116      49F8187C 
 1116      7441C1DA 
 1116      1B2E0DD1 
 1117 0459 09FF0035 		.ascii	"\011\377\0005\244z\315"
 1117      A47ACD
 1118              		.text
 1119              		.section	.gnu.lto_chThdSleepUntilWindowed.6ed9512f,"",%progbits
 1120 0000 789C9D54 		.ascii	"x\234\235T]L\223g\024~O\337\257\264\245\300\270\330"
 1120      5D4C9367 
 1120      147E4FDF 
 1120      AFB4A5C0 
 1120      B8D8
 1121 0012 6E16B6D4 		.ascii	"n\026\266\324\013\202\006\347'\223\314e\331\0267\275"
 1121      0B8206E7 
 1121      2793CC65 
 1121      D91637BD 
 1122 0022 31916C03 		.ascii	"1\221l\003\357\031\226\3066\241\324\265\205\350\025"
 1122      EF1996C6 
 1122      36A1D4B5 
 1122      85E815
 1123 0031 1FC88F58 		.ascii	"\037\310\217X\027\230\0230X\006\223\230\315l\210\242"
 1123      17981330 
 1123      58069398 
ARM GAS  C:\Users\pc\AppData\Local\Temp\ccUO0QZO.s 			page 90


 1123      CD6C88A2 
 1124 0041 CCC96F07 		.ascii	"\314\311o\007\352&\310\217\240s\212?\374\254\0206TF"
 1124      EA26C88F 
 1124      A0738A3F 
 1124      FCAC1036 
 1124      5446
 1125 0053 CCC0B1E1 		.ascii	"\314\300\261\341\316y\2772K%\314\330\213/\357\3519\317"
 1125      CE79BF32 
 1125      4B25CCD8 
 1125      8B2FEFE9 
 1125      39CF
 1126 0065 39CF79CE 		.ascii	"9\317y\316{\3360\306X\241\2161\243\206\261D<\203\226"
 1126      7BDE30C6 
 1126      58A18E31 
 1126      A386B144 
 1126      3C8396
 1127 0078 81A6B497 		.ascii	"\201\246\264\227\261\\\275F\303\373c\230\022.\371\022"
 1127      B15CBD46 
 1127      C3FB6398 
 1127      122EF912 
 1128 0088 9812C141 		.ascii	"\230\022\301AR\377\226\000\350\240\350\201\345h\270"
 1128      52FF9600 
 1128      E8A0E881 
 1128      E568B8
 1129 0097 04397080 		.ascii	"\0049p\200\037\342p\341\361\254\357\005\017\367r\304"
 1129      1FE270E1 
 1129      F1ACEF05 
 1129      0FF772C4 
 1130 00a7 A339307D 		.ascii	"\24390}\271\312H&@4\232\337|9\3535\256\371JQ\362\024"
 1130      B9CA4826 
 1130      40349ADF 
 1130      7C39EB35 
 1130      AEF94A51 
 1131 00bd 5FC59DF8 		.ascii	"_\305\235\370S\265\205\373?\364r\015+\307\3603\020\003"
 1131      53B585FB 
 1131      3FF4720D 
 1131      2BC7F033 
 1131      1003
 1132 00cf A721868A 		.ascii	"\247!\206\2127\302\032\014\256\351\030y\215o\000\206"
 1132      37C21A0C 
 1132      AEE91879 
 1132      8D6F0086 
 1133 00df C72B25ED 		.ascii	"\307+%\355\2074q\307\004n\252\214+/\"\010\276\003\036"
 1133      873471C7 
 1133      046EAA8C 
 1133      2B2F2208 
 1133      BE031E
 1134 00f2 8CA33C70 		.ascii	"\214\243<p\026\3420\274\364\326\243\026#\177S@\037\373"
 1134      16E230BC 
 1134      F4D6A316 
 1134      237F5340 
 1134      1FFB
 1135 0104 EFD51A16 		.ascii	"\357\325\032\026\241\025\001\350\367\313@\317A\034\305"
 1135      A11501E8 
 1135      F7CB40CF 
 1135      411CC5
 1136 0113 17FBF69F 		.ascii	"\027\373\366\237\017\347\357\010\354\267\017<]Q\261"
ARM GAS  C:\Users\pc\AppData\Local\Temp\ccUO0QZO.s 			page 91


 1136      0FE7EF08 
 1136      ECB70F3C 
 1136      5D51B1
 1137 0122 B5027BB1 		.ascii	"\265\002{\261\236W5(J\301&\3027-\305\323\017\303GO-"
 1137      9E573528 
 1137      4AC126C2 
 1137      372DC5D3 
 1137      0FC3474F 
 1138 0137 94458649 		.ascii	"\224E\206I\320\014\261\324\0216\322\002a\360\237#_\301"
 1138      D00CB1D4 
 1138      1136D202 
 1138      61F09F23 
 1138      5FC1
 1139 0149 9F6FA19E 		.ascii	"\237o\241\236s\341(\347\020\004b\320\212\261m\020\306"
 1139      73E128E7 
 1139      100462D0 
 1139      8AB16D10 
 1139      C6
 1140 015a 42E2070F 		.ascii	"B\342\007\017\277mc\344(G\222$E\376I/W\005\226\320\374"
 1140      BF6D63E4 
 1140      28479224 
 1140      45FE492F 
 1140      570596D0 
 1141 016f A3A7722C 		.ascii	"\243\247r,J\025\330\204\346DK\321U\340.\221yj|\237O"
 1141      4A15D884 
 1141      E6444BD1 
 1141      55E02E91 
 1141      796A7C9F 
 1142 0184 0AB0EFAB 		.ascii	"\012\260\357\253^]\265\327\363\251R\223\027\355\345"
 1142      5E5DB5D7 
 1142      F3A95293 
 1142      17EDE5
 1143 0193 1C3A54FE 		.ascii	"\034:T\376? \177_(\177\265\354\375*\014\353\304F\240"
 1143      3F207F5F 
 1143      287FB5EC 
 1143      FD2A0CEB 
 1143      C446A0
 1144 01a6 9D4AF325 		.ascii	"\235J\363%T\317#\325\013H\225>\200\330\372\001\255O"
 1144      54CF23D5 
 1144      0B48953E 
 1144      80D8FA01 
 1144      AD4F
 1145 01b8 59785C84 		.ascii	"Yx\\\204C}\365\304\330h\177\331}}$\240\252\022^\022"
 1145      437DF5C4 
 1145      D8687FD9 
 1145      7D7D24A0 
 1145      AA125E12 
 1146 01cc 9C881648 		.ascii	"\234\210\026H\3340\372CG\037=~\264\006:1\266\017u\302"
 1146      DC30FA43 
 1146      471F3D7E 
 1146      B4063A31 
 1146      B60F75C2 
 1147 01e0 7BA4F858 		.ascii	"{\244\370X1\366\207\247\275>6\016\232e\370W\256\314"
 1147      31F687A7 
 1147      BD3E360E 
 1147      9A65F857 
 1147      AECC
ARM GAS  C:\Users\pc\AppData\Local\Temp\ccUO0QZO.s 			page 92


 1148 01f2 1F2E422C 		.ascii	"\037.B,\202\212&\225V\211\364\340`\202\037\321\367;"
 1148      828A2695 
 1148      5689F4E0 
 1148      60821FD1 
 1148      F73B
 1149 0204 E48D8E55 		.ascii	"\344\215\216U\234\034\010\235\303\347\017\343!0\007"
 1149      9C1C089D 
 1149      C3E70FE3 
 1149      213007
 1150 0213 E969CD4D 		.ascii	"\351i\315M\251\014~\"\2376\324\327]\275\372\010\247"
 1150      A90C7E22 
 1150      9F36D4D7 
 1150      5DBDFA08 
 1150      A7
 1151 0224 620C2E3D 		.ascii	"b\014.=\255L\027\012\322M\312t\2232\300\346\251\354"
 1151      AD4C170A 
 1151      D24DCA74 
 1151      9332C0E6 
 1151      A9EC
 1152 0236 D1EA86B9 		.ascii	"\321\352\206\271\360U\0074\325\312a\223\227\213\011"
 1152      F0550734 
 1152      D5CA6193 
 1152      978B09
 1153 0245 D78D352B 		.ascii	"\327\2155+z\011\227\015.\303*!\376\364\324\325!\015"
 1153      7A09970D 
 1153      2EC32A21 
 1153      FEF4D4D5 
 1153      210D
 1154 0257 FE033D20 		.ascii	"\376\003= \011\342\014z\305\204\277n\353\364G\254*\011"
 1154      09E20C7A 
 1154      C584BF6E 
 1154      EBF447AC 
 1154      2A09
 1155 0269 A075143B 		.ascii	"\240u\024;s\242\341\232Q\240\373\010\015\375 \241hy"
 1155      73A2E19A 
 1155      51A0FB08 
 1155      0DFD20A1 
 1155      6879
 1156 027b 26210263 		.ascii	"&!\002c\277AG\323\243\372K\275\007\015!\334+\376\214"
 1156      BF4147D3 
 1156      A3FA4BBD 
 1156      070D21DC 
 1156      2BFE8C
 1157 028e CF5DBC7C 		.ascii	"\317]\274|O]\264\211\241\304\311D\006W\310\251\013u"
 1157      4F5DB489 
 1157      A1C4C944 
 1157      0657C8A9 
 1157      0B75
 1158 02a0 8E4DAE7D 		.ascii	"\216M\256}\205\301\000\371\364K\032\036\304>\257R\303"
 1158      85C100F9 
 1158      F44B1A1E 
 1158      C43EAF52 
 1158      C3
 1159 02b1 F8A9E47A 		.ascii	"\370\251\344zt\225\027t\364\351h\002zq\013{\353f\247"
 1159      74951774 
 1159      F4E96802 
 1159      7A710B7B 
ARM GAS  C:\Users\pc\AppData\Local\Temp\ccUO0QZO.s 			page 93


 1159      EB66A7
 1160 02c4 C3559332 		.ascii	"\303U\2232QG5U\023\206\032\370\002\274\334\000?\343"
 1160      51473555 
 1160      13861AF8 
 1160      02BCDC00 
 1160      3FE3
 1161 02d6 08AF51B7 		.ascii	"\010\257Q\2674\273\361\356\376(\271N\311\317U\206\333"
 1161      34BBF1EE 
 1161      FE28B94E 
 1161      C9CF5586 
 1161      DB
 1162 02e7 8FBD7CFC 		.ascii	"\217\275|\374 F\204\303u\250\2012\274%T\212\301/ c\177"
 1162      204684C3 
 1162      75A88132 
 1162      BC25548A 
 1162      C12F2063 
 1163 02fc 793345C7 		.ascii	"y3E\307\271Z\322\200U\251\371a\317|\343\307b\341h\375"
 1163      B95AD280 
 1163      55A9F961 
 1163      CF7CE3C7 
 1163      62E168FD 
 1164 0310 841C6485 		.ascii	"\204\034d\205l\361\302\011~d\245-\206\033\001p\315\203"
 1164      6CF1C209 
 1164      7E64A52D 
 1164      861B0170 
 1164      CD83
 1165 0322 EBB93C90 		.ascii	"\353\271<\220\2403\257\316\023\305{\324}\035\231/8j"
 1165      A033AFCE 
 1165      13C57BD4 
 1165      7D1D992F 
 1165      386A
 1166 0334 5C2EDBCD 		.ascii	"\\.\333\315e\262\015Al%\227B\363\335+-\3514\360A5\337"
 1166      65B20D41 
 1166      6C259742 
 1166      F3DD2B2D 
 1166      E934F041 
 1167 034a 6733DD2F 		.ascii	"g3\335/-\227\356\3262\351nS:-\366\277\367pa\337\331"
 1167      2D97EED6 
 1167      32E96E53 
 1167      3A2DF6BF 
 1167      F77061DF 
 1168 035f 91B9E4D0 		.ascii	"\221\271\344\320\371\316\305\177BATWt\242\216\332\260"
 1168      F9CEC57F 
 1168      42415457 
 1168      74A28EDA 
 1168      B0
 1169 0370 64627750 		.ascii	"dbwP\242\273$\345]\222OUPz\222\263\011T\207\016+\005"
 1169      A2BB24E5 
 1169      5D924F55 
 1169      507A92B3 
 1169      0954870E 
 1170 0386 B80F7BFE 		.ascii	"\270\017{\376n\214\021\322\336\010\226\226\252\004Y"
 1170      6E8C11D2 
 1170      DE089696 
 1170      AA0459
 1171 0395 B7C9F243 		.ascii	"\267\311\362C~og\"\331\"\265N\360.\306%\351\217\301"
 1171      7E6F6722 
ARM GAS  C:\Users\pc\AppData\Local\Temp\ccUO0QZO.s 			page 94


 1171      D922B54E 
 1171      F02EC625 
 1171      E98FC1
 1172 03a8 C516456E 		.ascii	"\305\026En\337\275\250Q\003@\2240<\367\254\206I\016"
 1172      DFBDA851 
 1172      03409430 
 1172      3CF7AC86 
 1172      490E
 1173 03ba 60535030 		.ascii	"`SP0\334\336z\346f\350\206W\374\025\377\021\305\004"
 1173      DCDE7AE6 
 1173      66E88657 
 1173      FC15FF11 
 1173      C504
 1174 03cc 54085FA2 		.ascii	"T\010_\242\302\0102\036%\025F\325'\367\334\271\251!"
 1174      C208321E 
 1174      251546D5 
 1174      27F7DCB9 
 1174      A921
 1175 03de 5DCE3F8A 		.ascii	"]\316?\212\336\313\215\345\334H~\006c\220C\276\312\346"
 1175      DECB8DE5 
 1175      DC487E06 
 1175      639043BE 
 1175      CAE6
 1176 03f0 875D5ABA 		.ascii	"\207]Z\272\302\021\240\207_!\006\213zy\244hL\012z\262"
 1176      C211A087 
 1176      5F21068B 
 1176      7A79A468 
 1176      4C0A7AB2 
 1177 0404 E8B90CBE 		.ascii	"\350\271\014\276\377H\015\374\301/\220\372\\\006\036"
 1177      FF480DFC 
 1177      C12F90FA 
 1177      5C061E
 1178 0413 8585EA91 		.ascii	"\205\205\352\2216\343\342\276\373\305\276\217\213}\017"
 1178      36E3E2BE 
 1178      FBC5BE8F 
 1178      8B7D0F
 1179 0422 5DEE0975 		.ascii	"]\356\011u\271\207\375%M;E\015\306\356\323L\212\317"
 1179      B987FD25 
 1179      4D3B450D 
 1179      C6EED34C 
 1179      8ACF
 1180 0434 5A5519B5 		.ascii	"ZU\031\265$\306>\254\206T\020\266\336\374\226\274\331"
 1180      24C63EAC 
 1180      865410B6 
 1180      DEFC96BC 
 1180      D9
 1181 0445 6ADB614B 		.ascii	"j\333aKqg\245\333\034\352\371\203\224\204\215o\310\016"
 1181      7167A5DB 
 1181      1CEAF983 
 1181      94848D6F 
 1181      C80E
 1182 0457 97EC74CB 		.ascii	"\227\354t\313.\247Y6[\335V\247%-\335\265\316\314\244"
 1182      2EA75936 
 1182      5BDD56A7 
 1182      252DDDB5 
 1182      CECCA4
 1183 046a 5D4E4BB6 		.ascii	"]NK\266\224i\331\355\226\3346\273\345\177\361\266Ls"
ARM GAS  C:\Users\pc\AppData\Local\Temp\ccUO0QZO.s 			page 95


 1183      9469D9ED 
 1183      96DC36BB 
 1183      E57FF1B6 
 1183      4C73
 1184 047c 4656BA05 		.ascii	"FV\272\005s\270\366\270\326Y\2316;-#\313\362\356\212"
 1184      73B8F6B8 
 1184      D6599936 
 1184      3B2D23CB 
 1184      F2EE8A
 1185 048f 30B3C36E 		.ascii	"0\263\303nwd\312\273\034N\267K~/9is\322n\304\233\035"
 1185      7764CABB 
 1185      1C4EB74B 
 1185      7E2F3969 
 1185      73D26EC4 
 1186 04a5 4E4B6AF6 		.ascii	"NKj\366F;&y\377Y\340HQ\336\234\224\2625\345\011\007"
 1186      463B2679 
 1186      FF59E048 
 1186      51DE9C94 
 1186      B235E509 
 1187 04ba BBCBE64A 		.ascii	"\273\313\346J\335i6c\212\350\244\224d\323\2164\227e"
 1187      DD693663 
 1187      8AE8A494 
 1187      64D38E34 
 1187      9765
 1188 04cc 97D3B6D6 		.ascii	"\227\323\266\326\024\273\236i\234Lg\267\330\035\316"
 1188      14BB9E69 
 1188      9C4C67B7 
 1188      D81DCE
 1189 04db 3D6CCB8A 		.ascii	"=l\313\212\351\255i\031\001j)\333\2236\274.o\333\266"
 1189      E9AD6919 
 1189      016A29DB 
 1189      9336BC2E 
 1189      6FDBB6
 1190 04ee 45DEBE35 		.ascii	"E\336\2765);\201<\251.wjFF:\026\220\237]\231l7\306o"
 1190      293B813C 
 1190      A92E776A 
 1190      46463A16 
 1190      909F5D99 
 1191 0506 7A5E4968 		.ascii	"z^Ih\014NR\326\345Ns\272\271%3=\361\331K/\016\326\312"
 1191      0C4E52D6 
 1191      E54E73BA 
 1191      B925333D 
 1191      F1D94B2F 
 1192 051d FE05E9AC 		.ascii	"\376\005\351\254%\267"
 1192      25B7
 1193              		.text
 1194              		.section	.gnu.lto_chThdYield.6ed9512f,"",%progbits
 1195 0000 789C9554 		.ascii	"x\234\225T_lSU\030\377\276{N\377\260\215\311\223O}\350"
 1195      5F6C5355 
 1195      18FFBE7B 
 1195      4EFFB08D 
 1195      C9934F7D 
 1196 0015 1E162121 		.ascii	"\036\026!!\275,!\022x \321%&>,F\372\342\213!\343\266"
 1196      BD2C2112 
 1196      7820D125 
 1196      263E2C46 
 1196      FAE28B21 
ARM GAS  C:\Users\pc\AppData\Local\Temp\ccUO0QZO.s 			page 96


 1197 002b A14D2825 		.ascii	"\241M(%\275\035\201\247\035\333aG&\306\250\353H\355"
 1197      BD1D81A7 
 1197      1DDB6147 
 1197      26C6A8EB 
 1197      48ED
 1198 003d 5CD50779 		.ascii	"\\\325\007ya\"\340f\2671\353\212\314\242\2031\006\003"
 1198      6122E066 
 1198      B731EB8A 
 1198      CCA28331 
 1198      0603
 1199 004f 07535828 		.ascii	"\007SX(A\033\"&&\376\311\246\3379\267\233]\207\023o"
 1199      411B2226 
 1199      26FEC9A6 
 1199      DF39B79B 
 1199      5D87136F 
 1200 0063 D29B73CF 		.ascii	"\322\233s\317\367\375\276\357\367\373\235\363\325\016"
 1200      F7FDBEEF 
 1200      F7FB9DF3 
 1200      D50E
 1201 0071 00033680 		.ascii	"\000\0036\200\355\010\260\225\326h\003\324\336\272\004"
 1201      ED08B095 
 1201      D66803D4 
 1201      DEBA04
 1202 0080 F09A53D3 		.ascii	"\360\232S\323\330\244\013D\015\3175\201\250c\310\255"
 1202      D8A40B44 
 1202      0DCF3581 
 1202      A863C8AD 
 1203 0090 6D8E2817 		.ascii	"m\216(\027\302\211\320\2561\216\355\370\006{\227\341"
 1203      C289D0AE 
 1203      318EEDF8 
 1203      067B97E1 
 1204 00a0 58A298D5 		.ascii	"X\242\230\3256},\350\311\365\014x\356\210I\301\322\014"
 1204      367D2CE8 
 1204      C9F50C78 
 1204      EE8849C1 
 1204      D20C
 1205 00b2 20493FF9 		.ascii	" I?\371\340\031\334\004\224w\367\323\305\356\365vn\355"
 1205      E019DC04 
 1205      9477F7D3 
 1205      C5EEF576 
 1205      6EED
 1206 00c4 E359B4E3 		.ascii	"\343Y\264\343\362f\207\002/f\031S\201$\303J\000~F\271"
 1206      F2668702 
 1206      2F661953 
 1206      8124C34A 
 1206      007E46B9 
 1207 00d8 036887AA 		.ascii	"\003h\207\252\374\331\3423v\220\201$\323d\354J\307\251"
 1207      FCD9E233 
 1207      76908124 
 1207      D364EC4A 
 1207      C7A9
 1208 00ea 34EBA2DE 		.ascii	"4\353\242\336\210\234>\037M\244\346\353\345\247\206"
 1208      889C3E1F 
 1208      4DA4E6EB 
 1208      E5A786
 1209 00f9 6EFABC3F 		.ascii	"n\372\274?\222\230F\346S\225K\305\316\034o\374H\210"
 1209      929846E6 
ARM GAS  C:\Users\pc\AppData\Local\Temp\ccUO0QZO.s 			page 97


 1209      53954BC5 
 1209      CE1C6FFC 
 1209      4888
 1210 010b 98C8CDF4 		.ascii	"\230\310\315\364n\354\215w\035\023\231\330\2064c8\204"
 1210      6EEC8D77 
 1210      1D1399D8 
 1210      86346338 
 1210      84
 1211 011c 8C086216 		.ascii	"\214\010b\026]\3709\272\224\200\252\266\017{)m\030\033"
 1211      5DF839BA 
 1211      9480AAB6 
 1211      0F7B296D 
 1211      181B
 1212 012e 0107656B 		.ascii	"\001\007ek\266\202\352\010Q=GT\345\213\214\205O\246"
 1212      B682EA08 
 1212      513D4754 
 1212      E58B8C85 
 1212      4FA6
 1213 0140 6C39B1F8 		.ascii	"l9\261\370W\202\254y:;\337u\354\327\027j4H3\316\350"
 1213      5782AC79 
 1213      3A3BDF75 
 1213      ECD7176A 
 1213      344833CE 
 1214 0155 65E37265 		.ascii	"e\343re\223+\200Nr\205\334\02598Jjh\025\317A\021\265"
 1214      932B804E 
 1214      7285DC15 
 1214      39384A6A 
 1214      6815CF41 
 1215 016b C7B04DAD 		.ascii	"\307\260M\255\315\026G\261\221@\211\007\342\034\227"
 1215      CD1647B1 
 1215      91408907 
 1215      E21C97
 1216 017a EA19BAF1 		.ascii	"\352\031\272\361\013\212\375\204\261\273\367\223\247"
 1216      0B8AFD84 
 1216      B1BBF793 
 1216      A7
 1217 0187 A6AA5D7F 		.ascii	"\246\252]\177g\310\203e\327\371*\207_\337I\267\"'c\266"
 1217      67C88365 
 1217      D7F92A87 
 1217      5FDF49B7 
 1217      222763B6 
 1218 019b EAD8D5DE 		.ascii	"\352\330\325\336\215\3571\331\014\360\313\325>\214\221"
 1218      8DEF31D9 
 1218      0CF0CBD5 
 1218      3E8C91
 1219 01aa FCBCF421 		.ascii	"\374\274\364!/}@(\311\266\037\366\235\376\255\246a\001"
 1219      2F7D4028 
 1219      C9B61FF6 
 1219      9DFEADA6 
 1219      6101
 1220 01bc FBC47177 		.ascii	"\373\304qw\232\251\363<9?,\234\\#\332\347\261AY\375"
 1220      9AA9F33C 
 1220      393F2C9C 
 1220      5C23DAE7 
 1220      B14159FD 
 1221 01d0 73697A56 		.ascii	"sizV\243\035\374\012\271\"\016xA\235\347\211\321\374"
 1221      A31DFC0A 
ARM GAS  C:\Users\pc\AppData\Local\Temp\ccUO0QZO.s 			page 98


 1221      B9220E78 
 1221      419DE789 
 1221      D1FC
 1222 01e2 BDBA06A1 		.ascii	"\275\272\006\241Yh\207\314\375\245\377\364\265Z\205"
 1222      596887CC 
 1222      FDA5FFF4 
 1222      B55A85
 1223 01f1 1E9768FC 		.ascii	"\036\227h\374\0329\231\026s+\023\000~\304\330\320\357"
 1223      1A399916 
 1223      732B1300 
 1223      7EC4D8D0 
 1223      EF
 1224 0202 C70BC5D4 		.ascii	"\307\013\305\324\326*\356=#\236\246\262f\373\012\332"
 1224      D62AEE3D 
 1224      239EA6B2 
 1224      66FB0ADA 
 1225 0212 05627B71 		.ascii	"\005b{q\365M\033/l\356\237'\031\027%\302\261\002\361"
 1225      F54D1B2F 
 1225      6CEE9F27 
 1225      191725C2 
 1225      B102F1
 1226 0225 0D21BE95 		.ascii	"\015!\276\225B\351\225b\032\205\222G\306.;\244\363N"
 1226      42E99562 
 1226      1A859247 
 1226      C62E3BA4 
 1226      F34E
 1227 0237 75D7B2D9 		.ascii	"u\327\262\331\322\254\243}A8i#\303\254\353t6\376\350"
 1227      D2ACA37D 
 1227      41386923 
 1227      C3ACEB74 
 1227      36FEE8
 1228 024a EDFA0CBE 		.ascii	"\355\372\014\276\217i\266\016/\321 MH\235\024\030\030"
 1228      8F69B60E 
 1228      2FD1204D 
 1228      489D1418 
 1228      18
 1229 025b BFF5A753 		.ascii	"\277\365\247S?)\233f\006\257\177\200\224P\203\2271\203"
 1229      3F299B66 
 1229      06AF7F80 
 1229      94508397 
 1229      3183
 1230 026d DD8494BD 		.ascii	"\335\204\224\275d\322\0373\361#\232\225DF\324\342$\352"
 1230      64D21F33 
 1230      F1239A95 
 1230      4446D4E2 
 1230      24EA
 1231 027f DD34314B 		.ascii	"\33541K\341\236\205a\327r\224\343\025\031\325\254(N"
 1231      E19E8561 
 1231      D77294E3 
 1231      1519D5AC 
 1231      284E
 1232 0291 A1AE5C59 		.ascii	"\241\256\\Yg\321e\225t\271\242;26q\301nQ\253#=x\265"
 1232      67D16595 
 1232      74B9A23B 
 1232      323671C1 
 1232      6E51AB23 
 1233 02a8 CC6C3A71 		.ascii	"\314l:qc\256v\271\354z\234V\244X\271\356\265r\335\302"
ARM GAS  C:\Users\pc\AppData\Local\Temp\ccUO0QZO.s 			page 99


 1233      63AE76B9 
 1233      EC7A9C56 
 1233      A458B9EE 
 1233      B572DDC2 
 1234 02bc 2B5661FE 		.ascii	"+Va\376$\302\257?^\270[j\236YS3\307\033R\025/w\277\271"
 1234      24C2AF3F 
 1234      5EB85B6A 
 1234      9E595333 
 1234      C71B5215 
 1235 02d4 D4FD55AB 		.ascii	"\324\375U\253\273m\225\016\376\257:\276[\241c\226*\335"
 1235      BB6D950E 
 1235      FEAF3ABE 
 1235      5BA16396 
 1235      2ADD
 1236 02e6 C38E9BF9 		.ascii	"\303\216\233\371\271\376<\312\343&\217Rr<\3519JY\223"
 1236      B9FE3CCA 
 1236      E3268F52 
 1236      723CE939 
 1236      4A5993
 1237 02f9 2E1ACB12 		.ascii	".\032\313\022\3063gf^^\272(\025:\353\223t\350\005Y\350"
 1237      C6336766 
 1237      5E5EBA28 
 1237      153AEB93 
 1237      74E80559 
 1238 030e 16B6D35C 		.ascii	"\026\266\323\\?\245`\274b\234\345\037G\245\351\362\334"
 1238      3FA560BC 
 1238      629CE51F 
 1238      47A5E9F2 
 1238      DC
 1239 031f 6E574EA7 		.ascii	"nWN\247\365\307Q\036\230\305\276;\243\265K\263p[\315"
 1239      F5C7511E 
 1239      98C5BE3B 
 1239      A3B54BB3 
 1239      705BCD
 1240 0332 C29C9A85 		.ascii	"\302\234\232\205\352\213\377\275u\361\177x\360\346\320"
 1240      EA8BFFBD 
 1240      75F17F78 
 1240      F0E6D0
 1241 0341 5ED503E0 		.ascii	"^\325\003\340!}v\235\030\344\362\232+\376\235\324\213"
 1241      217D769D 
 1241      18E4F29A 
 1241      2BFE9DD4 
 1241      8B
 1242 0352 8810688B 		.ascii	"\210\020h\213\261Co\016\004\367\004\275\3216_0l\255"
 1242      B1436F0E 
 1242      04F704BD 
 1242      D1365F30 
 1242      6CAD
 1243 0364 5FF2366D 		.ascii	"_\3626m{V\017\233z$\252\233\021C7\002\321@\304\337\352"
 1243      7B560F9B 
 1243      7A24AA9B 
 1243      11433702 
 1243      D140C4DF 
 1244 0379 333DC67F 		.ascii	"3=\306\177\003\202\373\215}m>?\201\314\303\246'\000"
 1244      0382FB8D 
 1244      7D6D3E3F 
 1244      81CCC3A6 
ARM GAS  C:\Users\pc\AppData\Local\Temp\ccUO0QZO.s 			page 100


 1244      2700
 1245 038b B683ADFB 		.ascii	"\266\203\255\373\332\374;\327\204\031\341P(\274_?\020"
 1245      DAFC3BD7 
 1245      8419E150 
 1245      28BC5F3F 
 1245      10
 1246 039c 8E444DFD 		.ascii	"\216DM\375\271]-\315-\207\010o\204#\376\335\007\267"
 1246      B95D2DCD 
 1246      2D87086F 
 1246      8423FEDD 
 1246      07B7
 1247 03ae 85A8C8F3 		.ascii	"\205\250\310\363O\002\367\037\212\352\315-\336\027\275"
 1247      4F02F71F 
 1247      8AEACD2D 
 1247      DE17BD
 1248 03bd FF700899 		.ascii	"\377p\010\231As\367^\303\240\022\033Z\274\273\334{Z"
 1248      4173F75E 
 1248      C3A0121B 
 1248      5ABCBBDC 
 1248      7B5A
 1249 03cf 4DFF8148 		.ascii	"M\377\201Hp\263\273q\013h\021p\204\374\241p\34404\375"
 1249      70B3BB71 
 1249      0B681170 
 1249      84FCA170 
 1249      E43034FD 
 1250 03e3 0F5146C0 		.ascii	"\017QF\300G\325\376\006\003\320C,"
 1250      47D5FE06 
 1250      03D0432C 
 1251              		.text
 1252              		.section	.gnu.lto_chThdSuspendS.6ed9512f,"",%progbits
 1253 0000 789C8D53 		.ascii	"x\234\215S\337KSa\030\376\236\363\035\267\371\363\262"
 1253      DF4B5361 
 1253      18FE9EF3 
 1253      1DB7F9F3 
 1253      B2
 1254 0011 2EF24228 		.ascii	".\362B(\021\273\360$FBt\021\364\007t\341?PNa\203P\231"
 1254      11BBF024 
 1254      46427411 
 1254      F40774E1 
 1254      3F504E61 
 1255 0028 F32ED871 		.ascii	"\363.\330qST,\010\311\005\343\024\253\030BP*-\227:k"
 1255      53542C08 
 1255      C905E314 
 1255      AB184250 
 1255      2A2D973A 
 1256 003d 2DF3F76F 		.ascii	"-\363\367o\202\202B,I0M\320(\314\312z\337\263\025\313"
 1256      8282422C 
 1256      49304DD0 
 1256      28CCCA7A 
 1256      DFB315CB 
 1257 0051 1A76E09C 		.ascii	"\032v\340\234\363~\337\367\276\357\363\274\317\303g"
 1257      F37EDFF7 
 1257      BEEFF3BC 
 1257      CFC367
 1258 0060 114294A9 		.ascii	"\021B\224\251B\324\320\377\020\275\220\002\312\225\031"
 1258      42D4D0FF 
 1258      10BD9002 
ARM GAS  C:\Users\pc\AppData\Local\Temp\ccUO0QZO.s 			page 101


 1258      CA9519
 1259 006f 211A6D0A 		.ascii	"!\032m\012\300\201n\203\360(\360\340\222\274*1\337\324"
 1259      C0816E83 
 1259      F028F0E0 
 1259      92BC2A31 
 1259      DFD4
 1260 0081 63C87669 		.ascii	"c\310viP\232J\313\315\351\300r\036/\201\002Z\206\206"
 1260      509A4ACB 
 1260      CDE9C072 
 1260      1E2F8102 
 1260      5A8686
 1261 0094 7C511477 		.ascii	"|Q\024w\351\364\304\256m\227l\206\347\364LC*\302O\351"
 1261      E9F4C4AE 
 1261      6D976C86 
 1261      E7F44C43 
 1261      2AC24FE9 
 1262 00a8 61E4E33E 		.ascii	"a\344\343>\362\031\343\001\212)\271\245\255w-K\226A"
 1262      F219E301 
 1262      8A29B9A5 
 1262      AD772D4B 
 1262      9641
 1263 00ba 50DCF1A9 		.ascii	"P\334\361\251i\026E!]\367\352\261\251\220\324\217\030"
 1263      69164521 
 1263      5DF7EAB1 
 1263      A990D48F 
 1263      18
 1264 00cb 52A20F32 		.ascii	"R\242\0172\265\220\266\004\"(\342\374\341w\337\026\262"
 1264      B590B604 
 1264      2228E2FC 
 1264      E177DF16 
 1264      B2
 1265 00dc 65B959BB 		.ascii	"e\271Y\273\326:\326e+\274m\326n\014\312\353a]o;mH\025"
 1265      D63AD665 
 1265      2BBC6DD6 
 1265      6E0CCAEB 
 1265      615D6F3B 
 1266 00f3 0FFFACE7 		.ascii	"\017\377\254\347\207\322\337\366\356v\346ZT\364\243"
 1266      87D2DFF6 
 1266      EE76E65A 
 1266      54F4A3
 1267 0102 30280553 		.ascii	"0(\005S#F\003\260\010P\320\275\220\021\323w\177\264"
 1267      234603B0 
 1267      0850D0BD 
 1267      9011D377 
 1267      7FB4
 1268 0114 E8B19541 		.ascii	"\350\261\225A\274\231\374\034=\234\251\020\260J\363"
 1268      BC99FC1C 
 1268      3D9CA910 
 1268      B04AF3
 1269 0123 11B29543 		.ascii	"\021\262\225C\233\340\211D+\325\221<zL\264\321\222\""
 1269      9BE08944 
 1269      2BD5913C 
 1269      7A4CB4D1 
 1269      9222
 1270 0135 5F4CBC87 		.ascii	"_L\274\207w\340\313\316v\350\350o\230\246\204\024;%"
 1270      77E0CBCE 
 1270      76E8E86F 
ARM GAS  C:\Users\pc\AppData\Local\Temp\ccUO0QZO.s 			page 102


 1270      98A68414 
 1270      3B25
 1271 0147 F3D204F1 		.ascii	"\363\322\004\361K\244p\020\030\204\005Q\306\246O@*t"
 1271      4BA47010 
 1271      18840551 
 1271      C6A64F40 
 1271      2A74
 1272 0159 E46F8ECF 		.ascii	"\344o\216\317ZY\321\0143\263\277\177\375\225\325\363"
 1272      5A59D10C 
 1272      33B3BF7F 
 1272      FD95D5F3 
 1273 0169 5DB7D146 		.ascii	"]\267\321F\220\212y/\354\333\354\310\013\342\006\014"
 1273      908A792F 
 1273      ECDBECC8 
 1273      0BE2060C 
 1274 0179 69C12372 		.ascii	"i\301#rf\210\247\243\203\276\321\327_m\332]\306\\Z["
 1274      6688A7A3 
 1274      83BED1D7 
 1274      5F6DDA5D 
 1274      C65C5A5B 
 1275 018d 3E384C5D 		.ascii	">8L]\254x\214 :\211,cq\322\316\013_\263\222H\012\336"
 1275      AC788C20 
 1275      3A892C63 
 1275      71D2CE0B 
 1275      5FB39248 
 1276 01a3 01EB1483 		.ascii	"\001\353\024\203\326I\255\315\004<\201&V\340]j\037\212"
 1276      D649ADCD 
 1276      043C8126 
 1276      56E05D6A 
 1276      1F8A
 1277 01b5 B89931EB 		.ascii	"\270\2311\353$x2\377\352x\344\034\357\244\222L\214\023"
 1277      247832FF 
 1277      EA78E41C 
 1277      EFA4924C 
 1277      8C13
 1278 01c7 8D4F8F58 		.ascii	"\215O\217X\210P#\367\3143\244-@\007q&\205\247\204N\203"
 1278      885023F7 
 1278      CC33A42D 
 1278      40077126 
 1278      85A7844E 
 1279 01dc 7183C0EA 		.ascii	"q\203\300\352D\344\342\336\006\352\337\015\016\0302"
 1279      44E4E2DE 
 1279      06EADF0D 
 1279      0E1832
 1280 01eb 934A309C 		.ascii	"\223J0\234\234\352y\313\313\305\354\004\341\002Cf\341"
 1280      9CEA79CB 
 1280      CBC5EC04 
 1280      E1024366 
 1280      E1
 1281 01fc 99399092 		.ascii	"\2319\220\222p\363\336\007\357\214\232\234\246\222\371"
 1281      70F3DE07 
 1281      EF8C9A9C 
 1281      A692F9
 1282 020b 8CF030A6 		.ascii	"\214\3600\246\247\243\320\210\207XGS\260{\261\324\264"
 1282      A7A3D088 
 1282      87584753 
 1282      B07BB1D4 
ARM GAS  C:\Users\pc\AppData\Local\Temp\ccUO0QZO.s 			page 103


 1282      B4
 1283 021c F84F41B3 		.ascii	"\370OA\263\375\334\005c\360\360A|\253\247+\207)\345"
 1283      FDDC0563 
 1283      F0F0417C 
 1283      ABA72B87 
 1283      29E5
 1284 022e 40621CF9 		.ascii	"@b\034\371\206\314Moh@\273\371oC'H\261I\326q\222\015"
 1284      86CC4D6F 
 1284      6840BBF9 
 1284      6F432748 
 1284      B149D671 
 1285 0244 B5FE8F83 		.ascii	"\265\376\217\203S\37398\375\313\301\211t\016\316$\035"
 1285      53FB3938 
 1285      FDCBC189 
 1285      740ECE24 
 1285      1D
 1286 0255 E404CC92 		.ascii	"\344\004\314\222\203&\361[\037/\237b\216\001i\333\253"
 1286      8326F15B 
 1286      1F2F9F62 
 1286      8E0169DB 
 1286      AB
 1287 0266 F10A84A9 		.ascii	"\361\012\204\251\2625\255\312s\351T\336\"D\005\363\214"
 1287      B235ADCA 
 1287      73E954DE 
 1287      224405F3 
 1287      8C
 1288 0277 A8B2CC0B 		.ascii	"\250\262\314\013\004\267\001oA\022\211oY+q\241\033A"
 1288      04B7016F 
 1288      4112896F 
 1288      592B71A1 
 1288      1B41
 1289 0289 C5C7EC27 		.ascii	"\305\307\354'\2653\016g\245\263\302\335P\345\254M\304"
